{
  "contracts/FomoOE.sol": {
    "FomoOE": {
      "abi": [
        {
          "inputs": [],
          "stateMutability": "nonpayable",
          "type": "constructor"
        },
        {
          "anonymous": false,
          "inputs": [
            {
              "indexed": false,
              "internalType": "uint256",
              "name": "_balanceReceived",
              "type": "uint256"
            }
          ],
          "name": "contractBalance",
          "type": "event"
        },
        {
          "anonymous": false,
          "inputs": [
            {
              "indexed": false,
              "internalType": "uint256",
              "name": "keyPrice",
              "type": "uint256"
            }
          ],
          "name": "currentKeyPrice",
          "type": "event"
        },
        {
          "anonymous": false,
          "inputs": [
            {
              "indexed": false,
              "internalType": "uint256",
              "name": "_userKeyBalance",
              "type": "uint256"
            },
            {
              "indexed": false,
              "internalType": "uint256",
              "name": "_totalKeys",
              "type": "uint256"
            },
            {
              "indexed": false,
              "internalType": "uint256",
              "name": "_keyPrice",
              "type": "uint256"
            },
            {
              "indexed": false,
              "internalType": "uint256",
              "name": "_divPool",
              "type": "uint256"
            },
            {
              "indexed": false,
              "internalType": "uint256",
              "name": "_jackpot",
              "type": "uint256"
            },
            {
              "indexed": false,
              "internalType": "address",
              "name": "_winning",
              "type": "address"
            }
          ],
          "name": "keysPurchased",
          "type": "event"
        },
        {
          "anonymous": false,
          "inputs": [
            {
              "indexed": false,
              "internalType": "uint256",
              "name": "_userDivvies",
              "type": "uint256"
            }
          ],
          "name": "userDivvies",
          "type": "event"
        },
        {
          "inputs": [],
          "name": "balanceReceived",
          "outputs": [
            {
              "internalType": "uint256",
              "name": "",
              "type": "uint256"
            }
          ],
          "stateMutability": "view",
          "type": "function"
        },
        {
          "inputs": [],
          "name": "developerOnePercent",
          "outputs": [
            {
              "internalType": "uint256",
              "name": "",
              "type": "uint256"
            }
          ],
          "stateMutability": "view",
          "type": "function"
        },
        {
          "inputs": [],
          "name": "developerOnePercentAllocation",
          "outputs": [],
          "stateMutability": "nonpayable",
          "type": "function"
        },
        {
          "inputs": [],
          "name": "divPool",
          "outputs": [
            {
              "internalType": "uint256",
              "name": "",
              "type": "uint256"
            }
          ],
          "stateMutability": "view",
          "type": "function"
        },
        {
          "inputs": [
            {
              "internalType": "address",
              "name": "",
              "type": "address"
            }
          ],
          "name": "divTracker",
          "outputs": [
            {
              "internalType": "uint256",
              "name": "_keyBalance",
              "type": "uint256"
            },
            {
              "internalType": "uint256",
              "name": "_divBalance",
              "type": "uint256"
            },
            {
              "internalType": "uint256",
              "name": "_withdrawnAmount",
              "type": "uint256"
            },
            {
              "internalType": "bool",
              "name": "_voted",
              "type": "bool"
            },
            {
              "internalType": "bool",
              "name": "_boughtKeys",
              "type": "bool"
            }
          ],
          "stateMutability": "view",
          "type": "function"
        },
        {
          "inputs": [],
          "name": "getTimeLeft",
          "outputs": [
            {
              "internalType": "uint256",
              "name": "",
              "type": "uint256"
            }
          ],
          "stateMutability": "view",
          "type": "function"
        },
        {
          "inputs": [],
          "name": "getWinner",
          "outputs": [
            {
              "internalType": "address",
              "name": "",
              "type": "address"
            }
          ],
          "stateMutability": "view",
          "type": "function"
        },
        {
          "inputs": [],
          "name": "giveToDeveloper",
          "outputs": [
            {
              "internalType": "uint256",
              "name": "",
              "type": "uint256"
            }
          ],
          "stateMutability": "view",
          "type": "function"
        },
        {
          "inputs": [],
          "name": "giveToJackpot",
          "outputs": [
            {
              "internalType": "uint256",
              "name": "",
              "type": "uint256"
            }
          ],
          "stateMutability": "view",
          "type": "function"
        },
        {
          "inputs": [],
          "name": "jackpot",
          "outputs": [
            {
              "internalType": "uint256",
              "name": "",
              "type": "uint256"
            }
          ],
          "stateMutability": "view",
          "type": "function"
        },
        {
          "inputs": [],
          "name": "jackpotPayout",
          "outputs": [],
          "stateMutability": "nonpayable",
          "type": "function"
        },
        {
          "inputs": [],
          "name": "keyPrice",
          "outputs": [
            {
              "internalType": "uint256",
              "name": "",
              "type": "uint256"
            }
          ],
          "stateMutability": "view",
          "type": "function"
        },
        {
          "inputs": [],
          "name": "keyPurchases",
          "outputs": [
            {
              "internalType": "uint256",
              "name": "",
              "type": "uint256"
            }
          ],
          "stateMutability": "view",
          "type": "function"
        },
        {
          "inputs": [
            {
              "internalType": "uint256",
              "name": "_amount",
              "type": "uint256"
            }
          ],
          "name": "purchaseKeys",
          "outputs": [],
          "stateMutability": "payable",
          "type": "function"
        },
        {
          "inputs": [],
          "name": "startTime",
          "outputs": [
            {
              "internalType": "uint256",
              "name": "",
              "type": "uint256"
            }
          ],
          "stateMutability": "view",
          "type": "function"
        },
        {
          "inputs": [],
          "name": "timeLeft",
          "outputs": [
            {
              "internalType": "uint256",
              "name": "",
              "type": "uint256"
            }
          ],
          "stateMutability": "view",
          "type": "function"
        },
        {
          "inputs": [],
          "name": "totalKeys",
          "outputs": [
            {
              "internalType": "uint256",
              "name": "",
              "type": "uint256"
            }
          ],
          "stateMutability": "view",
          "type": "function"
        },
        {
          "inputs": [],
          "name": "totalTime",
          "outputs": [
            {
              "internalType": "uint256",
              "name": "",
              "type": "uint256"
            }
          ],
          "stateMutability": "view",
          "type": "function"
        },
        {
          "inputs": [
            {
              "internalType": "address",
              "name": "_userAddress",
              "type": "address"
            }
          ],
          "name": "updateDivvies",
          "outputs": [
            {
              "internalType": "uint256",
              "name": "",
              "type": "uint256"
            }
          ],
          "stateMutability": "view",
          "type": "function"
        },
        {
          "inputs": [
            {
              "internalType": "bool",
              "name": "_vote",
              "type": "bool"
            }
          ],
          "name": "voteForOnePercent",
          "outputs": [],
          "stateMutability": "nonpayable",
          "type": "function"
        },
        {
          "inputs": [
            {
              "internalType": "address",
              "name": "_userAddress",
              "type": "address"
            }
          ],
          "name": "whoWon",
          "outputs": [
            {
              "internalType": "address",
              "name": "winner",
              "type": "address"
            }
          ],
          "stateMutability": "view",
          "type": "function"
        },
        {
          "inputs": [],
          "name": "withdrawDivvies",
          "outputs": [],
          "stateMutability": "nonpayable",
          "type": "function"
        }
      ],
      "evm": {
        "bytecode": {
          "linkReferences": {},
          "object": "6080604052660bf5f72abe681060095534801561001b57600080fd5b50600080546001600160a01b03191633179055610deb8061003d6000396000f3fe6080604052600436106101355760003560e01c806378c3171f116100ab5780638e7ea5b21161006f5780638e7ea5b21461033a57806392c5c06e14610358578063acf7084a1461036e578063c7e284b81461038e578063d20bff02146103a3578063e5618fa9146103b857600080fd5b806378c3171f146102cf57806378e97925146102e25780637c2be5dd146102f857806382f964991461030e5780638b80016b1461032457600080fd5b80631fd9300d116100fd5780631fd9300d146101e8578063488bdabc146101fd57806352a90c421461021357806355fcbbff1461022957806358533e0a146102a35780636b31ee01146102b957600080fd5b80630d153c921461013a57806310e5697314610177578063111d3efb1461019b5780631300a6d1146101bd5780631ebe585d146101d3575b600080fd5b34801561014657600080fd5b5061015a610155366004610ccb565b6103ce565b6040516001600160a01b0390911681526020015b60405180910390f35b34801561018357600080fd5b5061018d60095481565b60405190815260200161016e565b3480156101a757600080fd5b506101bb6101b6366004610cf9565b610400565b005b3480156101c957600080fd5b5061018d60065481565b3480156101df57600080fd5b506101bb61053f565b3480156101f457600080fd5b506101bb61065a565b34801561020957600080fd5b5061018d600a5481565b34801561021f57600080fd5b5061018d60085481565b34801561023557600080fd5b50610277610244366004610ccb565b600e6020526000908152604090208054600182015460028301546003909301549192909160ff8082169161010090041685565b60408051958652602086019490945292840191909152151560608301521515608082015260a00161016e565b3480156102af57600080fd5b5061018d60055481565b3480156102c557600080fd5b5061018d600d5481565b6101bb6102dd366004610d19565b6107aa565b3480156102ee57600080fd5b5061018d60045481565b34801561030457600080fd5b5061018d600c5481565b34801561031a57600080fd5b5061018d60035481565b34801561033057600080fd5b5061018d60015481565b34801561034657600080fd5b506007546001600160a01b031661015a565b34801561036457600080fd5b5061018d600b5481565b34801561037a57600080fd5b5061018d610389366004610ccb565b610ad4565b34801561039a57600080fd5b5061018d610b54565b3480156103af57600080fd5b506101bb610b8b565b3480156103c457600080fd5b5061018d60025481565b60006103d8610b54565b1580156103f257506007546001600160a01b038381169116145b156103fb575090565b919050565b336000908152600e602052604090206003015460ff6101009091041615156001146104845760405162461bcd60e51b815260206004820152602960248201527f796f75206e65656420746f20627579206174206c65617374206f6e65206b6579604482015268103a37903b37ba329760b91b60648201526084015b60405180910390fd5b336000908152600e602052604090206003015460ff16156104dc5760405162461bcd60e51b81526020600482015260126024820152713cb7ba9030b63932b0b23c903b37ba32b21760711b604482015260640161047b565b336000908152600e60205260409020600301805460ff191660019081179091558115151415610523576001600260008282546105189190610d31565b9091555061053c9050565b6001600360008282546105369190610d31565b90915550505b50565b600a543390600090819061055657600091506105ce565b600c54336000908152600e60205260409020546105739190610d69565b336000908152600e6020526040902060020154600a54919250906105979083610d49565b6105a19190610d88565b336000908152600e60205260408120600201805492945084929091906105c8908490610d31565b90915550505b6000821161061e5760405162461bcd60e51b815260206004820152601c60248201527f596f752068617665206e6f206469767669657320746f20636c61696d00000000604482015260640161047b565b6040516001600160a01b0384169083156108fc029084906000818181858888f19350505050158015610654573d6000803e3d6000fd5b50505050565b6000546001600160a01b031633146106c75760405162461bcd60e51b815260206004820152602a60248201527f796f75206172656e27742074686520646576656c6f706572206f6620746869736044820152691031b7b73a3930b1ba1760b11b606482015260840161047b565b6106cf610b54565b156107145760405162461bcd60e51b815260206004820152601560248201527467616d65206973207374696c6c20696e20706c617960581b604482015260640161047b565b6003546002541061076357600080546001546040516001600160a01b0390921692839282156108fc029291818181858888f1935050505015801561075c573d6000803e3d6000fd5b50506107a3565b6007546001546040516001600160a01b0390921691829180156108fc02916000818181858888f193505050501580156107a0573d6000803e3d6000fd5b50505b6000600155565b806009546107b89190610d69565b3410156108075760405162461bcd60e51b815260206004820152601d60248201527f6e6f7420656e6f75676820746f2062757920746865206b65792873292e000000604482015260640161047b565b600a5461081657610816610cb9565b6000610820610b54565b1161086d5760405162461bcd60e51b815260206004820152601960248201527f746865726520697320616c726561647920612077696e6e657200000000000000604482015260640161047b565b600061087a346064610d69565b9050600061088a61271083610d49565b905060006108988234610d88565b905060006108a7600283610d49565b905082600160008282546108bb9190610d31565b9250508190555080600d60008282546108d49190610d31565b909155506108e490508183610d88565b600c60008282546108f59190610d31565b9091555050336000908152600e602052604081208054879290610919908490610d31565b9091555050336000908152600e60205260408120600301805461ff001916610100179055600a805487929061094f908490610d31565b9091555050600554610962904290610d88565b61096f9062015180610d88565b61097a86601e610d69565b111561098d57610988610cb9565b6109af565b61099885601e610d69565b600560008282546109a99190610d31565b90915550505b6101f4600b5411156109f057600060095460646109cc9190610d69565b90506109da61271082610d49565b6009546109e79190610d31565b60095550610a21565b60006009546032610a019190610d69565b9050610a0f61271082610d49565b600954610a1c9190610d31565b600955505b6001600b6000828254610a349190610d31565b9091555050600780546001600160a01b031916339081179091556000818152600e60205260409081902054600a54600954600c54600d5494517ff18df1d3dbefaeb22f0e4efe18d279a090ed7b0a9be1c27b33cda2f677ca67d496610ac5969195865260208601949094526040850192909252606084015260808301526001600160a01b031660a082015260c00190565b60405180910390a15050505050565b6000806000600a5460001415610aed5760009150610b4d565b600c546001600160a01b0385166000908152600e6020526040902054610b139190610d69565b6001600160a01b0385166000908152600e6020526040902060020154600a5491925090610b409083610d49565b610b4a9190610d88565b91505b5092915050565b6000600a5460001415610b6957506201518090565b4260055410610b855742600554610b809190610d88565b905090565b50600090565b610b93610b54565b15610bd85760405162461bcd60e51b815260206004820152601560248201527467616d65206973207374696c6c20696e20706c617960581b604482015260640161047b565b6000600d5411610c205760405162461bcd60e51b8152602060048201526013602482015272139bc81b5bdb995e481a5b881a9858dadc1bdd606a1b604482015260640161047b565b6007546001600160a01b03163314610c735760405162461bcd60e51b81526020600482015260166024820152753cb7ba9030b932903737ba103a3432903bb4b73732b960511b604482015260640161047b565b600754600d546040516001600160a01b0390921691829180156108fc02916000818181858888f19350505050158015610cb0573d6000803e3d6000fd5b50506000600d55565b610cc64262015180610d31565b600555565b600060208284031215610cdc578081fd5b81356001600160a01b0381168114610cf2578182fd5b9392505050565b600060208284031215610d0a578081fd5b81358015158114610cf2578182fd5b600060208284031215610d2a578081fd5b5035919050565b60008219821115610d4457610d44610d9f565b500190565b600082610d6457634e487b7160e01b81526012600452602481fd5b500490565b6000816000190483118215151615610d8357610d83610d9f565b500290565b600082821015610d9a57610d9a610d9f565b500390565b634e487b7160e01b600052601160045260246000fdfea26469706673582212201c48b414d7156ed5ebad5532f1442a39f17a3efaf7743c26dd860c36089e23bc64736f6c63430008040033",
          "opcodes": "PUSH1 0x80 PUSH1 0x40 MSTORE PUSH7 0xBF5F72ABE6810 PUSH1 0x9 SSTORE CALLVALUE DUP1 ISZERO PUSH2 0x1B JUMPI PUSH1 0x0 DUP1 REVERT JUMPDEST POP PUSH1 0x0 DUP1 SLOAD PUSH1 0x1 PUSH1 0x1 PUSH1 0xA0 SHL SUB NOT AND CALLER OR SWAP1 SSTORE PUSH2 0xDEB DUP1 PUSH2 0x3D PUSH1 0x0 CODECOPY PUSH1 0x0 RETURN INVALID PUSH1 0x80 PUSH1 0x40 MSTORE PUSH1 0x4 CALLDATASIZE LT PUSH2 0x135 JUMPI PUSH1 0x0 CALLDATALOAD PUSH1 0xE0 SHR DUP1 PUSH4 0x78C3171F GT PUSH2 0xAB JUMPI DUP1 PUSH4 0x8E7EA5B2 GT PUSH2 0x6F JUMPI DUP1 PUSH4 0x8E7EA5B2 EQ PUSH2 0x33A JUMPI DUP1 PUSH4 0x92C5C06E EQ PUSH2 0x358 JUMPI DUP1 PUSH4 0xACF7084A EQ PUSH2 0x36E JUMPI DUP1 PUSH4 0xC7E284B8 EQ PUSH2 0x38E JUMPI DUP1 PUSH4 0xD20BFF02 EQ PUSH2 0x3A3 JUMPI DUP1 PUSH4 0xE5618FA9 EQ PUSH2 0x3B8 JUMPI PUSH1 0x0 DUP1 REVERT JUMPDEST DUP1 PUSH4 0x78C3171F EQ PUSH2 0x2CF JUMPI DUP1 PUSH4 0x78E97925 EQ PUSH2 0x2E2 JUMPI DUP1 PUSH4 0x7C2BE5DD EQ PUSH2 0x2F8 JUMPI DUP1 PUSH4 0x82F96499 EQ PUSH2 0x30E JUMPI DUP1 PUSH4 0x8B80016B EQ PUSH2 0x324 JUMPI PUSH1 0x0 DUP1 REVERT JUMPDEST DUP1 PUSH4 0x1FD9300D GT PUSH2 0xFD JUMPI DUP1 PUSH4 0x1FD9300D EQ PUSH2 0x1E8 JUMPI DUP1 PUSH4 0x488BDABC EQ PUSH2 0x1FD JUMPI DUP1 PUSH4 0x52A90C42 EQ PUSH2 0x213 JUMPI DUP1 PUSH4 0x55FCBBFF EQ PUSH2 0x229 JUMPI DUP1 PUSH4 0x58533E0A EQ PUSH2 0x2A3 JUMPI DUP1 PUSH4 0x6B31EE01 EQ PUSH2 0x2B9 JUMPI PUSH1 0x0 DUP1 REVERT JUMPDEST DUP1 PUSH4 0xD153C92 EQ PUSH2 0x13A JUMPI DUP1 PUSH4 0x10E56973 EQ PUSH2 0x177 JUMPI DUP1 PUSH4 0x111D3EFB EQ PUSH2 0x19B JUMPI DUP1 PUSH4 0x1300A6D1 EQ PUSH2 0x1BD JUMPI DUP1 PUSH4 0x1EBE585D EQ PUSH2 0x1D3 JUMPI JUMPDEST PUSH1 0x0 DUP1 REVERT JUMPDEST CALLVALUE DUP1 ISZERO PUSH2 0x146 JUMPI PUSH1 0x0 DUP1 REVERT JUMPDEST POP PUSH2 0x15A PUSH2 0x155 CALLDATASIZE PUSH1 0x4 PUSH2 0xCCB JUMP JUMPDEST PUSH2 0x3CE JUMP JUMPDEST PUSH1 0x40 MLOAD PUSH1 0x1 PUSH1 0x1 PUSH1 0xA0 SHL SUB SWAP1 SWAP2 AND DUP2 MSTORE PUSH1 0x20 ADD JUMPDEST PUSH1 0x40 MLOAD DUP1 SWAP2 SUB SWAP1 RETURN JUMPDEST CALLVALUE DUP1 ISZERO PUSH2 0x183 JUMPI PUSH1 0x0 DUP1 REVERT JUMPDEST POP PUSH2 0x18D PUSH1 0x9 SLOAD DUP2 JUMP JUMPDEST PUSH1 0x40 MLOAD SWAP1 DUP2 MSTORE PUSH1 0x20 ADD PUSH2 0x16E JUMP JUMPDEST CALLVALUE DUP1 ISZERO PUSH2 0x1A7 JUMPI PUSH1 0x0 DUP1 REVERT JUMPDEST POP PUSH2 0x1BB PUSH2 0x1B6 CALLDATASIZE PUSH1 0x4 PUSH2 0xCF9 JUMP JUMPDEST PUSH2 0x400 JUMP JUMPDEST STOP JUMPDEST CALLVALUE DUP1 ISZERO PUSH2 0x1C9 JUMPI PUSH1 0x0 DUP1 REVERT JUMPDEST POP PUSH2 0x18D PUSH1 0x6 SLOAD DUP2 JUMP JUMPDEST CALLVALUE DUP1 ISZERO PUSH2 0x1DF JUMPI PUSH1 0x0 DUP1 REVERT JUMPDEST POP PUSH2 0x1BB PUSH2 0x53F JUMP JUMPDEST CALLVALUE DUP1 ISZERO PUSH2 0x1F4 JUMPI PUSH1 0x0 DUP1 REVERT JUMPDEST POP PUSH2 0x1BB PUSH2 0x65A JUMP JUMPDEST CALLVALUE DUP1 ISZERO PUSH2 0x209 JUMPI PUSH1 0x0 DUP1 REVERT JUMPDEST POP PUSH2 0x18D PUSH1 0xA SLOAD DUP2 JUMP JUMPDEST CALLVALUE DUP1 ISZERO PUSH2 0x21F JUMPI PUSH1 0x0 DUP1 REVERT JUMPDEST POP PUSH2 0x18D PUSH1 0x8 SLOAD DUP2 JUMP JUMPDEST CALLVALUE DUP1 ISZERO PUSH2 0x235 JUMPI PUSH1 0x0 DUP1 REVERT JUMPDEST POP PUSH2 0x277 PUSH2 0x244 CALLDATASIZE PUSH1 0x4 PUSH2 0xCCB JUMP JUMPDEST PUSH1 0xE PUSH1 0x20 MSTORE PUSH1 0x0 SWAP1 DUP2 MSTORE PUSH1 0x40 SWAP1 KECCAK256 DUP1 SLOAD PUSH1 0x1 DUP3 ADD SLOAD PUSH1 0x2 DUP4 ADD SLOAD PUSH1 0x3 SWAP1 SWAP4 ADD SLOAD SWAP2 SWAP3 SWAP1 SWAP2 PUSH1 0xFF DUP1 DUP3 AND SWAP2 PUSH2 0x100 SWAP1 DIV AND DUP6 JUMP JUMPDEST PUSH1 0x40 DUP1 MLOAD SWAP6 DUP7 MSTORE PUSH1 0x20 DUP7 ADD SWAP5 SWAP1 SWAP5 MSTORE SWAP3 DUP5 ADD SWAP2 SWAP1 SWAP2 MSTORE ISZERO ISZERO PUSH1 0x60 DUP4 ADD MSTORE ISZERO ISZERO PUSH1 0x80 DUP3 ADD MSTORE PUSH1 0xA0 ADD PUSH2 0x16E JUMP JUMPDEST CALLVALUE DUP1 ISZERO PUSH2 0x2AF JUMPI PUSH1 0x0 DUP1 REVERT JUMPDEST POP PUSH2 0x18D PUSH1 0x5 SLOAD DUP2 JUMP JUMPDEST CALLVALUE DUP1 ISZERO PUSH2 0x2C5 JUMPI PUSH1 0x0 DUP1 REVERT JUMPDEST POP PUSH2 0x18D PUSH1 0xD SLOAD DUP2 JUMP JUMPDEST PUSH2 0x1BB PUSH2 0x2DD CALLDATASIZE PUSH1 0x4 PUSH2 0xD19 JUMP JUMPDEST PUSH2 0x7AA JUMP JUMPDEST CALLVALUE DUP1 ISZERO PUSH2 0x2EE JUMPI PUSH1 0x0 DUP1 REVERT JUMPDEST POP PUSH2 0x18D PUSH1 0x4 SLOAD DUP2 JUMP JUMPDEST CALLVALUE DUP1 ISZERO PUSH2 0x304 JUMPI PUSH1 0x0 DUP1 REVERT JUMPDEST POP PUSH2 0x18D PUSH1 0xC SLOAD DUP2 JUMP JUMPDEST CALLVALUE DUP1 ISZERO PUSH2 0x31A JUMPI PUSH1 0x0 DUP1 REVERT JUMPDEST POP PUSH2 0x18D PUSH1 0x3 SLOAD DUP2 JUMP JUMPDEST CALLVALUE DUP1 ISZERO PUSH2 0x330 JUMPI PUSH1 0x0 DUP1 REVERT JUMPDEST POP PUSH2 0x18D PUSH1 0x1 SLOAD DUP2 JUMP JUMPDEST CALLVALUE DUP1 ISZERO PUSH2 0x346 JUMPI PUSH1 0x0 DUP1 REVERT JUMPDEST POP PUSH1 0x7 SLOAD PUSH1 0x1 PUSH1 0x1 PUSH1 0xA0 SHL SUB AND PUSH2 0x15A JUMP JUMPDEST CALLVALUE DUP1 ISZERO PUSH2 0x364 JUMPI PUSH1 0x0 DUP1 REVERT JUMPDEST POP PUSH2 0x18D PUSH1 0xB SLOAD DUP2 JUMP JUMPDEST CALLVALUE DUP1 ISZERO PUSH2 0x37A JUMPI PUSH1 0x0 DUP1 REVERT JUMPDEST POP PUSH2 0x18D PUSH2 0x389 CALLDATASIZE PUSH1 0x4 PUSH2 0xCCB JUMP JUMPDEST PUSH2 0xAD4 JUMP JUMPDEST CALLVALUE DUP1 ISZERO PUSH2 0x39A JUMPI PUSH1 0x0 DUP1 REVERT JUMPDEST POP PUSH2 0x18D PUSH2 0xB54 JUMP JUMPDEST CALLVALUE DUP1 ISZERO PUSH2 0x3AF JUMPI PUSH1 0x0 DUP1 REVERT JUMPDEST POP PUSH2 0x1BB PUSH2 0xB8B JUMP JUMPDEST CALLVALUE DUP1 ISZERO PUSH2 0x3C4 JUMPI PUSH1 0x0 DUP1 REVERT JUMPDEST POP PUSH2 0x18D PUSH1 0x2 SLOAD DUP2 JUMP JUMPDEST PUSH1 0x0 PUSH2 0x3D8 PUSH2 0xB54 JUMP JUMPDEST ISZERO DUP1 ISZERO PUSH2 0x3F2 JUMPI POP PUSH1 0x7 SLOAD PUSH1 0x1 PUSH1 0x1 PUSH1 0xA0 SHL SUB DUP4 DUP2 AND SWAP2 AND EQ JUMPDEST ISZERO PUSH2 0x3FB JUMPI POP SWAP1 JUMP JUMPDEST SWAP2 SWAP1 POP JUMP JUMPDEST CALLER PUSH1 0x0 SWAP1 DUP2 MSTORE PUSH1 0xE PUSH1 0x20 MSTORE PUSH1 0x40 SWAP1 KECCAK256 PUSH1 0x3 ADD SLOAD PUSH1 0xFF PUSH2 0x100 SWAP1 SWAP2 DIV AND ISZERO ISZERO PUSH1 0x1 EQ PUSH2 0x484 JUMPI PUSH1 0x40 MLOAD PUSH3 0x461BCD PUSH1 0xE5 SHL DUP2 MSTORE PUSH1 0x20 PUSH1 0x4 DUP3 ADD MSTORE PUSH1 0x29 PUSH1 0x24 DUP3 ADD MSTORE PUSH32 0x796F75206E65656420746F20627579206174206C65617374206F6E65206B6579 PUSH1 0x44 DUP3 ADD MSTORE PUSH9 0x103A37903B37BA3297 PUSH1 0xB9 SHL PUSH1 0x64 DUP3 ADD MSTORE PUSH1 0x84 ADD JUMPDEST PUSH1 0x40 MLOAD DUP1 SWAP2 SUB SWAP1 REVERT JUMPDEST CALLER PUSH1 0x0 SWAP1 DUP2 MSTORE PUSH1 0xE PUSH1 0x20 MSTORE PUSH1 0x40 SWAP1 KECCAK256 PUSH1 0x3 ADD SLOAD PUSH1 0xFF AND ISZERO PUSH2 0x4DC JUMPI PUSH1 0x40 MLOAD PUSH3 0x461BCD PUSH1 0xE5 SHL DUP2 MSTORE PUSH1 0x20 PUSH1 0x4 DUP3 ADD MSTORE PUSH1 0x12 PUSH1 0x24 DUP3 ADD MSTORE PUSH18 0x3CB7BA9030B63932B0B23C903B37BA32B217 PUSH1 0x71 SHL PUSH1 0x44 DUP3 ADD MSTORE PUSH1 0x64 ADD PUSH2 0x47B JUMP JUMPDEST CALLER PUSH1 0x0 SWAP1 DUP2 MSTORE PUSH1 0xE PUSH1 0x20 MSTORE PUSH1 0x40 SWAP1 KECCAK256 PUSH1 0x3 ADD DUP1 SLOAD PUSH1 0xFF NOT AND PUSH1 0x1 SWAP1 DUP2 OR SWAP1 SWAP2 SSTORE DUP2 ISZERO ISZERO EQ ISZERO PUSH2 0x523 JUMPI PUSH1 0x1 PUSH1 0x2 PUSH1 0x0 DUP3 DUP3 SLOAD PUSH2 0x518 SWAP2 SWAP1 PUSH2 0xD31 JUMP JUMPDEST SWAP1 SWAP2 SSTORE POP PUSH2 0x53C SWAP1 POP JUMP JUMPDEST PUSH1 0x1 PUSH1 0x3 PUSH1 0x0 DUP3 DUP3 SLOAD PUSH2 0x536 SWAP2 SWAP1 PUSH2 0xD31 JUMP JUMPDEST SWAP1 SWAP2 SSTORE POP POP JUMPDEST POP JUMP JUMPDEST PUSH1 0xA SLOAD CALLER SWAP1 PUSH1 0x0 SWAP1 DUP2 SWAP1 PUSH2 0x556 JUMPI PUSH1 0x0 SWAP2 POP PUSH2 0x5CE JUMP JUMPDEST PUSH1 0xC SLOAD CALLER PUSH1 0x0 SWAP1 DUP2 MSTORE PUSH1 0xE PUSH1 0x20 MSTORE PUSH1 0x40 SWAP1 KECCAK256 SLOAD PUSH2 0x573 SWAP2 SWAP1 PUSH2 0xD69 JUMP JUMPDEST CALLER PUSH1 0x0 SWAP1 DUP2 MSTORE PUSH1 0xE PUSH1 0x20 MSTORE PUSH1 0x40 SWAP1 KECCAK256 PUSH1 0x2 ADD SLOAD PUSH1 0xA SLOAD SWAP2 SWAP3 POP SWAP1 PUSH2 0x597 SWAP1 DUP4 PUSH2 0xD49 JUMP JUMPDEST PUSH2 0x5A1 SWAP2 SWAP1 PUSH2 0xD88 JUMP JUMPDEST CALLER PUSH1 0x0 SWAP1 DUP2 MSTORE PUSH1 0xE PUSH1 0x20 MSTORE PUSH1 0x40 DUP2 KECCAK256 PUSH1 0x2 ADD DUP1 SLOAD SWAP3 SWAP5 POP DUP5 SWAP3 SWAP1 SWAP2 SWAP1 PUSH2 0x5C8 SWAP1 DUP5 SWAP1 PUSH2 0xD31 JUMP JUMPDEST SWAP1 SWAP2 SSTORE POP POP JUMPDEST PUSH1 0x0 DUP3 GT PUSH2 0x61E JUMPI PUSH1 0x40 MLOAD PUSH3 0x461BCD PUSH1 0xE5 SHL DUP2 MSTORE PUSH1 0x20 PUSH1 0x4 DUP3 ADD MSTORE PUSH1 0x1C PUSH1 0x24 DUP3 ADD MSTORE PUSH32 0x596F752068617665206E6F206469767669657320746F20636C61696D00000000 PUSH1 0x44 DUP3 ADD MSTORE PUSH1 0x64 ADD PUSH2 0x47B JUMP JUMPDEST PUSH1 0x40 MLOAD PUSH1 0x1 PUSH1 0x1 PUSH1 0xA0 SHL SUB DUP5 AND SWAP1 DUP4 ISZERO PUSH2 0x8FC MUL SWAP1 DUP5 SWAP1 PUSH1 0x0 DUP2 DUP2 DUP2 DUP6 DUP9 DUP9 CALL SWAP4 POP POP POP POP ISZERO DUP1 ISZERO PUSH2 0x654 JUMPI RETURNDATASIZE PUSH1 0x0 DUP1 RETURNDATACOPY RETURNDATASIZE PUSH1 0x0 REVERT JUMPDEST POP POP POP POP JUMP JUMPDEST PUSH1 0x0 SLOAD PUSH1 0x1 PUSH1 0x1 PUSH1 0xA0 SHL SUB AND CALLER EQ PUSH2 0x6C7 JUMPI PUSH1 0x40 MLOAD PUSH3 0x461BCD PUSH1 0xE5 SHL DUP2 MSTORE PUSH1 0x20 PUSH1 0x4 DUP3 ADD MSTORE PUSH1 0x2A PUSH1 0x24 DUP3 ADD MSTORE PUSH32 0x796F75206172656E27742074686520646576656C6F706572206F662074686973 PUSH1 0x44 DUP3 ADD MSTORE PUSH10 0x1031B7B73A3930B1BA17 PUSH1 0xB1 SHL PUSH1 0x64 DUP3 ADD MSTORE PUSH1 0x84 ADD PUSH2 0x47B JUMP JUMPDEST PUSH2 0x6CF PUSH2 0xB54 JUMP JUMPDEST ISZERO PUSH2 0x714 JUMPI PUSH1 0x40 MLOAD PUSH3 0x461BCD PUSH1 0xE5 SHL DUP2 MSTORE PUSH1 0x20 PUSH1 0x4 DUP3 ADD MSTORE PUSH1 0x15 PUSH1 0x24 DUP3 ADD MSTORE PUSH21 0x67616D65206973207374696C6C20696E20706C6179 PUSH1 0x58 SHL PUSH1 0x44 DUP3 ADD MSTORE PUSH1 0x64 ADD PUSH2 0x47B JUMP JUMPDEST PUSH1 0x3 SLOAD PUSH1 0x2 SLOAD LT PUSH2 0x763 JUMPI PUSH1 0x0 DUP1 SLOAD PUSH1 0x1 SLOAD PUSH1 0x40 MLOAD PUSH1 0x1 PUSH1 0x1 PUSH1 0xA0 SHL SUB SWAP1 SWAP3 AND SWAP3 DUP4 SWAP3 DUP3 ISZERO PUSH2 0x8FC MUL SWAP3 SWAP2 DUP2 DUP2 DUP2 DUP6 DUP9 DUP9 CALL SWAP4 POP POP POP POP ISZERO DUP1 ISZERO PUSH2 0x75C JUMPI RETURNDATASIZE PUSH1 0x0 DUP1 RETURNDATACOPY RETURNDATASIZE PUSH1 0x0 REVERT JUMPDEST POP POP PUSH2 0x7A3 JUMP JUMPDEST PUSH1 0x7 SLOAD PUSH1 0x1 SLOAD PUSH1 0x40 MLOAD PUSH1 0x1 PUSH1 0x1 PUSH1 0xA0 SHL SUB SWAP1 SWAP3 AND SWAP2 DUP3 SWAP2 DUP1 ISZERO PUSH2 0x8FC MUL SWAP2 PUSH1 0x0 DUP2 DUP2 DUP2 DUP6 DUP9 DUP9 CALL SWAP4 POP POP POP POP ISZERO DUP1 ISZERO PUSH2 0x7A0 JUMPI RETURNDATASIZE PUSH1 0x0 DUP1 RETURNDATACOPY RETURNDATASIZE PUSH1 0x0 REVERT JUMPDEST POP POP JUMPDEST PUSH1 0x0 PUSH1 0x1 SSTORE JUMP JUMPDEST DUP1 PUSH1 0x9 SLOAD PUSH2 0x7B8 SWAP2 SWAP1 PUSH2 0xD69 JUMP JUMPDEST CALLVALUE LT ISZERO PUSH2 0x807 JUMPI PUSH1 0x40 MLOAD PUSH3 0x461BCD PUSH1 0xE5 SHL DUP2 MSTORE PUSH1 0x20 PUSH1 0x4 DUP3 ADD MSTORE PUSH1 0x1D PUSH1 0x24 DUP3 ADD MSTORE PUSH32 0x6E6F7420656E6F75676820746F2062757920746865206B65792873292E000000 PUSH1 0x44 DUP3 ADD MSTORE PUSH1 0x64 ADD PUSH2 0x47B JUMP JUMPDEST PUSH1 0xA SLOAD PUSH2 0x816 JUMPI PUSH2 0x816 PUSH2 0xCB9 JUMP JUMPDEST PUSH1 0x0 PUSH2 0x820 PUSH2 0xB54 JUMP JUMPDEST GT PUSH2 0x86D JUMPI PUSH1 0x40 MLOAD PUSH3 0x461BCD PUSH1 0xE5 SHL DUP2 MSTORE PUSH1 0x20 PUSH1 0x4 DUP3 ADD MSTORE PUSH1 0x19 PUSH1 0x24 DUP3 ADD MSTORE PUSH32 0x746865726520697320616C726561647920612077696E6E657200000000000000 PUSH1 0x44 DUP3 ADD MSTORE PUSH1 0x64 ADD PUSH2 0x47B JUMP JUMPDEST PUSH1 0x0 PUSH2 0x87A CALLVALUE PUSH1 0x64 PUSH2 0xD69 JUMP JUMPDEST SWAP1 POP PUSH1 0x0 PUSH2 0x88A PUSH2 0x2710 DUP4 PUSH2 0xD49 JUMP JUMPDEST SWAP1 POP PUSH1 0x0 PUSH2 0x898 DUP3 CALLVALUE PUSH2 0xD88 JUMP JUMPDEST SWAP1 POP PUSH1 0x0 PUSH2 0x8A7 PUSH1 0x2 DUP4 PUSH2 0xD49 JUMP JUMPDEST SWAP1 POP DUP3 PUSH1 0x1 PUSH1 0x0 DUP3 DUP3 SLOAD PUSH2 0x8BB SWAP2 SWAP1 PUSH2 0xD31 JUMP JUMPDEST SWAP3 POP POP DUP2 SWAP1 SSTORE POP DUP1 PUSH1 0xD PUSH1 0x0 DUP3 DUP3 SLOAD PUSH2 0x8D4 SWAP2 SWAP1 PUSH2 0xD31 JUMP JUMPDEST SWAP1 SWAP2 SSTORE POP PUSH2 0x8E4 SWAP1 POP DUP2 DUP4 PUSH2 0xD88 JUMP JUMPDEST PUSH1 0xC PUSH1 0x0 DUP3 DUP3 SLOAD PUSH2 0x8F5 SWAP2 SWAP1 PUSH2 0xD31 JUMP JUMPDEST SWAP1 SWAP2 SSTORE POP POP CALLER PUSH1 0x0 SWAP1 DUP2 MSTORE PUSH1 0xE PUSH1 0x20 MSTORE PUSH1 0x40 DUP2 KECCAK256 DUP1 SLOAD DUP8 SWAP3 SWAP1 PUSH2 0x919 SWAP1 DUP5 SWAP1 PUSH2 0xD31 JUMP JUMPDEST SWAP1 SWAP2 SSTORE POP POP CALLER PUSH1 0x0 SWAP1 DUP2 MSTORE PUSH1 0xE PUSH1 0x20 MSTORE PUSH1 0x40 DUP2 KECCAK256 PUSH1 0x3 ADD DUP1 SLOAD PUSH2 0xFF00 NOT AND PUSH2 0x100 OR SWAP1 SSTORE PUSH1 0xA DUP1 SLOAD DUP8 SWAP3 SWAP1 PUSH2 0x94F SWAP1 DUP5 SWAP1 PUSH2 0xD31 JUMP JUMPDEST SWAP1 SWAP2 SSTORE POP POP PUSH1 0x5 SLOAD PUSH2 0x962 SWAP1 TIMESTAMP SWAP1 PUSH2 0xD88 JUMP JUMPDEST PUSH2 0x96F SWAP1 PUSH3 0x15180 PUSH2 0xD88 JUMP JUMPDEST PUSH2 0x97A DUP7 PUSH1 0x1E PUSH2 0xD69 JUMP JUMPDEST GT ISZERO PUSH2 0x98D JUMPI PUSH2 0x988 PUSH2 0xCB9 JUMP JUMPDEST PUSH2 0x9AF JUMP JUMPDEST PUSH2 0x998 DUP6 PUSH1 0x1E PUSH2 0xD69 JUMP JUMPDEST PUSH1 0x5 PUSH1 0x0 DUP3 DUP3 SLOAD PUSH2 0x9A9 SWAP2 SWAP1 PUSH2 0xD31 JUMP JUMPDEST SWAP1 SWAP2 SSTORE POP POP JUMPDEST PUSH2 0x1F4 PUSH1 0xB SLOAD GT ISZERO PUSH2 0x9F0 JUMPI PUSH1 0x0 PUSH1 0x9 SLOAD PUSH1 0x64 PUSH2 0x9CC SWAP2 SWAP1 PUSH2 0xD69 JUMP JUMPDEST SWAP1 POP PUSH2 0x9DA PUSH2 0x2710 DUP3 PUSH2 0xD49 JUMP JUMPDEST PUSH1 0x9 SLOAD PUSH2 0x9E7 SWAP2 SWAP1 PUSH2 0xD31 JUMP JUMPDEST PUSH1 0x9 SSTORE POP PUSH2 0xA21 JUMP JUMPDEST PUSH1 0x0 PUSH1 0x9 SLOAD PUSH1 0x32 PUSH2 0xA01 SWAP2 SWAP1 PUSH2 0xD69 JUMP JUMPDEST SWAP1 POP PUSH2 0xA0F PUSH2 0x2710 DUP3 PUSH2 0xD49 JUMP JUMPDEST PUSH1 0x9 SLOAD PUSH2 0xA1C SWAP2 SWAP1 PUSH2 0xD31 JUMP JUMPDEST PUSH1 0x9 SSTORE POP JUMPDEST PUSH1 0x1 PUSH1 0xB PUSH1 0x0 DUP3 DUP3 SLOAD PUSH2 0xA34 SWAP2 SWAP1 PUSH2 0xD31 JUMP JUMPDEST SWAP1 SWAP2 SSTORE POP POP PUSH1 0x7 DUP1 SLOAD PUSH1 0x1 PUSH1 0x1 PUSH1 0xA0 SHL SUB NOT AND CALLER SWAP1 DUP2 OR SWAP1 SWAP2 SSTORE PUSH1 0x0 DUP2 DUP2 MSTORE PUSH1 0xE PUSH1 0x20 MSTORE PUSH1 0x40 SWAP1 DUP2 SWAP1 KECCAK256 SLOAD PUSH1 0xA SLOAD PUSH1 0x9 SLOAD PUSH1 0xC SLOAD PUSH1 0xD SLOAD SWAP5 MLOAD PUSH32 0xF18DF1D3DBEFAEB22F0E4EFE18D279A090ED7B0A9BE1C27B33CDA2F677CA67D4 SWAP7 PUSH2 0xAC5 SWAP7 SWAP2 SWAP6 DUP7 MSTORE PUSH1 0x20 DUP7 ADD SWAP5 SWAP1 SWAP5 MSTORE PUSH1 0x40 DUP6 ADD SWAP3 SWAP1 SWAP3 MSTORE PUSH1 0x60 DUP5 ADD MSTORE PUSH1 0x80 DUP4 ADD MSTORE PUSH1 0x1 PUSH1 0x1 PUSH1 0xA0 SHL SUB AND PUSH1 0xA0 DUP3 ADD MSTORE PUSH1 0xC0 ADD SWAP1 JUMP JUMPDEST PUSH1 0x40 MLOAD DUP1 SWAP2 SUB SWAP1 LOG1 POP POP POP POP POP JUMP JUMPDEST PUSH1 0x0 DUP1 PUSH1 0x0 PUSH1 0xA SLOAD PUSH1 0x0 EQ ISZERO PUSH2 0xAED JUMPI PUSH1 0x0 SWAP2 POP PUSH2 0xB4D JUMP JUMPDEST PUSH1 0xC SLOAD PUSH1 0x1 PUSH1 0x1 PUSH1 0xA0 SHL SUB DUP6 AND PUSH1 0x0 SWAP1 DUP2 MSTORE PUSH1 0xE PUSH1 0x20 MSTORE PUSH1 0x40 SWAP1 KECCAK256 SLOAD PUSH2 0xB13 SWAP2 SWAP1 PUSH2 0xD69 JUMP JUMPDEST PUSH1 0x1 PUSH1 0x1 PUSH1 0xA0 SHL SUB DUP6 AND PUSH1 0x0 SWAP1 DUP2 MSTORE PUSH1 0xE PUSH1 0x20 MSTORE PUSH1 0x40 SWAP1 KECCAK256 PUSH1 0x2 ADD SLOAD PUSH1 0xA SLOAD SWAP2 SWAP3 POP SWAP1 PUSH2 0xB40 SWAP1 DUP4 PUSH2 0xD49 JUMP JUMPDEST PUSH2 0xB4A SWAP2 SWAP1 PUSH2 0xD88 JUMP JUMPDEST SWAP2 POP JUMPDEST POP SWAP3 SWAP2 POP POP JUMP JUMPDEST PUSH1 0x0 PUSH1 0xA SLOAD PUSH1 0x0 EQ ISZERO PUSH2 0xB69 JUMPI POP PUSH3 0x15180 SWAP1 JUMP JUMPDEST TIMESTAMP PUSH1 0x5 SLOAD LT PUSH2 0xB85 JUMPI TIMESTAMP PUSH1 0x5 SLOAD PUSH2 0xB80 SWAP2 SWAP1 PUSH2 0xD88 JUMP JUMPDEST SWAP1 POP SWAP1 JUMP JUMPDEST POP PUSH1 0x0 SWAP1 JUMP JUMPDEST PUSH2 0xB93 PUSH2 0xB54 JUMP JUMPDEST ISZERO PUSH2 0xBD8 JUMPI PUSH1 0x40 MLOAD PUSH3 0x461BCD PUSH1 0xE5 SHL DUP2 MSTORE PUSH1 0x20 PUSH1 0x4 DUP3 ADD MSTORE PUSH1 0x15 PUSH1 0x24 DUP3 ADD MSTORE PUSH21 0x67616D65206973207374696C6C20696E20706C6179 PUSH1 0x58 SHL PUSH1 0x44 DUP3 ADD MSTORE PUSH1 0x64 ADD PUSH2 0x47B JUMP JUMPDEST PUSH1 0x0 PUSH1 0xD SLOAD GT PUSH2 0xC20 JUMPI PUSH1 0x40 MLOAD PUSH3 0x461BCD PUSH1 0xE5 SHL DUP2 MSTORE PUSH1 0x20 PUSH1 0x4 DUP3 ADD MSTORE PUSH1 0x13 PUSH1 0x24 DUP3 ADD MSTORE PUSH19 0x139BC81B5BDB995E481A5B881A9858DADC1BDD PUSH1 0x6A SHL PUSH1 0x44 DUP3 ADD MSTORE PUSH1 0x64 ADD PUSH2 0x47B JUMP JUMPDEST PUSH1 0x7 SLOAD PUSH1 0x1 PUSH1 0x1 PUSH1 0xA0 SHL SUB AND CALLER EQ PUSH2 0xC73 JUMPI PUSH1 0x40 MLOAD PUSH3 0x461BCD PUSH1 0xE5 SHL DUP2 MSTORE PUSH1 0x20 PUSH1 0x4 DUP3 ADD MSTORE PUSH1 0x16 PUSH1 0x24 DUP3 ADD MSTORE PUSH22 0x3CB7BA9030B932903737BA103A3432903BB4B73732B9 PUSH1 0x51 SHL PUSH1 0x44 DUP3 ADD MSTORE PUSH1 0x64 ADD PUSH2 0x47B JUMP JUMPDEST PUSH1 0x7 SLOAD PUSH1 0xD SLOAD PUSH1 0x40 MLOAD PUSH1 0x1 PUSH1 0x1 PUSH1 0xA0 SHL SUB SWAP1 SWAP3 AND SWAP2 DUP3 SWAP2 DUP1 ISZERO PUSH2 0x8FC MUL SWAP2 PUSH1 0x0 DUP2 DUP2 DUP2 DUP6 DUP9 DUP9 CALL SWAP4 POP POP POP POP ISZERO DUP1 ISZERO PUSH2 0xCB0 JUMPI RETURNDATASIZE PUSH1 0x0 DUP1 RETURNDATACOPY RETURNDATASIZE PUSH1 0x0 REVERT JUMPDEST POP POP PUSH1 0x0 PUSH1 0xD SSTORE JUMP JUMPDEST PUSH2 0xCC6 TIMESTAMP PUSH3 0x15180 PUSH2 0xD31 JUMP JUMPDEST PUSH1 0x5 SSTORE JUMP JUMPDEST PUSH1 0x0 PUSH1 0x20 DUP3 DUP5 SUB SLT ISZERO PUSH2 0xCDC JUMPI DUP1 DUP2 REVERT JUMPDEST DUP2 CALLDATALOAD PUSH1 0x1 PUSH1 0x1 PUSH1 0xA0 SHL SUB DUP2 AND DUP2 EQ PUSH2 0xCF2 JUMPI DUP2 DUP3 REVERT JUMPDEST SWAP4 SWAP3 POP POP POP JUMP JUMPDEST PUSH1 0x0 PUSH1 0x20 DUP3 DUP5 SUB SLT ISZERO PUSH2 0xD0A JUMPI DUP1 DUP2 REVERT JUMPDEST DUP2 CALLDATALOAD DUP1 ISZERO ISZERO DUP2 EQ PUSH2 0xCF2 JUMPI DUP2 DUP3 REVERT JUMPDEST PUSH1 0x0 PUSH1 0x20 DUP3 DUP5 SUB SLT ISZERO PUSH2 0xD2A JUMPI DUP1 DUP2 REVERT JUMPDEST POP CALLDATALOAD SWAP2 SWAP1 POP JUMP JUMPDEST PUSH1 0x0 DUP3 NOT DUP3 GT ISZERO PUSH2 0xD44 JUMPI PUSH2 0xD44 PUSH2 0xD9F JUMP JUMPDEST POP ADD SWAP1 JUMP JUMPDEST PUSH1 0x0 DUP3 PUSH2 0xD64 JUMPI PUSH4 0x4E487B71 PUSH1 0xE0 SHL DUP2 MSTORE PUSH1 0x12 PUSH1 0x4 MSTORE PUSH1 0x24 DUP2 REVERT JUMPDEST POP DIV SWAP1 JUMP JUMPDEST PUSH1 0x0 DUP2 PUSH1 0x0 NOT DIV DUP4 GT DUP3 ISZERO ISZERO AND ISZERO PUSH2 0xD83 JUMPI PUSH2 0xD83 PUSH2 0xD9F JUMP JUMPDEST POP MUL SWAP1 JUMP JUMPDEST PUSH1 0x0 DUP3 DUP3 LT ISZERO PUSH2 0xD9A JUMPI PUSH2 0xD9A PUSH2 0xD9F JUMP JUMPDEST POP SUB SWAP1 JUMP JUMPDEST PUSH4 0x4E487B71 PUSH1 0xE0 SHL PUSH1 0x0 MSTORE PUSH1 0x11 PUSH1 0x4 MSTORE PUSH1 0x24 PUSH1 0x0 REVERT INVALID LOG2 PUSH5 0x6970667358 0x22 SLT KECCAK256 SHR 0x48 0xB4 EQ 0xD7 ISZERO PUSH15 0xD5EBAD5532F1442A39F17A3EFAF774 EXTCODECOPY 0x26 0xDD DUP7 0xC CALLDATASIZE ADDMOD SWAP15 0x23 0xBC PUSH5 0x736F6C6343 STOP ADDMOD DIV STOP CALLER "
        },
        "methodIdentifiers": {
          "balanceReceived()": "52a90c42",
          "developerOnePercent()": "8b80016b",
          "developerOnePercentAllocation()": "1fd9300d",
          "divPool()": "7c2be5dd",
          "divTracker(address)": "55fcbbff",
          "getTimeLeft()": "c7e284b8",
          "getWinner()": "8e7ea5b2",
          "giveToDeveloper()": "e5618fa9",
          "giveToJackpot()": "82f96499",
          "jackpot()": "6b31ee01",
          "jackpotPayout()": "d20bff02",
          "keyPrice()": "10e56973",
          "keyPurchases()": "92c5c06e",
          "purchaseKeys(uint256)": "78c3171f",
          "startTime()": "78e97925",
          "timeLeft()": "1300a6d1",
          "totalKeys()": "488bdabc",
          "totalTime()": "58533e0a",
          "updateDivvies(address)": "acf7084a",
          "voteForOnePercent(bool)": "111d3efb",
          "whoWon(address)": "0d153c92",
          "withdrawDivvies()": "1ebe585d"
        }
      }
    }
  }
}