{
  "contracts/FomoOE.sol": {
    "FomoOE": {
      "abi": [
        {
          "inputs": [],
          "stateMutability": "nonpayable",
          "type": "constructor"
        },
        {
          "anonymous": false,
          "inputs": [
            {
              "indexed": false,
              "internalType": "uint256",
              "name": "_balanceReceived",
              "type": "uint256"
            }
          ],
          "name": "contractBalance",
          "type": "event"
        },
        {
          "anonymous": false,
          "inputs": [
            {
              "indexed": false,
              "internalType": "uint256",
              "name": "keyPrice",
              "type": "uint256"
            }
          ],
          "name": "currentKeyPrice",
          "type": "event"
        },
        {
          "anonymous": false,
          "inputs": [
            {
              "indexed": false,
              "internalType": "uint256",
              "name": "_userKeyBalance",
              "type": "uint256"
            },
            {
              "indexed": false,
              "internalType": "uint256",
              "name": "_totalKeys",
              "type": "uint256"
            },
            {
              "indexed": false,
              "internalType": "uint256",
              "name": "_keyPrice",
              "type": "uint256"
            },
            {
              "indexed": false,
              "internalType": "uint256",
              "name": "_divPool",
              "type": "uint256"
            },
            {
              "indexed": false,
              "internalType": "uint256",
              "name": "_jackpot",
              "type": "uint256"
            },
            {
              "indexed": false,
              "internalType": "address",
              "name": "_winning",
              "type": "address"
            }
          ],
          "name": "keysPurchased",
          "type": "event"
        },
        {
          "anonymous": false,
          "inputs": [
            {
              "indexed": false,
              "internalType": "uint256",
              "name": "_userDivvies",
              "type": "uint256"
            }
          ],
          "name": "userDivvies",
          "type": "event"
        },
        {
          "inputs": [],
          "name": "balanceReceived",
          "outputs": [
            {
              "internalType": "uint256",
              "name": "",
              "type": "uint256"
            }
          ],
          "stateMutability": "view",
          "type": "function"
        },
        {
          "inputs": [],
          "name": "developerOnePercent",
          "outputs": [
            {
              "internalType": "uint256",
              "name": "",
              "type": "uint256"
            }
          ],
          "stateMutability": "view",
          "type": "function"
        },
        {
          "inputs": [],
          "name": "developerOnePercentAllocation",
          "outputs": [],
          "stateMutability": "nonpayable",
          "type": "function"
        },
        {
          "inputs": [],
          "name": "divPool",
          "outputs": [
            {
              "internalType": "uint256",
              "name": "",
              "type": "uint256"
            }
          ],
          "stateMutability": "view",
          "type": "function"
        },
        {
          "inputs": [
            {
              "internalType": "address",
              "name": "",
              "type": "address"
            }
          ],
          "name": "divTracker",
          "outputs": [
            {
              "internalType": "uint256",
              "name": "_keyBalance",
              "type": "uint256"
            },
            {
              "internalType": "uint256",
              "name": "_divBalance",
              "type": "uint256"
            },
            {
              "internalType": "uint256",
              "name": "_withdrawnAmount",
              "type": "uint256"
            },
            {
              "internalType": "bool",
              "name": "_voted",
              "type": "bool"
            },
            {
              "internalType": "bool",
              "name": "_boughtKeys",
              "type": "bool"
            }
          ],
          "stateMutability": "view",
          "type": "function"
        },
        {
          "inputs": [],
          "name": "getTimeLeft",
          "outputs": [
            {
              "internalType": "uint256",
              "name": "",
              "type": "uint256"
            }
          ],
          "stateMutability": "view",
          "type": "function"
        },
        {
          "inputs": [],
          "name": "getWinner",
          "outputs": [
            {
              "internalType": "address",
              "name": "",
              "type": "address"
            }
          ],
          "stateMutability": "view",
          "type": "function"
        },
        {
          "inputs": [],
          "name": "giveToDeveloper",
          "outputs": [
            {
              "internalType": "uint256",
              "name": "",
              "type": "uint256"
            }
          ],
          "stateMutability": "view",
          "type": "function"
        },
        {
          "inputs": [],
          "name": "giveToJackpot",
          "outputs": [
            {
              "internalType": "uint256",
              "name": "",
              "type": "uint256"
            }
          ],
          "stateMutability": "view",
          "type": "function"
        },
        {
          "inputs": [],
          "name": "increased_order",
          "outputs": [
            {
              "internalType": "uint256",
              "name": "",
              "type": "uint256"
            }
          ],
          "stateMutability": "view",
          "type": "function"
        },
        {
          "inputs": [],
          "name": "jackpot",
          "outputs": [
            {
              "internalType": "uint256",
              "name": "",
              "type": "uint256"
            }
          ],
          "stateMutability": "view",
          "type": "function"
        },
        {
          "inputs": [],
          "name": "jackpotPayout",
          "outputs": [],
          "stateMutability": "nonpayable",
          "type": "function"
        },
        {
          "inputs": [],
          "name": "keyPrice",
          "outputs": [
            {
              "internalType": "uint256",
              "name": "",
              "type": "uint256"
            }
          ],
          "stateMutability": "view",
          "type": "function"
        },
        {
          "inputs": [],
          "name": "keyPriceIncreaseBlockNumber",
          "outputs": [
            {
              "internalType": "uint256",
              "name": "",
              "type": "uint256"
            }
          ],
          "stateMutability": "view",
          "type": "function"
        },
        {
          "inputs": [],
          "name": "keyPurchases",
          "outputs": [
            {
              "internalType": "uint256",
              "name": "",
              "type": "uint256"
            }
          ],
          "stateMutability": "view",
          "type": "function"
        },
        {
          "inputs": [],
          "name": "multiplier",
          "outputs": [
            {
              "internalType": "uint256",
              "name": "",
              "type": "uint256"
            }
          ],
          "stateMutability": "view",
          "type": "function"
        },
        {
          "inputs": [
            {
              "internalType": "uint256",
              "name": "_amount",
              "type": "uint256"
            }
          ],
          "name": "purchaseKeys",
          "outputs": [],
          "stateMutability": "payable",
          "type": "function"
        },
        {
          "inputs": [],
          "name": "startTime",
          "outputs": [
            {
              "internalType": "uint256",
              "name": "",
              "type": "uint256"
            }
          ],
          "stateMutability": "view",
          "type": "function"
        },
        {
          "inputs": [],
          "name": "timeLeft",
          "outputs": [
            {
              "internalType": "uint256",
              "name": "",
              "type": "uint256"
            }
          ],
          "stateMutability": "view",
          "type": "function"
        },
        {
          "inputs": [],
          "name": "totalKeys",
          "outputs": [
            {
              "internalType": "uint256",
              "name": "",
              "type": "uint256"
            }
          ],
          "stateMutability": "view",
          "type": "function"
        },
        {
          "inputs": [],
          "name": "totalTime",
          "outputs": [
            {
              "internalType": "uint256",
              "name": "",
              "type": "uint256"
            }
          ],
          "stateMutability": "view",
          "type": "function"
        },
        {
          "inputs": [
            {
              "internalType": "address",
              "name": "_userAddress",
              "type": "address"
            }
          ],
          "name": "updateDivvies",
          "outputs": [
            {
              "internalType": "uint256",
              "name": "",
              "type": "uint256"
            }
          ],
          "stateMutability": "view",
          "type": "function"
        },
        {
          "inputs": [
            {
              "internalType": "bool",
              "name": "_vote",
              "type": "bool"
            }
          ],
          "name": "voteForOnePercent",
          "outputs": [],
          "stateMutability": "nonpayable",
          "type": "function"
        },
        {
          "inputs": [
            {
              "internalType": "address",
              "name": "_userAddress",
              "type": "address"
            }
          ],
          "name": "whoWon",
          "outputs": [
            {
              "internalType": "address",
              "name": "winner",
              "type": "address"
            }
          ],
          "stateMutability": "view",
          "type": "function"
        },
        {
          "inputs": [],
          "name": "withdrawDivvies",
          "outputs": [],
          "stateMutability": "nonpayable",
          "type": "function"
        }
      ],
      "evm": {
        "bytecode": {
          "linkReferences": {},
          "object": "6080604052660bf5f72abe6810600955660bf5f72abe6810600a556064600c5534801561002b57600080fd5b50600080546001600160a01b0319163317905561100a8061004d6000396000f3fe6080604052600436106101665760003560e01c80636b31ee01116100d15780638e7ea5b21161008a578063c7e284b811610064578063c7e284b8146103eb578063d20bff0214610400578063e02b44d414610415578063e5618fa91461042b57600080fd5b80638e7ea5b21461039757806392c5c06e146103b5578063acf7084a146103cb57600080fd5b80636b31ee011461031657806378c3171f1461032c57806378e979251461033f5780637c2be5dd1461035557806382f964991461036b5780638b80016b1461038157600080fd5b80631ebe585d116101235780631ebe585d146102305780631fd9300d14610245578063488bdabc1461025a57806352a90c421461027057806355fcbbff1461028657806358533e0a1461030057600080fd5b806305b3bd701461016b5780630d153c921461019457806310e56973146101cc578063111d3efb146101e25780631300a6d1146102045780631b3ed7221461021a575b600080fd5b34801561017757600080fd5b50610181600b5481565b6040519081526020015b60405180910390f35b3480156101a057600080fd5b506101b46101af366004610ebf565b610441565b6040516001600160a01b03909116815260200161018b565b3480156101d857600080fd5b5061018160095481565b3480156101ee57600080fd5b506102026101fd366004610eed565b610473565b005b34801561021057600080fd5b5061018160065481565b34801561022657600080fd5b50610181600c5481565b34801561023c57600080fd5b506102026105d9565b34801561025157600080fd5b50610202610717565b34801561026657600080fd5b50610181600d5481565b34801561027c57600080fd5b5061018160085481565b34801561029257600080fd5b506102d46102a1366004610ebf565b60116020526000908152604090208054600182015460028301546003909301549192909160ff8082169161010090041685565b60408051958652602086019490945292840191909152151560608301521515608082015260a00161018b565b34801561030c57600080fd5b5061018160055481565b34801561032257600080fd5b5061018160105481565b61020261033a366004610f0d565b610867565b34801561034b57600080fd5b5061018160045481565b34801561036157600080fd5b50610181600f5481565b34801561037757600080fd5b5061018160035481565b34801561038d57600080fd5b5061018160015481565b3480156103a357600080fd5b506007546001600160a01b03166101b4565b3480156103c157600080fd5b50610181600e5481565b3480156103d757600080fd5b506101816103e6366004610ebf565b610ca5565b3480156103f757600080fd5b50610181610d25565b34801561040c57600080fd5b50610202610d5c565b34801561042157600080fd5b50610181600a5481565b34801561043757600080fd5b5061018160025481565b600061044b610d25565b15801561046557506007546001600160a01b038381169116145b1561046e575090565b919050565b33803b801561049d5760405162461bcd60e51b815260040161049490610f25565b60405180910390fd5b3360009081526011602052604090206003015460ff61010090910416151560011461051c5760405162461bcd60e51b815260206004820152602960248201527f796f75206e65656420746f20627579206174206c65617374206f6e65206b6579604482015268103a37903b37ba329760b91b6064820152608401610494565b3360009081526011602052604090206003015460ff16156105745760405162461bcd60e51b81526020600482015260126024820152713cb7ba9030b63932b0b23c903b37ba32b21760711b6044820152606401610494565b336000908152601160205260409020600301805460ff1916600190811790915583151514156105bb576001600260008282546105b09190610f50565b909155506105d49050565b6001600360008282546105ce9190610f50565b90915550505b505050565b33803b80156105fa5760405162461bcd60e51b815260040161049490610f25565b600d54339060009081906106115760009150610689565b600f543360009081526011602052604090205461062e9190610f88565b33600090815260116020526040902060020154600d54919250906106529083610f68565b61065c9190610fa7565b33600090815260116020526040812060020180549294508492909190610683908490610f50565b90915550505b600082116106d95760405162461bcd60e51b815260206004820152601c60248201527f596f752068617665206e6f206469767669657320746f20636c61696d000000006044820152606401610494565b6040516001600160a01b0384169083156108fc029084906000818181858888f1935050505015801561070f573d6000803e3d6000fd5b505050505050565b6000546001600160a01b031633146107845760405162461bcd60e51b815260206004820152602a60248201527f796f75206172656e27742074686520646576656c6f706572206f6620746869736044820152691031b7b73a3930b1ba1760b11b6064820152608401610494565b61078c610d25565b156107d15760405162461bcd60e51b815260206004820152601560248201527467616d65206973207374696c6c20696e20706c617960581b6044820152606401610494565b6003546002541061082057600080546001546040516001600160a01b0390921692839282156108fc029291818181858888f19350505050158015610819573d6000803e3d6000fd5b5050610860565b6007546001546040516001600160a01b0390921691829180156108fc02916000818181858888f1935050505015801561085d573d6000803e3d6000fd5b50505b6000600155565b33803b80156108885760405162461bcd60e51b815260040161049490610f25565b600d54158061089957506005600e54105b156108a6576108a6610ead565b60006108b0610d25565b116108fd5760405162461bcd60e51b815260206004820152601960248201527f746865726520697320616c726561647920612077696e6e6572000000000000006044820152606401610494565b8260095461090b9190610f88565b341061098c5743600b55600c5460095460009161092791610f88565b905061093561271082610f68565b6009546109429190610f50565b6009819055600a805490916109579190610f68565b1015801561096857506014600c5410155b1561098657600954600a908155600c546109829190610fa7565b600c555b50610aae565b6000600c5460095461099e9190610f88565b905060006109ae61271083610f68565b6009546109bb9190610fa7565b90506109c78582610f88565b34101580156109e35750600b546109df906001610f50565b4311155b610aab5760405162461bcd60e51b815260206004820152608160248201527f4e6f7420656e6f75676820746f2062757920746865206b65792873293a204b6560448201527f7920707269636520697320696e6372656173696e6720717569636b6c792e205460648201527f72792072656672657368696e6720746865207061676520616e6420717569636b60848201527f6c79207375626d697474696e67206b657920707572636861736520616761696e60a4820152601760f91b60c482015260e401610494565b50505b6000610abb346064610f88565b90506000610acb61271083610f68565b90506000610ad98234610fa7565b90506000610ae8600283610f68565b90508260016000828254610afc9190610f50565b925050819055508060106000828254610b159190610f50565b90915550610b2590508183610fa7565b600f6000828254610b369190610f50565b90915550503360009081526011602052604081208054899290610b5a908490610f50565b9091555050336000908152601160205260408120600301805461ff001916610100179055600d8054899290610b90908490610f50565b9091555050600554610ba3904290610fa7565b610bb09062015180610fa7565b610bbb88601e610f88565b1115610bce57610bc9610ead565b610bf0565b610bd987601e610f88565b60056000828254610bea9190610f50565b90915550505b6001600e6000828254610c039190610f50565b9091555050600780546001600160a01b031916339081179091556000818152601160205260409081902054600d54600954600f5460105494517ff18df1d3dbefaeb22f0e4efe18d279a090ed7b0a9be1c27b33cda2f677ca67d496610c94969195865260208601949094526040850192909252606084015260808301526001600160a01b031660a082015260c00190565b60405180910390a150505050505050565b6000806000600d5460001415610cbe5760009150610d1e565b600f546001600160a01b038516600090815260116020526040902054610ce49190610f88565b6001600160a01b038516600090815260116020526040902060020154600d5491925090610d119083610f68565b610d1b9190610fa7565b91505b5092915050565b6000600d5460001415610d3a57506201518090565b4260055410610d565742600554610d519190610fa7565b905090565b50600090565b33803b8015610d7d5760405162461bcd60e51b815260040161049490610f25565b610d85610d25565b15610dca5760405162461bcd60e51b815260206004820152601560248201527467616d65206973207374696c6c20696e20706c617960581b6044820152606401610494565b600060105411610e125760405162461bcd60e51b8152602060048201526013602482015272139bc81b5bdb995e481a5b881a9858dadc1bdd606a1b6044820152606401610494565b6007546001600160a01b03163314610e655760405162461bcd60e51b81526020600482015260166024820152753cb7ba9030b932903737ba103a3432903bb4b73732b960511b6044820152606401610494565b6007546010546040516001600160a01b0390921691829180156108fc02916000818181858888f19350505050158015610ea2573d6000803e3d6000fd5b505060006010555050565b610eba4262015180610f50565b600555565b600060208284031215610ed0578081fd5b81356001600160a01b0381168114610ee6578182fd5b9392505050565b600060208284031215610efe578081fd5b81358015158114610ee6578182fd5b600060208284031215610f1e578081fd5b5035919050565b602080825260119082015270736f7272792068756d616e73206f6e6c7960781b604082015260600190565b60008219821115610f6357610f63610fbe565b500190565b600082610f8357634e487b7160e01b81526012600452602481fd5b500490565b6000816000190483118215151615610fa257610fa2610fbe565b500290565b600082821015610fb957610fb9610fbe565b500390565b634e487b7160e01b600052601160045260246000fdfea2646970667358221220b79542fc88382b6f71fe43848e30c17b941620243fb21797e26cc46a234d03be64736f6c63430008040033",
          "opcodes": "PUSH1 0x80 PUSH1 0x40 MSTORE PUSH7 0xBF5F72ABE6810 PUSH1 0x9 SSTORE PUSH7 0xBF5F72ABE6810 PUSH1 0xA SSTORE PUSH1 0x64 PUSH1 0xC SSTORE CALLVALUE DUP1 ISZERO PUSH2 0x2B JUMPI PUSH1 0x0 DUP1 REVERT JUMPDEST POP PUSH1 0x0 DUP1 SLOAD PUSH1 0x1 PUSH1 0x1 PUSH1 0xA0 SHL SUB NOT AND CALLER OR SWAP1 SSTORE PUSH2 0x100A DUP1 PUSH2 0x4D PUSH1 0x0 CODECOPY PUSH1 0x0 RETURN INVALID PUSH1 0x80 PUSH1 0x40 MSTORE PUSH1 0x4 CALLDATASIZE LT PUSH2 0x166 JUMPI PUSH1 0x0 CALLDATALOAD PUSH1 0xE0 SHR DUP1 PUSH4 0x6B31EE01 GT PUSH2 0xD1 JUMPI DUP1 PUSH4 0x8E7EA5B2 GT PUSH2 0x8A JUMPI DUP1 PUSH4 0xC7E284B8 GT PUSH2 0x64 JUMPI DUP1 PUSH4 0xC7E284B8 EQ PUSH2 0x3EB JUMPI DUP1 PUSH4 0xD20BFF02 EQ PUSH2 0x400 JUMPI DUP1 PUSH4 0xE02B44D4 EQ PUSH2 0x415 JUMPI DUP1 PUSH4 0xE5618FA9 EQ PUSH2 0x42B JUMPI PUSH1 0x0 DUP1 REVERT JUMPDEST DUP1 PUSH4 0x8E7EA5B2 EQ PUSH2 0x397 JUMPI DUP1 PUSH4 0x92C5C06E EQ PUSH2 0x3B5 JUMPI DUP1 PUSH4 0xACF7084A EQ PUSH2 0x3CB JUMPI PUSH1 0x0 DUP1 REVERT JUMPDEST DUP1 PUSH4 0x6B31EE01 EQ PUSH2 0x316 JUMPI DUP1 PUSH4 0x78C3171F EQ PUSH2 0x32C JUMPI DUP1 PUSH4 0x78E97925 EQ PUSH2 0x33F JUMPI DUP1 PUSH4 0x7C2BE5DD EQ PUSH2 0x355 JUMPI DUP1 PUSH4 0x82F96499 EQ PUSH2 0x36B JUMPI DUP1 PUSH4 0x8B80016B EQ PUSH2 0x381 JUMPI PUSH1 0x0 DUP1 REVERT JUMPDEST DUP1 PUSH4 0x1EBE585D GT PUSH2 0x123 JUMPI DUP1 PUSH4 0x1EBE585D EQ PUSH2 0x230 JUMPI DUP1 PUSH4 0x1FD9300D EQ PUSH2 0x245 JUMPI DUP1 PUSH4 0x488BDABC EQ PUSH2 0x25A JUMPI DUP1 PUSH4 0x52A90C42 EQ PUSH2 0x270 JUMPI DUP1 PUSH4 0x55FCBBFF EQ PUSH2 0x286 JUMPI DUP1 PUSH4 0x58533E0A EQ PUSH2 0x300 JUMPI PUSH1 0x0 DUP1 REVERT JUMPDEST DUP1 PUSH4 0x5B3BD70 EQ PUSH2 0x16B JUMPI DUP1 PUSH4 0xD153C92 EQ PUSH2 0x194 JUMPI DUP1 PUSH4 0x10E56973 EQ PUSH2 0x1CC JUMPI DUP1 PUSH4 0x111D3EFB EQ PUSH2 0x1E2 JUMPI DUP1 PUSH4 0x1300A6D1 EQ PUSH2 0x204 JUMPI DUP1 PUSH4 0x1B3ED722 EQ PUSH2 0x21A JUMPI JUMPDEST PUSH1 0x0 DUP1 REVERT JUMPDEST CALLVALUE DUP1 ISZERO PUSH2 0x177 JUMPI PUSH1 0x0 DUP1 REVERT JUMPDEST POP PUSH2 0x181 PUSH1 0xB SLOAD DUP2 JUMP JUMPDEST PUSH1 0x40 MLOAD SWAP1 DUP2 MSTORE PUSH1 0x20 ADD JUMPDEST PUSH1 0x40 MLOAD DUP1 SWAP2 SUB SWAP1 RETURN JUMPDEST CALLVALUE DUP1 ISZERO PUSH2 0x1A0 JUMPI PUSH1 0x0 DUP1 REVERT JUMPDEST POP PUSH2 0x1B4 PUSH2 0x1AF CALLDATASIZE PUSH1 0x4 PUSH2 0xEBF JUMP JUMPDEST PUSH2 0x441 JUMP JUMPDEST PUSH1 0x40 MLOAD PUSH1 0x1 PUSH1 0x1 PUSH1 0xA0 SHL SUB SWAP1 SWAP2 AND DUP2 MSTORE PUSH1 0x20 ADD PUSH2 0x18B JUMP JUMPDEST CALLVALUE DUP1 ISZERO PUSH2 0x1D8 JUMPI PUSH1 0x0 DUP1 REVERT JUMPDEST POP PUSH2 0x181 PUSH1 0x9 SLOAD DUP2 JUMP JUMPDEST CALLVALUE DUP1 ISZERO PUSH2 0x1EE JUMPI PUSH1 0x0 DUP1 REVERT JUMPDEST POP PUSH2 0x202 PUSH2 0x1FD CALLDATASIZE PUSH1 0x4 PUSH2 0xEED JUMP JUMPDEST PUSH2 0x473 JUMP JUMPDEST STOP JUMPDEST CALLVALUE DUP1 ISZERO PUSH2 0x210 JUMPI PUSH1 0x0 DUP1 REVERT JUMPDEST POP PUSH2 0x181 PUSH1 0x6 SLOAD DUP2 JUMP JUMPDEST CALLVALUE DUP1 ISZERO PUSH2 0x226 JUMPI PUSH1 0x0 DUP1 REVERT JUMPDEST POP PUSH2 0x181 PUSH1 0xC SLOAD DUP2 JUMP JUMPDEST CALLVALUE DUP1 ISZERO PUSH2 0x23C JUMPI PUSH1 0x0 DUP1 REVERT JUMPDEST POP PUSH2 0x202 PUSH2 0x5D9 JUMP JUMPDEST CALLVALUE DUP1 ISZERO PUSH2 0x251 JUMPI PUSH1 0x0 DUP1 REVERT JUMPDEST POP PUSH2 0x202 PUSH2 0x717 JUMP JUMPDEST CALLVALUE DUP1 ISZERO PUSH2 0x266 JUMPI PUSH1 0x0 DUP1 REVERT JUMPDEST POP PUSH2 0x181 PUSH1 0xD SLOAD DUP2 JUMP JUMPDEST CALLVALUE DUP1 ISZERO PUSH2 0x27C JUMPI PUSH1 0x0 DUP1 REVERT JUMPDEST POP PUSH2 0x181 PUSH1 0x8 SLOAD DUP2 JUMP JUMPDEST CALLVALUE DUP1 ISZERO PUSH2 0x292 JUMPI PUSH1 0x0 DUP1 REVERT JUMPDEST POP PUSH2 0x2D4 PUSH2 0x2A1 CALLDATASIZE PUSH1 0x4 PUSH2 0xEBF JUMP JUMPDEST PUSH1 0x11 PUSH1 0x20 MSTORE PUSH1 0x0 SWAP1 DUP2 MSTORE PUSH1 0x40 SWAP1 KECCAK256 DUP1 SLOAD PUSH1 0x1 DUP3 ADD SLOAD PUSH1 0x2 DUP4 ADD SLOAD PUSH1 0x3 SWAP1 SWAP4 ADD SLOAD SWAP2 SWAP3 SWAP1 SWAP2 PUSH1 0xFF DUP1 DUP3 AND SWAP2 PUSH2 0x100 SWAP1 DIV AND DUP6 JUMP JUMPDEST PUSH1 0x40 DUP1 MLOAD SWAP6 DUP7 MSTORE PUSH1 0x20 DUP7 ADD SWAP5 SWAP1 SWAP5 MSTORE SWAP3 DUP5 ADD SWAP2 SWAP1 SWAP2 MSTORE ISZERO ISZERO PUSH1 0x60 DUP4 ADD MSTORE ISZERO ISZERO PUSH1 0x80 DUP3 ADD MSTORE PUSH1 0xA0 ADD PUSH2 0x18B JUMP JUMPDEST CALLVALUE DUP1 ISZERO PUSH2 0x30C JUMPI PUSH1 0x0 DUP1 REVERT JUMPDEST POP PUSH2 0x181 PUSH1 0x5 SLOAD DUP2 JUMP JUMPDEST CALLVALUE DUP1 ISZERO PUSH2 0x322 JUMPI PUSH1 0x0 DUP1 REVERT JUMPDEST POP PUSH2 0x181 PUSH1 0x10 SLOAD DUP2 JUMP JUMPDEST PUSH2 0x202 PUSH2 0x33A CALLDATASIZE PUSH1 0x4 PUSH2 0xF0D JUMP JUMPDEST PUSH2 0x867 JUMP JUMPDEST CALLVALUE DUP1 ISZERO PUSH2 0x34B JUMPI PUSH1 0x0 DUP1 REVERT JUMPDEST POP PUSH2 0x181 PUSH1 0x4 SLOAD DUP2 JUMP JUMPDEST CALLVALUE DUP1 ISZERO PUSH2 0x361 JUMPI PUSH1 0x0 DUP1 REVERT JUMPDEST POP PUSH2 0x181 PUSH1 0xF SLOAD DUP2 JUMP JUMPDEST CALLVALUE DUP1 ISZERO PUSH2 0x377 JUMPI PUSH1 0x0 DUP1 REVERT JUMPDEST POP PUSH2 0x181 PUSH1 0x3 SLOAD DUP2 JUMP JUMPDEST CALLVALUE DUP1 ISZERO PUSH2 0x38D JUMPI PUSH1 0x0 DUP1 REVERT JUMPDEST POP PUSH2 0x181 PUSH1 0x1 SLOAD DUP2 JUMP JUMPDEST CALLVALUE DUP1 ISZERO PUSH2 0x3A3 JUMPI PUSH1 0x0 DUP1 REVERT JUMPDEST POP PUSH1 0x7 SLOAD PUSH1 0x1 PUSH1 0x1 PUSH1 0xA0 SHL SUB AND PUSH2 0x1B4 JUMP JUMPDEST CALLVALUE DUP1 ISZERO PUSH2 0x3C1 JUMPI PUSH1 0x0 DUP1 REVERT JUMPDEST POP PUSH2 0x181 PUSH1 0xE SLOAD DUP2 JUMP JUMPDEST CALLVALUE DUP1 ISZERO PUSH2 0x3D7 JUMPI PUSH1 0x0 DUP1 REVERT JUMPDEST POP PUSH2 0x181 PUSH2 0x3E6 CALLDATASIZE PUSH1 0x4 PUSH2 0xEBF JUMP JUMPDEST PUSH2 0xCA5 JUMP JUMPDEST CALLVALUE DUP1 ISZERO PUSH2 0x3F7 JUMPI PUSH1 0x0 DUP1 REVERT JUMPDEST POP PUSH2 0x181 PUSH2 0xD25 JUMP JUMPDEST CALLVALUE DUP1 ISZERO PUSH2 0x40C JUMPI PUSH1 0x0 DUP1 REVERT JUMPDEST POP PUSH2 0x202 PUSH2 0xD5C JUMP JUMPDEST CALLVALUE DUP1 ISZERO PUSH2 0x421 JUMPI PUSH1 0x0 DUP1 REVERT JUMPDEST POP PUSH2 0x181 PUSH1 0xA SLOAD DUP2 JUMP JUMPDEST CALLVALUE DUP1 ISZERO PUSH2 0x437 JUMPI PUSH1 0x0 DUP1 REVERT JUMPDEST POP PUSH2 0x181 PUSH1 0x2 SLOAD DUP2 JUMP JUMPDEST PUSH1 0x0 PUSH2 0x44B PUSH2 0xD25 JUMP JUMPDEST ISZERO DUP1 ISZERO PUSH2 0x465 JUMPI POP PUSH1 0x7 SLOAD PUSH1 0x1 PUSH1 0x1 PUSH1 0xA0 SHL SUB DUP4 DUP2 AND SWAP2 AND EQ JUMPDEST ISZERO PUSH2 0x46E JUMPI POP SWAP1 JUMP JUMPDEST SWAP2 SWAP1 POP JUMP JUMPDEST CALLER DUP1 EXTCODESIZE DUP1 ISZERO PUSH2 0x49D JUMPI PUSH1 0x40 MLOAD PUSH3 0x461BCD PUSH1 0xE5 SHL DUP2 MSTORE PUSH1 0x4 ADD PUSH2 0x494 SWAP1 PUSH2 0xF25 JUMP JUMPDEST PUSH1 0x40 MLOAD DUP1 SWAP2 SUB SWAP1 REVERT JUMPDEST CALLER PUSH1 0x0 SWAP1 DUP2 MSTORE PUSH1 0x11 PUSH1 0x20 MSTORE PUSH1 0x40 SWAP1 KECCAK256 PUSH1 0x3 ADD SLOAD PUSH1 0xFF PUSH2 0x100 SWAP1 SWAP2 DIV AND ISZERO ISZERO PUSH1 0x1 EQ PUSH2 0x51C JUMPI PUSH1 0x40 MLOAD PUSH3 0x461BCD PUSH1 0xE5 SHL DUP2 MSTORE PUSH1 0x20 PUSH1 0x4 DUP3 ADD MSTORE PUSH1 0x29 PUSH1 0x24 DUP3 ADD MSTORE PUSH32 0x796F75206E65656420746F20627579206174206C65617374206F6E65206B6579 PUSH1 0x44 DUP3 ADD MSTORE PUSH9 0x103A37903B37BA3297 PUSH1 0xB9 SHL PUSH1 0x64 DUP3 ADD MSTORE PUSH1 0x84 ADD PUSH2 0x494 JUMP JUMPDEST CALLER PUSH1 0x0 SWAP1 DUP2 MSTORE PUSH1 0x11 PUSH1 0x20 MSTORE PUSH1 0x40 SWAP1 KECCAK256 PUSH1 0x3 ADD SLOAD PUSH1 0xFF AND ISZERO PUSH2 0x574 JUMPI PUSH1 0x40 MLOAD PUSH3 0x461BCD PUSH1 0xE5 SHL DUP2 MSTORE PUSH1 0x20 PUSH1 0x4 DUP3 ADD MSTORE PUSH1 0x12 PUSH1 0x24 DUP3 ADD MSTORE PUSH18 0x3CB7BA9030B63932B0B23C903B37BA32B217 PUSH1 0x71 SHL PUSH1 0x44 DUP3 ADD MSTORE PUSH1 0x64 ADD PUSH2 0x494 JUMP JUMPDEST CALLER PUSH1 0x0 SWAP1 DUP2 MSTORE PUSH1 0x11 PUSH1 0x20 MSTORE PUSH1 0x40 SWAP1 KECCAK256 PUSH1 0x3 ADD DUP1 SLOAD PUSH1 0xFF NOT AND PUSH1 0x1 SWAP1 DUP2 OR SWAP1 SWAP2 SSTORE DUP4 ISZERO ISZERO EQ ISZERO PUSH2 0x5BB JUMPI PUSH1 0x1 PUSH1 0x2 PUSH1 0x0 DUP3 DUP3 SLOAD PUSH2 0x5B0 SWAP2 SWAP1 PUSH2 0xF50 JUMP JUMPDEST SWAP1 SWAP2 SSTORE POP PUSH2 0x5D4 SWAP1 POP JUMP JUMPDEST PUSH1 0x1 PUSH1 0x3 PUSH1 0x0 DUP3 DUP3 SLOAD PUSH2 0x5CE SWAP2 SWAP1 PUSH2 0xF50 JUMP JUMPDEST SWAP1 SWAP2 SSTORE POP POP JUMPDEST POP POP POP JUMP JUMPDEST CALLER DUP1 EXTCODESIZE DUP1 ISZERO PUSH2 0x5FA JUMPI PUSH1 0x40 MLOAD PUSH3 0x461BCD PUSH1 0xE5 SHL DUP2 MSTORE PUSH1 0x4 ADD PUSH2 0x494 SWAP1 PUSH2 0xF25 JUMP JUMPDEST PUSH1 0xD SLOAD CALLER SWAP1 PUSH1 0x0 SWAP1 DUP2 SWAP1 PUSH2 0x611 JUMPI PUSH1 0x0 SWAP2 POP PUSH2 0x689 JUMP JUMPDEST PUSH1 0xF SLOAD CALLER PUSH1 0x0 SWAP1 DUP2 MSTORE PUSH1 0x11 PUSH1 0x20 MSTORE PUSH1 0x40 SWAP1 KECCAK256 SLOAD PUSH2 0x62E SWAP2 SWAP1 PUSH2 0xF88 JUMP JUMPDEST CALLER PUSH1 0x0 SWAP1 DUP2 MSTORE PUSH1 0x11 PUSH1 0x20 MSTORE PUSH1 0x40 SWAP1 KECCAK256 PUSH1 0x2 ADD SLOAD PUSH1 0xD SLOAD SWAP2 SWAP3 POP SWAP1 PUSH2 0x652 SWAP1 DUP4 PUSH2 0xF68 JUMP JUMPDEST PUSH2 0x65C SWAP2 SWAP1 PUSH2 0xFA7 JUMP JUMPDEST CALLER PUSH1 0x0 SWAP1 DUP2 MSTORE PUSH1 0x11 PUSH1 0x20 MSTORE PUSH1 0x40 DUP2 KECCAK256 PUSH1 0x2 ADD DUP1 SLOAD SWAP3 SWAP5 POP DUP5 SWAP3 SWAP1 SWAP2 SWAP1 PUSH2 0x683 SWAP1 DUP5 SWAP1 PUSH2 0xF50 JUMP JUMPDEST SWAP1 SWAP2 SSTORE POP POP JUMPDEST PUSH1 0x0 DUP3 GT PUSH2 0x6D9 JUMPI PUSH1 0x40 MLOAD PUSH3 0x461BCD PUSH1 0xE5 SHL DUP2 MSTORE PUSH1 0x20 PUSH1 0x4 DUP3 ADD MSTORE PUSH1 0x1C PUSH1 0x24 DUP3 ADD MSTORE PUSH32 0x596F752068617665206E6F206469767669657320746F20636C61696D00000000 PUSH1 0x44 DUP3 ADD MSTORE PUSH1 0x64 ADD PUSH2 0x494 JUMP JUMPDEST PUSH1 0x40 MLOAD PUSH1 0x1 PUSH1 0x1 PUSH1 0xA0 SHL SUB DUP5 AND SWAP1 DUP4 ISZERO PUSH2 0x8FC MUL SWAP1 DUP5 SWAP1 PUSH1 0x0 DUP2 DUP2 DUP2 DUP6 DUP9 DUP9 CALL SWAP4 POP POP POP POP ISZERO DUP1 ISZERO PUSH2 0x70F JUMPI RETURNDATASIZE PUSH1 0x0 DUP1 RETURNDATACOPY RETURNDATASIZE PUSH1 0x0 REVERT JUMPDEST POP POP POP POP POP POP JUMP JUMPDEST PUSH1 0x0 SLOAD PUSH1 0x1 PUSH1 0x1 PUSH1 0xA0 SHL SUB AND CALLER EQ PUSH2 0x784 JUMPI PUSH1 0x40 MLOAD PUSH3 0x461BCD PUSH1 0xE5 SHL DUP2 MSTORE PUSH1 0x20 PUSH1 0x4 DUP3 ADD MSTORE PUSH1 0x2A PUSH1 0x24 DUP3 ADD MSTORE PUSH32 0x796F75206172656E27742074686520646576656C6F706572206F662074686973 PUSH1 0x44 DUP3 ADD MSTORE PUSH10 0x1031B7B73A3930B1BA17 PUSH1 0xB1 SHL PUSH1 0x64 DUP3 ADD MSTORE PUSH1 0x84 ADD PUSH2 0x494 JUMP JUMPDEST PUSH2 0x78C PUSH2 0xD25 JUMP JUMPDEST ISZERO PUSH2 0x7D1 JUMPI PUSH1 0x40 MLOAD PUSH3 0x461BCD PUSH1 0xE5 SHL DUP2 MSTORE PUSH1 0x20 PUSH1 0x4 DUP3 ADD MSTORE PUSH1 0x15 PUSH1 0x24 DUP3 ADD MSTORE PUSH21 0x67616D65206973207374696C6C20696E20706C6179 PUSH1 0x58 SHL PUSH1 0x44 DUP3 ADD MSTORE PUSH1 0x64 ADD PUSH2 0x494 JUMP JUMPDEST PUSH1 0x3 SLOAD PUSH1 0x2 SLOAD LT PUSH2 0x820 JUMPI PUSH1 0x0 DUP1 SLOAD PUSH1 0x1 SLOAD PUSH1 0x40 MLOAD PUSH1 0x1 PUSH1 0x1 PUSH1 0xA0 SHL SUB SWAP1 SWAP3 AND SWAP3 DUP4 SWAP3 DUP3 ISZERO PUSH2 0x8FC MUL SWAP3 SWAP2 DUP2 DUP2 DUP2 DUP6 DUP9 DUP9 CALL SWAP4 POP POP POP POP ISZERO DUP1 ISZERO PUSH2 0x819 JUMPI RETURNDATASIZE PUSH1 0x0 DUP1 RETURNDATACOPY RETURNDATASIZE PUSH1 0x0 REVERT JUMPDEST POP POP PUSH2 0x860 JUMP JUMPDEST PUSH1 0x7 SLOAD PUSH1 0x1 SLOAD PUSH1 0x40 MLOAD PUSH1 0x1 PUSH1 0x1 PUSH1 0xA0 SHL SUB SWAP1 SWAP3 AND SWAP2 DUP3 SWAP2 DUP1 ISZERO PUSH2 0x8FC MUL SWAP2 PUSH1 0x0 DUP2 DUP2 DUP2 DUP6 DUP9 DUP9 CALL SWAP4 POP POP POP POP ISZERO DUP1 ISZERO PUSH2 0x85D JUMPI RETURNDATASIZE PUSH1 0x0 DUP1 RETURNDATACOPY RETURNDATASIZE PUSH1 0x0 REVERT JUMPDEST POP POP JUMPDEST PUSH1 0x0 PUSH1 0x1 SSTORE JUMP JUMPDEST CALLER DUP1 EXTCODESIZE DUP1 ISZERO PUSH2 0x888 JUMPI PUSH1 0x40 MLOAD PUSH3 0x461BCD PUSH1 0xE5 SHL DUP2 MSTORE PUSH1 0x4 ADD PUSH2 0x494 SWAP1 PUSH2 0xF25 JUMP JUMPDEST PUSH1 0xD SLOAD ISZERO DUP1 PUSH2 0x899 JUMPI POP PUSH1 0x5 PUSH1 0xE SLOAD LT JUMPDEST ISZERO PUSH2 0x8A6 JUMPI PUSH2 0x8A6 PUSH2 0xEAD JUMP JUMPDEST PUSH1 0x0 PUSH2 0x8B0 PUSH2 0xD25 JUMP JUMPDEST GT PUSH2 0x8FD JUMPI PUSH1 0x40 MLOAD PUSH3 0x461BCD PUSH1 0xE5 SHL DUP2 MSTORE PUSH1 0x20 PUSH1 0x4 DUP3 ADD MSTORE PUSH1 0x19 PUSH1 0x24 DUP3 ADD MSTORE PUSH32 0x746865726520697320616C726561647920612077696E6E657200000000000000 PUSH1 0x44 DUP3 ADD MSTORE PUSH1 0x64 ADD PUSH2 0x494 JUMP JUMPDEST DUP3 PUSH1 0x9 SLOAD PUSH2 0x90B SWAP2 SWAP1 PUSH2 0xF88 JUMP JUMPDEST CALLVALUE LT PUSH2 0x98C JUMPI NUMBER PUSH1 0xB SSTORE PUSH1 0xC SLOAD PUSH1 0x9 SLOAD PUSH1 0x0 SWAP2 PUSH2 0x927 SWAP2 PUSH2 0xF88 JUMP JUMPDEST SWAP1 POP PUSH2 0x935 PUSH2 0x2710 DUP3 PUSH2 0xF68 JUMP JUMPDEST PUSH1 0x9 SLOAD PUSH2 0x942 SWAP2 SWAP1 PUSH2 0xF50 JUMP JUMPDEST PUSH1 0x9 DUP2 SWAP1 SSTORE PUSH1 0xA DUP1 SLOAD SWAP1 SWAP2 PUSH2 0x957 SWAP2 SWAP1 PUSH2 0xF68 JUMP JUMPDEST LT ISZERO DUP1 ISZERO PUSH2 0x968 JUMPI POP PUSH1 0x14 PUSH1 0xC SLOAD LT ISZERO JUMPDEST ISZERO PUSH2 0x986 JUMPI PUSH1 0x9 SLOAD PUSH1 0xA SWAP1 DUP2 SSTORE PUSH1 0xC SLOAD PUSH2 0x982 SWAP2 SWAP1 PUSH2 0xFA7 JUMP JUMPDEST PUSH1 0xC SSTORE JUMPDEST POP PUSH2 0xAAE JUMP JUMPDEST PUSH1 0x0 PUSH1 0xC SLOAD PUSH1 0x9 SLOAD PUSH2 0x99E SWAP2 SWAP1 PUSH2 0xF88 JUMP JUMPDEST SWAP1 POP PUSH1 0x0 PUSH2 0x9AE PUSH2 0x2710 DUP4 PUSH2 0xF68 JUMP JUMPDEST PUSH1 0x9 SLOAD PUSH2 0x9BB SWAP2 SWAP1 PUSH2 0xFA7 JUMP JUMPDEST SWAP1 POP PUSH2 0x9C7 DUP6 DUP3 PUSH2 0xF88 JUMP JUMPDEST CALLVALUE LT ISZERO DUP1 ISZERO PUSH2 0x9E3 JUMPI POP PUSH1 0xB SLOAD PUSH2 0x9DF SWAP1 PUSH1 0x1 PUSH2 0xF50 JUMP JUMPDEST NUMBER GT ISZERO JUMPDEST PUSH2 0xAAB JUMPI PUSH1 0x40 MLOAD PUSH3 0x461BCD PUSH1 0xE5 SHL DUP2 MSTORE PUSH1 0x20 PUSH1 0x4 DUP3 ADD MSTORE PUSH1 0x81 PUSH1 0x24 DUP3 ADD MSTORE PUSH32 0x4E6F7420656E6F75676820746F2062757920746865206B65792873293A204B65 PUSH1 0x44 DUP3 ADD MSTORE PUSH32 0x7920707269636520697320696E6372656173696E6720717569636B6C792E2054 PUSH1 0x64 DUP3 ADD MSTORE PUSH32 0x72792072656672657368696E6720746865207061676520616E6420717569636B PUSH1 0x84 DUP3 ADD MSTORE PUSH32 0x6C79207375626D697474696E67206B657920707572636861736520616761696E PUSH1 0xA4 DUP3 ADD MSTORE PUSH1 0x17 PUSH1 0xF9 SHL PUSH1 0xC4 DUP3 ADD MSTORE PUSH1 0xE4 ADD PUSH2 0x494 JUMP JUMPDEST POP POP JUMPDEST PUSH1 0x0 PUSH2 0xABB CALLVALUE PUSH1 0x64 PUSH2 0xF88 JUMP JUMPDEST SWAP1 POP PUSH1 0x0 PUSH2 0xACB PUSH2 0x2710 DUP4 PUSH2 0xF68 JUMP JUMPDEST SWAP1 POP PUSH1 0x0 PUSH2 0xAD9 DUP3 CALLVALUE PUSH2 0xFA7 JUMP JUMPDEST SWAP1 POP PUSH1 0x0 PUSH2 0xAE8 PUSH1 0x2 DUP4 PUSH2 0xF68 JUMP JUMPDEST SWAP1 POP DUP3 PUSH1 0x1 PUSH1 0x0 DUP3 DUP3 SLOAD PUSH2 0xAFC SWAP2 SWAP1 PUSH2 0xF50 JUMP JUMPDEST SWAP3 POP POP DUP2 SWAP1 SSTORE POP DUP1 PUSH1 0x10 PUSH1 0x0 DUP3 DUP3 SLOAD PUSH2 0xB15 SWAP2 SWAP1 PUSH2 0xF50 JUMP JUMPDEST SWAP1 SWAP2 SSTORE POP PUSH2 0xB25 SWAP1 POP DUP2 DUP4 PUSH2 0xFA7 JUMP JUMPDEST PUSH1 0xF PUSH1 0x0 DUP3 DUP3 SLOAD PUSH2 0xB36 SWAP2 SWAP1 PUSH2 0xF50 JUMP JUMPDEST SWAP1 SWAP2 SSTORE POP POP CALLER PUSH1 0x0 SWAP1 DUP2 MSTORE PUSH1 0x11 PUSH1 0x20 MSTORE PUSH1 0x40 DUP2 KECCAK256 DUP1 SLOAD DUP10 SWAP3 SWAP1 PUSH2 0xB5A SWAP1 DUP5 SWAP1 PUSH2 0xF50 JUMP JUMPDEST SWAP1 SWAP2 SSTORE POP POP CALLER PUSH1 0x0 SWAP1 DUP2 MSTORE PUSH1 0x11 PUSH1 0x20 MSTORE PUSH1 0x40 DUP2 KECCAK256 PUSH1 0x3 ADD DUP1 SLOAD PUSH2 0xFF00 NOT AND PUSH2 0x100 OR SWAP1 SSTORE PUSH1 0xD DUP1 SLOAD DUP10 SWAP3 SWAP1 PUSH2 0xB90 SWAP1 DUP5 SWAP1 PUSH2 0xF50 JUMP JUMPDEST SWAP1 SWAP2 SSTORE POP POP PUSH1 0x5 SLOAD PUSH2 0xBA3 SWAP1 TIMESTAMP SWAP1 PUSH2 0xFA7 JUMP JUMPDEST PUSH2 0xBB0 SWAP1 PUSH3 0x15180 PUSH2 0xFA7 JUMP JUMPDEST PUSH2 0xBBB DUP9 PUSH1 0x1E PUSH2 0xF88 JUMP JUMPDEST GT ISZERO PUSH2 0xBCE JUMPI PUSH2 0xBC9 PUSH2 0xEAD JUMP JUMPDEST PUSH2 0xBF0 JUMP JUMPDEST PUSH2 0xBD9 DUP8 PUSH1 0x1E PUSH2 0xF88 JUMP JUMPDEST PUSH1 0x5 PUSH1 0x0 DUP3 DUP3 SLOAD PUSH2 0xBEA SWAP2 SWAP1 PUSH2 0xF50 JUMP JUMPDEST SWAP1 SWAP2 SSTORE POP POP JUMPDEST PUSH1 0x1 PUSH1 0xE PUSH1 0x0 DUP3 DUP3 SLOAD PUSH2 0xC03 SWAP2 SWAP1 PUSH2 0xF50 JUMP JUMPDEST SWAP1 SWAP2 SSTORE POP POP PUSH1 0x7 DUP1 SLOAD PUSH1 0x1 PUSH1 0x1 PUSH1 0xA0 SHL SUB NOT AND CALLER SWAP1 DUP2 OR SWAP1 SWAP2 SSTORE PUSH1 0x0 DUP2 DUP2 MSTORE PUSH1 0x11 PUSH1 0x20 MSTORE PUSH1 0x40 SWAP1 DUP2 SWAP1 KECCAK256 SLOAD PUSH1 0xD SLOAD PUSH1 0x9 SLOAD PUSH1 0xF SLOAD PUSH1 0x10 SLOAD SWAP5 MLOAD PUSH32 0xF18DF1D3DBEFAEB22F0E4EFE18D279A090ED7B0A9BE1C27B33CDA2F677CA67D4 SWAP7 PUSH2 0xC94 SWAP7 SWAP2 SWAP6 DUP7 MSTORE PUSH1 0x20 DUP7 ADD SWAP5 SWAP1 SWAP5 MSTORE PUSH1 0x40 DUP6 ADD SWAP3 SWAP1 SWAP3 MSTORE PUSH1 0x60 DUP5 ADD MSTORE PUSH1 0x80 DUP4 ADD MSTORE PUSH1 0x1 PUSH1 0x1 PUSH1 0xA0 SHL SUB AND PUSH1 0xA0 DUP3 ADD MSTORE PUSH1 0xC0 ADD SWAP1 JUMP JUMPDEST PUSH1 0x40 MLOAD DUP1 SWAP2 SUB SWAP1 LOG1 POP POP POP POP POP POP POP JUMP JUMPDEST PUSH1 0x0 DUP1 PUSH1 0x0 PUSH1 0xD SLOAD PUSH1 0x0 EQ ISZERO PUSH2 0xCBE JUMPI PUSH1 0x0 SWAP2 POP PUSH2 0xD1E JUMP JUMPDEST PUSH1 0xF SLOAD PUSH1 0x1 PUSH1 0x1 PUSH1 0xA0 SHL SUB DUP6 AND PUSH1 0x0 SWAP1 DUP2 MSTORE PUSH1 0x11 PUSH1 0x20 MSTORE PUSH1 0x40 SWAP1 KECCAK256 SLOAD PUSH2 0xCE4 SWAP2 SWAP1 PUSH2 0xF88 JUMP JUMPDEST PUSH1 0x1 PUSH1 0x1 PUSH1 0xA0 SHL SUB DUP6 AND PUSH1 0x0 SWAP1 DUP2 MSTORE PUSH1 0x11 PUSH1 0x20 MSTORE PUSH1 0x40 SWAP1 KECCAK256 PUSH1 0x2 ADD SLOAD PUSH1 0xD SLOAD SWAP2 SWAP3 POP SWAP1 PUSH2 0xD11 SWAP1 DUP4 PUSH2 0xF68 JUMP JUMPDEST PUSH2 0xD1B SWAP2 SWAP1 PUSH2 0xFA7 JUMP JUMPDEST SWAP2 POP JUMPDEST POP SWAP3 SWAP2 POP POP JUMP JUMPDEST PUSH1 0x0 PUSH1 0xD SLOAD PUSH1 0x0 EQ ISZERO PUSH2 0xD3A JUMPI POP PUSH3 0x15180 SWAP1 JUMP JUMPDEST TIMESTAMP PUSH1 0x5 SLOAD LT PUSH2 0xD56 JUMPI TIMESTAMP PUSH1 0x5 SLOAD PUSH2 0xD51 SWAP2 SWAP1 PUSH2 0xFA7 JUMP JUMPDEST SWAP1 POP SWAP1 JUMP JUMPDEST POP PUSH1 0x0 SWAP1 JUMP JUMPDEST CALLER DUP1 EXTCODESIZE DUP1 ISZERO PUSH2 0xD7D JUMPI PUSH1 0x40 MLOAD PUSH3 0x461BCD PUSH1 0xE5 SHL DUP2 MSTORE PUSH1 0x4 ADD PUSH2 0x494 SWAP1 PUSH2 0xF25 JUMP JUMPDEST PUSH2 0xD85 PUSH2 0xD25 JUMP JUMPDEST ISZERO PUSH2 0xDCA JUMPI PUSH1 0x40 MLOAD PUSH3 0x461BCD PUSH1 0xE5 SHL DUP2 MSTORE PUSH1 0x20 PUSH1 0x4 DUP3 ADD MSTORE PUSH1 0x15 PUSH1 0x24 DUP3 ADD MSTORE PUSH21 0x67616D65206973207374696C6C20696E20706C6179 PUSH1 0x58 SHL PUSH1 0x44 DUP3 ADD MSTORE PUSH1 0x64 ADD PUSH2 0x494 JUMP JUMPDEST PUSH1 0x0 PUSH1 0x10 SLOAD GT PUSH2 0xE12 JUMPI PUSH1 0x40 MLOAD PUSH3 0x461BCD PUSH1 0xE5 SHL DUP2 MSTORE PUSH1 0x20 PUSH1 0x4 DUP3 ADD MSTORE PUSH1 0x13 PUSH1 0x24 DUP3 ADD MSTORE PUSH19 0x139BC81B5BDB995E481A5B881A9858DADC1BDD PUSH1 0x6A SHL PUSH1 0x44 DUP3 ADD MSTORE PUSH1 0x64 ADD PUSH2 0x494 JUMP JUMPDEST PUSH1 0x7 SLOAD PUSH1 0x1 PUSH1 0x1 PUSH1 0xA0 SHL SUB AND CALLER EQ PUSH2 0xE65 JUMPI PUSH1 0x40 MLOAD PUSH3 0x461BCD PUSH1 0xE5 SHL DUP2 MSTORE PUSH1 0x20 PUSH1 0x4 DUP3 ADD MSTORE PUSH1 0x16 PUSH1 0x24 DUP3 ADD MSTORE PUSH22 0x3CB7BA9030B932903737BA103A3432903BB4B73732B9 PUSH1 0x51 SHL PUSH1 0x44 DUP3 ADD MSTORE PUSH1 0x64 ADD PUSH2 0x494 JUMP JUMPDEST PUSH1 0x7 SLOAD PUSH1 0x10 SLOAD PUSH1 0x40 MLOAD PUSH1 0x1 PUSH1 0x1 PUSH1 0xA0 SHL SUB SWAP1 SWAP3 AND SWAP2 DUP3 SWAP2 DUP1 ISZERO PUSH2 0x8FC MUL SWAP2 PUSH1 0x0 DUP2 DUP2 DUP2 DUP6 DUP9 DUP9 CALL SWAP4 POP POP POP POP ISZERO DUP1 ISZERO PUSH2 0xEA2 JUMPI RETURNDATASIZE PUSH1 0x0 DUP1 RETURNDATACOPY RETURNDATASIZE PUSH1 0x0 REVERT JUMPDEST POP POP PUSH1 0x0 PUSH1 0x10 SSTORE POP POP JUMP JUMPDEST PUSH2 0xEBA TIMESTAMP PUSH3 0x15180 PUSH2 0xF50 JUMP JUMPDEST PUSH1 0x5 SSTORE JUMP JUMPDEST PUSH1 0x0 PUSH1 0x20 DUP3 DUP5 SUB SLT ISZERO PUSH2 0xED0 JUMPI DUP1 DUP2 REVERT JUMPDEST DUP2 CALLDATALOAD PUSH1 0x1 PUSH1 0x1 PUSH1 0xA0 SHL SUB DUP2 AND DUP2 EQ PUSH2 0xEE6 JUMPI DUP2 DUP3 REVERT JUMPDEST SWAP4 SWAP3 POP POP POP JUMP JUMPDEST PUSH1 0x0 PUSH1 0x20 DUP3 DUP5 SUB SLT ISZERO PUSH2 0xEFE JUMPI DUP1 DUP2 REVERT JUMPDEST DUP2 CALLDATALOAD DUP1 ISZERO ISZERO DUP2 EQ PUSH2 0xEE6 JUMPI DUP2 DUP3 REVERT JUMPDEST PUSH1 0x0 PUSH1 0x20 DUP3 DUP5 SUB SLT ISZERO PUSH2 0xF1E JUMPI DUP1 DUP2 REVERT JUMPDEST POP CALLDATALOAD SWAP2 SWAP1 POP JUMP JUMPDEST PUSH1 0x20 DUP1 DUP3 MSTORE PUSH1 0x11 SWAP1 DUP3 ADD MSTORE PUSH17 0x736F7272792068756D616E73206F6E6C79 PUSH1 0x78 SHL PUSH1 0x40 DUP3 ADD MSTORE PUSH1 0x60 ADD SWAP1 JUMP JUMPDEST PUSH1 0x0 DUP3 NOT DUP3 GT ISZERO PUSH2 0xF63 JUMPI PUSH2 0xF63 PUSH2 0xFBE JUMP JUMPDEST POP ADD SWAP1 JUMP JUMPDEST PUSH1 0x0 DUP3 PUSH2 0xF83 JUMPI PUSH4 0x4E487B71 PUSH1 0xE0 SHL DUP2 MSTORE PUSH1 0x12 PUSH1 0x4 MSTORE PUSH1 0x24 DUP2 REVERT JUMPDEST POP DIV SWAP1 JUMP JUMPDEST PUSH1 0x0 DUP2 PUSH1 0x0 NOT DIV DUP4 GT DUP3 ISZERO ISZERO AND ISZERO PUSH2 0xFA2 JUMPI PUSH2 0xFA2 PUSH2 0xFBE JUMP JUMPDEST POP MUL SWAP1 JUMP JUMPDEST PUSH1 0x0 DUP3 DUP3 LT ISZERO PUSH2 0xFB9 JUMPI PUSH2 0xFB9 PUSH2 0xFBE JUMP JUMPDEST POP SUB SWAP1 JUMP JUMPDEST PUSH4 0x4E487B71 PUSH1 0xE0 SHL PUSH1 0x0 MSTORE PUSH1 0x11 PUSH1 0x4 MSTORE PUSH1 0x24 PUSH1 0x0 REVERT INVALID LOG2 PUSH5 0x6970667358 0x22 SLT KECCAK256 0xB7 SWAP6 TIMESTAMP 0xFC DUP9 CODESIZE 0x2B PUSH16 0x71FE43848E30C17B941620243FB21797 0xE2 PUSH13 0xC46A234D03BE64736F6C634300 ADDMOD DIV STOP CALLER "
        },
        "methodIdentifiers": {
          "balanceReceived()": "52a90c42",
          "developerOnePercent()": "8b80016b",
          "developerOnePercentAllocation()": "1fd9300d",
          "divPool()": "7c2be5dd",
          "divTracker(address)": "55fcbbff",
          "getTimeLeft()": "c7e284b8",
          "getWinner()": "8e7ea5b2",
          "giveToDeveloper()": "e5618fa9",
          "giveToJackpot()": "82f96499",
          "increased_order()": "e02b44d4",
          "jackpot()": "6b31ee01",
          "jackpotPayout()": "d20bff02",
          "keyPrice()": "10e56973",
          "keyPriceIncreaseBlockNumber()": "05b3bd70",
          "keyPurchases()": "92c5c06e",
          "multiplier()": "1b3ed722",
          "purchaseKeys(uint256)": "78c3171f",
          "startTime()": "78e97925",
          "timeLeft()": "1300a6d1",
          "totalKeys()": "488bdabc",
          "totalTime()": "58533e0a",
          "updateDivvies(address)": "acf7084a",
          "voteForOnePercent(bool)": "111d3efb",
          "whoWon(address)": "0d153c92",
          "withdrawDivvies()": "1ebe585d"
        }
      }
    }
  }
}