{
  "contracts/FomoOE.sol": {
    "FomoOE": {
      "abi": [
        {
          "inputs": [],
          "stateMutability": "nonpayable",
          "type": "constructor"
        },
        {
          "anonymous": false,
          "inputs": [
            {
              "indexed": false,
              "internalType": "uint256",
              "name": "_balanceReceived",
              "type": "uint256"
            }
          ],
          "name": "contractBalance",
          "type": "event"
        },
        {
          "anonymous": false,
          "inputs": [
            {
              "indexed": false,
              "internalType": "uint256",
              "name": "keyPrice",
              "type": "uint256"
            }
          ],
          "name": "currentKeyPrice",
          "type": "event"
        },
        {
          "anonymous": false,
          "inputs": [
            {
              "indexed": false,
              "internalType": "uint256",
              "name": "_userKeyBalance",
              "type": "uint256"
            },
            {
              "indexed": false,
              "internalType": "uint256",
              "name": "_totalKeys",
              "type": "uint256"
            },
            {
              "indexed": false,
              "internalType": "uint256",
              "name": "_keyPrice",
              "type": "uint256"
            },
            {
              "indexed": false,
              "internalType": "uint256",
              "name": "_divPool",
              "type": "uint256"
            },
            {
              "indexed": false,
              "internalType": "uint256",
              "name": "_jackpot",
              "type": "uint256"
            },
            {
              "indexed": false,
              "internalType": "address",
              "name": "_winning",
              "type": "address"
            }
          ],
          "name": "keysPurchased",
          "type": "event"
        },
        {
          "anonymous": false,
          "inputs": [
            {
              "indexed": false,
              "internalType": "uint256",
              "name": "_userDivvies",
              "type": "uint256"
            }
          ],
          "name": "userDivvies",
          "type": "event"
        },
        {
          "inputs": [],
          "name": "balanceReceived",
          "outputs": [
            {
              "internalType": "uint256",
              "name": "",
              "type": "uint256"
            }
          ],
          "stateMutability": "view",
          "type": "function"
        },
        {
          "inputs": [],
          "name": "developerOnePercent",
          "outputs": [
            {
              "internalType": "uint256",
              "name": "",
              "type": "uint256"
            }
          ],
          "stateMutability": "view",
          "type": "function"
        },
        {
          "inputs": [],
          "name": "developerOnePercentAllocation",
          "outputs": [],
          "stateMutability": "nonpayable",
          "type": "function"
        },
        {
          "inputs": [],
          "name": "divPool",
          "outputs": [
            {
              "internalType": "uint256",
              "name": "",
              "type": "uint256"
            }
          ],
          "stateMutability": "view",
          "type": "function"
        },
        {
          "inputs": [
            {
              "internalType": "address",
              "name": "",
              "type": "address"
            }
          ],
          "name": "divTracker",
          "outputs": [
            {
              "internalType": "uint256",
              "name": "_keyBalance",
              "type": "uint256"
            },
            {
              "internalType": "uint256",
              "name": "_divBalance",
              "type": "uint256"
            },
            {
              "internalType": "uint256",
              "name": "_withdrawnAmount",
              "type": "uint256"
            },
            {
              "internalType": "bool",
              "name": "_voted",
              "type": "bool"
            },
            {
              "internalType": "bool",
              "name": "_boughtKeys",
              "type": "bool"
            }
          ],
          "stateMutability": "view",
          "type": "function"
        },
        {
          "inputs": [],
          "name": "getTimeLeft",
          "outputs": [
            {
              "internalType": "uint256",
              "name": "",
              "type": "uint256"
            }
          ],
          "stateMutability": "view",
          "type": "function"
        },
        {
          "inputs": [],
          "name": "getWinner",
          "outputs": [
            {
              "internalType": "address",
              "name": "",
              "type": "address"
            }
          ],
          "stateMutability": "view",
          "type": "function"
        },
        {
          "inputs": [],
          "name": "giveToDeveloper",
          "outputs": [
            {
              "internalType": "uint256",
              "name": "",
              "type": "uint256"
            }
          ],
          "stateMutability": "view",
          "type": "function"
        },
        {
          "inputs": [],
          "name": "giveToJackpot",
          "outputs": [
            {
              "internalType": "uint256",
              "name": "",
              "type": "uint256"
            }
          ],
          "stateMutability": "view",
          "type": "function"
        },
        {
          "inputs": [],
          "name": "jackpot",
          "outputs": [
            {
              "internalType": "uint256",
              "name": "",
              "type": "uint256"
            }
          ],
          "stateMutability": "view",
          "type": "function"
        },
        {
          "inputs": [],
          "name": "jackpotPayout",
          "outputs": [],
          "stateMutability": "nonpayable",
          "type": "function"
        },
        {
          "inputs": [],
          "name": "keyPrice",
          "outputs": [
            {
              "internalType": "uint256",
              "name": "",
              "type": "uint256"
            }
          ],
          "stateMutability": "view",
          "type": "function"
        },
        {
          "inputs": [
            {
              "internalType": "uint256",
              "name": "",
              "type": "uint256"
            }
          ],
          "name": "keyPriceTracker",
          "outputs": [
            {
              "internalType": "uint256",
              "name": "_currentKeyPrice",
              "type": "uint256"
            }
          ],
          "stateMutability": "view",
          "type": "function"
        },
        {
          "inputs": [],
          "name": "keyPurchases",
          "outputs": [
            {
              "internalType": "uint256",
              "name": "",
              "type": "uint256"
            }
          ],
          "stateMutability": "view",
          "type": "function"
        },
        {
          "inputs": [],
          "name": "prevKeyPrice",
          "outputs": [
            {
              "internalType": "uint256",
              "name": "",
              "type": "uint256"
            }
          ],
          "stateMutability": "view",
          "type": "function"
        },
        {
          "inputs": [
            {
              "internalType": "uint256",
              "name": "_amount",
              "type": "uint256"
            }
          ],
          "name": "purchaseKeys",
          "outputs": [],
          "stateMutability": "payable",
          "type": "function"
        },
        {
          "inputs": [],
          "name": "startTime",
          "outputs": [
            {
              "internalType": "uint256",
              "name": "",
              "type": "uint256"
            }
          ],
          "stateMutability": "view",
          "type": "function"
        },
        {
          "inputs": [],
          "name": "timeLeft",
          "outputs": [
            {
              "internalType": "uint256",
              "name": "",
              "type": "uint256"
            }
          ],
          "stateMutability": "view",
          "type": "function"
        },
        {
          "inputs": [],
          "name": "totalKeys",
          "outputs": [
            {
              "internalType": "uint256",
              "name": "",
              "type": "uint256"
            }
          ],
          "stateMutability": "view",
          "type": "function"
        },
        {
          "inputs": [],
          "name": "totalTime",
          "outputs": [
            {
              "internalType": "uint256",
              "name": "",
              "type": "uint256"
            }
          ],
          "stateMutability": "view",
          "type": "function"
        },
        {
          "inputs": [
            {
              "internalType": "address",
              "name": "_userAddress",
              "type": "address"
            }
          ],
          "name": "updateDivvies",
          "outputs": [
            {
              "internalType": "uint256",
              "name": "",
              "type": "uint256"
            }
          ],
          "stateMutability": "view",
          "type": "function"
        },
        {
          "inputs": [
            {
              "internalType": "bool",
              "name": "_vote",
              "type": "bool"
            }
          ],
          "name": "voteForOnePercent",
          "outputs": [],
          "stateMutability": "nonpayable",
          "type": "function"
        },
        {
          "inputs": [
            {
              "internalType": "address",
              "name": "_userAddress",
              "type": "address"
            }
          ],
          "name": "whoWon",
          "outputs": [
            {
              "internalType": "address",
              "name": "winner",
              "type": "address"
            }
          ],
          "stateMutability": "view",
          "type": "function"
        },
        {
          "inputs": [],
          "name": "withdrawDivvies",
          "outputs": [],
          "stateMutability": "nonpayable",
          "type": "function"
        }
      ],
      "evm": {
        "bytecode": {
          "linkReferences": {},
          "object": "6080604052660bf5f72abe6810600a5534801561001b57600080fd5b50600180546001600160a01b03191633179055610e008061003d6000396000f3fe60806040526004361061014b5760003560e01c80636b31ee01116100b65780638e7ea5b21161006f5780638e7ea5b21461039357806392c5c06e146103b1578063acf7084a146103c7578063c7e284b8146103e7578063d20bff02146103fc578063e5618fa91461041157600080fd5b80636b31ee011461031257806378c3171f1461032857806378e979251461033b5780637c2be5dd1461035157806382f96499146103675780638b80016b1461037d57600080fd5b806332b123f41161010857806332b123f414610213578063488bdabc1461024057806352a90c421461025657806355fcbbff1461026c57806358533e0a146102e65780635daa424d146102fc57600080fd5b80630d153c921461015057806310e569731461018d578063111d3efb146101b15780631300a6d1146101d35780631ebe585d146101e95780631fd9300d146101fe575b600080fd5b34801561015c57600080fd5b5061017061016b366004610ce0565b610427565b6040516001600160a01b0390911681526020015b60405180910390f35b34801561019957600080fd5b506101a3600a5481565b604051908152602001610184565b3480156101bd57600080fd5b506101d16101cc366004610d0e565b610459565b005b3480156101df57600080fd5b506101a360075481565b3480156101f557600080fd5b506101d1610598565b34801561020a57600080fd5b506101d16106b3565b34801561021f57600080fd5b506101a361022e366004610d2e565b600b6020526000908152604090205481565b34801561024c57600080fd5b506101a3600c5481565b34801561026257600080fd5b506101a360095481565b34801561027857600080fd5b506102ba610287366004610ce0565b60106020526000908152604090208054600182015460028301546003909301549192909160ff8082169161010090041685565b60408051958652602086019490945292840191909152151560608301521515608082015260a001610184565b3480156102f257600080fd5b506101a360065481565b34801561030857600080fd5b506101a360005481565b34801561031e57600080fd5b506101a3600f5481565b6101d1610336366004610d2e565b610803565b34801561034757600080fd5b506101a360055481565b34801561035d57600080fd5b506101a3600e5481565b34801561037357600080fd5b506101a360045481565b34801561038957600080fd5b506101a360025481565b34801561039f57600080fd5b506008546001600160a01b0316610170565b3480156103bd57600080fd5b506101a3600d5481565b3480156103d357600080fd5b506101a36103e2366004610ce0565b610ad0565b3480156103f357600080fd5b506101a3610b50565b34801561040857600080fd5b506101d1610b87565b34801561041d57600080fd5b506101a360035481565b6000610431610b50565b15801561044b57506008546001600160a01b038381169116145b15610454575090565b919050565b3360009081526010602052604090206003015460ff6101009091041615156001146104dd5760405162461bcd60e51b815260206004820152602960248201527f796f75206e65656420746f20627579206174206c65617374206f6e65206b6579604482015268103a37903b37ba329760b91b60648201526084015b60405180910390fd5b3360009081526010602052604090206003015460ff16156105355760405162461bcd60e51b81526020600482015260126024820152713cb7ba9030b63932b0b23c903b37ba32b21760711b60448201526064016104d4565b336000908152601060205260409020600301805460ff19166001908117909155811515141561057c576001600360008282546105719190610d46565b909155506105959050565b60016004600082825461058f9190610d46565b90915550505b50565b600c54339060009081906105af5760009150610627565b600e54336000908152601060205260409020546105cc9190610d7e565b33600090815260106020526040902060020154600c54919250906105f09083610d5e565b6105fa9190610d9d565b33600090815260106020526040812060020180549294508492909190610621908490610d46565b90915550505b600082116106775760405162461bcd60e51b815260206004820152601c60248201527f596f752068617665206e6f206469767669657320746f20636c61696d0000000060448201526064016104d4565b6040516001600160a01b0384169083156108fc029084906000818181858888f193505050501580156106ad573d6000803e3d6000fd5b50505050565b6001546001600160a01b031633146107205760405162461bcd60e51b815260206004820152602a60248201527f796f75206172656e27742074686520646576656c6f706572206f6620746869736044820152691031b7b73a3930b1ba1760b11b60648201526084016104d4565b610728610b50565b1561076d5760405162461bcd60e51b815260206004820152601560248201527467616d65206973207374696c6c20696e20706c617960581b60448201526064016104d4565b600454600354106107bc576001546002546040516001600160a01b0390921691829180156108fc02916000818181858888f193505050501580156107b5573d6000803e3d6000fd5b50506107fc565b6008546002546040516001600160a01b0390921691829180156108fc02916000818181858888f193505050501580156107f9573d6000803e3d6000fd5b50505b6000600255565b600c5461081257610812610cb5565b600061081c610b50565b116108695760405162461bcd60e51b815260206004820152601960248201527f746865726520697320616c726561647920612077696e6e65720000000000000060448201526064016104d4565b6000610876346064610d7e565b9050600061088661271083610d5e565b905060006108948234610d9d565b905060006108a3600283610d5e565b905082600260008282546108b79190610d46565b9250508190555080600f60008282546108d09190610d46565b909155506108e090508183610d9d565b600e60008282546108f19190610d46565b90915550503360009081526010602052604081208054879290610915908490610d46565b9091555050336000908152601060205260408120600301805461ff001916610100179055600c805487929061094b908490610d46565b909155505060065461095e904290610d9d565b61096b9062015180610d9d565b61097686601e610d7e565b111561098957610984610cb5565b6109ab565b61099485601e610d7e565b600660008282546109a59190610d46565b90915550505b6101f4600d5411156109ec576000600a5460646109c89190610d7e565b90506109d661271082610d5e565b600a546109e39190610d46565b600a5550610a1d565b6000600a5460326109fd9190610d7e565b9050610a0b61271082610d5e565b600a54610a189190610d46565b600a55505b6001600d6000828254610a309190610d46565b9091555050600880546001600160a01b031916339081179091556000818152601060205260409081902054600c54600a54600e54600f5494517ff18df1d3dbefaeb22f0e4efe18d279a090ed7b0a9be1c27b33cda2f677ca67d496610ac1969195865260208601949094526040850192909252606084015260808301526001600160a01b031660a082015260c00190565b60405180910390a15050505050565b6000806000600c5460001415610ae95760009150610b49565b600e546001600160a01b038516600090815260106020526040902054610b0f9190610d7e565b6001600160a01b038516600090815260106020526040902060020154600c5491925090610b3c9083610d5e565b610b469190610d9d565b91505b5092915050565b6000600c5460001415610b6557506201518090565b4260065410610b815742600654610b7c9190610d9d565b905090565b50600090565b610b8f610b50565b15610bd45760405162461bcd60e51b815260206004820152601560248201527467616d65206973207374696c6c20696e20706c617960581b60448201526064016104d4565b6000600f5411610c1c5760405162461bcd60e51b8152602060048201526013602482015272139bc81b5bdb995e481a5b881a9858dadc1bdd606a1b60448201526064016104d4565b6008546001600160a01b03163314610c6f5760405162461bcd60e51b81526020600482015260166024820152753cb7ba9030b932903737ba103a3432903bb4b73732b960511b60448201526064016104d4565b600854600f546040516001600160a01b0390921691829180156108fc02916000818181858888f19350505050158015610cac573d6000803e3d6000fd5b50506000600f55565b436000908152600b60205260409020660bf5f72abe68109055610cdb4262015180610d46565b600655565b600060208284031215610cf1578081fd5b81356001600160a01b0381168114610d07578182fd5b9392505050565b600060208284031215610d1f578081fd5b81358015158114610d07578182fd5b600060208284031215610d3f578081fd5b5035919050565b60008219821115610d5957610d59610db4565b500190565b600082610d7957634e487b7160e01b81526012600452602481fd5b500490565b6000816000190483118215151615610d9857610d98610db4565b500290565b600082821015610daf57610daf610db4565b500390565b634e487b7160e01b600052601160045260246000fdfea264697066735822122071b5386209e11b0d413dc24f69f8dcf24923f345ebefb7399f37f24e0b8cdf6464736f6c63430008040033",
          "opcodes": "PUSH1 0x80 PUSH1 0x40 MSTORE PUSH7 0xBF5F72ABE6810 PUSH1 0xA SSTORE CALLVALUE DUP1 ISZERO PUSH2 0x1B JUMPI PUSH1 0x0 DUP1 REVERT JUMPDEST POP PUSH1 0x1 DUP1 SLOAD PUSH1 0x1 PUSH1 0x1 PUSH1 0xA0 SHL SUB NOT AND CALLER OR SWAP1 SSTORE PUSH2 0xE00 DUP1 PUSH2 0x3D PUSH1 0x0 CODECOPY PUSH1 0x0 RETURN INVALID PUSH1 0x80 PUSH1 0x40 MSTORE PUSH1 0x4 CALLDATASIZE LT PUSH2 0x14B JUMPI PUSH1 0x0 CALLDATALOAD PUSH1 0xE0 SHR DUP1 PUSH4 0x6B31EE01 GT PUSH2 0xB6 JUMPI DUP1 PUSH4 0x8E7EA5B2 GT PUSH2 0x6F JUMPI DUP1 PUSH4 0x8E7EA5B2 EQ PUSH2 0x393 JUMPI DUP1 PUSH4 0x92C5C06E EQ PUSH2 0x3B1 JUMPI DUP1 PUSH4 0xACF7084A EQ PUSH2 0x3C7 JUMPI DUP1 PUSH4 0xC7E284B8 EQ PUSH2 0x3E7 JUMPI DUP1 PUSH4 0xD20BFF02 EQ PUSH2 0x3FC JUMPI DUP1 PUSH4 0xE5618FA9 EQ PUSH2 0x411 JUMPI PUSH1 0x0 DUP1 REVERT JUMPDEST DUP1 PUSH4 0x6B31EE01 EQ PUSH2 0x312 JUMPI DUP1 PUSH4 0x78C3171F EQ PUSH2 0x328 JUMPI DUP1 PUSH4 0x78E97925 EQ PUSH2 0x33B JUMPI DUP1 PUSH4 0x7C2BE5DD EQ PUSH2 0x351 JUMPI DUP1 PUSH4 0x82F96499 EQ PUSH2 0x367 JUMPI DUP1 PUSH4 0x8B80016B EQ PUSH2 0x37D JUMPI PUSH1 0x0 DUP1 REVERT JUMPDEST DUP1 PUSH4 0x32B123F4 GT PUSH2 0x108 JUMPI DUP1 PUSH4 0x32B123F4 EQ PUSH2 0x213 JUMPI DUP1 PUSH4 0x488BDABC EQ PUSH2 0x240 JUMPI DUP1 PUSH4 0x52A90C42 EQ PUSH2 0x256 JUMPI DUP1 PUSH4 0x55FCBBFF EQ PUSH2 0x26C JUMPI DUP1 PUSH4 0x58533E0A EQ PUSH2 0x2E6 JUMPI DUP1 PUSH4 0x5DAA424D EQ PUSH2 0x2FC JUMPI PUSH1 0x0 DUP1 REVERT JUMPDEST DUP1 PUSH4 0xD153C92 EQ PUSH2 0x150 JUMPI DUP1 PUSH4 0x10E56973 EQ PUSH2 0x18D JUMPI DUP1 PUSH4 0x111D3EFB EQ PUSH2 0x1B1 JUMPI DUP1 PUSH4 0x1300A6D1 EQ PUSH2 0x1D3 JUMPI DUP1 PUSH4 0x1EBE585D EQ PUSH2 0x1E9 JUMPI DUP1 PUSH4 0x1FD9300D EQ PUSH2 0x1FE JUMPI JUMPDEST PUSH1 0x0 DUP1 REVERT JUMPDEST CALLVALUE DUP1 ISZERO PUSH2 0x15C JUMPI PUSH1 0x0 DUP1 REVERT JUMPDEST POP PUSH2 0x170 PUSH2 0x16B CALLDATASIZE PUSH1 0x4 PUSH2 0xCE0 JUMP JUMPDEST PUSH2 0x427 JUMP JUMPDEST PUSH1 0x40 MLOAD PUSH1 0x1 PUSH1 0x1 PUSH1 0xA0 SHL SUB SWAP1 SWAP2 AND DUP2 MSTORE PUSH1 0x20 ADD JUMPDEST PUSH1 0x40 MLOAD DUP1 SWAP2 SUB SWAP1 RETURN JUMPDEST CALLVALUE DUP1 ISZERO PUSH2 0x199 JUMPI PUSH1 0x0 DUP1 REVERT JUMPDEST POP PUSH2 0x1A3 PUSH1 0xA SLOAD DUP2 JUMP JUMPDEST PUSH1 0x40 MLOAD SWAP1 DUP2 MSTORE PUSH1 0x20 ADD PUSH2 0x184 JUMP JUMPDEST CALLVALUE DUP1 ISZERO PUSH2 0x1BD JUMPI PUSH1 0x0 DUP1 REVERT JUMPDEST POP PUSH2 0x1D1 PUSH2 0x1CC CALLDATASIZE PUSH1 0x4 PUSH2 0xD0E JUMP JUMPDEST PUSH2 0x459 JUMP JUMPDEST STOP JUMPDEST CALLVALUE DUP1 ISZERO PUSH2 0x1DF JUMPI PUSH1 0x0 DUP1 REVERT JUMPDEST POP PUSH2 0x1A3 PUSH1 0x7 SLOAD DUP2 JUMP JUMPDEST CALLVALUE DUP1 ISZERO PUSH2 0x1F5 JUMPI PUSH1 0x0 DUP1 REVERT JUMPDEST POP PUSH2 0x1D1 PUSH2 0x598 JUMP JUMPDEST CALLVALUE DUP1 ISZERO PUSH2 0x20A JUMPI PUSH1 0x0 DUP1 REVERT JUMPDEST POP PUSH2 0x1D1 PUSH2 0x6B3 JUMP JUMPDEST CALLVALUE DUP1 ISZERO PUSH2 0x21F JUMPI PUSH1 0x0 DUP1 REVERT JUMPDEST POP PUSH2 0x1A3 PUSH2 0x22E CALLDATASIZE PUSH1 0x4 PUSH2 0xD2E JUMP JUMPDEST PUSH1 0xB PUSH1 0x20 MSTORE PUSH1 0x0 SWAP1 DUP2 MSTORE PUSH1 0x40 SWAP1 KECCAK256 SLOAD DUP2 JUMP JUMPDEST CALLVALUE DUP1 ISZERO PUSH2 0x24C JUMPI PUSH1 0x0 DUP1 REVERT JUMPDEST POP PUSH2 0x1A3 PUSH1 0xC SLOAD DUP2 JUMP JUMPDEST CALLVALUE DUP1 ISZERO PUSH2 0x262 JUMPI PUSH1 0x0 DUP1 REVERT JUMPDEST POP PUSH2 0x1A3 PUSH1 0x9 SLOAD DUP2 JUMP JUMPDEST CALLVALUE DUP1 ISZERO PUSH2 0x278 JUMPI PUSH1 0x0 DUP1 REVERT JUMPDEST POP PUSH2 0x2BA PUSH2 0x287 CALLDATASIZE PUSH1 0x4 PUSH2 0xCE0 JUMP JUMPDEST PUSH1 0x10 PUSH1 0x20 MSTORE PUSH1 0x0 SWAP1 DUP2 MSTORE PUSH1 0x40 SWAP1 KECCAK256 DUP1 SLOAD PUSH1 0x1 DUP3 ADD SLOAD PUSH1 0x2 DUP4 ADD SLOAD PUSH1 0x3 SWAP1 SWAP4 ADD SLOAD SWAP2 SWAP3 SWAP1 SWAP2 PUSH1 0xFF DUP1 DUP3 AND SWAP2 PUSH2 0x100 SWAP1 DIV AND DUP6 JUMP JUMPDEST PUSH1 0x40 DUP1 MLOAD SWAP6 DUP7 MSTORE PUSH1 0x20 DUP7 ADD SWAP5 SWAP1 SWAP5 MSTORE SWAP3 DUP5 ADD SWAP2 SWAP1 SWAP2 MSTORE ISZERO ISZERO PUSH1 0x60 DUP4 ADD MSTORE ISZERO ISZERO PUSH1 0x80 DUP3 ADD MSTORE PUSH1 0xA0 ADD PUSH2 0x184 JUMP JUMPDEST CALLVALUE DUP1 ISZERO PUSH2 0x2F2 JUMPI PUSH1 0x0 DUP1 REVERT JUMPDEST POP PUSH2 0x1A3 PUSH1 0x6 SLOAD DUP2 JUMP JUMPDEST CALLVALUE DUP1 ISZERO PUSH2 0x308 JUMPI PUSH1 0x0 DUP1 REVERT JUMPDEST POP PUSH2 0x1A3 PUSH1 0x0 SLOAD DUP2 JUMP JUMPDEST CALLVALUE DUP1 ISZERO PUSH2 0x31E JUMPI PUSH1 0x0 DUP1 REVERT JUMPDEST POP PUSH2 0x1A3 PUSH1 0xF SLOAD DUP2 JUMP JUMPDEST PUSH2 0x1D1 PUSH2 0x336 CALLDATASIZE PUSH1 0x4 PUSH2 0xD2E JUMP JUMPDEST PUSH2 0x803 JUMP JUMPDEST CALLVALUE DUP1 ISZERO PUSH2 0x347 JUMPI PUSH1 0x0 DUP1 REVERT JUMPDEST POP PUSH2 0x1A3 PUSH1 0x5 SLOAD DUP2 JUMP JUMPDEST CALLVALUE DUP1 ISZERO PUSH2 0x35D JUMPI PUSH1 0x0 DUP1 REVERT JUMPDEST POP PUSH2 0x1A3 PUSH1 0xE SLOAD DUP2 JUMP JUMPDEST CALLVALUE DUP1 ISZERO PUSH2 0x373 JUMPI PUSH1 0x0 DUP1 REVERT JUMPDEST POP PUSH2 0x1A3 PUSH1 0x4 SLOAD DUP2 JUMP JUMPDEST CALLVALUE DUP1 ISZERO PUSH2 0x389 JUMPI PUSH1 0x0 DUP1 REVERT JUMPDEST POP PUSH2 0x1A3 PUSH1 0x2 SLOAD DUP2 JUMP JUMPDEST CALLVALUE DUP1 ISZERO PUSH2 0x39F JUMPI PUSH1 0x0 DUP1 REVERT JUMPDEST POP PUSH1 0x8 SLOAD PUSH1 0x1 PUSH1 0x1 PUSH1 0xA0 SHL SUB AND PUSH2 0x170 JUMP JUMPDEST CALLVALUE DUP1 ISZERO PUSH2 0x3BD JUMPI PUSH1 0x0 DUP1 REVERT JUMPDEST POP PUSH2 0x1A3 PUSH1 0xD SLOAD DUP2 JUMP JUMPDEST CALLVALUE DUP1 ISZERO PUSH2 0x3D3 JUMPI PUSH1 0x0 DUP1 REVERT JUMPDEST POP PUSH2 0x1A3 PUSH2 0x3E2 CALLDATASIZE PUSH1 0x4 PUSH2 0xCE0 JUMP JUMPDEST PUSH2 0xAD0 JUMP JUMPDEST CALLVALUE DUP1 ISZERO PUSH2 0x3F3 JUMPI PUSH1 0x0 DUP1 REVERT JUMPDEST POP PUSH2 0x1A3 PUSH2 0xB50 JUMP JUMPDEST CALLVALUE DUP1 ISZERO PUSH2 0x408 JUMPI PUSH1 0x0 DUP1 REVERT JUMPDEST POP PUSH2 0x1D1 PUSH2 0xB87 JUMP JUMPDEST CALLVALUE DUP1 ISZERO PUSH2 0x41D JUMPI PUSH1 0x0 DUP1 REVERT JUMPDEST POP PUSH2 0x1A3 PUSH1 0x3 SLOAD DUP2 JUMP JUMPDEST PUSH1 0x0 PUSH2 0x431 PUSH2 0xB50 JUMP JUMPDEST ISZERO DUP1 ISZERO PUSH2 0x44B JUMPI POP PUSH1 0x8 SLOAD PUSH1 0x1 PUSH1 0x1 PUSH1 0xA0 SHL SUB DUP4 DUP2 AND SWAP2 AND EQ JUMPDEST ISZERO PUSH2 0x454 JUMPI POP SWAP1 JUMP JUMPDEST SWAP2 SWAP1 POP JUMP JUMPDEST CALLER PUSH1 0x0 SWAP1 DUP2 MSTORE PUSH1 0x10 PUSH1 0x20 MSTORE PUSH1 0x40 SWAP1 KECCAK256 PUSH1 0x3 ADD SLOAD PUSH1 0xFF PUSH2 0x100 SWAP1 SWAP2 DIV AND ISZERO ISZERO PUSH1 0x1 EQ PUSH2 0x4DD JUMPI PUSH1 0x40 MLOAD PUSH3 0x461BCD PUSH1 0xE5 SHL DUP2 MSTORE PUSH1 0x20 PUSH1 0x4 DUP3 ADD MSTORE PUSH1 0x29 PUSH1 0x24 DUP3 ADD MSTORE PUSH32 0x796F75206E65656420746F20627579206174206C65617374206F6E65206B6579 PUSH1 0x44 DUP3 ADD MSTORE PUSH9 0x103A37903B37BA3297 PUSH1 0xB9 SHL PUSH1 0x64 DUP3 ADD MSTORE PUSH1 0x84 ADD JUMPDEST PUSH1 0x40 MLOAD DUP1 SWAP2 SUB SWAP1 REVERT JUMPDEST CALLER PUSH1 0x0 SWAP1 DUP2 MSTORE PUSH1 0x10 PUSH1 0x20 MSTORE PUSH1 0x40 SWAP1 KECCAK256 PUSH1 0x3 ADD SLOAD PUSH1 0xFF AND ISZERO PUSH2 0x535 JUMPI PUSH1 0x40 MLOAD PUSH3 0x461BCD PUSH1 0xE5 SHL DUP2 MSTORE PUSH1 0x20 PUSH1 0x4 DUP3 ADD MSTORE PUSH1 0x12 PUSH1 0x24 DUP3 ADD MSTORE PUSH18 0x3CB7BA9030B63932B0B23C903B37BA32B217 PUSH1 0x71 SHL PUSH1 0x44 DUP3 ADD MSTORE PUSH1 0x64 ADD PUSH2 0x4D4 JUMP JUMPDEST CALLER PUSH1 0x0 SWAP1 DUP2 MSTORE PUSH1 0x10 PUSH1 0x20 MSTORE PUSH1 0x40 SWAP1 KECCAK256 PUSH1 0x3 ADD DUP1 SLOAD PUSH1 0xFF NOT AND PUSH1 0x1 SWAP1 DUP2 OR SWAP1 SWAP2 SSTORE DUP2 ISZERO ISZERO EQ ISZERO PUSH2 0x57C JUMPI PUSH1 0x1 PUSH1 0x3 PUSH1 0x0 DUP3 DUP3 SLOAD PUSH2 0x571 SWAP2 SWAP1 PUSH2 0xD46 JUMP JUMPDEST SWAP1 SWAP2 SSTORE POP PUSH2 0x595 SWAP1 POP JUMP JUMPDEST PUSH1 0x1 PUSH1 0x4 PUSH1 0x0 DUP3 DUP3 SLOAD PUSH2 0x58F SWAP2 SWAP1 PUSH2 0xD46 JUMP JUMPDEST SWAP1 SWAP2 SSTORE POP POP JUMPDEST POP JUMP JUMPDEST PUSH1 0xC SLOAD CALLER SWAP1 PUSH1 0x0 SWAP1 DUP2 SWAP1 PUSH2 0x5AF JUMPI PUSH1 0x0 SWAP2 POP PUSH2 0x627 JUMP JUMPDEST PUSH1 0xE SLOAD CALLER PUSH1 0x0 SWAP1 DUP2 MSTORE PUSH1 0x10 PUSH1 0x20 MSTORE PUSH1 0x40 SWAP1 KECCAK256 SLOAD PUSH2 0x5CC SWAP2 SWAP1 PUSH2 0xD7E JUMP JUMPDEST CALLER PUSH1 0x0 SWAP1 DUP2 MSTORE PUSH1 0x10 PUSH1 0x20 MSTORE PUSH1 0x40 SWAP1 KECCAK256 PUSH1 0x2 ADD SLOAD PUSH1 0xC SLOAD SWAP2 SWAP3 POP SWAP1 PUSH2 0x5F0 SWAP1 DUP4 PUSH2 0xD5E JUMP JUMPDEST PUSH2 0x5FA SWAP2 SWAP1 PUSH2 0xD9D JUMP JUMPDEST CALLER PUSH1 0x0 SWAP1 DUP2 MSTORE PUSH1 0x10 PUSH1 0x20 MSTORE PUSH1 0x40 DUP2 KECCAK256 PUSH1 0x2 ADD DUP1 SLOAD SWAP3 SWAP5 POP DUP5 SWAP3 SWAP1 SWAP2 SWAP1 PUSH2 0x621 SWAP1 DUP5 SWAP1 PUSH2 0xD46 JUMP JUMPDEST SWAP1 SWAP2 SSTORE POP POP JUMPDEST PUSH1 0x0 DUP3 GT PUSH2 0x677 JUMPI PUSH1 0x40 MLOAD PUSH3 0x461BCD PUSH1 0xE5 SHL DUP2 MSTORE PUSH1 0x20 PUSH1 0x4 DUP3 ADD MSTORE PUSH1 0x1C PUSH1 0x24 DUP3 ADD MSTORE PUSH32 0x596F752068617665206E6F206469767669657320746F20636C61696D00000000 PUSH1 0x44 DUP3 ADD MSTORE PUSH1 0x64 ADD PUSH2 0x4D4 JUMP JUMPDEST PUSH1 0x40 MLOAD PUSH1 0x1 PUSH1 0x1 PUSH1 0xA0 SHL SUB DUP5 AND SWAP1 DUP4 ISZERO PUSH2 0x8FC MUL SWAP1 DUP5 SWAP1 PUSH1 0x0 DUP2 DUP2 DUP2 DUP6 DUP9 DUP9 CALL SWAP4 POP POP POP POP ISZERO DUP1 ISZERO PUSH2 0x6AD JUMPI RETURNDATASIZE PUSH1 0x0 DUP1 RETURNDATACOPY RETURNDATASIZE PUSH1 0x0 REVERT JUMPDEST POP POP POP POP JUMP JUMPDEST PUSH1 0x1 SLOAD PUSH1 0x1 PUSH1 0x1 PUSH1 0xA0 SHL SUB AND CALLER EQ PUSH2 0x720 JUMPI PUSH1 0x40 MLOAD PUSH3 0x461BCD PUSH1 0xE5 SHL DUP2 MSTORE PUSH1 0x20 PUSH1 0x4 DUP3 ADD MSTORE PUSH1 0x2A PUSH1 0x24 DUP3 ADD MSTORE PUSH32 0x796F75206172656E27742074686520646576656C6F706572206F662074686973 PUSH1 0x44 DUP3 ADD MSTORE PUSH10 0x1031B7B73A3930B1BA17 PUSH1 0xB1 SHL PUSH1 0x64 DUP3 ADD MSTORE PUSH1 0x84 ADD PUSH2 0x4D4 JUMP JUMPDEST PUSH2 0x728 PUSH2 0xB50 JUMP JUMPDEST ISZERO PUSH2 0x76D JUMPI PUSH1 0x40 MLOAD PUSH3 0x461BCD PUSH1 0xE5 SHL DUP2 MSTORE PUSH1 0x20 PUSH1 0x4 DUP3 ADD MSTORE PUSH1 0x15 PUSH1 0x24 DUP3 ADD MSTORE PUSH21 0x67616D65206973207374696C6C20696E20706C6179 PUSH1 0x58 SHL PUSH1 0x44 DUP3 ADD MSTORE PUSH1 0x64 ADD PUSH2 0x4D4 JUMP JUMPDEST PUSH1 0x4 SLOAD PUSH1 0x3 SLOAD LT PUSH2 0x7BC JUMPI PUSH1 0x1 SLOAD PUSH1 0x2 SLOAD PUSH1 0x40 MLOAD PUSH1 0x1 PUSH1 0x1 PUSH1 0xA0 SHL SUB SWAP1 SWAP3 AND SWAP2 DUP3 SWAP2 DUP1 ISZERO PUSH2 0x8FC MUL SWAP2 PUSH1 0x0 DUP2 DUP2 DUP2 DUP6 DUP9 DUP9 CALL SWAP4 POP POP POP POP ISZERO DUP1 ISZERO PUSH2 0x7B5 JUMPI RETURNDATASIZE PUSH1 0x0 DUP1 RETURNDATACOPY RETURNDATASIZE PUSH1 0x0 REVERT JUMPDEST POP POP PUSH2 0x7FC JUMP JUMPDEST PUSH1 0x8 SLOAD PUSH1 0x2 SLOAD PUSH1 0x40 MLOAD PUSH1 0x1 PUSH1 0x1 PUSH1 0xA0 SHL SUB SWAP1 SWAP3 AND SWAP2 DUP3 SWAP2 DUP1 ISZERO PUSH2 0x8FC MUL SWAP2 PUSH1 0x0 DUP2 DUP2 DUP2 DUP6 DUP9 DUP9 CALL SWAP4 POP POP POP POP ISZERO DUP1 ISZERO PUSH2 0x7F9 JUMPI RETURNDATASIZE PUSH1 0x0 DUP1 RETURNDATACOPY RETURNDATASIZE PUSH1 0x0 REVERT JUMPDEST POP POP JUMPDEST PUSH1 0x0 PUSH1 0x2 SSTORE JUMP JUMPDEST PUSH1 0xC SLOAD PUSH2 0x812 JUMPI PUSH2 0x812 PUSH2 0xCB5 JUMP JUMPDEST PUSH1 0x0 PUSH2 0x81C PUSH2 0xB50 JUMP JUMPDEST GT PUSH2 0x869 JUMPI PUSH1 0x40 MLOAD PUSH3 0x461BCD PUSH1 0xE5 SHL DUP2 MSTORE PUSH1 0x20 PUSH1 0x4 DUP3 ADD MSTORE PUSH1 0x19 PUSH1 0x24 DUP3 ADD MSTORE PUSH32 0x746865726520697320616C726561647920612077696E6E657200000000000000 PUSH1 0x44 DUP3 ADD MSTORE PUSH1 0x64 ADD PUSH2 0x4D4 JUMP JUMPDEST PUSH1 0x0 PUSH2 0x876 CALLVALUE PUSH1 0x64 PUSH2 0xD7E JUMP JUMPDEST SWAP1 POP PUSH1 0x0 PUSH2 0x886 PUSH2 0x2710 DUP4 PUSH2 0xD5E JUMP JUMPDEST SWAP1 POP PUSH1 0x0 PUSH2 0x894 DUP3 CALLVALUE PUSH2 0xD9D JUMP JUMPDEST SWAP1 POP PUSH1 0x0 PUSH2 0x8A3 PUSH1 0x2 DUP4 PUSH2 0xD5E JUMP JUMPDEST SWAP1 POP DUP3 PUSH1 0x2 PUSH1 0x0 DUP3 DUP3 SLOAD PUSH2 0x8B7 SWAP2 SWAP1 PUSH2 0xD46 JUMP JUMPDEST SWAP3 POP POP DUP2 SWAP1 SSTORE POP DUP1 PUSH1 0xF PUSH1 0x0 DUP3 DUP3 SLOAD PUSH2 0x8D0 SWAP2 SWAP1 PUSH2 0xD46 JUMP JUMPDEST SWAP1 SWAP2 SSTORE POP PUSH2 0x8E0 SWAP1 POP DUP2 DUP4 PUSH2 0xD9D JUMP JUMPDEST PUSH1 0xE PUSH1 0x0 DUP3 DUP3 SLOAD PUSH2 0x8F1 SWAP2 SWAP1 PUSH2 0xD46 JUMP JUMPDEST SWAP1 SWAP2 SSTORE POP POP CALLER PUSH1 0x0 SWAP1 DUP2 MSTORE PUSH1 0x10 PUSH1 0x20 MSTORE PUSH1 0x40 DUP2 KECCAK256 DUP1 SLOAD DUP8 SWAP3 SWAP1 PUSH2 0x915 SWAP1 DUP5 SWAP1 PUSH2 0xD46 JUMP JUMPDEST SWAP1 SWAP2 SSTORE POP POP CALLER PUSH1 0x0 SWAP1 DUP2 MSTORE PUSH1 0x10 PUSH1 0x20 MSTORE PUSH1 0x40 DUP2 KECCAK256 PUSH1 0x3 ADD DUP1 SLOAD PUSH2 0xFF00 NOT AND PUSH2 0x100 OR SWAP1 SSTORE PUSH1 0xC DUP1 SLOAD DUP8 SWAP3 SWAP1 PUSH2 0x94B SWAP1 DUP5 SWAP1 PUSH2 0xD46 JUMP JUMPDEST SWAP1 SWAP2 SSTORE POP POP PUSH1 0x6 SLOAD PUSH2 0x95E SWAP1 TIMESTAMP SWAP1 PUSH2 0xD9D JUMP JUMPDEST PUSH2 0x96B SWAP1 PUSH3 0x15180 PUSH2 0xD9D JUMP JUMPDEST PUSH2 0x976 DUP7 PUSH1 0x1E PUSH2 0xD7E JUMP JUMPDEST GT ISZERO PUSH2 0x989 JUMPI PUSH2 0x984 PUSH2 0xCB5 JUMP JUMPDEST PUSH2 0x9AB JUMP JUMPDEST PUSH2 0x994 DUP6 PUSH1 0x1E PUSH2 0xD7E JUMP JUMPDEST PUSH1 0x6 PUSH1 0x0 DUP3 DUP3 SLOAD PUSH2 0x9A5 SWAP2 SWAP1 PUSH2 0xD46 JUMP JUMPDEST SWAP1 SWAP2 SSTORE POP POP JUMPDEST PUSH2 0x1F4 PUSH1 0xD SLOAD GT ISZERO PUSH2 0x9EC JUMPI PUSH1 0x0 PUSH1 0xA SLOAD PUSH1 0x64 PUSH2 0x9C8 SWAP2 SWAP1 PUSH2 0xD7E JUMP JUMPDEST SWAP1 POP PUSH2 0x9D6 PUSH2 0x2710 DUP3 PUSH2 0xD5E JUMP JUMPDEST PUSH1 0xA SLOAD PUSH2 0x9E3 SWAP2 SWAP1 PUSH2 0xD46 JUMP JUMPDEST PUSH1 0xA SSTORE POP PUSH2 0xA1D JUMP JUMPDEST PUSH1 0x0 PUSH1 0xA SLOAD PUSH1 0x32 PUSH2 0x9FD SWAP2 SWAP1 PUSH2 0xD7E JUMP JUMPDEST SWAP1 POP PUSH2 0xA0B PUSH2 0x2710 DUP3 PUSH2 0xD5E JUMP JUMPDEST PUSH1 0xA SLOAD PUSH2 0xA18 SWAP2 SWAP1 PUSH2 0xD46 JUMP JUMPDEST PUSH1 0xA SSTORE POP JUMPDEST PUSH1 0x1 PUSH1 0xD PUSH1 0x0 DUP3 DUP3 SLOAD PUSH2 0xA30 SWAP2 SWAP1 PUSH2 0xD46 JUMP JUMPDEST SWAP1 SWAP2 SSTORE POP POP PUSH1 0x8 DUP1 SLOAD PUSH1 0x1 PUSH1 0x1 PUSH1 0xA0 SHL SUB NOT AND CALLER SWAP1 DUP2 OR SWAP1 SWAP2 SSTORE PUSH1 0x0 DUP2 DUP2 MSTORE PUSH1 0x10 PUSH1 0x20 MSTORE PUSH1 0x40 SWAP1 DUP2 SWAP1 KECCAK256 SLOAD PUSH1 0xC SLOAD PUSH1 0xA SLOAD PUSH1 0xE SLOAD PUSH1 0xF SLOAD SWAP5 MLOAD PUSH32 0xF18DF1D3DBEFAEB22F0E4EFE18D279A090ED7B0A9BE1C27B33CDA2F677CA67D4 SWAP7 PUSH2 0xAC1 SWAP7 SWAP2 SWAP6 DUP7 MSTORE PUSH1 0x20 DUP7 ADD SWAP5 SWAP1 SWAP5 MSTORE PUSH1 0x40 DUP6 ADD SWAP3 SWAP1 SWAP3 MSTORE PUSH1 0x60 DUP5 ADD MSTORE PUSH1 0x80 DUP4 ADD MSTORE PUSH1 0x1 PUSH1 0x1 PUSH1 0xA0 SHL SUB AND PUSH1 0xA0 DUP3 ADD MSTORE PUSH1 0xC0 ADD SWAP1 JUMP JUMPDEST PUSH1 0x40 MLOAD DUP1 SWAP2 SUB SWAP1 LOG1 POP POP POP POP POP JUMP JUMPDEST PUSH1 0x0 DUP1 PUSH1 0x0 PUSH1 0xC SLOAD PUSH1 0x0 EQ ISZERO PUSH2 0xAE9 JUMPI PUSH1 0x0 SWAP2 POP PUSH2 0xB49 JUMP JUMPDEST PUSH1 0xE SLOAD PUSH1 0x1 PUSH1 0x1 PUSH1 0xA0 SHL SUB DUP6 AND PUSH1 0x0 SWAP1 DUP2 MSTORE PUSH1 0x10 PUSH1 0x20 MSTORE PUSH1 0x40 SWAP1 KECCAK256 SLOAD PUSH2 0xB0F SWAP2 SWAP1 PUSH2 0xD7E JUMP JUMPDEST PUSH1 0x1 PUSH1 0x1 PUSH1 0xA0 SHL SUB DUP6 AND PUSH1 0x0 SWAP1 DUP2 MSTORE PUSH1 0x10 PUSH1 0x20 MSTORE PUSH1 0x40 SWAP1 KECCAK256 PUSH1 0x2 ADD SLOAD PUSH1 0xC SLOAD SWAP2 SWAP3 POP SWAP1 PUSH2 0xB3C SWAP1 DUP4 PUSH2 0xD5E JUMP JUMPDEST PUSH2 0xB46 SWAP2 SWAP1 PUSH2 0xD9D JUMP JUMPDEST SWAP2 POP JUMPDEST POP SWAP3 SWAP2 POP POP JUMP JUMPDEST PUSH1 0x0 PUSH1 0xC SLOAD PUSH1 0x0 EQ ISZERO PUSH2 0xB65 JUMPI POP PUSH3 0x15180 SWAP1 JUMP JUMPDEST TIMESTAMP PUSH1 0x6 SLOAD LT PUSH2 0xB81 JUMPI TIMESTAMP PUSH1 0x6 SLOAD PUSH2 0xB7C SWAP2 SWAP1 PUSH2 0xD9D JUMP JUMPDEST SWAP1 POP SWAP1 JUMP JUMPDEST POP PUSH1 0x0 SWAP1 JUMP JUMPDEST PUSH2 0xB8F PUSH2 0xB50 JUMP JUMPDEST ISZERO PUSH2 0xBD4 JUMPI PUSH1 0x40 MLOAD PUSH3 0x461BCD PUSH1 0xE5 SHL DUP2 MSTORE PUSH1 0x20 PUSH1 0x4 DUP3 ADD MSTORE PUSH1 0x15 PUSH1 0x24 DUP3 ADD MSTORE PUSH21 0x67616D65206973207374696C6C20696E20706C6179 PUSH1 0x58 SHL PUSH1 0x44 DUP3 ADD MSTORE PUSH1 0x64 ADD PUSH2 0x4D4 JUMP JUMPDEST PUSH1 0x0 PUSH1 0xF SLOAD GT PUSH2 0xC1C JUMPI PUSH1 0x40 MLOAD PUSH3 0x461BCD PUSH1 0xE5 SHL DUP2 MSTORE PUSH1 0x20 PUSH1 0x4 DUP3 ADD MSTORE PUSH1 0x13 PUSH1 0x24 DUP3 ADD MSTORE PUSH19 0x139BC81B5BDB995E481A5B881A9858DADC1BDD PUSH1 0x6A SHL PUSH1 0x44 DUP3 ADD MSTORE PUSH1 0x64 ADD PUSH2 0x4D4 JUMP JUMPDEST PUSH1 0x8 SLOAD PUSH1 0x1 PUSH1 0x1 PUSH1 0xA0 SHL SUB AND CALLER EQ PUSH2 0xC6F JUMPI PUSH1 0x40 MLOAD PUSH3 0x461BCD PUSH1 0xE5 SHL DUP2 MSTORE PUSH1 0x20 PUSH1 0x4 DUP3 ADD MSTORE PUSH1 0x16 PUSH1 0x24 DUP3 ADD MSTORE PUSH22 0x3CB7BA9030B932903737BA103A3432903BB4B73732B9 PUSH1 0x51 SHL PUSH1 0x44 DUP3 ADD MSTORE PUSH1 0x64 ADD PUSH2 0x4D4 JUMP JUMPDEST PUSH1 0x8 SLOAD PUSH1 0xF SLOAD PUSH1 0x40 MLOAD PUSH1 0x1 PUSH1 0x1 PUSH1 0xA0 SHL SUB SWAP1 SWAP3 AND SWAP2 DUP3 SWAP2 DUP1 ISZERO PUSH2 0x8FC MUL SWAP2 PUSH1 0x0 DUP2 DUP2 DUP2 DUP6 DUP9 DUP9 CALL SWAP4 POP POP POP POP ISZERO DUP1 ISZERO PUSH2 0xCAC JUMPI RETURNDATASIZE PUSH1 0x0 DUP1 RETURNDATACOPY RETURNDATASIZE PUSH1 0x0 REVERT JUMPDEST POP POP PUSH1 0x0 PUSH1 0xF SSTORE JUMP JUMPDEST NUMBER PUSH1 0x0 SWAP1 DUP2 MSTORE PUSH1 0xB PUSH1 0x20 MSTORE PUSH1 0x40 SWAP1 KECCAK256 PUSH7 0xBF5F72ABE6810 SWAP1 SSTORE PUSH2 0xCDB TIMESTAMP PUSH3 0x15180 PUSH2 0xD46 JUMP JUMPDEST PUSH1 0x6 SSTORE JUMP JUMPDEST PUSH1 0x0 PUSH1 0x20 DUP3 DUP5 SUB SLT ISZERO PUSH2 0xCF1 JUMPI DUP1 DUP2 REVERT JUMPDEST DUP2 CALLDATALOAD PUSH1 0x1 PUSH1 0x1 PUSH1 0xA0 SHL SUB DUP2 AND DUP2 EQ PUSH2 0xD07 JUMPI DUP2 DUP3 REVERT JUMPDEST SWAP4 SWAP3 POP POP POP JUMP JUMPDEST PUSH1 0x0 PUSH1 0x20 DUP3 DUP5 SUB SLT ISZERO PUSH2 0xD1F JUMPI DUP1 DUP2 REVERT JUMPDEST DUP2 CALLDATALOAD DUP1 ISZERO ISZERO DUP2 EQ PUSH2 0xD07 JUMPI DUP2 DUP3 REVERT JUMPDEST PUSH1 0x0 PUSH1 0x20 DUP3 DUP5 SUB SLT ISZERO PUSH2 0xD3F JUMPI DUP1 DUP2 REVERT JUMPDEST POP CALLDATALOAD SWAP2 SWAP1 POP JUMP JUMPDEST PUSH1 0x0 DUP3 NOT DUP3 GT ISZERO PUSH2 0xD59 JUMPI PUSH2 0xD59 PUSH2 0xDB4 JUMP JUMPDEST POP ADD SWAP1 JUMP JUMPDEST PUSH1 0x0 DUP3 PUSH2 0xD79 JUMPI PUSH4 0x4E487B71 PUSH1 0xE0 SHL DUP2 MSTORE PUSH1 0x12 PUSH1 0x4 MSTORE PUSH1 0x24 DUP2 REVERT JUMPDEST POP DIV SWAP1 JUMP JUMPDEST PUSH1 0x0 DUP2 PUSH1 0x0 NOT DIV DUP4 GT DUP3 ISZERO ISZERO AND ISZERO PUSH2 0xD98 JUMPI PUSH2 0xD98 PUSH2 0xDB4 JUMP JUMPDEST POP MUL SWAP1 JUMP JUMPDEST PUSH1 0x0 DUP3 DUP3 LT ISZERO PUSH2 0xDAF JUMPI PUSH2 0xDAF PUSH2 0xDB4 JUMP JUMPDEST POP SUB SWAP1 JUMP JUMPDEST PUSH4 0x4E487B71 PUSH1 0xE0 SHL PUSH1 0x0 MSTORE PUSH1 0x11 PUSH1 0x4 MSTORE PUSH1 0x24 PUSH1 0x0 REVERT INVALID LOG2 PUSH5 0x6970667358 0x22 SLT KECCAK256 PUSH18 0xB5386209E11B0D413DC24F69F8DCF24923F3 GASLIMIT 0xEB 0xEF 0xB7 CODECOPY SWAP16 CALLDATACOPY CALLCODE 0x4E SIGNEXTEND DUP13 0xDF PUSH5 0x64736F6C63 NUMBER STOP ADDMOD DIV STOP CALLER "
        },
        "methodIdentifiers": {
          "balanceReceived()": "52a90c42",
          "developerOnePercent()": "8b80016b",
          "developerOnePercentAllocation()": "1fd9300d",
          "divPool()": "7c2be5dd",
          "divTracker(address)": "55fcbbff",
          "getTimeLeft()": "c7e284b8",
          "getWinner()": "8e7ea5b2",
          "giveToDeveloper()": "e5618fa9",
          "giveToJackpot()": "82f96499",
          "jackpot()": "6b31ee01",
          "jackpotPayout()": "d20bff02",
          "keyPrice()": "10e56973",
          "keyPriceTracker(uint256)": "32b123f4",
          "keyPurchases()": "92c5c06e",
          "prevKeyPrice()": "5daa424d",
          "purchaseKeys(uint256)": "78c3171f",
          "startTime()": "78e97925",
          "timeLeft()": "1300a6d1",
          "totalKeys()": "488bdabc",
          "totalTime()": "58533e0a",
          "updateDivvies(address)": "acf7084a",
          "voteForOnePercent(bool)": "111d3efb",
          "whoWon(address)": "0d153c92",
          "withdrawDivvies()": "1ebe585d"
        }
      }
    }
  }
}