{
  "contracts/FomoOE.sol": {
    "FomoOE": {
      "abi": [
        {
          "inputs": [],
          "stateMutability": "nonpayable",
          "type": "constructor"
        },
        {
          "anonymous": false,
          "inputs": [
            {
              "indexed": false,
              "internalType": "uint256",
              "name": "_amount",
              "type": "uint256"
            },
            {
              "indexed": false,
              "internalType": "address",
              "name": "_winning",
              "type": "address"
            }
          ],
          "name": "keysPurchased",
          "type": "event"
        },
        {
          "inputs": [],
          "name": "balanceReceived",
          "outputs": [
            {
              "internalType": "uint256",
              "name": "",
              "type": "uint256"
            }
          ],
          "stateMutability": "view",
          "type": "function"
        },
        {
          "inputs": [],
          "name": "developerOnePercent",
          "outputs": [
            {
              "internalType": "uint256",
              "name": "",
              "type": "uint256"
            }
          ],
          "stateMutability": "view",
          "type": "function"
        },
        {
          "inputs": [
            {
              "internalType": "address",
              "name": "_developerAddress",
              "type": "address"
            }
          ],
          "name": "developerOnePercentAllocation",
          "outputs": [],
          "stateMutability": "nonpayable",
          "type": "function"
        },
        {
          "inputs": [],
          "name": "divPool",
          "outputs": [
            {
              "internalType": "uint256",
              "name": "",
              "type": "uint256"
            }
          ],
          "stateMutability": "view",
          "type": "function"
        },
        {
          "inputs": [
            {
              "internalType": "address",
              "name": "",
              "type": "address"
            }
          ],
          "name": "divTracker",
          "outputs": [
            {
              "internalType": "uint256",
              "name": "_keyBalance",
              "type": "uint256"
            },
            {
              "internalType": "uint256",
              "name": "_divBalance",
              "type": "uint256"
            },
            {
              "internalType": "uint256",
              "name": "_withdrawnAmount",
              "type": "uint256"
            },
            {
              "internalType": "bool",
              "name": "_voted",
              "type": "bool"
            },
            {
              "internalType": "bool",
              "name": "_boughtKeys",
              "type": "bool"
            }
          ],
          "stateMutability": "view",
          "type": "function"
        },
        {
          "inputs": [],
          "name": "getTimeLeft",
          "outputs": [
            {
              "internalType": "uint256",
              "name": "",
              "type": "uint256"
            }
          ],
          "stateMutability": "view",
          "type": "function"
        },
        {
          "inputs": [],
          "name": "getWinner",
          "outputs": [
            {
              "internalType": "address",
              "name": "",
              "type": "address"
            }
          ],
          "stateMutability": "view",
          "type": "function"
        },
        {
          "inputs": [],
          "name": "giveToDeveloper",
          "outputs": [
            {
              "internalType": "uint256",
              "name": "",
              "type": "uint256"
            }
          ],
          "stateMutability": "view",
          "type": "function"
        },
        {
          "inputs": [],
          "name": "giveToJackpot",
          "outputs": [
            {
              "internalType": "uint256",
              "name": "",
              "type": "uint256"
            }
          ],
          "stateMutability": "view",
          "type": "function"
        },
        {
          "inputs": [],
          "name": "increased_order",
          "outputs": [
            {
              "internalType": "uint256",
              "name": "",
              "type": "uint256"
            }
          ],
          "stateMutability": "view",
          "type": "function"
        },
        {
          "inputs": [],
          "name": "jackpot",
          "outputs": [
            {
              "internalType": "uint256",
              "name": "",
              "type": "uint256"
            }
          ],
          "stateMutability": "view",
          "type": "function"
        },
        {
          "inputs": [],
          "name": "jackpotPayout",
          "outputs": [],
          "stateMutability": "nonpayable",
          "type": "function"
        },
        {
          "inputs": [],
          "name": "keyPrice",
          "outputs": [
            {
              "internalType": "uint256",
              "name": "",
              "type": "uint256"
            }
          ],
          "stateMutability": "view",
          "type": "function"
        },
        {
          "inputs": [],
          "name": "keyPriceIncreaseBlockNumber",
          "outputs": [
            {
              "internalType": "uint256",
              "name": "",
              "type": "uint256"
            }
          ],
          "stateMutability": "view",
          "type": "function"
        },
        {
          "inputs": [],
          "name": "keyPurchases",
          "outputs": [
            {
              "internalType": "uint256",
              "name": "",
              "type": "uint256"
            }
          ],
          "stateMutability": "view",
          "type": "function"
        },
        {
          "inputs": [],
          "name": "multiplier",
          "outputs": [
            {
              "internalType": "uint256",
              "name": "",
              "type": "uint256"
            }
          ],
          "stateMutability": "view",
          "type": "function"
        },
        {
          "inputs": [
            {
              "internalType": "uint256",
              "name": "_amount",
              "type": "uint256"
            }
          ],
          "name": "purchaseKeys",
          "outputs": [],
          "stateMutability": "payable",
          "type": "function"
        },
        {
          "inputs": [],
          "name": "startTime",
          "outputs": [
            {
              "internalType": "uint256",
              "name": "",
              "type": "uint256"
            }
          ],
          "stateMutability": "view",
          "type": "function"
        },
        {
          "inputs": [],
          "name": "timeLeft",
          "outputs": [
            {
              "internalType": "uint256",
              "name": "",
              "type": "uint256"
            }
          ],
          "stateMutability": "view",
          "type": "function"
        },
        {
          "inputs": [],
          "name": "totalKeys",
          "outputs": [
            {
              "internalType": "uint256",
              "name": "",
              "type": "uint256"
            }
          ],
          "stateMutability": "view",
          "type": "function"
        },
        {
          "inputs": [],
          "name": "totalTime",
          "outputs": [
            {
              "internalType": "uint256",
              "name": "",
              "type": "uint256"
            }
          ],
          "stateMutability": "view",
          "type": "function"
        },
        {
          "inputs": [
            {
              "internalType": "address",
              "name": "_userAddress",
              "type": "address"
            }
          ],
          "name": "updateDivvies",
          "outputs": [
            {
              "internalType": "uint256",
              "name": "",
              "type": "uint256"
            }
          ],
          "stateMutability": "view",
          "type": "function"
        },
        {
          "inputs": [
            {
              "internalType": "bool",
              "name": "_vote",
              "type": "bool"
            }
          ],
          "name": "voteForOnePercent",
          "outputs": [],
          "stateMutability": "nonpayable",
          "type": "function"
        },
        {
          "inputs": [
            {
              "internalType": "address",
              "name": "_userAddress",
              "type": "address"
            }
          ],
          "name": "whoWon",
          "outputs": [
            {
              "internalType": "address",
              "name": "winner",
              "type": "address"
            }
          ],
          "stateMutability": "view",
          "type": "function"
        },
        {
          "inputs": [],
          "name": "withdrawDivvies",
          "outputs": [],
          "stateMutability": "nonpayable",
          "type": "function"
        }
      ],
      "evm": {
        "bytecode": {
          "linkReferences": {},
          "object": "6080604052660bf5f72abe6810600955660bf5f72abe6810600a556064600c5534801561002b57600080fd5b50600080546001600160a01b031916331790556110308061004d6000396000f3fe6080604052600436106101665760003560e01c80636b31ee01116100d15780638e7ea5b21161008a578063c7e284b811610064578063c7e284b8146103f6578063d20bff021461040b578063e02b44d414610420578063e5618fa91461043657600080fd5b80638e7ea5b2146103a257806392c5c06e146103c0578063acf7084a146103d657600080fd5b80636b31ee011461032157806378c3171f1461033757806378e979251461034a5780637c2be5dd1461036057806382f96499146103765780638b80016b1461038c57600080fd5b80631ebe585d116101235780631ebe585d14610230578063488bdabc1461024557806352a90c421461025b57806355fcbbff1461027157806358533e0a146102eb57806369a5ede31461030157600080fd5b806305b3bd701461016b5780630d153c921461019457806310e56973146101cc578063111d3efb146101e25780631300a6d1146102045780631b3ed7221461021a575b600080fd5b34801561017757600080fd5b50610181600b5481565b6040519081526020015b60405180910390f35b3480156101a057600080fd5b506101b46101af366004610ee5565b61044c565b6040516001600160a01b03909116815260200161018b565b3480156101d857600080fd5b5061018160095481565b3480156101ee57600080fd5b506102026101fd366004610f13565b61047e565b005b34801561021057600080fd5b5061018160065481565b34801561022657600080fd5b50610181600c5481565b34801561023c57600080fd5b50610202610646565b34801561025157600080fd5b50610181600d5481565b34801561026757600080fd5b5061018160085481565b34801561027d57600080fd5b506102bf61028c366004610ee5565b60116020526000908152604090208054600182015460028301546003909301549192909160ff8082169161010090041685565b60408051958652602086019490945292840191909152151560608301521515608082015260a00161018b565b3480156102f757600080fd5b5061018160055481565b34801561030d57600080fd5b5061020261031c366004610ee5565b610784565b34801561032d57600080fd5b5061018160105481565b610202610345366004610f33565b6108d2565b34801561035657600080fd5b5061018160045481565b34801561036c57600080fd5b50610181600f5481565b34801561038257600080fd5b5061018160035481565b34801561039857600080fd5b5061018160015481565b3480156103ae57600080fd5b506007546001600160a01b03166101b4565b3480156103cc57600080fd5b50610181600e5481565b3480156103e257600080fd5b506101816103f1366004610ee5565b610ccb565b34801561040257600080fd5b50610181610d4b565b34801561041757600080fd5b50610202610d82565b34801561042c57600080fd5b50610181600a5481565b34801561044257600080fd5b5061018160025481565b6000610456610d4b565b15801561047057506007546001600160a01b038381169116145b15610479575090565b919050565b33803b80156104a85760405162461bcd60e51b815260040161049f90610f4b565b60405180910390fd5b3360009081526011602052604090206003015460ff6101009091041615156001146105275760405162461bcd60e51b815260206004820152602960248201527f796f75206e65656420746f20627579206174206c65617374206f6e65206b6579604482015268103a37903b37ba329760b91b606482015260840161049f565b6000610531610d4b565b116105895760405162461bcd60e51b815260206004820152602260248201527f47616d65206973206f76657220616e6420706f6c6c73206861766520636c6f73604482015261195960f21b606482015260840161049f565b3360009081526011602052604090206003015460ff16156105e15760405162461bcd60e51b81526020600482015260126024820152713cb7ba9030b63932b0b23c903b37ba32b21760711b604482015260640161049f565b336000908152601160205260409020600301805460ff1916600190811790915583151514156106285760016002600082825461061d9190610f76565b909155506106419050565b60016003600082825461063b9190610f76565b90915550505b505050565b33803b80156106675760405162461bcd60e51b815260040161049f90610f4b565b600d543390600090819061067e57600091506106f6565b600f543360009081526011602052604090205461069b9190610fae565b33600090815260116020526040902060020154600d54919250906106bf9083610f8e565b6106c99190610fcd565b336000908152601160205260408120600201805492945084929091906106f0908490610f76565b90915550505b600082116107465760405162461bcd60e51b815260206004820152601c60248201527f596f752068617665206e6f206469767669657320746f20636c61696d00000000604482015260640161049f565b6040516001600160a01b0384169083156108fc029084906000818181858888f1935050505015801561077c573d6000803e3d6000fd5b505050505050565b6000546001600160a01b031633146107f15760405162461bcd60e51b815260206004820152602a60248201527f796f75206172656e27742074686520646576656c6f706572206f6620746869736044820152691031b7b73a3930b1ba1760b11b606482015260840161049f565b6107f9610d4b565b1561083e5760405162461bcd60e51b815260206004820152601560248201527467616d65206973207374696c6c20696e20706c617960581b604482015260640161049f565b6003546002541061088a5760015460405182916001600160a01b0383169181156108fc0291906000818181858888f19350505050158015610883573d6000803e3d6000fd5b50506108ca565b6007546001546040516001600160a01b0390921691829180156108fc02916000818181858888f193505050501580156108c7573d6000803e3d6000fd5b50505b506000600155565b33803b80156108f35760405162461bcd60e51b815260040161049f90610f4b565b600d54158061090457506005600e54105b1561091157610911610ed3565b600061091b610d4b565b116109685760405162461bcd60e51b815260206004820152601960248201527f746865726520697320616c726561647920612077696e6e657200000000000000604482015260640161049f565b826009546109769190610fae565b34106109f75743600b55600c5460095460009161099291610fae565b90506109a061271082610f8e565b6009546109ad9190610f76565b6009819055600a805490916109c29190610f8e565b101580156109d357506014600c5410155b156109f157600954600a908155600c546109ed9190610fcd565b600c555b50610b19565b6000600c54600954610a099190610fae565b90506000610a1961271083610f8e565b600954610a269190610fcd565b9050610a328582610fae565b3410158015610a4e5750600b54610a4a906002610f76565b4311155b610b165760405162461bcd60e51b815260206004820152608160248201527f4e6f7420656e6f75676820746f2062757920746865206b65792873293a204b6560448201527f7920707269636520697320696e6372656173696e6720717569636b6c792e205460648201527f72792072656672657368696e6720746865207061676520616e6420717569636b60848201527f6c79207375626d697474696e67206b657920707572636861736520616761696e60a4820152601760f91b60c482015260e40161049f565b50505b6000610b26346064610fae565b90506000610b3661271083610f8e565b90506000610b448234610fcd565b90506000610b53600283610f8e565b90508260016000828254610b679190610f76565b925050819055508060106000828254610b809190610f76565b90915550610b9090508183610fcd565b600f6000828254610ba19190610f76565b90915550503360009081526011602052604081208054899290610bc5908490610f76565b9091555050336000908152601160205260408120600301805461ff001916610100179055600d8054899290610bfb908490610f76565b9091555050600554610c0e904290610fcd565b610c1b9062015180610fcd565b610c2688601e610fae565b1115610c3957610c34610ed3565b610c5b565b610c4487601e610fae565b60056000828254610c559190610f76565b90915550505b6001600e6000828254610c6e9190610f76565b9091555050600780546001600160a01b031916339081179091556040805189815260208101929092527fc9cdc97fa2223a1523db8444b75a4978bdc4b7371c256194188681e6a1bcd73b910160405180910390a150505050505050565b6000806000600d5460001415610ce45760009150610d44565b600f546001600160a01b038516600090815260116020526040902054610d0a9190610fae565b6001600160a01b038516600090815260116020526040902060020154600d5491925090610d379083610f8e565b610d419190610fcd565b91505b5092915050565b6000600d5460001415610d6057506201518090565b4260055410610d7c5742600554610d779190610fcd565b905090565b50600090565b33803b8015610da35760405162461bcd60e51b815260040161049f90610f4b565b610dab610d4b565b15610df05760405162461bcd60e51b815260206004820152601560248201527467616d65206973207374696c6c20696e20706c617960581b604482015260640161049f565b600060105411610e385760405162461bcd60e51b8152602060048201526013602482015272139bc81b5bdb995e481a5b881a9858dadc1bdd606a1b604482015260640161049f565b6007546001600160a01b03163314610e8b5760405162461bcd60e51b81526020600482015260166024820152753cb7ba9030b932903737ba103a3432903bb4b73732b960511b604482015260640161049f565b6007546010546040516001600160a01b0390921691829180156108fc02916000818181858888f19350505050158015610ec8573d6000803e3d6000fd5b505060006010555050565b610ee04262015180610f76565b600555565b600060208284031215610ef6578081fd5b81356001600160a01b0381168114610f0c578182fd5b9392505050565b600060208284031215610f24578081fd5b81358015158114610f0c578182fd5b600060208284031215610f44578081fd5b5035919050565b602080825260119082015270736f7272792068756d616e73206f6e6c7960781b604082015260600190565b60008219821115610f8957610f89610fe4565b500190565b600082610fa957634e487b7160e01b81526012600452602481fd5b500490565b6000816000190483118215151615610fc857610fc8610fe4565b500290565b600082821015610fdf57610fdf610fe4565b500390565b634e487b7160e01b600052601160045260246000fdfea2646970667358221220a5dc4d80b32882bbbfec223d22347ea1685e2e6695de256d70f59f45e4f4dfea64736f6c63430008040033",
          "opcodes": "PUSH1 0x80 PUSH1 0x40 MSTORE PUSH7 0xBF5F72ABE6810 PUSH1 0x9 SSTORE PUSH7 0xBF5F72ABE6810 PUSH1 0xA SSTORE PUSH1 0x64 PUSH1 0xC SSTORE CALLVALUE DUP1 ISZERO PUSH2 0x2B JUMPI PUSH1 0x0 DUP1 REVERT JUMPDEST POP PUSH1 0x0 DUP1 SLOAD PUSH1 0x1 PUSH1 0x1 PUSH1 0xA0 SHL SUB NOT AND CALLER OR SWAP1 SSTORE PUSH2 0x1030 DUP1 PUSH2 0x4D PUSH1 0x0 CODECOPY PUSH1 0x0 RETURN INVALID PUSH1 0x80 PUSH1 0x40 MSTORE PUSH1 0x4 CALLDATASIZE LT PUSH2 0x166 JUMPI PUSH1 0x0 CALLDATALOAD PUSH1 0xE0 SHR DUP1 PUSH4 0x6B31EE01 GT PUSH2 0xD1 JUMPI DUP1 PUSH4 0x8E7EA5B2 GT PUSH2 0x8A JUMPI DUP1 PUSH4 0xC7E284B8 GT PUSH2 0x64 JUMPI DUP1 PUSH4 0xC7E284B8 EQ PUSH2 0x3F6 JUMPI DUP1 PUSH4 0xD20BFF02 EQ PUSH2 0x40B JUMPI DUP1 PUSH4 0xE02B44D4 EQ PUSH2 0x420 JUMPI DUP1 PUSH4 0xE5618FA9 EQ PUSH2 0x436 JUMPI PUSH1 0x0 DUP1 REVERT JUMPDEST DUP1 PUSH4 0x8E7EA5B2 EQ PUSH2 0x3A2 JUMPI DUP1 PUSH4 0x92C5C06E EQ PUSH2 0x3C0 JUMPI DUP1 PUSH4 0xACF7084A EQ PUSH2 0x3D6 JUMPI PUSH1 0x0 DUP1 REVERT JUMPDEST DUP1 PUSH4 0x6B31EE01 EQ PUSH2 0x321 JUMPI DUP1 PUSH4 0x78C3171F EQ PUSH2 0x337 JUMPI DUP1 PUSH4 0x78E97925 EQ PUSH2 0x34A JUMPI DUP1 PUSH4 0x7C2BE5DD EQ PUSH2 0x360 JUMPI DUP1 PUSH4 0x82F96499 EQ PUSH2 0x376 JUMPI DUP1 PUSH4 0x8B80016B EQ PUSH2 0x38C JUMPI PUSH1 0x0 DUP1 REVERT JUMPDEST DUP1 PUSH4 0x1EBE585D GT PUSH2 0x123 JUMPI DUP1 PUSH4 0x1EBE585D EQ PUSH2 0x230 JUMPI DUP1 PUSH4 0x488BDABC EQ PUSH2 0x245 JUMPI DUP1 PUSH4 0x52A90C42 EQ PUSH2 0x25B JUMPI DUP1 PUSH4 0x55FCBBFF EQ PUSH2 0x271 JUMPI DUP1 PUSH4 0x58533E0A EQ PUSH2 0x2EB JUMPI DUP1 PUSH4 0x69A5EDE3 EQ PUSH2 0x301 JUMPI PUSH1 0x0 DUP1 REVERT JUMPDEST DUP1 PUSH4 0x5B3BD70 EQ PUSH2 0x16B JUMPI DUP1 PUSH4 0xD153C92 EQ PUSH2 0x194 JUMPI DUP1 PUSH4 0x10E56973 EQ PUSH2 0x1CC JUMPI DUP1 PUSH4 0x111D3EFB EQ PUSH2 0x1E2 JUMPI DUP1 PUSH4 0x1300A6D1 EQ PUSH2 0x204 JUMPI DUP1 PUSH4 0x1B3ED722 EQ PUSH2 0x21A JUMPI JUMPDEST PUSH1 0x0 DUP1 REVERT JUMPDEST CALLVALUE DUP1 ISZERO PUSH2 0x177 JUMPI PUSH1 0x0 DUP1 REVERT JUMPDEST POP PUSH2 0x181 PUSH1 0xB SLOAD DUP2 JUMP JUMPDEST PUSH1 0x40 MLOAD SWAP1 DUP2 MSTORE PUSH1 0x20 ADD JUMPDEST PUSH1 0x40 MLOAD DUP1 SWAP2 SUB SWAP1 RETURN JUMPDEST CALLVALUE DUP1 ISZERO PUSH2 0x1A0 JUMPI PUSH1 0x0 DUP1 REVERT JUMPDEST POP PUSH2 0x1B4 PUSH2 0x1AF CALLDATASIZE PUSH1 0x4 PUSH2 0xEE5 JUMP JUMPDEST PUSH2 0x44C JUMP JUMPDEST PUSH1 0x40 MLOAD PUSH1 0x1 PUSH1 0x1 PUSH1 0xA0 SHL SUB SWAP1 SWAP2 AND DUP2 MSTORE PUSH1 0x20 ADD PUSH2 0x18B JUMP JUMPDEST CALLVALUE DUP1 ISZERO PUSH2 0x1D8 JUMPI PUSH1 0x0 DUP1 REVERT JUMPDEST POP PUSH2 0x181 PUSH1 0x9 SLOAD DUP2 JUMP JUMPDEST CALLVALUE DUP1 ISZERO PUSH2 0x1EE JUMPI PUSH1 0x0 DUP1 REVERT JUMPDEST POP PUSH2 0x202 PUSH2 0x1FD CALLDATASIZE PUSH1 0x4 PUSH2 0xF13 JUMP JUMPDEST PUSH2 0x47E JUMP JUMPDEST STOP JUMPDEST CALLVALUE DUP1 ISZERO PUSH2 0x210 JUMPI PUSH1 0x0 DUP1 REVERT JUMPDEST POP PUSH2 0x181 PUSH1 0x6 SLOAD DUP2 JUMP JUMPDEST CALLVALUE DUP1 ISZERO PUSH2 0x226 JUMPI PUSH1 0x0 DUP1 REVERT JUMPDEST POP PUSH2 0x181 PUSH1 0xC SLOAD DUP2 JUMP JUMPDEST CALLVALUE DUP1 ISZERO PUSH2 0x23C JUMPI PUSH1 0x0 DUP1 REVERT JUMPDEST POP PUSH2 0x202 PUSH2 0x646 JUMP JUMPDEST CALLVALUE DUP1 ISZERO PUSH2 0x251 JUMPI PUSH1 0x0 DUP1 REVERT JUMPDEST POP PUSH2 0x181 PUSH1 0xD SLOAD DUP2 JUMP JUMPDEST CALLVALUE DUP1 ISZERO PUSH2 0x267 JUMPI PUSH1 0x0 DUP1 REVERT JUMPDEST POP PUSH2 0x181 PUSH1 0x8 SLOAD DUP2 JUMP JUMPDEST CALLVALUE DUP1 ISZERO PUSH2 0x27D JUMPI PUSH1 0x0 DUP1 REVERT JUMPDEST POP PUSH2 0x2BF PUSH2 0x28C CALLDATASIZE PUSH1 0x4 PUSH2 0xEE5 JUMP JUMPDEST PUSH1 0x11 PUSH1 0x20 MSTORE PUSH1 0x0 SWAP1 DUP2 MSTORE PUSH1 0x40 SWAP1 KECCAK256 DUP1 SLOAD PUSH1 0x1 DUP3 ADD SLOAD PUSH1 0x2 DUP4 ADD SLOAD PUSH1 0x3 SWAP1 SWAP4 ADD SLOAD SWAP2 SWAP3 SWAP1 SWAP2 PUSH1 0xFF DUP1 DUP3 AND SWAP2 PUSH2 0x100 SWAP1 DIV AND DUP6 JUMP JUMPDEST PUSH1 0x40 DUP1 MLOAD SWAP6 DUP7 MSTORE PUSH1 0x20 DUP7 ADD SWAP5 SWAP1 SWAP5 MSTORE SWAP3 DUP5 ADD SWAP2 SWAP1 SWAP2 MSTORE ISZERO ISZERO PUSH1 0x60 DUP4 ADD MSTORE ISZERO ISZERO PUSH1 0x80 DUP3 ADD MSTORE PUSH1 0xA0 ADD PUSH2 0x18B JUMP JUMPDEST CALLVALUE DUP1 ISZERO PUSH2 0x2F7 JUMPI PUSH1 0x0 DUP1 REVERT JUMPDEST POP PUSH2 0x181 PUSH1 0x5 SLOAD DUP2 JUMP JUMPDEST CALLVALUE DUP1 ISZERO PUSH2 0x30D JUMPI PUSH1 0x0 DUP1 REVERT JUMPDEST POP PUSH2 0x202 PUSH2 0x31C CALLDATASIZE PUSH1 0x4 PUSH2 0xEE5 JUMP JUMPDEST PUSH2 0x784 JUMP JUMPDEST CALLVALUE DUP1 ISZERO PUSH2 0x32D JUMPI PUSH1 0x0 DUP1 REVERT JUMPDEST POP PUSH2 0x181 PUSH1 0x10 SLOAD DUP2 JUMP JUMPDEST PUSH2 0x202 PUSH2 0x345 CALLDATASIZE PUSH1 0x4 PUSH2 0xF33 JUMP JUMPDEST PUSH2 0x8D2 JUMP JUMPDEST CALLVALUE DUP1 ISZERO PUSH2 0x356 JUMPI PUSH1 0x0 DUP1 REVERT JUMPDEST POP PUSH2 0x181 PUSH1 0x4 SLOAD DUP2 JUMP JUMPDEST CALLVALUE DUP1 ISZERO PUSH2 0x36C JUMPI PUSH1 0x0 DUP1 REVERT JUMPDEST POP PUSH2 0x181 PUSH1 0xF SLOAD DUP2 JUMP JUMPDEST CALLVALUE DUP1 ISZERO PUSH2 0x382 JUMPI PUSH1 0x0 DUP1 REVERT JUMPDEST POP PUSH2 0x181 PUSH1 0x3 SLOAD DUP2 JUMP JUMPDEST CALLVALUE DUP1 ISZERO PUSH2 0x398 JUMPI PUSH1 0x0 DUP1 REVERT JUMPDEST POP PUSH2 0x181 PUSH1 0x1 SLOAD DUP2 JUMP JUMPDEST CALLVALUE DUP1 ISZERO PUSH2 0x3AE JUMPI PUSH1 0x0 DUP1 REVERT JUMPDEST POP PUSH1 0x7 SLOAD PUSH1 0x1 PUSH1 0x1 PUSH1 0xA0 SHL SUB AND PUSH2 0x1B4 JUMP JUMPDEST CALLVALUE DUP1 ISZERO PUSH2 0x3CC JUMPI PUSH1 0x0 DUP1 REVERT JUMPDEST POP PUSH2 0x181 PUSH1 0xE SLOAD DUP2 JUMP JUMPDEST CALLVALUE DUP1 ISZERO PUSH2 0x3E2 JUMPI PUSH1 0x0 DUP1 REVERT JUMPDEST POP PUSH2 0x181 PUSH2 0x3F1 CALLDATASIZE PUSH1 0x4 PUSH2 0xEE5 JUMP JUMPDEST PUSH2 0xCCB JUMP JUMPDEST CALLVALUE DUP1 ISZERO PUSH2 0x402 JUMPI PUSH1 0x0 DUP1 REVERT JUMPDEST POP PUSH2 0x181 PUSH2 0xD4B JUMP JUMPDEST CALLVALUE DUP1 ISZERO PUSH2 0x417 JUMPI PUSH1 0x0 DUP1 REVERT JUMPDEST POP PUSH2 0x202 PUSH2 0xD82 JUMP JUMPDEST CALLVALUE DUP1 ISZERO PUSH2 0x42C JUMPI PUSH1 0x0 DUP1 REVERT JUMPDEST POP PUSH2 0x181 PUSH1 0xA SLOAD DUP2 JUMP JUMPDEST CALLVALUE DUP1 ISZERO PUSH2 0x442 JUMPI PUSH1 0x0 DUP1 REVERT JUMPDEST POP PUSH2 0x181 PUSH1 0x2 SLOAD DUP2 JUMP JUMPDEST PUSH1 0x0 PUSH2 0x456 PUSH2 0xD4B JUMP JUMPDEST ISZERO DUP1 ISZERO PUSH2 0x470 JUMPI POP PUSH1 0x7 SLOAD PUSH1 0x1 PUSH1 0x1 PUSH1 0xA0 SHL SUB DUP4 DUP2 AND SWAP2 AND EQ JUMPDEST ISZERO PUSH2 0x479 JUMPI POP SWAP1 JUMP JUMPDEST SWAP2 SWAP1 POP JUMP JUMPDEST CALLER DUP1 EXTCODESIZE DUP1 ISZERO PUSH2 0x4A8 JUMPI PUSH1 0x40 MLOAD PUSH3 0x461BCD PUSH1 0xE5 SHL DUP2 MSTORE PUSH1 0x4 ADD PUSH2 0x49F SWAP1 PUSH2 0xF4B JUMP JUMPDEST PUSH1 0x40 MLOAD DUP1 SWAP2 SUB SWAP1 REVERT JUMPDEST CALLER PUSH1 0x0 SWAP1 DUP2 MSTORE PUSH1 0x11 PUSH1 0x20 MSTORE PUSH1 0x40 SWAP1 KECCAK256 PUSH1 0x3 ADD SLOAD PUSH1 0xFF PUSH2 0x100 SWAP1 SWAP2 DIV AND ISZERO ISZERO PUSH1 0x1 EQ PUSH2 0x527 JUMPI PUSH1 0x40 MLOAD PUSH3 0x461BCD PUSH1 0xE5 SHL DUP2 MSTORE PUSH1 0x20 PUSH1 0x4 DUP3 ADD MSTORE PUSH1 0x29 PUSH1 0x24 DUP3 ADD MSTORE PUSH32 0x796F75206E65656420746F20627579206174206C65617374206F6E65206B6579 PUSH1 0x44 DUP3 ADD MSTORE PUSH9 0x103A37903B37BA3297 PUSH1 0xB9 SHL PUSH1 0x64 DUP3 ADD MSTORE PUSH1 0x84 ADD PUSH2 0x49F JUMP JUMPDEST PUSH1 0x0 PUSH2 0x531 PUSH2 0xD4B JUMP JUMPDEST GT PUSH2 0x589 JUMPI PUSH1 0x40 MLOAD PUSH3 0x461BCD PUSH1 0xE5 SHL DUP2 MSTORE PUSH1 0x20 PUSH1 0x4 DUP3 ADD MSTORE PUSH1 0x22 PUSH1 0x24 DUP3 ADD MSTORE PUSH32 0x47616D65206973206F76657220616E6420706F6C6C73206861766520636C6F73 PUSH1 0x44 DUP3 ADD MSTORE PUSH2 0x1959 PUSH1 0xF2 SHL PUSH1 0x64 DUP3 ADD MSTORE PUSH1 0x84 ADD PUSH2 0x49F JUMP JUMPDEST CALLER PUSH1 0x0 SWAP1 DUP2 MSTORE PUSH1 0x11 PUSH1 0x20 MSTORE PUSH1 0x40 SWAP1 KECCAK256 PUSH1 0x3 ADD SLOAD PUSH1 0xFF AND ISZERO PUSH2 0x5E1 JUMPI PUSH1 0x40 MLOAD PUSH3 0x461BCD PUSH1 0xE5 SHL DUP2 MSTORE PUSH1 0x20 PUSH1 0x4 DUP3 ADD MSTORE PUSH1 0x12 PUSH1 0x24 DUP3 ADD MSTORE PUSH18 0x3CB7BA9030B63932B0B23C903B37BA32B217 PUSH1 0x71 SHL PUSH1 0x44 DUP3 ADD MSTORE PUSH1 0x64 ADD PUSH2 0x49F JUMP JUMPDEST CALLER PUSH1 0x0 SWAP1 DUP2 MSTORE PUSH1 0x11 PUSH1 0x20 MSTORE PUSH1 0x40 SWAP1 KECCAK256 PUSH1 0x3 ADD DUP1 SLOAD PUSH1 0xFF NOT AND PUSH1 0x1 SWAP1 DUP2 OR SWAP1 SWAP2 SSTORE DUP4 ISZERO ISZERO EQ ISZERO PUSH2 0x628 JUMPI PUSH1 0x1 PUSH1 0x2 PUSH1 0x0 DUP3 DUP3 SLOAD PUSH2 0x61D SWAP2 SWAP1 PUSH2 0xF76 JUMP JUMPDEST SWAP1 SWAP2 SSTORE POP PUSH2 0x641 SWAP1 POP JUMP JUMPDEST PUSH1 0x1 PUSH1 0x3 PUSH1 0x0 DUP3 DUP3 SLOAD PUSH2 0x63B SWAP2 SWAP1 PUSH2 0xF76 JUMP JUMPDEST SWAP1 SWAP2 SSTORE POP POP JUMPDEST POP POP POP JUMP JUMPDEST CALLER DUP1 EXTCODESIZE DUP1 ISZERO PUSH2 0x667 JUMPI PUSH1 0x40 MLOAD PUSH3 0x461BCD PUSH1 0xE5 SHL DUP2 MSTORE PUSH1 0x4 ADD PUSH2 0x49F SWAP1 PUSH2 0xF4B JUMP JUMPDEST PUSH1 0xD SLOAD CALLER SWAP1 PUSH1 0x0 SWAP1 DUP2 SWAP1 PUSH2 0x67E JUMPI PUSH1 0x0 SWAP2 POP PUSH2 0x6F6 JUMP JUMPDEST PUSH1 0xF SLOAD CALLER PUSH1 0x0 SWAP1 DUP2 MSTORE PUSH1 0x11 PUSH1 0x20 MSTORE PUSH1 0x40 SWAP1 KECCAK256 SLOAD PUSH2 0x69B SWAP2 SWAP1 PUSH2 0xFAE JUMP JUMPDEST CALLER PUSH1 0x0 SWAP1 DUP2 MSTORE PUSH1 0x11 PUSH1 0x20 MSTORE PUSH1 0x40 SWAP1 KECCAK256 PUSH1 0x2 ADD SLOAD PUSH1 0xD SLOAD SWAP2 SWAP3 POP SWAP1 PUSH2 0x6BF SWAP1 DUP4 PUSH2 0xF8E JUMP JUMPDEST PUSH2 0x6C9 SWAP2 SWAP1 PUSH2 0xFCD JUMP JUMPDEST CALLER PUSH1 0x0 SWAP1 DUP2 MSTORE PUSH1 0x11 PUSH1 0x20 MSTORE PUSH1 0x40 DUP2 KECCAK256 PUSH1 0x2 ADD DUP1 SLOAD SWAP3 SWAP5 POP DUP5 SWAP3 SWAP1 SWAP2 SWAP1 PUSH2 0x6F0 SWAP1 DUP5 SWAP1 PUSH2 0xF76 JUMP JUMPDEST SWAP1 SWAP2 SSTORE POP POP JUMPDEST PUSH1 0x0 DUP3 GT PUSH2 0x746 JUMPI PUSH1 0x40 MLOAD PUSH3 0x461BCD PUSH1 0xE5 SHL DUP2 MSTORE PUSH1 0x20 PUSH1 0x4 DUP3 ADD MSTORE PUSH1 0x1C PUSH1 0x24 DUP3 ADD MSTORE PUSH32 0x596F752068617665206E6F206469767669657320746F20636C61696D00000000 PUSH1 0x44 DUP3 ADD MSTORE PUSH1 0x64 ADD PUSH2 0x49F JUMP JUMPDEST PUSH1 0x40 MLOAD PUSH1 0x1 PUSH1 0x1 PUSH1 0xA0 SHL SUB DUP5 AND SWAP1 DUP4 ISZERO PUSH2 0x8FC MUL SWAP1 DUP5 SWAP1 PUSH1 0x0 DUP2 DUP2 DUP2 DUP6 DUP9 DUP9 CALL SWAP4 POP POP POP POP ISZERO DUP1 ISZERO PUSH2 0x77C JUMPI RETURNDATASIZE PUSH1 0x0 DUP1 RETURNDATACOPY RETURNDATASIZE PUSH1 0x0 REVERT JUMPDEST POP POP POP POP POP POP JUMP JUMPDEST PUSH1 0x0 SLOAD PUSH1 0x1 PUSH1 0x1 PUSH1 0xA0 SHL SUB AND CALLER EQ PUSH2 0x7F1 JUMPI PUSH1 0x40 MLOAD PUSH3 0x461BCD PUSH1 0xE5 SHL DUP2 MSTORE PUSH1 0x20 PUSH1 0x4 DUP3 ADD MSTORE PUSH1 0x2A PUSH1 0x24 DUP3 ADD MSTORE PUSH32 0x796F75206172656E27742074686520646576656C6F706572206F662074686973 PUSH1 0x44 DUP3 ADD MSTORE PUSH10 0x1031B7B73A3930B1BA17 PUSH1 0xB1 SHL PUSH1 0x64 DUP3 ADD MSTORE PUSH1 0x84 ADD PUSH2 0x49F JUMP JUMPDEST PUSH2 0x7F9 PUSH2 0xD4B JUMP JUMPDEST ISZERO PUSH2 0x83E JUMPI PUSH1 0x40 MLOAD PUSH3 0x461BCD PUSH1 0xE5 SHL DUP2 MSTORE PUSH1 0x20 PUSH1 0x4 DUP3 ADD MSTORE PUSH1 0x15 PUSH1 0x24 DUP3 ADD MSTORE PUSH21 0x67616D65206973207374696C6C20696E20706C6179 PUSH1 0x58 SHL PUSH1 0x44 DUP3 ADD MSTORE PUSH1 0x64 ADD PUSH2 0x49F JUMP JUMPDEST PUSH1 0x3 SLOAD PUSH1 0x2 SLOAD LT PUSH2 0x88A JUMPI PUSH1 0x1 SLOAD PUSH1 0x40 MLOAD DUP3 SWAP2 PUSH1 0x1 PUSH1 0x1 PUSH1 0xA0 SHL SUB DUP4 AND SWAP2 DUP2 ISZERO PUSH2 0x8FC MUL SWAP2 SWAP1 PUSH1 0x0 DUP2 DUP2 DUP2 DUP6 DUP9 DUP9 CALL SWAP4 POP POP POP POP ISZERO DUP1 ISZERO PUSH2 0x883 JUMPI RETURNDATASIZE PUSH1 0x0 DUP1 RETURNDATACOPY RETURNDATASIZE PUSH1 0x0 REVERT JUMPDEST POP POP PUSH2 0x8CA JUMP JUMPDEST PUSH1 0x7 SLOAD PUSH1 0x1 SLOAD PUSH1 0x40 MLOAD PUSH1 0x1 PUSH1 0x1 PUSH1 0xA0 SHL SUB SWAP1 SWAP3 AND SWAP2 DUP3 SWAP2 DUP1 ISZERO PUSH2 0x8FC MUL SWAP2 PUSH1 0x0 DUP2 DUP2 DUP2 DUP6 DUP9 DUP9 CALL SWAP4 POP POP POP POP ISZERO DUP1 ISZERO PUSH2 0x8C7 JUMPI RETURNDATASIZE PUSH1 0x0 DUP1 RETURNDATACOPY RETURNDATASIZE PUSH1 0x0 REVERT JUMPDEST POP POP JUMPDEST POP PUSH1 0x0 PUSH1 0x1 SSTORE JUMP JUMPDEST CALLER DUP1 EXTCODESIZE DUP1 ISZERO PUSH2 0x8F3 JUMPI PUSH1 0x40 MLOAD PUSH3 0x461BCD PUSH1 0xE5 SHL DUP2 MSTORE PUSH1 0x4 ADD PUSH2 0x49F SWAP1 PUSH2 0xF4B JUMP JUMPDEST PUSH1 0xD SLOAD ISZERO DUP1 PUSH2 0x904 JUMPI POP PUSH1 0x5 PUSH1 0xE SLOAD LT JUMPDEST ISZERO PUSH2 0x911 JUMPI PUSH2 0x911 PUSH2 0xED3 JUMP JUMPDEST PUSH1 0x0 PUSH2 0x91B PUSH2 0xD4B JUMP JUMPDEST GT PUSH2 0x968 JUMPI PUSH1 0x40 MLOAD PUSH3 0x461BCD PUSH1 0xE5 SHL DUP2 MSTORE PUSH1 0x20 PUSH1 0x4 DUP3 ADD MSTORE PUSH1 0x19 PUSH1 0x24 DUP3 ADD MSTORE PUSH32 0x746865726520697320616C726561647920612077696E6E657200000000000000 PUSH1 0x44 DUP3 ADD MSTORE PUSH1 0x64 ADD PUSH2 0x49F JUMP JUMPDEST DUP3 PUSH1 0x9 SLOAD PUSH2 0x976 SWAP2 SWAP1 PUSH2 0xFAE JUMP JUMPDEST CALLVALUE LT PUSH2 0x9F7 JUMPI NUMBER PUSH1 0xB SSTORE PUSH1 0xC SLOAD PUSH1 0x9 SLOAD PUSH1 0x0 SWAP2 PUSH2 0x992 SWAP2 PUSH2 0xFAE JUMP JUMPDEST SWAP1 POP PUSH2 0x9A0 PUSH2 0x2710 DUP3 PUSH2 0xF8E JUMP JUMPDEST PUSH1 0x9 SLOAD PUSH2 0x9AD SWAP2 SWAP1 PUSH2 0xF76 JUMP JUMPDEST PUSH1 0x9 DUP2 SWAP1 SSTORE PUSH1 0xA DUP1 SLOAD SWAP1 SWAP2 PUSH2 0x9C2 SWAP2 SWAP1 PUSH2 0xF8E JUMP JUMPDEST LT ISZERO DUP1 ISZERO PUSH2 0x9D3 JUMPI POP PUSH1 0x14 PUSH1 0xC SLOAD LT ISZERO JUMPDEST ISZERO PUSH2 0x9F1 JUMPI PUSH1 0x9 SLOAD PUSH1 0xA SWAP1 DUP2 SSTORE PUSH1 0xC SLOAD PUSH2 0x9ED SWAP2 SWAP1 PUSH2 0xFCD JUMP JUMPDEST PUSH1 0xC SSTORE JUMPDEST POP PUSH2 0xB19 JUMP JUMPDEST PUSH1 0x0 PUSH1 0xC SLOAD PUSH1 0x9 SLOAD PUSH2 0xA09 SWAP2 SWAP1 PUSH2 0xFAE JUMP JUMPDEST SWAP1 POP PUSH1 0x0 PUSH2 0xA19 PUSH2 0x2710 DUP4 PUSH2 0xF8E JUMP JUMPDEST PUSH1 0x9 SLOAD PUSH2 0xA26 SWAP2 SWAP1 PUSH2 0xFCD JUMP JUMPDEST SWAP1 POP PUSH2 0xA32 DUP6 DUP3 PUSH2 0xFAE JUMP JUMPDEST CALLVALUE LT ISZERO DUP1 ISZERO PUSH2 0xA4E JUMPI POP PUSH1 0xB SLOAD PUSH2 0xA4A SWAP1 PUSH1 0x2 PUSH2 0xF76 JUMP JUMPDEST NUMBER GT ISZERO JUMPDEST PUSH2 0xB16 JUMPI PUSH1 0x40 MLOAD PUSH3 0x461BCD PUSH1 0xE5 SHL DUP2 MSTORE PUSH1 0x20 PUSH1 0x4 DUP3 ADD MSTORE PUSH1 0x81 PUSH1 0x24 DUP3 ADD MSTORE PUSH32 0x4E6F7420656E6F75676820746F2062757920746865206B65792873293A204B65 PUSH1 0x44 DUP3 ADD MSTORE PUSH32 0x7920707269636520697320696E6372656173696E6720717569636B6C792E2054 PUSH1 0x64 DUP3 ADD MSTORE PUSH32 0x72792072656672657368696E6720746865207061676520616E6420717569636B PUSH1 0x84 DUP3 ADD MSTORE PUSH32 0x6C79207375626D697474696E67206B657920707572636861736520616761696E PUSH1 0xA4 DUP3 ADD MSTORE PUSH1 0x17 PUSH1 0xF9 SHL PUSH1 0xC4 DUP3 ADD MSTORE PUSH1 0xE4 ADD PUSH2 0x49F JUMP JUMPDEST POP POP JUMPDEST PUSH1 0x0 PUSH2 0xB26 CALLVALUE PUSH1 0x64 PUSH2 0xFAE JUMP JUMPDEST SWAP1 POP PUSH1 0x0 PUSH2 0xB36 PUSH2 0x2710 DUP4 PUSH2 0xF8E JUMP JUMPDEST SWAP1 POP PUSH1 0x0 PUSH2 0xB44 DUP3 CALLVALUE PUSH2 0xFCD JUMP JUMPDEST SWAP1 POP PUSH1 0x0 PUSH2 0xB53 PUSH1 0x2 DUP4 PUSH2 0xF8E JUMP JUMPDEST SWAP1 POP DUP3 PUSH1 0x1 PUSH1 0x0 DUP3 DUP3 SLOAD PUSH2 0xB67 SWAP2 SWAP1 PUSH2 0xF76 JUMP JUMPDEST SWAP3 POP POP DUP2 SWAP1 SSTORE POP DUP1 PUSH1 0x10 PUSH1 0x0 DUP3 DUP3 SLOAD PUSH2 0xB80 SWAP2 SWAP1 PUSH2 0xF76 JUMP JUMPDEST SWAP1 SWAP2 SSTORE POP PUSH2 0xB90 SWAP1 POP DUP2 DUP4 PUSH2 0xFCD JUMP JUMPDEST PUSH1 0xF PUSH1 0x0 DUP3 DUP3 SLOAD PUSH2 0xBA1 SWAP2 SWAP1 PUSH2 0xF76 JUMP JUMPDEST SWAP1 SWAP2 SSTORE POP POP CALLER PUSH1 0x0 SWAP1 DUP2 MSTORE PUSH1 0x11 PUSH1 0x20 MSTORE PUSH1 0x40 DUP2 KECCAK256 DUP1 SLOAD DUP10 SWAP3 SWAP1 PUSH2 0xBC5 SWAP1 DUP5 SWAP1 PUSH2 0xF76 JUMP JUMPDEST SWAP1 SWAP2 SSTORE POP POP CALLER PUSH1 0x0 SWAP1 DUP2 MSTORE PUSH1 0x11 PUSH1 0x20 MSTORE PUSH1 0x40 DUP2 KECCAK256 PUSH1 0x3 ADD DUP1 SLOAD PUSH2 0xFF00 NOT AND PUSH2 0x100 OR SWAP1 SSTORE PUSH1 0xD DUP1 SLOAD DUP10 SWAP3 SWAP1 PUSH2 0xBFB SWAP1 DUP5 SWAP1 PUSH2 0xF76 JUMP JUMPDEST SWAP1 SWAP2 SSTORE POP POP PUSH1 0x5 SLOAD PUSH2 0xC0E SWAP1 TIMESTAMP SWAP1 PUSH2 0xFCD JUMP JUMPDEST PUSH2 0xC1B SWAP1 PUSH3 0x15180 PUSH2 0xFCD JUMP JUMPDEST PUSH2 0xC26 DUP9 PUSH1 0x1E PUSH2 0xFAE JUMP JUMPDEST GT ISZERO PUSH2 0xC39 JUMPI PUSH2 0xC34 PUSH2 0xED3 JUMP JUMPDEST PUSH2 0xC5B JUMP JUMPDEST PUSH2 0xC44 DUP8 PUSH1 0x1E PUSH2 0xFAE JUMP JUMPDEST PUSH1 0x5 PUSH1 0x0 DUP3 DUP3 SLOAD PUSH2 0xC55 SWAP2 SWAP1 PUSH2 0xF76 JUMP JUMPDEST SWAP1 SWAP2 SSTORE POP POP JUMPDEST PUSH1 0x1 PUSH1 0xE PUSH1 0x0 DUP3 DUP3 SLOAD PUSH2 0xC6E SWAP2 SWAP1 PUSH2 0xF76 JUMP JUMPDEST SWAP1 SWAP2 SSTORE POP POP PUSH1 0x7 DUP1 SLOAD PUSH1 0x1 PUSH1 0x1 PUSH1 0xA0 SHL SUB NOT AND CALLER SWAP1 DUP2 OR SWAP1 SWAP2 SSTORE PUSH1 0x40 DUP1 MLOAD DUP10 DUP2 MSTORE PUSH1 0x20 DUP2 ADD SWAP3 SWAP1 SWAP3 MSTORE PUSH32 0xC9CDC97FA2223A1523DB8444B75A4978BDC4B7371C256194188681E6A1BCD73B SWAP2 ADD PUSH1 0x40 MLOAD DUP1 SWAP2 SUB SWAP1 LOG1 POP POP POP POP POP POP POP JUMP JUMPDEST PUSH1 0x0 DUP1 PUSH1 0x0 PUSH1 0xD SLOAD PUSH1 0x0 EQ ISZERO PUSH2 0xCE4 JUMPI PUSH1 0x0 SWAP2 POP PUSH2 0xD44 JUMP JUMPDEST PUSH1 0xF SLOAD PUSH1 0x1 PUSH1 0x1 PUSH1 0xA0 SHL SUB DUP6 AND PUSH1 0x0 SWAP1 DUP2 MSTORE PUSH1 0x11 PUSH1 0x20 MSTORE PUSH1 0x40 SWAP1 KECCAK256 SLOAD PUSH2 0xD0A SWAP2 SWAP1 PUSH2 0xFAE JUMP JUMPDEST PUSH1 0x1 PUSH1 0x1 PUSH1 0xA0 SHL SUB DUP6 AND PUSH1 0x0 SWAP1 DUP2 MSTORE PUSH1 0x11 PUSH1 0x20 MSTORE PUSH1 0x40 SWAP1 KECCAK256 PUSH1 0x2 ADD SLOAD PUSH1 0xD SLOAD SWAP2 SWAP3 POP SWAP1 PUSH2 0xD37 SWAP1 DUP4 PUSH2 0xF8E JUMP JUMPDEST PUSH2 0xD41 SWAP2 SWAP1 PUSH2 0xFCD JUMP JUMPDEST SWAP2 POP JUMPDEST POP SWAP3 SWAP2 POP POP JUMP JUMPDEST PUSH1 0x0 PUSH1 0xD SLOAD PUSH1 0x0 EQ ISZERO PUSH2 0xD60 JUMPI POP PUSH3 0x15180 SWAP1 JUMP JUMPDEST TIMESTAMP PUSH1 0x5 SLOAD LT PUSH2 0xD7C JUMPI TIMESTAMP PUSH1 0x5 SLOAD PUSH2 0xD77 SWAP2 SWAP1 PUSH2 0xFCD JUMP JUMPDEST SWAP1 POP SWAP1 JUMP JUMPDEST POP PUSH1 0x0 SWAP1 JUMP JUMPDEST CALLER DUP1 EXTCODESIZE DUP1 ISZERO PUSH2 0xDA3 JUMPI PUSH1 0x40 MLOAD PUSH3 0x461BCD PUSH1 0xE5 SHL DUP2 MSTORE PUSH1 0x4 ADD PUSH2 0x49F SWAP1 PUSH2 0xF4B JUMP JUMPDEST PUSH2 0xDAB PUSH2 0xD4B JUMP JUMPDEST ISZERO PUSH2 0xDF0 JUMPI PUSH1 0x40 MLOAD PUSH3 0x461BCD PUSH1 0xE5 SHL DUP2 MSTORE PUSH1 0x20 PUSH1 0x4 DUP3 ADD MSTORE PUSH1 0x15 PUSH1 0x24 DUP3 ADD MSTORE PUSH21 0x67616D65206973207374696C6C20696E20706C6179 PUSH1 0x58 SHL PUSH1 0x44 DUP3 ADD MSTORE PUSH1 0x64 ADD PUSH2 0x49F JUMP JUMPDEST PUSH1 0x0 PUSH1 0x10 SLOAD GT PUSH2 0xE38 JUMPI PUSH1 0x40 MLOAD PUSH3 0x461BCD PUSH1 0xE5 SHL DUP2 MSTORE PUSH1 0x20 PUSH1 0x4 DUP3 ADD MSTORE PUSH1 0x13 PUSH1 0x24 DUP3 ADD MSTORE PUSH19 0x139BC81B5BDB995E481A5B881A9858DADC1BDD PUSH1 0x6A SHL PUSH1 0x44 DUP3 ADD MSTORE PUSH1 0x64 ADD PUSH2 0x49F JUMP JUMPDEST PUSH1 0x7 SLOAD PUSH1 0x1 PUSH1 0x1 PUSH1 0xA0 SHL SUB AND CALLER EQ PUSH2 0xE8B JUMPI PUSH1 0x40 MLOAD PUSH3 0x461BCD PUSH1 0xE5 SHL DUP2 MSTORE PUSH1 0x20 PUSH1 0x4 DUP3 ADD MSTORE PUSH1 0x16 PUSH1 0x24 DUP3 ADD MSTORE PUSH22 0x3CB7BA9030B932903737BA103A3432903BB4B73732B9 PUSH1 0x51 SHL PUSH1 0x44 DUP3 ADD MSTORE PUSH1 0x64 ADD PUSH2 0x49F JUMP JUMPDEST PUSH1 0x7 SLOAD PUSH1 0x10 SLOAD PUSH1 0x40 MLOAD PUSH1 0x1 PUSH1 0x1 PUSH1 0xA0 SHL SUB SWAP1 SWAP3 AND SWAP2 DUP3 SWAP2 DUP1 ISZERO PUSH2 0x8FC MUL SWAP2 PUSH1 0x0 DUP2 DUP2 DUP2 DUP6 DUP9 DUP9 CALL SWAP4 POP POP POP POP ISZERO DUP1 ISZERO PUSH2 0xEC8 JUMPI RETURNDATASIZE PUSH1 0x0 DUP1 RETURNDATACOPY RETURNDATASIZE PUSH1 0x0 REVERT JUMPDEST POP POP PUSH1 0x0 PUSH1 0x10 SSTORE POP POP JUMP JUMPDEST PUSH2 0xEE0 TIMESTAMP PUSH3 0x15180 PUSH2 0xF76 JUMP JUMPDEST PUSH1 0x5 SSTORE JUMP JUMPDEST PUSH1 0x0 PUSH1 0x20 DUP3 DUP5 SUB SLT ISZERO PUSH2 0xEF6 JUMPI DUP1 DUP2 REVERT JUMPDEST DUP2 CALLDATALOAD PUSH1 0x1 PUSH1 0x1 PUSH1 0xA0 SHL SUB DUP2 AND DUP2 EQ PUSH2 0xF0C JUMPI DUP2 DUP3 REVERT JUMPDEST SWAP4 SWAP3 POP POP POP JUMP JUMPDEST PUSH1 0x0 PUSH1 0x20 DUP3 DUP5 SUB SLT ISZERO PUSH2 0xF24 JUMPI DUP1 DUP2 REVERT JUMPDEST DUP2 CALLDATALOAD DUP1 ISZERO ISZERO DUP2 EQ PUSH2 0xF0C JUMPI DUP2 DUP3 REVERT JUMPDEST PUSH1 0x0 PUSH1 0x20 DUP3 DUP5 SUB SLT ISZERO PUSH2 0xF44 JUMPI DUP1 DUP2 REVERT JUMPDEST POP CALLDATALOAD SWAP2 SWAP1 POP JUMP JUMPDEST PUSH1 0x20 DUP1 DUP3 MSTORE PUSH1 0x11 SWAP1 DUP3 ADD MSTORE PUSH17 0x736F7272792068756D616E73206F6E6C79 PUSH1 0x78 SHL PUSH1 0x40 DUP3 ADD MSTORE PUSH1 0x60 ADD SWAP1 JUMP JUMPDEST PUSH1 0x0 DUP3 NOT DUP3 GT ISZERO PUSH2 0xF89 JUMPI PUSH2 0xF89 PUSH2 0xFE4 JUMP JUMPDEST POP ADD SWAP1 JUMP JUMPDEST PUSH1 0x0 DUP3 PUSH2 0xFA9 JUMPI PUSH4 0x4E487B71 PUSH1 0xE0 SHL DUP2 MSTORE PUSH1 0x12 PUSH1 0x4 MSTORE PUSH1 0x24 DUP2 REVERT JUMPDEST POP DIV SWAP1 JUMP JUMPDEST PUSH1 0x0 DUP2 PUSH1 0x0 NOT DIV DUP4 GT DUP3 ISZERO ISZERO AND ISZERO PUSH2 0xFC8 JUMPI PUSH2 0xFC8 PUSH2 0xFE4 JUMP JUMPDEST POP MUL SWAP1 JUMP JUMPDEST PUSH1 0x0 DUP3 DUP3 LT ISZERO PUSH2 0xFDF JUMPI PUSH2 0xFDF PUSH2 0xFE4 JUMP JUMPDEST POP SUB SWAP1 JUMP JUMPDEST PUSH4 0x4E487B71 PUSH1 0xE0 SHL PUSH1 0x0 MSTORE PUSH1 0x11 PUSH1 0x4 MSTORE PUSH1 0x24 PUSH1 0x0 REVERT INVALID LOG2 PUSH5 0x6970667358 0x22 SLT KECCAK256 0xA5 0xDC 0x4D DUP1 0xB3 0x28 DUP3 0xBB 0xBF 0xEC 0x22 RETURNDATASIZE 0x22 CALLVALUE PUSH31 0xA1685E2E6695DE256D70F59F45E4F4DFEA64736F6C63430008040033000000 "
        },
        "methodIdentifiers": {
          "balanceReceived()": "52a90c42",
          "developerOnePercent()": "8b80016b",
          "developerOnePercentAllocation(address)": "69a5ede3",
          "divPool()": "7c2be5dd",
          "divTracker(address)": "55fcbbff",
          "getTimeLeft()": "c7e284b8",
          "getWinner()": "8e7ea5b2",
          "giveToDeveloper()": "e5618fa9",
          "giveToJackpot()": "82f96499",
          "increased_order()": "e02b44d4",
          "jackpot()": "6b31ee01",
          "jackpotPayout()": "d20bff02",
          "keyPrice()": "10e56973",
          "keyPriceIncreaseBlockNumber()": "05b3bd70",
          "keyPurchases()": "92c5c06e",
          "multiplier()": "1b3ed722",
          "purchaseKeys(uint256)": "78c3171f",
          "startTime()": "78e97925",
          "timeLeft()": "1300a6d1",
          "totalKeys()": "488bdabc",
          "totalTime()": "58533e0a",
          "updateDivvies(address)": "acf7084a",
          "voteForOnePercent(bool)": "111d3efb",
          "whoWon(address)": "0d153c92",
          "withdrawDivvies()": "1ebe585d"
        }
      }
    }
  }
}