{
  "contracts/FomoOE.sol": {
    "FomoOE": {
      "abi": [
        {
          "inputs": [],
          "stateMutability": "nonpayable",
          "type": "constructor"
        },
        {
          "anonymous": false,
          "inputs": [
            {
              "indexed": false,
              "internalType": "uint256",
              "name": "_balanceReceived",
              "type": "uint256"
            }
          ],
          "name": "contractBalance",
          "type": "event"
        },
        {
          "anonymous": false,
          "inputs": [
            {
              "indexed": false,
              "internalType": "uint256",
              "name": "keyPrice",
              "type": "uint256"
            }
          ],
          "name": "currentKeyPrice",
          "type": "event"
        },
        {
          "anonymous": false,
          "inputs": [
            {
              "indexed": false,
              "internalType": "uint256",
              "name": "_userKeyBalance",
              "type": "uint256"
            },
            {
              "indexed": false,
              "internalType": "uint256",
              "name": "_totalKeys",
              "type": "uint256"
            },
            {
              "indexed": false,
              "internalType": "uint256",
              "name": "_keyPrice",
              "type": "uint256"
            },
            {
              "indexed": false,
              "internalType": "uint256",
              "name": "_divPool",
              "type": "uint256"
            },
            {
              "indexed": false,
              "internalType": "uint256",
              "name": "_jackpot",
              "type": "uint256"
            },
            {
              "indexed": false,
              "internalType": "address",
              "name": "_winning",
              "type": "address"
            }
          ],
          "name": "keysPurchased",
          "type": "event"
        },
        {
          "anonymous": false,
          "inputs": [
            {
              "indexed": false,
              "internalType": "uint256",
              "name": "_userDivvies",
              "type": "uint256"
            }
          ],
          "name": "userDivvies",
          "type": "event"
        },
        {
          "inputs": [],
          "name": "balanceReceived",
          "outputs": [
            {
              "internalType": "uint256",
              "name": "",
              "type": "uint256"
            }
          ],
          "stateMutability": "view",
          "type": "function"
        },
        {
          "inputs": [],
          "name": "blockNumberOfLastKeyPurchase",
          "outputs": [
            {
              "internalType": "uint256",
              "name": "",
              "type": "uint256"
            }
          ],
          "stateMutability": "view",
          "type": "function"
        },
        {
          "inputs": [],
          "name": "developerOnePercent",
          "outputs": [
            {
              "internalType": "uint256",
              "name": "",
              "type": "uint256"
            }
          ],
          "stateMutability": "view",
          "type": "function"
        },
        {
          "inputs": [],
          "name": "developerOnePercentAllocation",
          "outputs": [],
          "stateMutability": "nonpayable",
          "type": "function"
        },
        {
          "inputs": [],
          "name": "divPool",
          "outputs": [
            {
              "internalType": "uint256",
              "name": "",
              "type": "uint256"
            }
          ],
          "stateMutability": "view",
          "type": "function"
        },
        {
          "inputs": [
            {
              "internalType": "address",
              "name": "",
              "type": "address"
            }
          ],
          "name": "divTracker",
          "outputs": [
            {
              "internalType": "uint256",
              "name": "_keyBalance",
              "type": "uint256"
            },
            {
              "internalType": "uint256",
              "name": "_divBalance",
              "type": "uint256"
            },
            {
              "internalType": "uint256",
              "name": "_withdrawnAmount",
              "type": "uint256"
            },
            {
              "internalType": "bool",
              "name": "_voted",
              "type": "bool"
            },
            {
              "internalType": "bool",
              "name": "_boughtKeys",
              "type": "bool"
            }
          ],
          "stateMutability": "view",
          "type": "function"
        },
        {
          "inputs": [],
          "name": "getTimeLeft",
          "outputs": [
            {
              "internalType": "uint256",
              "name": "",
              "type": "uint256"
            }
          ],
          "stateMutability": "view",
          "type": "function"
        },
        {
          "inputs": [],
          "name": "getWinner",
          "outputs": [
            {
              "internalType": "address",
              "name": "",
              "type": "address"
            }
          ],
          "stateMutability": "view",
          "type": "function"
        },
        {
          "inputs": [],
          "name": "giveToDeveloper",
          "outputs": [
            {
              "internalType": "uint256",
              "name": "",
              "type": "uint256"
            }
          ],
          "stateMutability": "view",
          "type": "function"
        },
        {
          "inputs": [],
          "name": "giveToJackpot",
          "outputs": [
            {
              "internalType": "uint256",
              "name": "",
              "type": "uint256"
            }
          ],
          "stateMutability": "view",
          "type": "function"
        },
        {
          "inputs": [],
          "name": "jackpot",
          "outputs": [
            {
              "internalType": "uint256",
              "name": "",
              "type": "uint256"
            }
          ],
          "stateMutability": "view",
          "type": "function"
        },
        {
          "inputs": [],
          "name": "jackpotPayout",
          "outputs": [],
          "stateMutability": "nonpayable",
          "type": "function"
        },
        {
          "inputs": [],
          "name": "keyPrice",
          "outputs": [
            {
              "internalType": "uint256",
              "name": "",
              "type": "uint256"
            }
          ],
          "stateMutability": "view",
          "type": "function"
        },
        {
          "inputs": [
            {
              "internalType": "uint256",
              "name": "",
              "type": "uint256"
            }
          ],
          "name": "keyPriceTracker",
          "outputs": [
            {
              "internalType": "uint256",
              "name": "_currentKeyPrice",
              "type": "uint256"
            }
          ],
          "stateMutability": "view",
          "type": "function"
        },
        {
          "inputs": [],
          "name": "keyPurchases",
          "outputs": [
            {
              "internalType": "uint256",
              "name": "",
              "type": "uint256"
            }
          ],
          "stateMutability": "view",
          "type": "function"
        },
        {
          "inputs": [],
          "name": "nextKeyPrice",
          "outputs": [
            {
              "internalType": "uint256",
              "name": "",
              "type": "uint256"
            }
          ],
          "stateMutability": "view",
          "type": "function"
        },
        {
          "inputs": [],
          "name": "prevKeyPrice",
          "outputs": [
            {
              "internalType": "uint256",
              "name": "",
              "type": "uint256"
            }
          ],
          "stateMutability": "view",
          "type": "function"
        },
        {
          "inputs": [
            {
              "internalType": "uint256",
              "name": "_amount",
              "type": "uint256"
            }
          ],
          "name": "purchaseKeys",
          "outputs": [],
          "stateMutability": "payable",
          "type": "function"
        },
        {
          "inputs": [],
          "name": "startTime",
          "outputs": [
            {
              "internalType": "uint256",
              "name": "",
              "type": "uint256"
            }
          ],
          "stateMutability": "view",
          "type": "function"
        },
        {
          "inputs": [],
          "name": "timeLeft",
          "outputs": [
            {
              "internalType": "uint256",
              "name": "",
              "type": "uint256"
            }
          ],
          "stateMutability": "view",
          "type": "function"
        },
        {
          "inputs": [],
          "name": "totalKeys",
          "outputs": [
            {
              "internalType": "uint256",
              "name": "",
              "type": "uint256"
            }
          ],
          "stateMutability": "view",
          "type": "function"
        },
        {
          "inputs": [],
          "name": "totalTime",
          "outputs": [
            {
              "internalType": "uint256",
              "name": "",
              "type": "uint256"
            }
          ],
          "stateMutability": "view",
          "type": "function"
        },
        {
          "inputs": [
            {
              "internalType": "address",
              "name": "_userAddress",
              "type": "address"
            }
          ],
          "name": "updateDivvies",
          "outputs": [
            {
              "internalType": "uint256",
              "name": "",
              "type": "uint256"
            }
          ],
          "stateMutability": "view",
          "type": "function"
        },
        {
          "inputs": [
            {
              "internalType": "bool",
              "name": "_vote",
              "type": "bool"
            }
          ],
          "name": "voteForOnePercent",
          "outputs": [],
          "stateMutability": "nonpayable",
          "type": "function"
        },
        {
          "inputs": [
            {
              "internalType": "address",
              "name": "_userAddress",
              "type": "address"
            }
          ],
          "name": "whoWon",
          "outputs": [
            {
              "internalType": "address",
              "name": "winner",
              "type": "address"
            }
          ],
          "stateMutability": "view",
          "type": "function"
        },
        {
          "inputs": [],
          "name": "withdrawDivvies",
          "outputs": [],
          "stateMutability": "nonpayable",
          "type": "function"
        }
      ],
      "evm": {
        "bytecode": {
          "linkReferences": {},
          "object": "608060405243600955660bf5f72abe6810600a55660bf5f72abe6810600b5534801561002a57600080fd5b50600080546001600160a01b03191633179055610ecd8061004c6000396000f3fe6080604052600436106101815760003560e01c80636b31ee01116100d15780638b80016b1161008a578063acf7084a11610064578063acf7084a14610429578063c7e284b814610449578063d20bff021461045e578063e5618fa91461047357600080fd5b80638b80016b146103df5780638e7ea5b2146103f557806392c5c06e1461041357600080fd5b80636b31ee011461035e57806378c3171f1461037457806378e97925146103875780637c2be5dd1461039d5780637d58e38f146103b357806382f96499146103c957600080fd5b80632bd4c3a71161013e57806352a90c421161011857806352a90c42146102a257806355fcbbff146102b857806358533e0a146103325780635daa424d1461034857600080fd5b80632bd4c3a71461024957806332b123f41461025f578063488bdabc1461028c57600080fd5b80630d153c921461018657806310e56973146101c3578063111d3efb146101e75780631300a6d1146102095780631ebe585d1461021f5780631fd9300d14610234575b600080fd5b34801561019257600080fd5b506101a66101a1366004610dad565b610489565b6040516001600160a01b0390911681526020015b60405180910390f35b3480156101cf57600080fd5b506101d9600a5481565b6040519081526020016101ba565b3480156101f357600080fd5b50610207610202366004610ddb565b6104bb565b005b34801561021557600080fd5b506101d960065481565b34801561022b57600080fd5b506102076105fa565b34801561024057600080fd5b50610207610715565b34801561025557600080fd5b506101d960095481565b34801561026b57600080fd5b506101d961027a366004610dfb565b600f6020526000908152604090205481565b34801561029857600080fd5b506101d960105481565b3480156102ae57600080fd5b506101d960085481565b3480156102c457600080fd5b506103066102d3366004610dad565b60146020526000908152604090208054600182015460028301546003909301549192909160ff8082169161010090041685565b60408051958652602086019490945292840191909152151560608301521515608082015260a0016101ba565b34801561033e57600080fd5b506101d960055481565b34801561035457600080fd5b506101d9600b5481565b34801561036a57600080fd5b506101d960135481565b610207610382366004610dfb565b610865565b34801561039357600080fd5b506101d960045481565b3480156103a957600080fd5b506101d960125481565b3480156103bf57600080fd5b506101d9600c5481565b3480156103d557600080fd5b506101d960035481565b3480156103eb57600080fd5b506101d960015481565b34801561040157600080fd5b506007546001600160a01b03166101a6565b34801561041f57600080fd5b506101d960115481565b34801561043557600080fd5b506101d9610444366004610dad565b610bb6565b34801561045557600080fd5b506101d9610c36565b34801561046a57600080fd5b50610207610c6d565b34801561047f57600080fd5b506101d960025481565b6000610493610c36565b1580156104ad57506007546001600160a01b038381169116145b156104b6575090565b919050565b3360009081526014602052604090206003015460ff61010090910416151560011461053f5760405162461bcd60e51b815260206004820152602960248201527f796f75206e65656420746f20627579206174206c65617374206f6e65206b6579604482015268103a37903b37ba329760b91b60648201526084015b60405180910390fd5b3360009081526014602052604090206003015460ff16156105975760405162461bcd60e51b81526020600482015260126024820152713cb7ba9030b63932b0b23c903b37ba32b21760711b6044820152606401610536565b336000908152601460205260409020600301805460ff1916600190811790915581151514156105de576001600260008282546105d39190610e13565b909155506105f79050565b6001600360008282546105f19190610e13565b90915550505b50565b601054339060009081906106115760009150610689565b6012543360009081526014602052604090205461062e9190610e4b565b33600090815260146020526040902060020154601054919250906106529083610e2b565b61065c9190610e6a565b33600090815260146020526040812060020180549294508492909190610683908490610e13565b90915550505b600082116106d95760405162461bcd60e51b815260206004820152601c60248201527f596f752068617665206e6f206469767669657320746f20636c61696d000000006044820152606401610536565b6040516001600160a01b0384169083156108fc029084906000818181858888f1935050505015801561070f573d6000803e3d6000fd5b50505050565b6000546001600160a01b031633146107825760405162461bcd60e51b815260206004820152602a60248201527f796f75206172656e27742074686520646576656c6f706572206f6620746869736044820152691031b7b73a3930b1ba1760b11b6064820152608401610536565b61078a610c36565b156107cf5760405162461bcd60e51b815260206004820152601560248201527467616d65206973207374696c6c20696e20706c617960581b6044820152606401610536565b6003546002541061081e57600080546001546040516001600160a01b0390921692839282156108fc029291818181858888f19350505050158015610817573d6000803e3d6000fd5b505061085e565b6007546001546040516001600160a01b0390921691829180156108fc02916000818181858888f1935050505015801561085b573d6000803e3d6000fd5b50505b6000600155565b60105461087457610874610d9b565b600061087e610c36565b116108cb5760405162461bcd60e51b815260206004820152601960248201527f746865726520697320616c726561647920612077696e6e6572000000000000006044820152606401610536565b80600a546108d99190610e4b565b3410610931576101f46011541015610920576000600a5460646108fc9190610e4b565b905061090a61271082610e2b565b600a546109179190610e13565b600a55506109bd565b6000600a5460326108fc9190610e4b565b6000600a5460646109429190610e4b565b9050600061095261271083610e2b565b600a5461095f9190610e6a565b905061096b8382610e4b565b3410156109ba5760405162461bcd60e51b815260206004820152601d60248201527f4e6f7420656e6f75676820746f2062757920746865206b65792873292e0000006044820152606401610536565b50505b60006109ca346064610e4b565b905060006109da61271083610e2b565b905060006109e88234610e6a565b905060006109f7600283610e2b565b90508260016000828254610a0b9190610e13565b925050819055508060136000828254610a249190610e13565b90915550610a3490508183610e6a565b60126000828254610a459190610e13565b90915550503360009081526014602052604081208054879290610a69908490610e13565b9091555050336000908152601460205260408120600301805461ff00191661010017905560108054879290610a9f908490610e13565b9091555050600554610ab2904290610e6a565b610abf9062015180610e6a565b610aca86601e610e4b565b1115610add57610ad8610d9b565b610aff565b610ae885601e610e4b565b60056000828254610af99190610e13565b90915550505b600160116000828254610b129190610e13565b9091555050600780546001600160a01b031916339081179091556000818152601460205260409081902054601054600a5460125460135494517ff18df1d3dbefaeb22f0e4efe18d279a090ed7b0a9be1c27b33cda2f677ca67d496610ba3969195865260208601949094526040850192909252606084015260808301526001600160a01b031660a082015260c00190565b60405180910390a1505043600955505050565b600080600060105460001415610bcf5760009150610c2f565b6012546001600160a01b038516600090815260146020526040902054610bf59190610e4b565b6001600160a01b03851660009081526014602052604090206002015460105491925090610c229083610e2b565b610c2c9190610e6a565b91505b5092915050565b600060105460001415610c4b57506201518090565b4260055410610c675742600554610c629190610e6a565b905090565b50600090565b610c75610c36565b15610cba5760405162461bcd60e51b815260206004820152601560248201527467616d65206973207374696c6c20696e20706c617960581b6044820152606401610536565b600060135411610d025760405162461bcd60e51b8152602060048201526013602482015272139bc81b5bdb995e481a5b881a9858dadc1bdd606a1b6044820152606401610536565b6007546001600160a01b03163314610d555760405162461bcd60e51b81526020600482015260166024820152753cb7ba9030b932903737ba103a3432903bb4b73732b960511b6044820152606401610536565b6007546013546040516001600160a01b0390921691829180156108fc02916000818181858888f19350505050158015610d92573d6000803e3d6000fd5b50506000601355565b610da84262015180610e13565b600555565b600060208284031215610dbe578081fd5b81356001600160a01b0381168114610dd4578182fd5b9392505050565b600060208284031215610dec578081fd5b81358015158114610dd4578182fd5b600060208284031215610e0c578081fd5b5035919050565b60008219821115610e2657610e26610e81565b500190565b600082610e4657634e487b7160e01b81526012600452602481fd5b500490565b6000816000190483118215151615610e6557610e65610e81565b500290565b600082821015610e7c57610e7c610e81565b500390565b634e487b7160e01b600052601160045260246000fdfea2646970667358221220ceb365d605278b0043d2fd451af8622ecb9db814f1170267458e52ef6d3d390c64736f6c63430008040033",
          "opcodes": "PUSH1 0x80 PUSH1 0x40 MSTORE NUMBER PUSH1 0x9 SSTORE PUSH7 0xBF5F72ABE6810 PUSH1 0xA SSTORE PUSH7 0xBF5F72ABE6810 PUSH1 0xB SSTORE CALLVALUE DUP1 ISZERO PUSH2 0x2A JUMPI PUSH1 0x0 DUP1 REVERT JUMPDEST POP PUSH1 0x0 DUP1 SLOAD PUSH1 0x1 PUSH1 0x1 PUSH1 0xA0 SHL SUB NOT AND CALLER OR SWAP1 SSTORE PUSH2 0xECD DUP1 PUSH2 0x4C PUSH1 0x0 CODECOPY PUSH1 0x0 RETURN INVALID PUSH1 0x80 PUSH1 0x40 MSTORE PUSH1 0x4 CALLDATASIZE LT PUSH2 0x181 JUMPI PUSH1 0x0 CALLDATALOAD PUSH1 0xE0 SHR DUP1 PUSH4 0x6B31EE01 GT PUSH2 0xD1 JUMPI DUP1 PUSH4 0x8B80016B GT PUSH2 0x8A JUMPI DUP1 PUSH4 0xACF7084A GT PUSH2 0x64 JUMPI DUP1 PUSH4 0xACF7084A EQ PUSH2 0x429 JUMPI DUP1 PUSH4 0xC7E284B8 EQ PUSH2 0x449 JUMPI DUP1 PUSH4 0xD20BFF02 EQ PUSH2 0x45E JUMPI DUP1 PUSH4 0xE5618FA9 EQ PUSH2 0x473 JUMPI PUSH1 0x0 DUP1 REVERT JUMPDEST DUP1 PUSH4 0x8B80016B EQ PUSH2 0x3DF JUMPI DUP1 PUSH4 0x8E7EA5B2 EQ PUSH2 0x3F5 JUMPI DUP1 PUSH4 0x92C5C06E EQ PUSH2 0x413 JUMPI PUSH1 0x0 DUP1 REVERT JUMPDEST DUP1 PUSH4 0x6B31EE01 EQ PUSH2 0x35E JUMPI DUP1 PUSH4 0x78C3171F EQ PUSH2 0x374 JUMPI DUP1 PUSH4 0x78E97925 EQ PUSH2 0x387 JUMPI DUP1 PUSH4 0x7C2BE5DD EQ PUSH2 0x39D JUMPI DUP1 PUSH4 0x7D58E38F EQ PUSH2 0x3B3 JUMPI DUP1 PUSH4 0x82F96499 EQ PUSH2 0x3C9 JUMPI PUSH1 0x0 DUP1 REVERT JUMPDEST DUP1 PUSH4 0x2BD4C3A7 GT PUSH2 0x13E JUMPI DUP1 PUSH4 0x52A90C42 GT PUSH2 0x118 JUMPI DUP1 PUSH4 0x52A90C42 EQ PUSH2 0x2A2 JUMPI DUP1 PUSH4 0x55FCBBFF EQ PUSH2 0x2B8 JUMPI DUP1 PUSH4 0x58533E0A EQ PUSH2 0x332 JUMPI DUP1 PUSH4 0x5DAA424D EQ PUSH2 0x348 JUMPI PUSH1 0x0 DUP1 REVERT JUMPDEST DUP1 PUSH4 0x2BD4C3A7 EQ PUSH2 0x249 JUMPI DUP1 PUSH4 0x32B123F4 EQ PUSH2 0x25F JUMPI DUP1 PUSH4 0x488BDABC EQ PUSH2 0x28C JUMPI PUSH1 0x0 DUP1 REVERT JUMPDEST DUP1 PUSH4 0xD153C92 EQ PUSH2 0x186 JUMPI DUP1 PUSH4 0x10E56973 EQ PUSH2 0x1C3 JUMPI DUP1 PUSH4 0x111D3EFB EQ PUSH2 0x1E7 JUMPI DUP1 PUSH4 0x1300A6D1 EQ PUSH2 0x209 JUMPI DUP1 PUSH4 0x1EBE585D EQ PUSH2 0x21F JUMPI DUP1 PUSH4 0x1FD9300D EQ PUSH2 0x234 JUMPI JUMPDEST PUSH1 0x0 DUP1 REVERT JUMPDEST CALLVALUE DUP1 ISZERO PUSH2 0x192 JUMPI PUSH1 0x0 DUP1 REVERT JUMPDEST POP PUSH2 0x1A6 PUSH2 0x1A1 CALLDATASIZE PUSH1 0x4 PUSH2 0xDAD JUMP JUMPDEST PUSH2 0x489 JUMP JUMPDEST PUSH1 0x40 MLOAD PUSH1 0x1 PUSH1 0x1 PUSH1 0xA0 SHL SUB SWAP1 SWAP2 AND DUP2 MSTORE PUSH1 0x20 ADD JUMPDEST PUSH1 0x40 MLOAD DUP1 SWAP2 SUB SWAP1 RETURN JUMPDEST CALLVALUE DUP1 ISZERO PUSH2 0x1CF JUMPI PUSH1 0x0 DUP1 REVERT JUMPDEST POP PUSH2 0x1D9 PUSH1 0xA SLOAD DUP2 JUMP JUMPDEST PUSH1 0x40 MLOAD SWAP1 DUP2 MSTORE PUSH1 0x20 ADD PUSH2 0x1BA JUMP JUMPDEST CALLVALUE DUP1 ISZERO PUSH2 0x1F3 JUMPI PUSH1 0x0 DUP1 REVERT JUMPDEST POP PUSH2 0x207 PUSH2 0x202 CALLDATASIZE PUSH1 0x4 PUSH2 0xDDB JUMP JUMPDEST PUSH2 0x4BB JUMP JUMPDEST STOP JUMPDEST CALLVALUE DUP1 ISZERO PUSH2 0x215 JUMPI PUSH1 0x0 DUP1 REVERT JUMPDEST POP PUSH2 0x1D9 PUSH1 0x6 SLOAD DUP2 JUMP JUMPDEST CALLVALUE DUP1 ISZERO PUSH2 0x22B JUMPI PUSH1 0x0 DUP1 REVERT JUMPDEST POP PUSH2 0x207 PUSH2 0x5FA JUMP JUMPDEST CALLVALUE DUP1 ISZERO PUSH2 0x240 JUMPI PUSH1 0x0 DUP1 REVERT JUMPDEST POP PUSH2 0x207 PUSH2 0x715 JUMP JUMPDEST CALLVALUE DUP1 ISZERO PUSH2 0x255 JUMPI PUSH1 0x0 DUP1 REVERT JUMPDEST POP PUSH2 0x1D9 PUSH1 0x9 SLOAD DUP2 JUMP JUMPDEST CALLVALUE DUP1 ISZERO PUSH2 0x26B JUMPI PUSH1 0x0 DUP1 REVERT JUMPDEST POP PUSH2 0x1D9 PUSH2 0x27A CALLDATASIZE PUSH1 0x4 PUSH2 0xDFB JUMP JUMPDEST PUSH1 0xF PUSH1 0x20 MSTORE PUSH1 0x0 SWAP1 DUP2 MSTORE PUSH1 0x40 SWAP1 KECCAK256 SLOAD DUP2 JUMP JUMPDEST CALLVALUE DUP1 ISZERO PUSH2 0x298 JUMPI PUSH1 0x0 DUP1 REVERT JUMPDEST POP PUSH2 0x1D9 PUSH1 0x10 SLOAD DUP2 JUMP JUMPDEST CALLVALUE DUP1 ISZERO PUSH2 0x2AE JUMPI PUSH1 0x0 DUP1 REVERT JUMPDEST POP PUSH2 0x1D9 PUSH1 0x8 SLOAD DUP2 JUMP JUMPDEST CALLVALUE DUP1 ISZERO PUSH2 0x2C4 JUMPI PUSH1 0x0 DUP1 REVERT JUMPDEST POP PUSH2 0x306 PUSH2 0x2D3 CALLDATASIZE PUSH1 0x4 PUSH2 0xDAD JUMP JUMPDEST PUSH1 0x14 PUSH1 0x20 MSTORE PUSH1 0x0 SWAP1 DUP2 MSTORE PUSH1 0x40 SWAP1 KECCAK256 DUP1 SLOAD PUSH1 0x1 DUP3 ADD SLOAD PUSH1 0x2 DUP4 ADD SLOAD PUSH1 0x3 SWAP1 SWAP4 ADD SLOAD SWAP2 SWAP3 SWAP1 SWAP2 PUSH1 0xFF DUP1 DUP3 AND SWAP2 PUSH2 0x100 SWAP1 DIV AND DUP6 JUMP JUMPDEST PUSH1 0x40 DUP1 MLOAD SWAP6 DUP7 MSTORE PUSH1 0x20 DUP7 ADD SWAP5 SWAP1 SWAP5 MSTORE SWAP3 DUP5 ADD SWAP2 SWAP1 SWAP2 MSTORE ISZERO ISZERO PUSH1 0x60 DUP4 ADD MSTORE ISZERO ISZERO PUSH1 0x80 DUP3 ADD MSTORE PUSH1 0xA0 ADD PUSH2 0x1BA JUMP JUMPDEST CALLVALUE DUP1 ISZERO PUSH2 0x33E JUMPI PUSH1 0x0 DUP1 REVERT JUMPDEST POP PUSH2 0x1D9 PUSH1 0x5 SLOAD DUP2 JUMP JUMPDEST CALLVALUE DUP1 ISZERO PUSH2 0x354 JUMPI PUSH1 0x0 DUP1 REVERT JUMPDEST POP PUSH2 0x1D9 PUSH1 0xB SLOAD DUP2 JUMP JUMPDEST CALLVALUE DUP1 ISZERO PUSH2 0x36A JUMPI PUSH1 0x0 DUP1 REVERT JUMPDEST POP PUSH2 0x1D9 PUSH1 0x13 SLOAD DUP2 JUMP JUMPDEST PUSH2 0x207 PUSH2 0x382 CALLDATASIZE PUSH1 0x4 PUSH2 0xDFB JUMP JUMPDEST PUSH2 0x865 JUMP JUMPDEST CALLVALUE DUP1 ISZERO PUSH2 0x393 JUMPI PUSH1 0x0 DUP1 REVERT JUMPDEST POP PUSH2 0x1D9 PUSH1 0x4 SLOAD DUP2 JUMP JUMPDEST CALLVALUE DUP1 ISZERO PUSH2 0x3A9 JUMPI PUSH1 0x0 DUP1 REVERT JUMPDEST POP PUSH2 0x1D9 PUSH1 0x12 SLOAD DUP2 JUMP JUMPDEST CALLVALUE DUP1 ISZERO PUSH2 0x3BF JUMPI PUSH1 0x0 DUP1 REVERT JUMPDEST POP PUSH2 0x1D9 PUSH1 0xC SLOAD DUP2 JUMP JUMPDEST CALLVALUE DUP1 ISZERO PUSH2 0x3D5 JUMPI PUSH1 0x0 DUP1 REVERT JUMPDEST POP PUSH2 0x1D9 PUSH1 0x3 SLOAD DUP2 JUMP JUMPDEST CALLVALUE DUP1 ISZERO PUSH2 0x3EB JUMPI PUSH1 0x0 DUP1 REVERT JUMPDEST POP PUSH2 0x1D9 PUSH1 0x1 SLOAD DUP2 JUMP JUMPDEST CALLVALUE DUP1 ISZERO PUSH2 0x401 JUMPI PUSH1 0x0 DUP1 REVERT JUMPDEST POP PUSH1 0x7 SLOAD PUSH1 0x1 PUSH1 0x1 PUSH1 0xA0 SHL SUB AND PUSH2 0x1A6 JUMP JUMPDEST CALLVALUE DUP1 ISZERO PUSH2 0x41F JUMPI PUSH1 0x0 DUP1 REVERT JUMPDEST POP PUSH2 0x1D9 PUSH1 0x11 SLOAD DUP2 JUMP JUMPDEST CALLVALUE DUP1 ISZERO PUSH2 0x435 JUMPI PUSH1 0x0 DUP1 REVERT JUMPDEST POP PUSH2 0x1D9 PUSH2 0x444 CALLDATASIZE PUSH1 0x4 PUSH2 0xDAD JUMP JUMPDEST PUSH2 0xBB6 JUMP JUMPDEST CALLVALUE DUP1 ISZERO PUSH2 0x455 JUMPI PUSH1 0x0 DUP1 REVERT JUMPDEST POP PUSH2 0x1D9 PUSH2 0xC36 JUMP JUMPDEST CALLVALUE DUP1 ISZERO PUSH2 0x46A JUMPI PUSH1 0x0 DUP1 REVERT JUMPDEST POP PUSH2 0x207 PUSH2 0xC6D JUMP JUMPDEST CALLVALUE DUP1 ISZERO PUSH2 0x47F JUMPI PUSH1 0x0 DUP1 REVERT JUMPDEST POP PUSH2 0x1D9 PUSH1 0x2 SLOAD DUP2 JUMP JUMPDEST PUSH1 0x0 PUSH2 0x493 PUSH2 0xC36 JUMP JUMPDEST ISZERO DUP1 ISZERO PUSH2 0x4AD JUMPI POP PUSH1 0x7 SLOAD PUSH1 0x1 PUSH1 0x1 PUSH1 0xA0 SHL SUB DUP4 DUP2 AND SWAP2 AND EQ JUMPDEST ISZERO PUSH2 0x4B6 JUMPI POP SWAP1 JUMP JUMPDEST SWAP2 SWAP1 POP JUMP JUMPDEST CALLER PUSH1 0x0 SWAP1 DUP2 MSTORE PUSH1 0x14 PUSH1 0x20 MSTORE PUSH1 0x40 SWAP1 KECCAK256 PUSH1 0x3 ADD SLOAD PUSH1 0xFF PUSH2 0x100 SWAP1 SWAP2 DIV AND ISZERO ISZERO PUSH1 0x1 EQ PUSH2 0x53F JUMPI PUSH1 0x40 MLOAD PUSH3 0x461BCD PUSH1 0xE5 SHL DUP2 MSTORE PUSH1 0x20 PUSH1 0x4 DUP3 ADD MSTORE PUSH1 0x29 PUSH1 0x24 DUP3 ADD MSTORE PUSH32 0x796F75206E65656420746F20627579206174206C65617374206F6E65206B6579 PUSH1 0x44 DUP3 ADD MSTORE PUSH9 0x103A37903B37BA3297 PUSH1 0xB9 SHL PUSH1 0x64 DUP3 ADD MSTORE PUSH1 0x84 ADD JUMPDEST PUSH1 0x40 MLOAD DUP1 SWAP2 SUB SWAP1 REVERT JUMPDEST CALLER PUSH1 0x0 SWAP1 DUP2 MSTORE PUSH1 0x14 PUSH1 0x20 MSTORE PUSH1 0x40 SWAP1 KECCAK256 PUSH1 0x3 ADD SLOAD PUSH1 0xFF AND ISZERO PUSH2 0x597 JUMPI PUSH1 0x40 MLOAD PUSH3 0x461BCD PUSH1 0xE5 SHL DUP2 MSTORE PUSH1 0x20 PUSH1 0x4 DUP3 ADD MSTORE PUSH1 0x12 PUSH1 0x24 DUP3 ADD MSTORE PUSH18 0x3CB7BA9030B63932B0B23C903B37BA32B217 PUSH1 0x71 SHL PUSH1 0x44 DUP3 ADD MSTORE PUSH1 0x64 ADD PUSH2 0x536 JUMP JUMPDEST CALLER PUSH1 0x0 SWAP1 DUP2 MSTORE PUSH1 0x14 PUSH1 0x20 MSTORE PUSH1 0x40 SWAP1 KECCAK256 PUSH1 0x3 ADD DUP1 SLOAD PUSH1 0xFF NOT AND PUSH1 0x1 SWAP1 DUP2 OR SWAP1 SWAP2 SSTORE DUP2 ISZERO ISZERO EQ ISZERO PUSH2 0x5DE JUMPI PUSH1 0x1 PUSH1 0x2 PUSH1 0x0 DUP3 DUP3 SLOAD PUSH2 0x5D3 SWAP2 SWAP1 PUSH2 0xE13 JUMP JUMPDEST SWAP1 SWAP2 SSTORE POP PUSH2 0x5F7 SWAP1 POP JUMP JUMPDEST PUSH1 0x1 PUSH1 0x3 PUSH1 0x0 DUP3 DUP3 SLOAD PUSH2 0x5F1 SWAP2 SWAP1 PUSH2 0xE13 JUMP JUMPDEST SWAP1 SWAP2 SSTORE POP POP JUMPDEST POP JUMP JUMPDEST PUSH1 0x10 SLOAD CALLER SWAP1 PUSH1 0x0 SWAP1 DUP2 SWAP1 PUSH2 0x611 JUMPI PUSH1 0x0 SWAP2 POP PUSH2 0x689 JUMP JUMPDEST PUSH1 0x12 SLOAD CALLER PUSH1 0x0 SWAP1 DUP2 MSTORE PUSH1 0x14 PUSH1 0x20 MSTORE PUSH1 0x40 SWAP1 KECCAK256 SLOAD PUSH2 0x62E SWAP2 SWAP1 PUSH2 0xE4B JUMP JUMPDEST CALLER PUSH1 0x0 SWAP1 DUP2 MSTORE PUSH1 0x14 PUSH1 0x20 MSTORE PUSH1 0x40 SWAP1 KECCAK256 PUSH1 0x2 ADD SLOAD PUSH1 0x10 SLOAD SWAP2 SWAP3 POP SWAP1 PUSH2 0x652 SWAP1 DUP4 PUSH2 0xE2B JUMP JUMPDEST PUSH2 0x65C SWAP2 SWAP1 PUSH2 0xE6A JUMP JUMPDEST CALLER PUSH1 0x0 SWAP1 DUP2 MSTORE PUSH1 0x14 PUSH1 0x20 MSTORE PUSH1 0x40 DUP2 KECCAK256 PUSH1 0x2 ADD DUP1 SLOAD SWAP3 SWAP5 POP DUP5 SWAP3 SWAP1 SWAP2 SWAP1 PUSH2 0x683 SWAP1 DUP5 SWAP1 PUSH2 0xE13 JUMP JUMPDEST SWAP1 SWAP2 SSTORE POP POP JUMPDEST PUSH1 0x0 DUP3 GT PUSH2 0x6D9 JUMPI PUSH1 0x40 MLOAD PUSH3 0x461BCD PUSH1 0xE5 SHL DUP2 MSTORE PUSH1 0x20 PUSH1 0x4 DUP3 ADD MSTORE PUSH1 0x1C PUSH1 0x24 DUP3 ADD MSTORE PUSH32 0x596F752068617665206E6F206469767669657320746F20636C61696D00000000 PUSH1 0x44 DUP3 ADD MSTORE PUSH1 0x64 ADD PUSH2 0x536 JUMP JUMPDEST PUSH1 0x40 MLOAD PUSH1 0x1 PUSH1 0x1 PUSH1 0xA0 SHL SUB DUP5 AND SWAP1 DUP4 ISZERO PUSH2 0x8FC MUL SWAP1 DUP5 SWAP1 PUSH1 0x0 DUP2 DUP2 DUP2 DUP6 DUP9 DUP9 CALL SWAP4 POP POP POP POP ISZERO DUP1 ISZERO PUSH2 0x70F JUMPI RETURNDATASIZE PUSH1 0x0 DUP1 RETURNDATACOPY RETURNDATASIZE PUSH1 0x0 REVERT JUMPDEST POP POP POP POP JUMP JUMPDEST PUSH1 0x0 SLOAD PUSH1 0x1 PUSH1 0x1 PUSH1 0xA0 SHL SUB AND CALLER EQ PUSH2 0x782 JUMPI PUSH1 0x40 MLOAD PUSH3 0x461BCD PUSH1 0xE5 SHL DUP2 MSTORE PUSH1 0x20 PUSH1 0x4 DUP3 ADD MSTORE PUSH1 0x2A PUSH1 0x24 DUP3 ADD MSTORE PUSH32 0x796F75206172656E27742074686520646576656C6F706572206F662074686973 PUSH1 0x44 DUP3 ADD MSTORE PUSH10 0x1031B7B73A3930B1BA17 PUSH1 0xB1 SHL PUSH1 0x64 DUP3 ADD MSTORE PUSH1 0x84 ADD PUSH2 0x536 JUMP JUMPDEST PUSH2 0x78A PUSH2 0xC36 JUMP JUMPDEST ISZERO PUSH2 0x7CF JUMPI PUSH1 0x40 MLOAD PUSH3 0x461BCD PUSH1 0xE5 SHL DUP2 MSTORE PUSH1 0x20 PUSH1 0x4 DUP3 ADD MSTORE PUSH1 0x15 PUSH1 0x24 DUP3 ADD MSTORE PUSH21 0x67616D65206973207374696C6C20696E20706C6179 PUSH1 0x58 SHL PUSH1 0x44 DUP3 ADD MSTORE PUSH1 0x64 ADD PUSH2 0x536 JUMP JUMPDEST PUSH1 0x3 SLOAD PUSH1 0x2 SLOAD LT PUSH2 0x81E JUMPI PUSH1 0x0 DUP1 SLOAD PUSH1 0x1 SLOAD PUSH1 0x40 MLOAD PUSH1 0x1 PUSH1 0x1 PUSH1 0xA0 SHL SUB SWAP1 SWAP3 AND SWAP3 DUP4 SWAP3 DUP3 ISZERO PUSH2 0x8FC MUL SWAP3 SWAP2 DUP2 DUP2 DUP2 DUP6 DUP9 DUP9 CALL SWAP4 POP POP POP POP ISZERO DUP1 ISZERO PUSH2 0x817 JUMPI RETURNDATASIZE PUSH1 0x0 DUP1 RETURNDATACOPY RETURNDATASIZE PUSH1 0x0 REVERT JUMPDEST POP POP PUSH2 0x85E JUMP JUMPDEST PUSH1 0x7 SLOAD PUSH1 0x1 SLOAD PUSH1 0x40 MLOAD PUSH1 0x1 PUSH1 0x1 PUSH1 0xA0 SHL SUB SWAP1 SWAP3 AND SWAP2 DUP3 SWAP2 DUP1 ISZERO PUSH2 0x8FC MUL SWAP2 PUSH1 0x0 DUP2 DUP2 DUP2 DUP6 DUP9 DUP9 CALL SWAP4 POP POP POP POP ISZERO DUP1 ISZERO PUSH2 0x85B JUMPI RETURNDATASIZE PUSH1 0x0 DUP1 RETURNDATACOPY RETURNDATASIZE PUSH1 0x0 REVERT JUMPDEST POP POP JUMPDEST PUSH1 0x0 PUSH1 0x1 SSTORE JUMP JUMPDEST PUSH1 0x10 SLOAD PUSH2 0x874 JUMPI PUSH2 0x874 PUSH2 0xD9B JUMP JUMPDEST PUSH1 0x0 PUSH2 0x87E PUSH2 0xC36 JUMP JUMPDEST GT PUSH2 0x8CB JUMPI PUSH1 0x40 MLOAD PUSH3 0x461BCD PUSH1 0xE5 SHL DUP2 MSTORE PUSH1 0x20 PUSH1 0x4 DUP3 ADD MSTORE PUSH1 0x19 PUSH1 0x24 DUP3 ADD MSTORE PUSH32 0x746865726520697320616C726561647920612077696E6E657200000000000000 PUSH1 0x44 DUP3 ADD MSTORE PUSH1 0x64 ADD PUSH2 0x536 JUMP JUMPDEST DUP1 PUSH1 0xA SLOAD PUSH2 0x8D9 SWAP2 SWAP1 PUSH2 0xE4B JUMP JUMPDEST CALLVALUE LT PUSH2 0x931 JUMPI PUSH2 0x1F4 PUSH1 0x11 SLOAD LT ISZERO PUSH2 0x920 JUMPI PUSH1 0x0 PUSH1 0xA SLOAD PUSH1 0x64 PUSH2 0x8FC SWAP2 SWAP1 PUSH2 0xE4B JUMP JUMPDEST SWAP1 POP PUSH2 0x90A PUSH2 0x2710 DUP3 PUSH2 0xE2B JUMP JUMPDEST PUSH1 0xA SLOAD PUSH2 0x917 SWAP2 SWAP1 PUSH2 0xE13 JUMP JUMPDEST PUSH1 0xA SSTORE POP PUSH2 0x9BD JUMP JUMPDEST PUSH1 0x0 PUSH1 0xA SLOAD PUSH1 0x32 PUSH2 0x8FC SWAP2 SWAP1 PUSH2 0xE4B JUMP JUMPDEST PUSH1 0x0 PUSH1 0xA SLOAD PUSH1 0x64 PUSH2 0x942 SWAP2 SWAP1 PUSH2 0xE4B JUMP JUMPDEST SWAP1 POP PUSH1 0x0 PUSH2 0x952 PUSH2 0x2710 DUP4 PUSH2 0xE2B JUMP JUMPDEST PUSH1 0xA SLOAD PUSH2 0x95F SWAP2 SWAP1 PUSH2 0xE6A JUMP JUMPDEST SWAP1 POP PUSH2 0x96B DUP4 DUP3 PUSH2 0xE4B JUMP JUMPDEST CALLVALUE LT ISZERO PUSH2 0x9BA JUMPI PUSH1 0x40 MLOAD PUSH3 0x461BCD PUSH1 0xE5 SHL DUP2 MSTORE PUSH1 0x20 PUSH1 0x4 DUP3 ADD MSTORE PUSH1 0x1D PUSH1 0x24 DUP3 ADD MSTORE PUSH32 0x4E6F7420656E6F75676820746F2062757920746865206B65792873292E000000 PUSH1 0x44 DUP3 ADD MSTORE PUSH1 0x64 ADD PUSH2 0x536 JUMP JUMPDEST POP POP JUMPDEST PUSH1 0x0 PUSH2 0x9CA CALLVALUE PUSH1 0x64 PUSH2 0xE4B JUMP JUMPDEST SWAP1 POP PUSH1 0x0 PUSH2 0x9DA PUSH2 0x2710 DUP4 PUSH2 0xE2B JUMP JUMPDEST SWAP1 POP PUSH1 0x0 PUSH2 0x9E8 DUP3 CALLVALUE PUSH2 0xE6A JUMP JUMPDEST SWAP1 POP PUSH1 0x0 PUSH2 0x9F7 PUSH1 0x2 DUP4 PUSH2 0xE2B JUMP JUMPDEST SWAP1 POP DUP3 PUSH1 0x1 PUSH1 0x0 DUP3 DUP3 SLOAD PUSH2 0xA0B SWAP2 SWAP1 PUSH2 0xE13 JUMP JUMPDEST SWAP3 POP POP DUP2 SWAP1 SSTORE POP DUP1 PUSH1 0x13 PUSH1 0x0 DUP3 DUP3 SLOAD PUSH2 0xA24 SWAP2 SWAP1 PUSH2 0xE13 JUMP JUMPDEST SWAP1 SWAP2 SSTORE POP PUSH2 0xA34 SWAP1 POP DUP2 DUP4 PUSH2 0xE6A JUMP JUMPDEST PUSH1 0x12 PUSH1 0x0 DUP3 DUP3 SLOAD PUSH2 0xA45 SWAP2 SWAP1 PUSH2 0xE13 JUMP JUMPDEST SWAP1 SWAP2 SSTORE POP POP CALLER PUSH1 0x0 SWAP1 DUP2 MSTORE PUSH1 0x14 PUSH1 0x20 MSTORE PUSH1 0x40 DUP2 KECCAK256 DUP1 SLOAD DUP8 SWAP3 SWAP1 PUSH2 0xA69 SWAP1 DUP5 SWAP1 PUSH2 0xE13 JUMP JUMPDEST SWAP1 SWAP2 SSTORE POP POP CALLER PUSH1 0x0 SWAP1 DUP2 MSTORE PUSH1 0x14 PUSH1 0x20 MSTORE PUSH1 0x40 DUP2 KECCAK256 PUSH1 0x3 ADD DUP1 SLOAD PUSH2 0xFF00 NOT AND PUSH2 0x100 OR SWAP1 SSTORE PUSH1 0x10 DUP1 SLOAD DUP8 SWAP3 SWAP1 PUSH2 0xA9F SWAP1 DUP5 SWAP1 PUSH2 0xE13 JUMP JUMPDEST SWAP1 SWAP2 SSTORE POP POP PUSH1 0x5 SLOAD PUSH2 0xAB2 SWAP1 TIMESTAMP SWAP1 PUSH2 0xE6A JUMP JUMPDEST PUSH2 0xABF SWAP1 PUSH3 0x15180 PUSH2 0xE6A JUMP JUMPDEST PUSH2 0xACA DUP7 PUSH1 0x1E PUSH2 0xE4B JUMP JUMPDEST GT ISZERO PUSH2 0xADD JUMPI PUSH2 0xAD8 PUSH2 0xD9B JUMP JUMPDEST PUSH2 0xAFF JUMP JUMPDEST PUSH2 0xAE8 DUP6 PUSH1 0x1E PUSH2 0xE4B JUMP JUMPDEST PUSH1 0x5 PUSH1 0x0 DUP3 DUP3 SLOAD PUSH2 0xAF9 SWAP2 SWAP1 PUSH2 0xE13 JUMP JUMPDEST SWAP1 SWAP2 SSTORE POP POP JUMPDEST PUSH1 0x1 PUSH1 0x11 PUSH1 0x0 DUP3 DUP3 SLOAD PUSH2 0xB12 SWAP2 SWAP1 PUSH2 0xE13 JUMP JUMPDEST SWAP1 SWAP2 SSTORE POP POP PUSH1 0x7 DUP1 SLOAD PUSH1 0x1 PUSH1 0x1 PUSH1 0xA0 SHL SUB NOT AND CALLER SWAP1 DUP2 OR SWAP1 SWAP2 SSTORE PUSH1 0x0 DUP2 DUP2 MSTORE PUSH1 0x14 PUSH1 0x20 MSTORE PUSH1 0x40 SWAP1 DUP2 SWAP1 KECCAK256 SLOAD PUSH1 0x10 SLOAD PUSH1 0xA SLOAD PUSH1 0x12 SLOAD PUSH1 0x13 SLOAD SWAP5 MLOAD PUSH32 0xF18DF1D3DBEFAEB22F0E4EFE18D279A090ED7B0A9BE1C27B33CDA2F677CA67D4 SWAP7 PUSH2 0xBA3 SWAP7 SWAP2 SWAP6 DUP7 MSTORE PUSH1 0x20 DUP7 ADD SWAP5 SWAP1 SWAP5 MSTORE PUSH1 0x40 DUP6 ADD SWAP3 SWAP1 SWAP3 MSTORE PUSH1 0x60 DUP5 ADD MSTORE PUSH1 0x80 DUP4 ADD MSTORE PUSH1 0x1 PUSH1 0x1 PUSH1 0xA0 SHL SUB AND PUSH1 0xA0 DUP3 ADD MSTORE PUSH1 0xC0 ADD SWAP1 JUMP JUMPDEST PUSH1 0x40 MLOAD DUP1 SWAP2 SUB SWAP1 LOG1 POP POP NUMBER PUSH1 0x9 SSTORE POP POP POP JUMP JUMPDEST PUSH1 0x0 DUP1 PUSH1 0x0 PUSH1 0x10 SLOAD PUSH1 0x0 EQ ISZERO PUSH2 0xBCF JUMPI PUSH1 0x0 SWAP2 POP PUSH2 0xC2F JUMP JUMPDEST PUSH1 0x12 SLOAD PUSH1 0x1 PUSH1 0x1 PUSH1 0xA0 SHL SUB DUP6 AND PUSH1 0x0 SWAP1 DUP2 MSTORE PUSH1 0x14 PUSH1 0x20 MSTORE PUSH1 0x40 SWAP1 KECCAK256 SLOAD PUSH2 0xBF5 SWAP2 SWAP1 PUSH2 0xE4B JUMP JUMPDEST PUSH1 0x1 PUSH1 0x1 PUSH1 0xA0 SHL SUB DUP6 AND PUSH1 0x0 SWAP1 DUP2 MSTORE PUSH1 0x14 PUSH1 0x20 MSTORE PUSH1 0x40 SWAP1 KECCAK256 PUSH1 0x2 ADD SLOAD PUSH1 0x10 SLOAD SWAP2 SWAP3 POP SWAP1 PUSH2 0xC22 SWAP1 DUP4 PUSH2 0xE2B JUMP JUMPDEST PUSH2 0xC2C SWAP2 SWAP1 PUSH2 0xE6A JUMP JUMPDEST SWAP2 POP JUMPDEST POP SWAP3 SWAP2 POP POP JUMP JUMPDEST PUSH1 0x0 PUSH1 0x10 SLOAD PUSH1 0x0 EQ ISZERO PUSH2 0xC4B JUMPI POP PUSH3 0x15180 SWAP1 JUMP JUMPDEST TIMESTAMP PUSH1 0x5 SLOAD LT PUSH2 0xC67 JUMPI TIMESTAMP PUSH1 0x5 SLOAD PUSH2 0xC62 SWAP2 SWAP1 PUSH2 0xE6A JUMP JUMPDEST SWAP1 POP SWAP1 JUMP JUMPDEST POP PUSH1 0x0 SWAP1 JUMP JUMPDEST PUSH2 0xC75 PUSH2 0xC36 JUMP JUMPDEST ISZERO PUSH2 0xCBA JUMPI PUSH1 0x40 MLOAD PUSH3 0x461BCD PUSH1 0xE5 SHL DUP2 MSTORE PUSH1 0x20 PUSH1 0x4 DUP3 ADD MSTORE PUSH1 0x15 PUSH1 0x24 DUP3 ADD MSTORE PUSH21 0x67616D65206973207374696C6C20696E20706C6179 PUSH1 0x58 SHL PUSH1 0x44 DUP3 ADD MSTORE PUSH1 0x64 ADD PUSH2 0x536 JUMP JUMPDEST PUSH1 0x0 PUSH1 0x13 SLOAD GT PUSH2 0xD02 JUMPI PUSH1 0x40 MLOAD PUSH3 0x461BCD PUSH1 0xE5 SHL DUP2 MSTORE PUSH1 0x20 PUSH1 0x4 DUP3 ADD MSTORE PUSH1 0x13 PUSH1 0x24 DUP3 ADD MSTORE PUSH19 0x139BC81B5BDB995E481A5B881A9858DADC1BDD PUSH1 0x6A SHL PUSH1 0x44 DUP3 ADD MSTORE PUSH1 0x64 ADD PUSH2 0x536 JUMP JUMPDEST PUSH1 0x7 SLOAD PUSH1 0x1 PUSH1 0x1 PUSH1 0xA0 SHL SUB AND CALLER EQ PUSH2 0xD55 JUMPI PUSH1 0x40 MLOAD PUSH3 0x461BCD PUSH1 0xE5 SHL DUP2 MSTORE PUSH1 0x20 PUSH1 0x4 DUP3 ADD MSTORE PUSH1 0x16 PUSH1 0x24 DUP3 ADD MSTORE PUSH22 0x3CB7BA9030B932903737BA103A3432903BB4B73732B9 PUSH1 0x51 SHL PUSH1 0x44 DUP3 ADD MSTORE PUSH1 0x64 ADD PUSH2 0x536 JUMP JUMPDEST PUSH1 0x7 SLOAD PUSH1 0x13 SLOAD PUSH1 0x40 MLOAD PUSH1 0x1 PUSH1 0x1 PUSH1 0xA0 SHL SUB SWAP1 SWAP3 AND SWAP2 DUP3 SWAP2 DUP1 ISZERO PUSH2 0x8FC MUL SWAP2 PUSH1 0x0 DUP2 DUP2 DUP2 DUP6 DUP9 DUP9 CALL SWAP4 POP POP POP POP ISZERO DUP1 ISZERO PUSH2 0xD92 JUMPI RETURNDATASIZE PUSH1 0x0 DUP1 RETURNDATACOPY RETURNDATASIZE PUSH1 0x0 REVERT JUMPDEST POP POP PUSH1 0x0 PUSH1 0x13 SSTORE JUMP JUMPDEST PUSH2 0xDA8 TIMESTAMP PUSH3 0x15180 PUSH2 0xE13 JUMP JUMPDEST PUSH1 0x5 SSTORE JUMP JUMPDEST PUSH1 0x0 PUSH1 0x20 DUP3 DUP5 SUB SLT ISZERO PUSH2 0xDBE JUMPI DUP1 DUP2 REVERT JUMPDEST DUP2 CALLDATALOAD PUSH1 0x1 PUSH1 0x1 PUSH1 0xA0 SHL SUB DUP2 AND DUP2 EQ PUSH2 0xDD4 JUMPI DUP2 DUP3 REVERT JUMPDEST SWAP4 SWAP3 POP POP POP JUMP JUMPDEST PUSH1 0x0 PUSH1 0x20 DUP3 DUP5 SUB SLT ISZERO PUSH2 0xDEC JUMPI DUP1 DUP2 REVERT JUMPDEST DUP2 CALLDATALOAD DUP1 ISZERO ISZERO DUP2 EQ PUSH2 0xDD4 JUMPI DUP2 DUP3 REVERT JUMPDEST PUSH1 0x0 PUSH1 0x20 DUP3 DUP5 SUB SLT ISZERO PUSH2 0xE0C JUMPI DUP1 DUP2 REVERT JUMPDEST POP CALLDATALOAD SWAP2 SWAP1 POP JUMP JUMPDEST PUSH1 0x0 DUP3 NOT DUP3 GT ISZERO PUSH2 0xE26 JUMPI PUSH2 0xE26 PUSH2 0xE81 JUMP JUMPDEST POP ADD SWAP1 JUMP JUMPDEST PUSH1 0x0 DUP3 PUSH2 0xE46 JUMPI PUSH4 0x4E487B71 PUSH1 0xE0 SHL DUP2 MSTORE PUSH1 0x12 PUSH1 0x4 MSTORE PUSH1 0x24 DUP2 REVERT JUMPDEST POP DIV SWAP1 JUMP JUMPDEST PUSH1 0x0 DUP2 PUSH1 0x0 NOT DIV DUP4 GT DUP3 ISZERO ISZERO AND ISZERO PUSH2 0xE65 JUMPI PUSH2 0xE65 PUSH2 0xE81 JUMP JUMPDEST POP MUL SWAP1 JUMP JUMPDEST PUSH1 0x0 DUP3 DUP3 LT ISZERO PUSH2 0xE7C JUMPI PUSH2 0xE7C PUSH2 0xE81 JUMP JUMPDEST POP SUB SWAP1 JUMP JUMPDEST PUSH4 0x4E487B71 PUSH1 0xE0 SHL PUSH1 0x0 MSTORE PUSH1 0x11 PUSH1 0x4 MSTORE PUSH1 0x24 PUSH1 0x0 REVERT INVALID LOG2 PUSH5 0x6970667358 0x22 SLT KECCAK256 0xCE 0xB3 PUSH6 0xD605278B0043 0xD2 REVERT GASLIMIT BYTE 0xF8 PUSH3 0x2ECB9D 0xB8 EQ CALL OR MUL PUSH8 0x458E52EF6D3D390C PUSH5 0x736F6C6343 STOP ADDMOD DIV STOP CALLER "
        },
        "methodIdentifiers": {
          "balanceReceived()": "52a90c42",
          "blockNumberOfLastKeyPurchase()": "2bd4c3a7",
          "developerOnePercent()": "8b80016b",
          "developerOnePercentAllocation()": "1fd9300d",
          "divPool()": "7c2be5dd",
          "divTracker(address)": "55fcbbff",
          "getTimeLeft()": "c7e284b8",
          "getWinner()": "8e7ea5b2",
          "giveToDeveloper()": "e5618fa9",
          "giveToJackpot()": "82f96499",
          "jackpot()": "6b31ee01",
          "jackpotPayout()": "d20bff02",
          "keyPrice()": "10e56973",
          "keyPriceTracker(uint256)": "32b123f4",
          "keyPurchases()": "92c5c06e",
          "nextKeyPrice()": "7d58e38f",
          "prevKeyPrice()": "5daa424d",
          "purchaseKeys(uint256)": "78c3171f",
          "startTime()": "78e97925",
          "timeLeft()": "1300a6d1",
          "totalKeys()": "488bdabc",
          "totalTime()": "58533e0a",
          "updateDivvies(address)": "acf7084a",
          "voteForOnePercent(bool)": "111d3efb",
          "whoWon(address)": "0d153c92",
          "withdrawDivvies()": "1ebe585d"
        }
      }
    }
  }
}