{
  "_format": "hh-sol-artifact-1",
  "contractName": "FomoOE",
  "sourceName": "contracts/FomoOE.sol",
  "abi": [
    {
      "anonymous": false,
      "inputs": [
        {
          "indexed": false,
          "internalType": "uint256",
          "name": "_balanceReceived",
          "type": "uint256"
        }
      ],
      "name": "contractBalance",
      "type": "event"
    },
    {
      "anonymous": false,
      "inputs": [
        {
          "indexed": false,
          "internalType": "uint256",
          "name": "keyPrice",
          "type": "uint256"
        }
      ],
      "name": "currentKeyPrice",
      "type": "event"
    },
    {
      "anonymous": false,
      "inputs": [
        {
          "indexed": false,
          "internalType": "uint256",
          "name": "_userKeyBalance",
          "type": "uint256"
        },
        {
          "indexed": false,
          "internalType": "uint256",
          "name": "_totalKeys",
          "type": "uint256"
        },
        {
          "indexed": false,
          "internalType": "uint256",
          "name": "_keyPrice",
          "type": "uint256"
        },
        {
          "indexed": false,
          "internalType": "uint256",
          "name": "_divPool",
          "type": "uint256"
        },
        {
          "indexed": false,
          "internalType": "uint256",
          "name": "_jackpot",
          "type": "uint256"
        },
        {
          "indexed": false,
          "internalType": "address",
          "name": "_winning",
          "type": "address"
        }
      ],
      "name": "keysPurchased",
      "type": "event"
    },
    {
      "anonymous": false,
      "inputs": [
        {
          "indexed": false,
          "internalType": "uint256",
          "name": "_userDivvies",
          "type": "uint256"
        }
      ],
      "name": "userDivvies",
      "type": "event"
    },
    {
      "inputs": [],
      "name": "balanceReceived",
      "outputs": [
        {
          "internalType": "uint256",
          "name": "",
          "type": "uint256"
        }
      ],
      "stateMutability": "view",
      "type": "function"
    },
    {
      "inputs": [],
      "name": "divPool",
      "outputs": [
        {
          "internalType": "uint256",
          "name": "",
          "type": "uint256"
        }
      ],
      "stateMutability": "view",
      "type": "function"
    },
    {
      "inputs": [
        {
          "internalType": "address",
          "name": "",
          "type": "address"
        }
      ],
      "name": "divTracker",
      "outputs": [
        {
          "internalType": "uint256",
          "name": "_keyBalance",
          "type": "uint256"
        },
        {
          "internalType": "uint256",
          "name": "_divBalance",
          "type": "uint256"
        },
        {
          "internalType": "uint256",
          "name": "_withdrawnAmount",
          "type": "uint256"
        }
      ],
      "stateMutability": "view",
      "type": "function"
    },
    {
      "inputs": [],
      "name": "getTimeLeft",
      "outputs": [
        {
          "internalType": "uint256",
          "name": "",
          "type": "uint256"
        }
      ],
      "stateMutability": "view",
      "type": "function"
    },
    {
      "inputs": [],
      "name": "getWinner",
      "outputs": [
        {
          "internalType": "address",
          "name": "",
          "type": "address"
        }
      ],
      "stateMutability": "view",
      "type": "function"
    },
    {
      "inputs": [],
      "name": "jackpot",
      "outputs": [
        {
          "internalType": "uint256",
          "name": "",
          "type": "uint256"
        }
      ],
      "stateMutability": "view",
      "type": "function"
    },
    {
      "inputs": [],
      "name": "jackpotPayout",
      "outputs": [],
      "stateMutability": "nonpayable",
      "type": "function"
    },
    {
      "inputs": [],
      "name": "keyPrice",
      "outputs": [
        {
          "internalType": "uint256",
          "name": "",
          "type": "uint256"
        }
      ],
      "stateMutability": "view",
      "type": "function"
    },
    {
      "inputs": [
        {
          "internalType": "uint256",
          "name": "_amount",
          "type": "uint256"
        }
      ],
      "name": "purchaseKeys",
      "outputs": [],
      "stateMutability": "payable",
      "type": "function"
    },
    {
      "inputs": [],
      "name": "startTime",
      "outputs": [
        {
          "internalType": "uint256",
          "name": "",
          "type": "uint256"
        }
      ],
      "stateMutability": "view",
      "type": "function"
    },
    {
      "inputs": [],
      "name": "timeLeft",
      "outputs": [
        {
          "internalType": "uint256",
          "name": "",
          "type": "uint256"
        }
      ],
      "stateMutability": "view",
      "type": "function"
    },
    {
      "inputs": [],
      "name": "totalKeys",
      "outputs": [
        {
          "internalType": "uint256",
          "name": "",
          "type": "uint256"
        }
      ],
      "stateMutability": "view",
      "type": "function"
    },
    {
      "inputs": [],
      "name": "totalTime",
      "outputs": [
        {
          "internalType": "uint256",
          "name": "",
          "type": "uint256"
        }
      ],
      "stateMutability": "view",
      "type": "function"
    },
    {
      "inputs": [
        {
          "internalType": "address",
          "name": "_userAddress",
          "type": "address"
        }
      ],
      "name": "updateDivvies",
      "outputs": [
        {
          "internalType": "uint256",
          "name": "",
          "type": "uint256"
        }
      ],
      "stateMutability": "view",
      "type": "function"
    },
    {
      "inputs": [
        {
          "internalType": "address",
          "name": "_userAddress",
          "type": "address"
        }
      ],
      "name": "whoWon",
      "outputs": [
        {
          "internalType": "address",
          "name": "winner",
          "type": "address"
        }
      ],
      "stateMutability": "view",
      "type": "function"
    },
    {
      "inputs": [],
      "name": "withdrawDivvies",
      "outputs": [],
      "stateMutability": "nonpayable",
      "type": "function"
    }
  ],
  "bytecode": "0x608060405265030fdcf882aa60055534801561001a57600080fd5b5061097d8061002a6000396000f3fe6080604052600436106100f35760003560e01c80636b31ee011161008a5780638e7ea5b2116100595780638e7ea5b214610274578063acf7084a14610292578063c7e284b8146102b2578063d20bff02146102c757600080fd5b80636b31ee011461021f57806378c3171f1461023557806378e97925146102485780637c2be5dd1461025e57600080fd5b8063488bdabc116100c6578063488bdabc1461018657806352a90c421461019c57806355fcbbff146101b257806358533e0a1461020957600080fd5b80630d153c92146100f857806310e56973146101355780631300a6d1146101595780631ebe585d1461016f575b600080fd5b34801561010457600080fd5b5061011861011336600461087d565b6102dc565b6040516001600160a01b0390911681526020015b60405180910390f35b34801561014157600080fd5b5061014b60055481565b60405190815260200161012c565b34801561016557600080fd5b5061014b60025481565b34801561017b57600080fd5b5061018461030e565b005b34801561019257600080fd5b5061014b60065481565b3480156101a857600080fd5b5061014b60045481565b3480156101be57600080fd5b506101ee6101cd36600461087d565b60096020526000908152604090208054600182015460029092015490919083565b6040805193845260208401929092529082015260600161012c565b34801561021557600080fd5b5061014b60015481565b34801561022b57600080fd5b5061014b60085481565b6101846102433660046108ab565b61042e565b34801561025457600080fd5b5061014b60005481565b34801561026a57600080fd5b5061014b60075481565b34801561028057600080fd5b506003546001600160a01b0316610118565b34801561029e57600080fd5b5061014b6102ad36600461087d565b610688565b3480156102be57600080fd5b5061014b610708565b3480156102d357600080fd5b5061018461073f565b60006102e6610708565b15801561030057506003546001600160a01b038381169116145b15610309575090565b919050565b60065433906000908190610325576000915061039d565b6007543360009081526009602052604090205461034291906108fb565b336000908152600960205260409020600201546006549192509061036690836108db565b610370919061091a565b336000908152600960205260408120600201805492945084929091906103979084906108c3565b90915550505b600082116103f25760405162461bcd60e51b815260206004820152601c60248201527f596f752068617665206e6f206469767669657320746f20636c61696d0000000060448201526064015b60405180910390fd5b6040516001600160a01b0384169083156108fc029084906000818181858888f19350505050158015610428573d6000803e3d6000fd5b50505050565b8060055461043c91906108fb565b341461048a5760405162461bcd60e51b815260206004820152601d60248201527f6e6f7420656e6f75676820746f2062757920746865206b65792873292e00000060448201526064016103e9565b6006546104995761049961086d565b60006104a3610708565b116104f05760405162461bcd60e51b815260206004820152601960248201527f746865726520697320616c726561647920612077696e6e65720000000000000060448201526064016103e9565b60006104fd6002346108db565b9050806008600082825461051191906108c3565b909155506105219050813461091a565b6007600082825461053291906108c3565b909155505033600090815260096020526040812080548492906105569084906108c3565b92505081905550816006600082825461056f91906108c3565b909155505060015461058290429061091a565b61058f906201518061091a565b61059a83601e6108fb565b11156105ad576105a861086d565b6105cf565b6105b882601e6108fb565b600160008282546105c991906108c3565b90915550505b600060055460646105e091906108fb565b90506105ee612710826108db565b6005546105fb91906108c3565b6005819055600380546001600160a01b0319163390811790915560008181526009602090815260409182902054600654600754600854855193845293830191909152928101949094526060840191909152608083015260a08201527ff18df1d3dbefaeb22f0e4efe18d279a090ed7b0a9be1c27b33cda2f677ca67d49060c00160405180910390a1505050565b6000806000600654600014156106a15760009150610701565b6007546001600160a01b0385166000908152600960205260409020546106c791906108fb565b6001600160a01b038516600090815260096020526040902060020154600654919250906106f490836108db565b6106fe919061091a565b91505b5092915050565b60006006546000141561071d57506201518090565b42600154106107395742600154610734919061091a565b905090565b50600090565b610747610708565b1561078c5760405162461bcd60e51b815260206004820152601560248201527467616d65206973207374696c6c20696e20706c617960581b60448201526064016103e9565b6000600854116107d45760405162461bcd60e51b8152602060048201526013602482015272139bc81b5bdb995e481a5b881a9858dadc1bdd606a1b60448201526064016103e9565b6003546001600160a01b031633146108275760405162461bcd60e51b81526020600482015260166024820152753cb7ba9030b932903737ba103a3432903bb4b73732b960511b60448201526064016103e9565b6003546008546040516001600160a01b0390921691829180156108fc02916000818181858888f19350505050158015610864573d6000803e3d6000fd5b50506000600855565b61087842603c6108c3565b600155565b60006020828403121561088e578081fd5b81356001600160a01b03811681146108a4578182fd5b9392505050565b6000602082840312156108bc578081fd5b5035919050565b600082198211156108d6576108d6610931565b500190565b6000826108f657634e487b7160e01b81526012600452602481fd5b500490565b600081600019048311821515161561091557610915610931565b500290565b60008282101561092c5761092c610931565b500390565b634e487b7160e01b600052601160045260246000fdfea26469706673582212207957b48d77784e6d369087224050fe6856c00aa9399dd0e641908d3f3e18500f64736f6c63430008040033",
  "linkReferences": {},
  "deployedLinkReferences": {}
}