{
  "_format": "hh-sol-artifact-1",
  "contractName": "FomoOE",
  "sourceName": "contracts/FomoOE.sol",
  "abi": [
    {
      "inputs": [],
      "stateMutability": "nonpayable",
      "type": "constructor"
    },
    {
      "anonymous": false,
      "inputs": [
        {
          "indexed": false,
          "internalType": "uint256",
          "name": "_balanceReceived",
          "type": "uint256"
        }
      ],
      "name": "contractBalance",
      "type": "event"
    },
    {
      "anonymous": false,
      "inputs": [
        {
          "indexed": false,
          "internalType": "uint256",
          "name": "keyPrice",
          "type": "uint256"
        }
      ],
      "name": "currentKeyPrice",
      "type": "event"
    },
    {
      "anonymous": false,
      "inputs": [
        {
          "indexed": false,
          "internalType": "uint256",
          "name": "_userKeyBalance",
          "type": "uint256"
        },
        {
          "indexed": false,
          "internalType": "uint256",
          "name": "_totalKeys",
          "type": "uint256"
        },
        {
          "indexed": false,
          "internalType": "uint256",
          "name": "_keyPrice",
          "type": "uint256"
        },
        {
          "indexed": false,
          "internalType": "uint256",
          "name": "_divPool",
          "type": "uint256"
        },
        {
          "indexed": false,
          "internalType": "uint256",
          "name": "_jackpot",
          "type": "uint256"
        },
        {
          "indexed": false,
          "internalType": "address",
          "name": "_winning",
          "type": "address"
        }
      ],
      "name": "keysPurchased",
      "type": "event"
    },
    {
      "anonymous": false,
      "inputs": [
        {
          "indexed": false,
          "internalType": "uint256",
          "name": "_userDivvies",
          "type": "uint256"
        }
      ],
      "name": "userDivvies",
      "type": "event"
    },
    {
      "inputs": [],
      "name": "balanceReceived",
      "outputs": [
        {
          "internalType": "uint256",
          "name": "",
          "type": "uint256"
        }
      ],
      "stateMutability": "view",
      "type": "function"
    },
    {
      "inputs": [],
      "name": "blockNumberOfLastKeyPurchase",
      "outputs": [
        {
          "internalType": "uint256",
          "name": "",
          "type": "uint256"
        }
      ],
      "stateMutability": "view",
      "type": "function"
    },
    {
      "inputs": [],
      "name": "developerOnePercent",
      "outputs": [
        {
          "internalType": "uint256",
          "name": "",
          "type": "uint256"
        }
      ],
      "stateMutability": "view",
      "type": "function"
    },
    {
      "inputs": [],
      "name": "developerOnePercentAllocation",
      "outputs": [],
      "stateMutability": "nonpayable",
      "type": "function"
    },
    {
      "inputs": [],
      "name": "divPool",
      "outputs": [
        {
          "internalType": "uint256",
          "name": "",
          "type": "uint256"
        }
      ],
      "stateMutability": "view",
      "type": "function"
    },
    {
      "inputs": [
        {
          "internalType": "address",
          "name": "",
          "type": "address"
        }
      ],
      "name": "divTracker",
      "outputs": [
        {
          "internalType": "uint256",
          "name": "_keyBalance",
          "type": "uint256"
        },
        {
          "internalType": "uint256",
          "name": "_divBalance",
          "type": "uint256"
        },
        {
          "internalType": "uint256",
          "name": "_withdrawnAmount",
          "type": "uint256"
        },
        {
          "internalType": "bool",
          "name": "_voted",
          "type": "bool"
        },
        {
          "internalType": "bool",
          "name": "_boughtKeys",
          "type": "bool"
        }
      ],
      "stateMutability": "view",
      "type": "function"
    },
    {
      "inputs": [],
      "name": "getTimeLeft",
      "outputs": [
        {
          "internalType": "uint256",
          "name": "",
          "type": "uint256"
        }
      ],
      "stateMutability": "view",
      "type": "function"
    },
    {
      "inputs": [],
      "name": "getWinner",
      "outputs": [
        {
          "internalType": "address",
          "name": "",
          "type": "address"
        }
      ],
      "stateMutability": "view",
      "type": "function"
    },
    {
      "inputs": [],
      "name": "giveToDeveloper",
      "outputs": [
        {
          "internalType": "uint256",
          "name": "",
          "type": "uint256"
        }
      ],
      "stateMutability": "view",
      "type": "function"
    },
    {
      "inputs": [],
      "name": "giveToJackpot",
      "outputs": [
        {
          "internalType": "uint256",
          "name": "",
          "type": "uint256"
        }
      ],
      "stateMutability": "view",
      "type": "function"
    },
    {
      "inputs": [],
      "name": "jackpot",
      "outputs": [
        {
          "internalType": "uint256",
          "name": "",
          "type": "uint256"
        }
      ],
      "stateMutability": "view",
      "type": "function"
    },
    {
      "inputs": [],
      "name": "jackpotPayout",
      "outputs": [],
      "stateMutability": "nonpayable",
      "type": "function"
    },
    {
      "inputs": [],
      "name": "keyPrice",
      "outputs": [
        {
          "internalType": "uint256",
          "name": "",
          "type": "uint256"
        }
      ],
      "stateMutability": "view",
      "type": "function"
    },
    {
      "inputs": [
        {
          "internalType": "uint256",
          "name": "",
          "type": "uint256"
        }
      ],
      "name": "keyPriceTracker",
      "outputs": [
        {
          "internalType": "uint256",
          "name": "_currentKeyPrice",
          "type": "uint256"
        }
      ],
      "stateMutability": "view",
      "type": "function"
    },
    {
      "inputs": [],
      "name": "keyPurchases",
      "outputs": [
        {
          "internalType": "uint256",
          "name": "",
          "type": "uint256"
        }
      ],
      "stateMutability": "view",
      "type": "function"
    },
    {
      "inputs": [],
      "name": "nextKeyPrice",
      "outputs": [
        {
          "internalType": "uint256",
          "name": "",
          "type": "uint256"
        }
      ],
      "stateMutability": "view",
      "type": "function"
    },
    {
      "inputs": [],
      "name": "prevKeyPrice",
      "outputs": [
        {
          "internalType": "uint256",
          "name": "",
          "type": "uint256"
        }
      ],
      "stateMutability": "view",
      "type": "function"
    },
    {
      "inputs": [
        {
          "internalType": "uint256",
          "name": "_amount",
          "type": "uint256"
        }
      ],
      "name": "purchaseKeys",
      "outputs": [],
      "stateMutability": "payable",
      "type": "function"
    },
    {
      "inputs": [],
      "name": "startTime",
      "outputs": [
        {
          "internalType": "uint256",
          "name": "",
          "type": "uint256"
        }
      ],
      "stateMutability": "view",
      "type": "function"
    },
    {
      "inputs": [],
      "name": "timeLeft",
      "outputs": [
        {
          "internalType": "uint256",
          "name": "",
          "type": "uint256"
        }
      ],
      "stateMutability": "view",
      "type": "function"
    },
    {
      "inputs": [],
      "name": "totalKeys",
      "outputs": [
        {
          "internalType": "uint256",
          "name": "",
          "type": "uint256"
        }
      ],
      "stateMutability": "view",
      "type": "function"
    },
    {
      "inputs": [],
      "name": "totalTime",
      "outputs": [
        {
          "internalType": "uint256",
          "name": "",
          "type": "uint256"
        }
      ],
      "stateMutability": "view",
      "type": "function"
    },
    {
      "inputs": [
        {
          "internalType": "address",
          "name": "_userAddress",
          "type": "address"
        }
      ],
      "name": "updateDivvies",
      "outputs": [
        {
          "internalType": "uint256",
          "name": "",
          "type": "uint256"
        }
      ],
      "stateMutability": "view",
      "type": "function"
    },
    {
      "inputs": [
        {
          "internalType": "bool",
          "name": "_vote",
          "type": "bool"
        }
      ],
      "name": "voteForOnePercent",
      "outputs": [],
      "stateMutability": "nonpayable",
      "type": "function"
    },
    {
      "inputs": [
        {
          "internalType": "address",
          "name": "_userAddress",
          "type": "address"
        }
      ],
      "name": "whoWon",
      "outputs": [
        {
          "internalType": "address",
          "name": "winner",
          "type": "address"
        }
      ],
      "stateMutability": "view",
      "type": "function"
    },
    {
      "inputs": [],
      "name": "withdrawDivvies",
      "outputs": [],
      "stateMutability": "nonpayable",
      "type": "function"
    }
  ],
  "bytecode": "0x608060405243600955660bf5f72abe6810600a55660bf5f72abe6810600b5534801561002a57600080fd5b50600080546001600160a01b03191633179055610ecd8061004c6000396000f3fe6080604052600436106101815760003560e01c80636b31ee01116100d15780638b80016b1161008a578063acf7084a11610064578063acf7084a14610429578063c7e284b814610449578063d20bff021461045e578063e5618fa91461047357600080fd5b80638b80016b146103df5780638e7ea5b2146103f557806392c5c06e1461041357600080fd5b80636b31ee011461035e57806378c3171f1461037457806378e97925146103875780637c2be5dd1461039d5780637d58e38f146103b357806382f96499146103c957600080fd5b80632bd4c3a71161013e57806352a90c421161011857806352a90c42146102a257806355fcbbff146102b857806358533e0a146103325780635daa424d1461034857600080fd5b80632bd4c3a71461024957806332b123f41461025f578063488bdabc1461028c57600080fd5b80630d153c921461018657806310e56973146101c3578063111d3efb146101e75780631300a6d1146102095780631ebe585d1461021f5780631fd9300d14610234575b600080fd5b34801561019257600080fd5b506101a66101a1366004610dad565b610489565b6040516001600160a01b0390911681526020015b60405180910390f35b3480156101cf57600080fd5b506101d9600a5481565b6040519081526020016101ba565b3480156101f357600080fd5b50610207610202366004610ddb565b6104bb565b005b34801561021557600080fd5b506101d960065481565b34801561022b57600080fd5b506102076105fa565b34801561024057600080fd5b50610207610715565b34801561025557600080fd5b506101d960095481565b34801561026b57600080fd5b506101d961027a366004610dfb565b600f6020526000908152604090205481565b34801561029857600080fd5b506101d960105481565b3480156102ae57600080fd5b506101d960085481565b3480156102c457600080fd5b506103066102d3366004610dad565b60146020526000908152604090208054600182015460028301546003909301549192909160ff8082169161010090041685565b60408051958652602086019490945292840191909152151560608301521515608082015260a0016101ba565b34801561033e57600080fd5b506101d960055481565b34801561035457600080fd5b506101d9600b5481565b34801561036a57600080fd5b506101d960135481565b610207610382366004610dfb565b610865565b34801561039357600080fd5b506101d960045481565b3480156103a957600080fd5b506101d960125481565b3480156103bf57600080fd5b506101d9600c5481565b3480156103d557600080fd5b506101d960035481565b3480156103eb57600080fd5b506101d960015481565b34801561040157600080fd5b506007546001600160a01b03166101a6565b34801561041f57600080fd5b506101d960115481565b34801561043557600080fd5b506101d9610444366004610dad565b610bb6565b34801561045557600080fd5b506101d9610c36565b34801561046a57600080fd5b50610207610c6d565b34801561047f57600080fd5b506101d960025481565b6000610493610c36565b1580156104ad57506007546001600160a01b038381169116145b156104b6575090565b919050565b3360009081526014602052604090206003015460ff61010090910416151560011461053f5760405162461bcd60e51b815260206004820152602960248201527f796f75206e65656420746f20627579206174206c65617374206f6e65206b6579604482015268103a37903b37ba329760b91b60648201526084015b60405180910390fd5b3360009081526014602052604090206003015460ff16156105975760405162461bcd60e51b81526020600482015260126024820152713cb7ba9030b63932b0b23c903b37ba32b21760711b6044820152606401610536565b336000908152601460205260409020600301805460ff1916600190811790915581151514156105de576001600260008282546105d39190610e13565b909155506105f79050565b6001600360008282546105f19190610e13565b90915550505b50565b601054339060009081906106115760009150610689565b6012543360009081526014602052604090205461062e9190610e4b565b33600090815260146020526040902060020154601054919250906106529083610e2b565b61065c9190610e6a565b33600090815260146020526040812060020180549294508492909190610683908490610e13565b90915550505b600082116106d95760405162461bcd60e51b815260206004820152601c60248201527f596f752068617665206e6f206469767669657320746f20636c61696d000000006044820152606401610536565b6040516001600160a01b0384169083156108fc029084906000818181858888f1935050505015801561070f573d6000803e3d6000fd5b50505050565b6000546001600160a01b031633146107825760405162461bcd60e51b815260206004820152602a60248201527f796f75206172656e27742074686520646576656c6f706572206f6620746869736044820152691031b7b73a3930b1ba1760b11b6064820152608401610536565b61078a610c36565b156107cf5760405162461bcd60e51b815260206004820152601560248201527467616d65206973207374696c6c20696e20706c617960581b6044820152606401610536565b6003546002541061081e57600080546001546040516001600160a01b0390921692839282156108fc029291818181858888f19350505050158015610817573d6000803e3d6000fd5b505061085e565b6007546001546040516001600160a01b0390921691829180156108fc02916000818181858888f1935050505015801561085b573d6000803e3d6000fd5b50505b6000600155565b60105461087457610874610d9b565b600061087e610c36565b116108cb5760405162461bcd60e51b815260206004820152601960248201527f746865726520697320616c726561647920612077696e6e6572000000000000006044820152606401610536565b80600a546108d99190610e4b565b3410610931576101f46011541015610920576000600a5460646108fc9190610e4b565b905061090a61271082610e2b565b600a546109179190610e13565b600a55506109bd565b6000600a5460326108fc9190610e4b565b6000600a5460646109429190610e4b565b9050600061095261271083610e2b565b600a5461095f9190610e6a565b905061096b8382610e4b565b3410156109ba5760405162461bcd60e51b815260206004820152601d60248201527f4e6f7420656e6f75676820746f2062757920746865206b65792873292e0000006044820152606401610536565b50505b60006109ca346064610e4b565b905060006109da61271083610e2b565b905060006109e88234610e6a565b905060006109f7600283610e2b565b90508260016000828254610a0b9190610e13565b925050819055508060136000828254610a249190610e13565b90915550610a3490508183610e6a565b60126000828254610a459190610e13565b90915550503360009081526014602052604081208054879290610a69908490610e13565b9091555050336000908152601460205260408120600301805461ff00191661010017905560108054879290610a9f908490610e13565b9091555050600554610ab2904290610e6a565b610abf9062015180610e6a565b610aca86601e610e4b565b1115610add57610ad8610d9b565b610aff565b610ae885601e610e4b565b60056000828254610af99190610e13565b90915550505b600160116000828254610b129190610e13565b9091555050600780546001600160a01b031916339081179091556000818152601460205260409081902054601054600a5460125460135494517ff18df1d3dbefaeb22f0e4efe18d279a090ed7b0a9be1c27b33cda2f677ca67d496610ba3969195865260208601949094526040850192909252606084015260808301526001600160a01b031660a082015260c00190565b60405180910390a1505043600955505050565b600080600060105460001415610bcf5760009150610c2f565b6012546001600160a01b038516600090815260146020526040902054610bf59190610e4b565b6001600160a01b03851660009081526014602052604090206002015460105491925090610c229083610e2b565b610c2c9190610e6a565b91505b5092915050565b600060105460001415610c4b57506201518090565b4260055410610c675742600554610c629190610e6a565b905090565b50600090565b610c75610c36565b15610cba5760405162461bcd60e51b815260206004820152601560248201527467616d65206973207374696c6c20696e20706c617960581b6044820152606401610536565b600060135411610d025760405162461bcd60e51b8152602060048201526013602482015272139bc81b5bdb995e481a5b881a9858dadc1bdd606a1b6044820152606401610536565b6007546001600160a01b03163314610d555760405162461bcd60e51b81526020600482015260166024820152753cb7ba9030b932903737ba103a3432903bb4b73732b960511b6044820152606401610536565b6007546013546040516001600160a01b0390921691829180156108fc02916000818181858888f19350505050158015610d92573d6000803e3d6000fd5b50506000601355565b610da84262015180610e13565b600555565b600060208284031215610dbe578081fd5b81356001600160a01b0381168114610dd4578182fd5b9392505050565b600060208284031215610dec578081fd5b81358015158114610dd4578182fd5b600060208284031215610e0c578081fd5b5035919050565b60008219821115610e2657610e26610e81565b500190565b600082610e4657634e487b7160e01b81526012600452602481fd5b500490565b6000816000190483118215151615610e6557610e65610e81565b500290565b600082821015610e7c57610e7c610e81565b500390565b634e487b7160e01b600052601160045260246000fdfea2646970667358221220ceb365d605278b0043d2fd451af8622ecb9db814f1170267458e52ef6d3d390c64736f6c63430008040033",
  "linkReferences": {},
  "deployedLinkReferences": {}
}