{
  "_format": "hh-sol-artifact-1",
  "contractName": "FomoOE",
  "sourceName": "contracts/FomoOE.sol",
  "abi": [
    {
      "inputs": [],
      "stateMutability": "nonpayable",
      "type": "constructor"
    },
    {
      "anonymous": false,
      "inputs": [
        {
          "indexed": false,
          "internalType": "uint256",
          "name": "_amount",
          "type": "uint256"
        },
        {
          "indexed": false,
          "internalType": "address",
          "name": "_winning",
          "type": "address"
        }
      ],
      "name": "keysPurchased",
      "type": "event"
    },
    {
      "inputs": [],
      "name": "balanceReceived",
      "outputs": [
        {
          "internalType": "uint256",
          "name": "",
          "type": "uint256"
        }
      ],
      "stateMutability": "view",
      "type": "function"
    },
    {
      "inputs": [],
      "name": "developerOnePercent",
      "outputs": [
        {
          "internalType": "uint256",
          "name": "",
          "type": "uint256"
        }
      ],
      "stateMutability": "view",
      "type": "function"
    },
    {
      "inputs": [
        {
          "internalType": "address",
          "name": "_developerAddress",
          "type": "address"
        }
      ],
      "name": "developerOnePercentAllocation",
      "outputs": [],
      "stateMutability": "nonpayable",
      "type": "function"
    },
    {
      "inputs": [],
      "name": "divPool",
      "outputs": [
        {
          "internalType": "uint256",
          "name": "",
          "type": "uint256"
        }
      ],
      "stateMutability": "view",
      "type": "function"
    },
    {
      "inputs": [
        {
          "internalType": "address",
          "name": "",
          "type": "address"
        }
      ],
      "name": "divTracker",
      "outputs": [
        {
          "internalType": "uint256",
          "name": "_keyBalance",
          "type": "uint256"
        },
        {
          "internalType": "uint256",
          "name": "_divBalance",
          "type": "uint256"
        },
        {
          "internalType": "uint256",
          "name": "_withdrawnAmount",
          "type": "uint256"
        },
        {
          "internalType": "bool",
          "name": "_voted",
          "type": "bool"
        },
        {
          "internalType": "bool",
          "name": "_boughtKeys",
          "type": "bool"
        }
      ],
      "stateMutability": "view",
      "type": "function"
    },
    {
      "inputs": [],
      "name": "getTimeLeft",
      "outputs": [
        {
          "internalType": "uint256",
          "name": "",
          "type": "uint256"
        }
      ],
      "stateMutability": "view",
      "type": "function"
    },
    {
      "inputs": [],
      "name": "getWinner",
      "outputs": [
        {
          "internalType": "address",
          "name": "",
          "type": "address"
        }
      ],
      "stateMutability": "view",
      "type": "function"
    },
    {
      "inputs": [],
      "name": "giveToDeveloper",
      "outputs": [
        {
          "internalType": "uint256",
          "name": "",
          "type": "uint256"
        }
      ],
      "stateMutability": "view",
      "type": "function"
    },
    {
      "inputs": [],
      "name": "giveToJackpot",
      "outputs": [
        {
          "internalType": "uint256",
          "name": "",
          "type": "uint256"
        }
      ],
      "stateMutability": "view",
      "type": "function"
    },
    {
      "inputs": [],
      "name": "increased_order",
      "outputs": [
        {
          "internalType": "uint256",
          "name": "",
          "type": "uint256"
        }
      ],
      "stateMutability": "view",
      "type": "function"
    },
    {
      "inputs": [],
      "name": "jackpot",
      "outputs": [
        {
          "internalType": "uint256",
          "name": "",
          "type": "uint256"
        }
      ],
      "stateMutability": "view",
      "type": "function"
    },
    {
      "inputs": [],
      "name": "jackpotPayout",
      "outputs": [],
      "stateMutability": "nonpayable",
      "type": "function"
    },
    {
      "inputs": [],
      "name": "keyPrice",
      "outputs": [
        {
          "internalType": "uint256",
          "name": "",
          "type": "uint256"
        }
      ],
      "stateMutability": "view",
      "type": "function"
    },
    {
      "inputs": [],
      "name": "keyPriceIncreaseBlockNumber",
      "outputs": [
        {
          "internalType": "uint256",
          "name": "",
          "type": "uint256"
        }
      ],
      "stateMutability": "view",
      "type": "function"
    },
    {
      "inputs": [],
      "name": "keyPurchases",
      "outputs": [
        {
          "internalType": "uint256",
          "name": "",
          "type": "uint256"
        }
      ],
      "stateMutability": "view",
      "type": "function"
    },
    {
      "inputs": [],
      "name": "multiplier",
      "outputs": [
        {
          "internalType": "uint256",
          "name": "",
          "type": "uint256"
        }
      ],
      "stateMutability": "view",
      "type": "function"
    },
    {
      "inputs": [
        {
          "internalType": "uint256",
          "name": "_amount",
          "type": "uint256"
        }
      ],
      "name": "purchaseKeys",
      "outputs": [],
      "stateMutability": "payable",
      "type": "function"
    },
    {
      "inputs": [],
      "name": "startTime",
      "outputs": [
        {
          "internalType": "uint256",
          "name": "",
          "type": "uint256"
        }
      ],
      "stateMutability": "view",
      "type": "function"
    },
    {
      "inputs": [],
      "name": "timeLeft",
      "outputs": [
        {
          "internalType": "uint256",
          "name": "",
          "type": "uint256"
        }
      ],
      "stateMutability": "view",
      "type": "function"
    },
    {
      "inputs": [],
      "name": "totalKeys",
      "outputs": [
        {
          "internalType": "uint256",
          "name": "",
          "type": "uint256"
        }
      ],
      "stateMutability": "view",
      "type": "function"
    },
    {
      "inputs": [],
      "name": "totalTime",
      "outputs": [
        {
          "internalType": "uint256",
          "name": "",
          "type": "uint256"
        }
      ],
      "stateMutability": "view",
      "type": "function"
    },
    {
      "inputs": [
        {
          "internalType": "address",
          "name": "_userAddress",
          "type": "address"
        }
      ],
      "name": "updateDivvies",
      "outputs": [
        {
          "internalType": "uint256",
          "name": "",
          "type": "uint256"
        }
      ],
      "stateMutability": "view",
      "type": "function"
    },
    {
      "inputs": [
        {
          "internalType": "bool",
          "name": "_vote",
          "type": "bool"
        }
      ],
      "name": "voteForOnePercent",
      "outputs": [],
      "stateMutability": "nonpayable",
      "type": "function"
    },
    {
      "inputs": [
        {
          "internalType": "address",
          "name": "_userAddress",
          "type": "address"
        }
      ],
      "name": "whoWon",
      "outputs": [
        {
          "internalType": "address",
          "name": "winner",
          "type": "address"
        }
      ],
      "stateMutability": "view",
      "type": "function"
    },
    {
      "inputs": [],
      "name": "withdrawDivvies",
      "outputs": [],
      "stateMutability": "nonpayable",
      "type": "function"
    }
  ],
  "bytecode": "0x6080604052660bf5f72abe6810600955660bf5f72abe6810600a556064600c5534801561002b57600080fd5b50600080546001600160a01b031916331790556110308061004d6000396000f3fe6080604052600436106101665760003560e01c80636b31ee01116100d15780638e7ea5b21161008a578063c7e284b811610064578063c7e284b8146103f6578063d20bff021461040b578063e02b44d414610420578063e5618fa91461043657600080fd5b80638e7ea5b2146103a257806392c5c06e146103c0578063acf7084a146103d657600080fd5b80636b31ee011461032157806378c3171f1461033757806378e979251461034a5780637c2be5dd1461036057806382f96499146103765780638b80016b1461038c57600080fd5b80631ebe585d116101235780631ebe585d14610230578063488bdabc1461024557806352a90c421461025b57806355fcbbff1461027157806358533e0a146102eb57806369a5ede31461030157600080fd5b806305b3bd701461016b5780630d153c921461019457806310e56973146101cc578063111d3efb146101e25780631300a6d1146102045780631b3ed7221461021a575b600080fd5b34801561017757600080fd5b50610181600b5481565b6040519081526020015b60405180910390f35b3480156101a057600080fd5b506101b46101af366004610ee5565b61044c565b6040516001600160a01b03909116815260200161018b565b3480156101d857600080fd5b5061018160095481565b3480156101ee57600080fd5b506102026101fd366004610f13565b61047e565b005b34801561021057600080fd5b5061018160065481565b34801561022657600080fd5b50610181600c5481565b34801561023c57600080fd5b50610202610646565b34801561025157600080fd5b50610181600d5481565b34801561026757600080fd5b5061018160085481565b34801561027d57600080fd5b506102bf61028c366004610ee5565b60116020526000908152604090208054600182015460028301546003909301549192909160ff8082169161010090041685565b60408051958652602086019490945292840191909152151560608301521515608082015260a00161018b565b3480156102f757600080fd5b5061018160055481565b34801561030d57600080fd5b5061020261031c366004610ee5565b610784565b34801561032d57600080fd5b5061018160105481565b610202610345366004610f33565b6108d2565b34801561035657600080fd5b5061018160045481565b34801561036c57600080fd5b50610181600f5481565b34801561038257600080fd5b5061018160035481565b34801561039857600080fd5b5061018160015481565b3480156103ae57600080fd5b506007546001600160a01b03166101b4565b3480156103cc57600080fd5b50610181600e5481565b3480156103e257600080fd5b506101816103f1366004610ee5565b610ccb565b34801561040257600080fd5b50610181610d4b565b34801561041757600080fd5b50610202610d82565b34801561042c57600080fd5b50610181600a5481565b34801561044257600080fd5b5061018160025481565b6000610456610d4b565b15801561047057506007546001600160a01b038381169116145b15610479575090565b919050565b33803b80156104a85760405162461bcd60e51b815260040161049f90610f4b565b60405180910390fd5b3360009081526011602052604090206003015460ff6101009091041615156001146105275760405162461bcd60e51b815260206004820152602960248201527f796f75206e65656420746f20627579206174206c65617374206f6e65206b6579604482015268103a37903b37ba329760b91b606482015260840161049f565b6000610531610d4b565b116105895760405162461bcd60e51b815260206004820152602260248201527f47616d65206973206f76657220616e6420706f6c6c73206861766520636c6f73604482015261195960f21b606482015260840161049f565b3360009081526011602052604090206003015460ff16156105e15760405162461bcd60e51b81526020600482015260126024820152713cb7ba9030b63932b0b23c903b37ba32b21760711b604482015260640161049f565b336000908152601160205260409020600301805460ff1916600190811790915583151514156106285760016002600082825461061d9190610f76565b909155506106419050565b60016003600082825461063b9190610f76565b90915550505b505050565b33803b80156106675760405162461bcd60e51b815260040161049f90610f4b565b600d543390600090819061067e57600091506106f6565b600f543360009081526011602052604090205461069b9190610fae565b33600090815260116020526040902060020154600d54919250906106bf9083610f8e565b6106c99190610fcd565b336000908152601160205260408120600201805492945084929091906106f0908490610f76565b90915550505b600082116107465760405162461bcd60e51b815260206004820152601c60248201527f596f752068617665206e6f206469767669657320746f20636c61696d00000000604482015260640161049f565b6040516001600160a01b0384169083156108fc029084906000818181858888f1935050505015801561077c573d6000803e3d6000fd5b505050505050565b6000546001600160a01b031633146107f15760405162461bcd60e51b815260206004820152602a60248201527f796f75206172656e27742074686520646576656c6f706572206f6620746869736044820152691031b7b73a3930b1ba1760b11b606482015260840161049f565b6107f9610d4b565b1561083e5760405162461bcd60e51b815260206004820152601560248201527467616d65206973207374696c6c20696e20706c617960581b604482015260640161049f565b6003546002541061088a5760015460405182916001600160a01b0383169181156108fc0291906000818181858888f19350505050158015610883573d6000803e3d6000fd5b50506108ca565b6007546001546040516001600160a01b0390921691829180156108fc02916000818181858888f193505050501580156108c7573d6000803e3d6000fd5b50505b506000600155565b33803b80156108f35760405162461bcd60e51b815260040161049f90610f4b565b600d54158061090457506005600e54105b1561091157610911610ed3565b600061091b610d4b565b116109685760405162461bcd60e51b815260206004820152601960248201527f746865726520697320616c726561647920612077696e6e657200000000000000604482015260640161049f565b826009546109769190610fae565b34106109f75743600b55600c5460095460009161099291610fae565b90506109a061271082610f8e565b6009546109ad9190610f76565b6009819055600a805490916109c29190610f8e565b101580156109d357506014600c5410155b156109f157600954600a908155600c546109ed9190610fcd565b600c555b50610b19565b6000600c54600954610a099190610fae565b90506000610a1961271083610f8e565b600954610a269190610fcd565b9050610a328582610fae565b3410158015610a4e5750600b54610a4a906002610f76565b4311155b610b165760405162461bcd60e51b815260206004820152608160248201527f4e6f7420656e6f75676820746f2062757920746865206b65792873293a204b6560448201527f7920707269636520697320696e6372656173696e6720717569636b6c792e205460648201527f72792072656672657368696e6720746865207061676520616e6420717569636b60848201527f6c79207375626d697474696e67206b657920707572636861736520616761696e60a4820152601760f91b60c482015260e40161049f565b50505b6000610b26346064610fae565b90506000610b3661271083610f8e565b90506000610b448234610fcd565b90506000610b53600283610f8e565b90508260016000828254610b679190610f76565b925050819055508060106000828254610b809190610f76565b90915550610b9090508183610fcd565b600f6000828254610ba19190610f76565b90915550503360009081526011602052604081208054899290610bc5908490610f76565b9091555050336000908152601160205260408120600301805461ff001916610100179055600d8054899290610bfb908490610f76565b9091555050600554610c0e904290610fcd565b610c1b9062015180610fcd565b610c2688601e610fae565b1115610c3957610c34610ed3565b610c5b565b610c4487601e610fae565b60056000828254610c559190610f76565b90915550505b6001600e6000828254610c6e9190610f76565b9091555050600780546001600160a01b031916339081179091556040805189815260208101929092527fc9cdc97fa2223a1523db8444b75a4978bdc4b7371c256194188681e6a1bcd73b910160405180910390a150505050505050565b6000806000600d5460001415610ce45760009150610d44565b600f546001600160a01b038516600090815260116020526040902054610d0a9190610fae565b6001600160a01b038516600090815260116020526040902060020154600d5491925090610d379083610f8e565b610d419190610fcd565b91505b5092915050565b6000600d5460001415610d6057506201518090565b4260055410610d7c5742600554610d779190610fcd565b905090565b50600090565b33803b8015610da35760405162461bcd60e51b815260040161049f90610f4b565b610dab610d4b565b15610df05760405162461bcd60e51b815260206004820152601560248201527467616d65206973207374696c6c20696e20706c617960581b604482015260640161049f565b600060105411610e385760405162461bcd60e51b8152602060048201526013602482015272139bc81b5bdb995e481a5b881a9858dadc1bdd606a1b604482015260640161049f565b6007546001600160a01b03163314610e8b5760405162461bcd60e51b81526020600482015260166024820152753cb7ba9030b932903737ba103a3432903bb4b73732b960511b604482015260640161049f565b6007546010546040516001600160a01b0390921691829180156108fc02916000818181858888f19350505050158015610ec8573d6000803e3d6000fd5b505060006010555050565b610ee04262015180610f76565b600555565b600060208284031215610ef6578081fd5b81356001600160a01b0381168114610f0c578182fd5b9392505050565b600060208284031215610f24578081fd5b81358015158114610f0c578182fd5b600060208284031215610f44578081fd5b5035919050565b602080825260119082015270736f7272792068756d616e73206f6e6c7960781b604082015260600190565b60008219821115610f8957610f89610fe4565b500190565b600082610fa957634e487b7160e01b81526012600452602481fd5b500490565b6000816000190483118215151615610fc857610fc8610fe4565b500290565b600082821015610fdf57610fdf610fe4565b500390565b634e487b7160e01b600052601160045260246000fdfea2646970667358221220a5dc4d80b32882bbbfec223d22347ea1685e2e6695de256d70f59f45e4f4dfea64736f6c63430008040033",
  "linkReferences": {},
  "deployedLinkReferences": {}
}