{
  "_format": "hh-sol-artifact-1",
  "contractName": "FomoOE",
  "sourceName": "contracts/FomoOE.sol",
  "abi": [
    {
      "inputs": [],
      "stateMutability": "nonpayable",
      "type": "constructor"
    },
    {
      "anonymous": false,
      "inputs": [
        {
          "indexed": false,
          "internalType": "uint256",
          "name": "_balanceReceived",
          "type": "uint256"
        }
      ],
      "name": "contractBalance",
      "type": "event"
    },
    {
      "anonymous": false,
      "inputs": [
        {
          "indexed": false,
          "internalType": "uint256",
          "name": "keyPrice",
          "type": "uint256"
        }
      ],
      "name": "currentKeyPrice",
      "type": "event"
    },
    {
      "anonymous": false,
      "inputs": [
        {
          "indexed": false,
          "internalType": "uint256",
          "name": "_userKeyBalance",
          "type": "uint256"
        },
        {
          "indexed": false,
          "internalType": "uint256",
          "name": "_totalKeys",
          "type": "uint256"
        },
        {
          "indexed": false,
          "internalType": "uint256",
          "name": "_keyPrice",
          "type": "uint256"
        },
        {
          "indexed": false,
          "internalType": "uint256",
          "name": "_divPool",
          "type": "uint256"
        },
        {
          "indexed": false,
          "internalType": "uint256",
          "name": "_jackpot",
          "type": "uint256"
        },
        {
          "indexed": false,
          "internalType": "address",
          "name": "_winning",
          "type": "address"
        }
      ],
      "name": "keysPurchased",
      "type": "event"
    },
    {
      "anonymous": false,
      "inputs": [
        {
          "indexed": false,
          "internalType": "uint256",
          "name": "_userDivvies",
          "type": "uint256"
        }
      ],
      "name": "userDivvies",
      "type": "event"
    },
    {
      "inputs": [],
      "name": "balanceReceived",
      "outputs": [
        {
          "internalType": "uint256",
          "name": "",
          "type": "uint256"
        }
      ],
      "stateMutability": "view",
      "type": "function"
    },
    {
      "inputs": [],
      "name": "developerOnePercent",
      "outputs": [
        {
          "internalType": "uint256",
          "name": "",
          "type": "uint256"
        }
      ],
      "stateMutability": "view",
      "type": "function"
    },
    {
      "inputs": [],
      "name": "developerOnePercentAllocation",
      "outputs": [],
      "stateMutability": "nonpayable",
      "type": "function"
    },
    {
      "inputs": [],
      "name": "divPool",
      "outputs": [
        {
          "internalType": "uint256",
          "name": "",
          "type": "uint256"
        }
      ],
      "stateMutability": "view",
      "type": "function"
    },
    {
      "inputs": [
        {
          "internalType": "address",
          "name": "",
          "type": "address"
        }
      ],
      "name": "divTracker",
      "outputs": [
        {
          "internalType": "uint256",
          "name": "_keyBalance",
          "type": "uint256"
        },
        {
          "internalType": "uint256",
          "name": "_divBalance",
          "type": "uint256"
        },
        {
          "internalType": "uint256",
          "name": "_withdrawnAmount",
          "type": "uint256"
        },
        {
          "internalType": "bool",
          "name": "_voted",
          "type": "bool"
        },
        {
          "internalType": "bool",
          "name": "_boughtKeys",
          "type": "bool"
        }
      ],
      "stateMutability": "view",
      "type": "function"
    },
    {
      "inputs": [],
      "name": "getTimeLeft",
      "outputs": [
        {
          "internalType": "uint256",
          "name": "",
          "type": "uint256"
        }
      ],
      "stateMutability": "view",
      "type": "function"
    },
    {
      "inputs": [],
      "name": "getWinner",
      "outputs": [
        {
          "internalType": "address",
          "name": "",
          "type": "address"
        }
      ],
      "stateMutability": "view",
      "type": "function"
    },
    {
      "inputs": [],
      "name": "giveToDeveloper",
      "outputs": [
        {
          "internalType": "uint256",
          "name": "",
          "type": "uint256"
        }
      ],
      "stateMutability": "view",
      "type": "function"
    },
    {
      "inputs": [],
      "name": "giveToJackpot",
      "outputs": [
        {
          "internalType": "uint256",
          "name": "",
          "type": "uint256"
        }
      ],
      "stateMutability": "view",
      "type": "function"
    },
    {
      "inputs": [],
      "name": "jackpot",
      "outputs": [
        {
          "internalType": "uint256",
          "name": "",
          "type": "uint256"
        }
      ],
      "stateMutability": "view",
      "type": "function"
    },
    {
      "inputs": [],
      "name": "jackpotPayout",
      "outputs": [],
      "stateMutability": "nonpayable",
      "type": "function"
    },
    {
      "inputs": [],
      "name": "keyPrice",
      "outputs": [
        {
          "internalType": "uint256",
          "name": "",
          "type": "uint256"
        }
      ],
      "stateMutability": "view",
      "type": "function"
    },
    {
      "inputs": [],
      "name": "keyPurchases",
      "outputs": [
        {
          "internalType": "uint256",
          "name": "",
          "type": "uint256"
        }
      ],
      "stateMutability": "view",
      "type": "function"
    },
    {
      "inputs": [
        {
          "internalType": "uint256",
          "name": "_amount",
          "type": "uint256"
        }
      ],
      "name": "purchaseKeys",
      "outputs": [],
      "stateMutability": "payable",
      "type": "function"
    },
    {
      "inputs": [],
      "name": "startTime",
      "outputs": [
        {
          "internalType": "uint256",
          "name": "",
          "type": "uint256"
        }
      ],
      "stateMutability": "view",
      "type": "function"
    },
    {
      "inputs": [],
      "name": "timeLeft",
      "outputs": [
        {
          "internalType": "uint256",
          "name": "",
          "type": "uint256"
        }
      ],
      "stateMutability": "view",
      "type": "function"
    },
    {
      "inputs": [],
      "name": "totalKeys",
      "outputs": [
        {
          "internalType": "uint256",
          "name": "",
          "type": "uint256"
        }
      ],
      "stateMutability": "view",
      "type": "function"
    },
    {
      "inputs": [],
      "name": "totalTime",
      "outputs": [
        {
          "internalType": "uint256",
          "name": "",
          "type": "uint256"
        }
      ],
      "stateMutability": "view",
      "type": "function"
    },
    {
      "inputs": [
        {
          "internalType": "address",
          "name": "_userAddress",
          "type": "address"
        }
      ],
      "name": "updateDivvies",
      "outputs": [
        {
          "internalType": "uint256",
          "name": "",
          "type": "uint256"
        }
      ],
      "stateMutability": "view",
      "type": "function"
    },
    {
      "inputs": [
        {
          "internalType": "bool",
          "name": "_vote",
          "type": "bool"
        }
      ],
      "name": "voteForOnePercent",
      "outputs": [],
      "stateMutability": "nonpayable",
      "type": "function"
    },
    {
      "inputs": [
        {
          "internalType": "address",
          "name": "_userAddress",
          "type": "address"
        }
      ],
      "name": "whoWon",
      "outputs": [
        {
          "internalType": "address",
          "name": "winner",
          "type": "address"
        }
      ],
      "stateMutability": "view",
      "type": "function"
    },
    {
      "inputs": [],
      "name": "withdrawDivvies",
      "outputs": [],
      "stateMutability": "nonpayable",
      "type": "function"
    }
  ],
  "bytecode": "0x6080604052660bf5f72abe681060095534801561001b57600080fd5b50600080546001600160a01b03191633179055610deb8061003d6000396000f3fe6080604052600436106101355760003560e01c806378c3171f116100ab5780638e7ea5b21161006f5780638e7ea5b21461033a57806392c5c06e14610358578063acf7084a1461036e578063c7e284b81461038e578063d20bff02146103a3578063e5618fa9146103b857600080fd5b806378c3171f146102cf57806378e97925146102e25780637c2be5dd146102f857806382f964991461030e5780638b80016b1461032457600080fd5b80631fd9300d116100fd5780631fd9300d146101e8578063488bdabc146101fd57806352a90c421461021357806355fcbbff1461022957806358533e0a146102a35780636b31ee01146102b957600080fd5b80630d153c921461013a57806310e5697314610177578063111d3efb1461019b5780631300a6d1146101bd5780631ebe585d146101d3575b600080fd5b34801561014657600080fd5b5061015a610155366004610ccb565b6103ce565b6040516001600160a01b0390911681526020015b60405180910390f35b34801561018357600080fd5b5061018d60095481565b60405190815260200161016e565b3480156101a757600080fd5b506101bb6101b6366004610cf9565b610400565b005b3480156101c957600080fd5b5061018d60065481565b3480156101df57600080fd5b506101bb61053f565b3480156101f457600080fd5b506101bb61065a565b34801561020957600080fd5b5061018d600a5481565b34801561021f57600080fd5b5061018d60085481565b34801561023557600080fd5b50610277610244366004610ccb565b600e6020526000908152604090208054600182015460028301546003909301549192909160ff8082169161010090041685565b60408051958652602086019490945292840191909152151560608301521515608082015260a00161016e565b3480156102af57600080fd5b5061018d60055481565b3480156102c557600080fd5b5061018d600d5481565b6101bb6102dd366004610d19565b6107aa565b3480156102ee57600080fd5b5061018d60045481565b34801561030457600080fd5b5061018d600c5481565b34801561031a57600080fd5b5061018d60035481565b34801561033057600080fd5b5061018d60015481565b34801561034657600080fd5b506007546001600160a01b031661015a565b34801561036457600080fd5b5061018d600b5481565b34801561037a57600080fd5b5061018d610389366004610ccb565b610ad4565b34801561039a57600080fd5b5061018d610b54565b3480156103af57600080fd5b506101bb610b8b565b3480156103c457600080fd5b5061018d60025481565b60006103d8610b54565b1580156103f257506007546001600160a01b038381169116145b156103fb575090565b919050565b336000908152600e602052604090206003015460ff6101009091041615156001146104845760405162461bcd60e51b815260206004820152602960248201527f796f75206e65656420746f20627579206174206c65617374206f6e65206b6579604482015268103a37903b37ba329760b91b60648201526084015b60405180910390fd5b336000908152600e602052604090206003015460ff16156104dc5760405162461bcd60e51b81526020600482015260126024820152713cb7ba9030b63932b0b23c903b37ba32b21760711b604482015260640161047b565b336000908152600e60205260409020600301805460ff191660019081179091558115151415610523576001600260008282546105189190610d31565b9091555061053c9050565b6001600360008282546105369190610d31565b90915550505b50565b600a543390600090819061055657600091506105ce565b600c54336000908152600e60205260409020546105739190610d69565b336000908152600e6020526040902060020154600a54919250906105979083610d49565b6105a19190610d88565b336000908152600e60205260408120600201805492945084929091906105c8908490610d31565b90915550505b6000821161061e5760405162461bcd60e51b815260206004820152601c60248201527f596f752068617665206e6f206469767669657320746f20636c61696d00000000604482015260640161047b565b6040516001600160a01b0384169083156108fc029084906000818181858888f19350505050158015610654573d6000803e3d6000fd5b50505050565b6000546001600160a01b031633146106c75760405162461bcd60e51b815260206004820152602a60248201527f796f75206172656e27742074686520646576656c6f706572206f6620746869736044820152691031b7b73a3930b1ba1760b11b606482015260840161047b565b6106cf610b54565b156107145760405162461bcd60e51b815260206004820152601560248201527467616d65206973207374696c6c20696e20706c617960581b604482015260640161047b565b6003546002541061076357600080546001546040516001600160a01b0390921692839282156108fc029291818181858888f1935050505015801561075c573d6000803e3d6000fd5b50506107a3565b6007546001546040516001600160a01b0390921691829180156108fc02916000818181858888f193505050501580156107a0573d6000803e3d6000fd5b50505b6000600155565b806009546107b89190610d69565b3410156108075760405162461bcd60e51b815260206004820152601d60248201527f6e6f7420656e6f75676820746f2062757920746865206b65792873292e000000604482015260640161047b565b600a5461081657610816610cb9565b6000610820610b54565b1161086d5760405162461bcd60e51b815260206004820152601960248201527f746865726520697320616c726561647920612077696e6e657200000000000000604482015260640161047b565b600061087a346064610d69565b9050600061088a61271083610d49565b905060006108988234610d88565b905060006108a7600283610d49565b905082600160008282546108bb9190610d31565b9250508190555080600d60008282546108d49190610d31565b909155506108e490508183610d88565b600c60008282546108f59190610d31565b9091555050336000908152600e602052604081208054879290610919908490610d31565b9091555050336000908152600e60205260408120600301805461ff001916610100179055600a805487929061094f908490610d31565b9091555050600554610962904290610d88565b61096f9062015180610d88565b61097a86601e610d69565b111561098d57610988610cb9565b6109af565b61099885601e610d69565b600560008282546109a99190610d31565b90915550505b6101f4600b5411156109f057600060095460646109cc9190610d69565b90506109da61271082610d49565b6009546109e79190610d31565b60095550610a21565b60006009546032610a019190610d69565b9050610a0f61271082610d49565b600954610a1c9190610d31565b600955505b6001600b6000828254610a349190610d31565b9091555050600780546001600160a01b031916339081179091556000818152600e60205260409081902054600a54600954600c54600d5494517ff18df1d3dbefaeb22f0e4efe18d279a090ed7b0a9be1c27b33cda2f677ca67d496610ac5969195865260208601949094526040850192909252606084015260808301526001600160a01b031660a082015260c00190565b60405180910390a15050505050565b6000806000600a5460001415610aed5760009150610b4d565b600c546001600160a01b0385166000908152600e6020526040902054610b139190610d69565b6001600160a01b0385166000908152600e6020526040902060020154600a5491925090610b409083610d49565b610b4a9190610d88565b91505b5092915050565b6000600a5460001415610b6957506201518090565b4260055410610b855742600554610b809190610d88565b905090565b50600090565b610b93610b54565b15610bd85760405162461bcd60e51b815260206004820152601560248201527467616d65206973207374696c6c20696e20706c617960581b604482015260640161047b565b6000600d5411610c205760405162461bcd60e51b8152602060048201526013602482015272139bc81b5bdb995e481a5b881a9858dadc1bdd606a1b604482015260640161047b565b6007546001600160a01b03163314610c735760405162461bcd60e51b81526020600482015260166024820152753cb7ba9030b932903737ba103a3432903bb4b73732b960511b604482015260640161047b565b600754600d546040516001600160a01b0390921691829180156108fc02916000818181858888f19350505050158015610cb0573d6000803e3d6000fd5b50506000600d55565b610cc64262015180610d31565b600555565b600060208284031215610cdc578081fd5b81356001600160a01b0381168114610cf2578182fd5b9392505050565b600060208284031215610d0a578081fd5b81358015158114610cf2578182fd5b600060208284031215610d2a578081fd5b5035919050565b60008219821115610d4457610d44610d9f565b500190565b600082610d6457634e487b7160e01b81526012600452602481fd5b500490565b6000816000190483118215151615610d8357610d83610d9f565b500290565b600082821015610d9a57610d9a610d9f565b500390565b634e487b7160e01b600052601160045260246000fdfea26469706673582212201c48b414d7156ed5ebad5532f1442a39f17a3efaf7743c26dd860c36089e23bc64736f6c63430008040033",
  "linkReferences": {},
  "deployedLinkReferences": {}
}