{
  "_format": "hh-sol-artifact-1",
  "contractName": "FomoOE",
  "sourceName": "contracts/FomoOE.sol",
  "abi": [
    {
      "inputs": [],
      "stateMutability": "nonpayable",
      "type": "constructor"
    },
    {
      "anonymous": false,
      "inputs": [
        {
          "indexed": false,
          "internalType": "uint256",
          "name": "_balanceReceived",
          "type": "uint256"
        }
      ],
      "name": "contractBalance",
      "type": "event"
    },
    {
      "anonymous": false,
      "inputs": [
        {
          "indexed": false,
          "internalType": "uint256",
          "name": "keyPrice",
          "type": "uint256"
        }
      ],
      "name": "currentKeyPrice",
      "type": "event"
    },
    {
      "anonymous": false,
      "inputs": [
        {
          "indexed": false,
          "internalType": "uint256",
          "name": "_userKeyBalance",
          "type": "uint256"
        },
        {
          "indexed": false,
          "internalType": "uint256",
          "name": "_totalKeys",
          "type": "uint256"
        },
        {
          "indexed": false,
          "internalType": "uint256",
          "name": "_keyPrice",
          "type": "uint256"
        },
        {
          "indexed": false,
          "internalType": "uint256",
          "name": "_divPool",
          "type": "uint256"
        },
        {
          "indexed": false,
          "internalType": "uint256",
          "name": "_jackpot",
          "type": "uint256"
        },
        {
          "indexed": false,
          "internalType": "address",
          "name": "_winning",
          "type": "address"
        }
      ],
      "name": "keysPurchased",
      "type": "event"
    },
    {
      "anonymous": false,
      "inputs": [
        {
          "indexed": false,
          "internalType": "uint256",
          "name": "_userDivvies",
          "type": "uint256"
        }
      ],
      "name": "userDivvies",
      "type": "event"
    },
    {
      "inputs": [],
      "name": "balanceReceived",
      "outputs": [
        {
          "internalType": "uint256",
          "name": "",
          "type": "uint256"
        }
      ],
      "stateMutability": "view",
      "type": "function"
    },
    {
      "inputs": [],
      "name": "developerOnePercent",
      "outputs": [
        {
          "internalType": "uint256",
          "name": "",
          "type": "uint256"
        }
      ],
      "stateMutability": "view",
      "type": "function"
    },
    {
      "inputs": [],
      "name": "developerOnePercentAllocation",
      "outputs": [],
      "stateMutability": "nonpayable",
      "type": "function"
    },
    {
      "inputs": [],
      "name": "divPool",
      "outputs": [
        {
          "internalType": "uint256",
          "name": "",
          "type": "uint256"
        }
      ],
      "stateMutability": "view",
      "type": "function"
    },
    {
      "inputs": [
        {
          "internalType": "address",
          "name": "",
          "type": "address"
        }
      ],
      "name": "divTracker",
      "outputs": [
        {
          "internalType": "uint256",
          "name": "_keyBalance",
          "type": "uint256"
        },
        {
          "internalType": "uint256",
          "name": "_divBalance",
          "type": "uint256"
        },
        {
          "internalType": "uint256",
          "name": "_withdrawnAmount",
          "type": "uint256"
        },
        {
          "internalType": "bool",
          "name": "_voted",
          "type": "bool"
        },
        {
          "internalType": "bool",
          "name": "_boughtKeys",
          "type": "bool"
        }
      ],
      "stateMutability": "view",
      "type": "function"
    },
    {
      "inputs": [],
      "name": "getTimeLeft",
      "outputs": [
        {
          "internalType": "uint256",
          "name": "",
          "type": "uint256"
        }
      ],
      "stateMutability": "view",
      "type": "function"
    },
    {
      "inputs": [],
      "name": "getWinner",
      "outputs": [
        {
          "internalType": "address",
          "name": "",
          "type": "address"
        }
      ],
      "stateMutability": "view",
      "type": "function"
    },
    {
      "inputs": [],
      "name": "giveToDeveloper",
      "outputs": [
        {
          "internalType": "uint256",
          "name": "",
          "type": "uint256"
        }
      ],
      "stateMutability": "view",
      "type": "function"
    },
    {
      "inputs": [],
      "name": "giveToJackpot",
      "outputs": [
        {
          "internalType": "uint256",
          "name": "",
          "type": "uint256"
        }
      ],
      "stateMutability": "view",
      "type": "function"
    },
    {
      "inputs": [],
      "name": "jackpot",
      "outputs": [
        {
          "internalType": "uint256",
          "name": "",
          "type": "uint256"
        }
      ],
      "stateMutability": "view",
      "type": "function"
    },
    {
      "inputs": [],
      "name": "jackpotPayout",
      "outputs": [],
      "stateMutability": "nonpayable",
      "type": "function"
    },
    {
      "inputs": [],
      "name": "keyPrice",
      "outputs": [
        {
          "internalType": "uint256",
          "name": "",
          "type": "uint256"
        }
      ],
      "stateMutability": "view",
      "type": "function"
    },
    {
      "inputs": [
        {
          "internalType": "uint256",
          "name": "",
          "type": "uint256"
        }
      ],
      "name": "keyPriceTracker",
      "outputs": [
        {
          "internalType": "uint256",
          "name": "_currentKeyPrice",
          "type": "uint256"
        }
      ],
      "stateMutability": "view",
      "type": "function"
    },
    {
      "inputs": [],
      "name": "keyPurchases",
      "outputs": [
        {
          "internalType": "uint256",
          "name": "",
          "type": "uint256"
        }
      ],
      "stateMutability": "view",
      "type": "function"
    },
    {
      "inputs": [],
      "name": "prevKeyPrice",
      "outputs": [
        {
          "internalType": "uint256",
          "name": "",
          "type": "uint256"
        }
      ],
      "stateMutability": "view",
      "type": "function"
    },
    {
      "inputs": [
        {
          "internalType": "uint256",
          "name": "_amount",
          "type": "uint256"
        }
      ],
      "name": "purchaseKeys",
      "outputs": [],
      "stateMutability": "payable",
      "type": "function"
    },
    {
      "inputs": [],
      "name": "startTime",
      "outputs": [
        {
          "internalType": "uint256",
          "name": "",
          "type": "uint256"
        }
      ],
      "stateMutability": "view",
      "type": "function"
    },
    {
      "inputs": [],
      "name": "timeLeft",
      "outputs": [
        {
          "internalType": "uint256",
          "name": "",
          "type": "uint256"
        }
      ],
      "stateMutability": "view",
      "type": "function"
    },
    {
      "inputs": [],
      "name": "totalKeys",
      "outputs": [
        {
          "internalType": "uint256",
          "name": "",
          "type": "uint256"
        }
      ],
      "stateMutability": "view",
      "type": "function"
    },
    {
      "inputs": [],
      "name": "totalTime",
      "outputs": [
        {
          "internalType": "uint256",
          "name": "",
          "type": "uint256"
        }
      ],
      "stateMutability": "view",
      "type": "function"
    },
    {
      "inputs": [
        {
          "internalType": "address",
          "name": "_userAddress",
          "type": "address"
        }
      ],
      "name": "updateDivvies",
      "outputs": [
        {
          "internalType": "uint256",
          "name": "",
          "type": "uint256"
        }
      ],
      "stateMutability": "view",
      "type": "function"
    },
    {
      "inputs": [
        {
          "internalType": "bool",
          "name": "_vote",
          "type": "bool"
        }
      ],
      "name": "voteForOnePercent",
      "outputs": [],
      "stateMutability": "nonpayable",
      "type": "function"
    },
    {
      "inputs": [
        {
          "internalType": "address",
          "name": "_userAddress",
          "type": "address"
        }
      ],
      "name": "whoWon",
      "outputs": [
        {
          "internalType": "address",
          "name": "winner",
          "type": "address"
        }
      ],
      "stateMutability": "view",
      "type": "function"
    },
    {
      "inputs": [],
      "name": "withdrawDivvies",
      "outputs": [],
      "stateMutability": "nonpayable",
      "type": "function"
    }
  ],
  "bytecode": "0x6080604052660bf5f72abe6810600a5534801561001b57600080fd5b50600180546001600160a01b03191633179055610e008061003d6000396000f3fe60806040526004361061014b5760003560e01c80636b31ee01116100b65780638e7ea5b21161006f5780638e7ea5b21461039357806392c5c06e146103b1578063acf7084a146103c7578063c7e284b8146103e7578063d20bff02146103fc578063e5618fa91461041157600080fd5b80636b31ee011461031257806378c3171f1461032857806378e979251461033b5780637c2be5dd1461035157806382f96499146103675780638b80016b1461037d57600080fd5b806332b123f41161010857806332b123f414610213578063488bdabc1461024057806352a90c421461025657806355fcbbff1461026c57806358533e0a146102e65780635daa424d146102fc57600080fd5b80630d153c921461015057806310e569731461018d578063111d3efb146101b15780631300a6d1146101d35780631ebe585d146101e95780631fd9300d146101fe575b600080fd5b34801561015c57600080fd5b5061017061016b366004610ce0565b610427565b6040516001600160a01b0390911681526020015b60405180910390f35b34801561019957600080fd5b506101a3600a5481565b604051908152602001610184565b3480156101bd57600080fd5b506101d16101cc366004610d0e565b610459565b005b3480156101df57600080fd5b506101a360075481565b3480156101f557600080fd5b506101d1610598565b34801561020a57600080fd5b506101d16106b3565b34801561021f57600080fd5b506101a361022e366004610d2e565b600b6020526000908152604090205481565b34801561024c57600080fd5b506101a3600c5481565b34801561026257600080fd5b506101a360095481565b34801561027857600080fd5b506102ba610287366004610ce0565b60106020526000908152604090208054600182015460028301546003909301549192909160ff8082169161010090041685565b60408051958652602086019490945292840191909152151560608301521515608082015260a001610184565b3480156102f257600080fd5b506101a360065481565b34801561030857600080fd5b506101a360005481565b34801561031e57600080fd5b506101a3600f5481565b6101d1610336366004610d2e565b610803565b34801561034757600080fd5b506101a360055481565b34801561035d57600080fd5b506101a3600e5481565b34801561037357600080fd5b506101a360045481565b34801561038957600080fd5b506101a360025481565b34801561039f57600080fd5b506008546001600160a01b0316610170565b3480156103bd57600080fd5b506101a3600d5481565b3480156103d357600080fd5b506101a36103e2366004610ce0565b610ad0565b3480156103f357600080fd5b506101a3610b50565b34801561040857600080fd5b506101d1610b87565b34801561041d57600080fd5b506101a360035481565b6000610431610b50565b15801561044b57506008546001600160a01b038381169116145b15610454575090565b919050565b3360009081526010602052604090206003015460ff6101009091041615156001146104dd5760405162461bcd60e51b815260206004820152602960248201527f796f75206e65656420746f20627579206174206c65617374206f6e65206b6579604482015268103a37903b37ba329760b91b60648201526084015b60405180910390fd5b3360009081526010602052604090206003015460ff16156105355760405162461bcd60e51b81526020600482015260126024820152713cb7ba9030b63932b0b23c903b37ba32b21760711b60448201526064016104d4565b336000908152601060205260409020600301805460ff19166001908117909155811515141561057c576001600360008282546105719190610d46565b909155506105959050565b60016004600082825461058f9190610d46565b90915550505b50565b600c54339060009081906105af5760009150610627565b600e54336000908152601060205260409020546105cc9190610d7e565b33600090815260106020526040902060020154600c54919250906105f09083610d5e565b6105fa9190610d9d565b33600090815260106020526040812060020180549294508492909190610621908490610d46565b90915550505b600082116106775760405162461bcd60e51b815260206004820152601c60248201527f596f752068617665206e6f206469767669657320746f20636c61696d0000000060448201526064016104d4565b6040516001600160a01b0384169083156108fc029084906000818181858888f193505050501580156106ad573d6000803e3d6000fd5b50505050565b6001546001600160a01b031633146107205760405162461bcd60e51b815260206004820152602a60248201527f796f75206172656e27742074686520646576656c6f706572206f6620746869736044820152691031b7b73a3930b1ba1760b11b60648201526084016104d4565b610728610b50565b1561076d5760405162461bcd60e51b815260206004820152601560248201527467616d65206973207374696c6c20696e20706c617960581b60448201526064016104d4565b600454600354106107bc576001546002546040516001600160a01b0390921691829180156108fc02916000818181858888f193505050501580156107b5573d6000803e3d6000fd5b50506107fc565b6008546002546040516001600160a01b0390921691829180156108fc02916000818181858888f193505050501580156107f9573d6000803e3d6000fd5b50505b6000600255565b600c5461081257610812610cb5565b600061081c610b50565b116108695760405162461bcd60e51b815260206004820152601960248201527f746865726520697320616c726561647920612077696e6e65720000000000000060448201526064016104d4565b6000610876346064610d7e565b9050600061088661271083610d5e565b905060006108948234610d9d565b905060006108a3600283610d5e565b905082600260008282546108b79190610d46565b9250508190555080600f60008282546108d09190610d46565b909155506108e090508183610d9d565b600e60008282546108f19190610d46565b90915550503360009081526010602052604081208054879290610915908490610d46565b9091555050336000908152601060205260408120600301805461ff001916610100179055600c805487929061094b908490610d46565b909155505060065461095e904290610d9d565b61096b9062015180610d9d565b61097686601e610d7e565b111561098957610984610cb5565b6109ab565b61099485601e610d7e565b600660008282546109a59190610d46565b90915550505b6101f4600d5411156109ec576000600a5460646109c89190610d7e565b90506109d661271082610d5e565b600a546109e39190610d46565b600a5550610a1d565b6000600a5460326109fd9190610d7e565b9050610a0b61271082610d5e565b600a54610a189190610d46565b600a55505b6001600d6000828254610a309190610d46565b9091555050600880546001600160a01b031916339081179091556000818152601060205260409081902054600c54600a54600e54600f5494517ff18df1d3dbefaeb22f0e4efe18d279a090ed7b0a9be1c27b33cda2f677ca67d496610ac1969195865260208601949094526040850192909252606084015260808301526001600160a01b031660a082015260c00190565b60405180910390a15050505050565b6000806000600c5460001415610ae95760009150610b49565b600e546001600160a01b038516600090815260106020526040902054610b0f9190610d7e565b6001600160a01b038516600090815260106020526040902060020154600c5491925090610b3c9083610d5e565b610b469190610d9d565b91505b5092915050565b6000600c5460001415610b6557506201518090565b4260065410610b815742600654610b7c9190610d9d565b905090565b50600090565b610b8f610b50565b15610bd45760405162461bcd60e51b815260206004820152601560248201527467616d65206973207374696c6c20696e20706c617960581b60448201526064016104d4565b6000600f5411610c1c5760405162461bcd60e51b8152602060048201526013602482015272139bc81b5bdb995e481a5b881a9858dadc1bdd606a1b60448201526064016104d4565b6008546001600160a01b03163314610c6f5760405162461bcd60e51b81526020600482015260166024820152753cb7ba9030b932903737ba103a3432903bb4b73732b960511b60448201526064016104d4565b600854600f546040516001600160a01b0390921691829180156108fc02916000818181858888f19350505050158015610cac573d6000803e3d6000fd5b50506000600f55565b436000908152600b60205260409020660bf5f72abe68109055610cdb4262015180610d46565b600655565b600060208284031215610cf1578081fd5b81356001600160a01b0381168114610d07578182fd5b9392505050565b600060208284031215610d1f578081fd5b81358015158114610d07578182fd5b600060208284031215610d3f578081fd5b5035919050565b60008219821115610d5957610d59610db4565b500190565b600082610d7957634e487b7160e01b81526012600452602481fd5b500490565b6000816000190483118215151615610d9857610d98610db4565b500290565b600082821015610daf57610daf610db4565b500390565b634e487b7160e01b600052601160045260246000fdfea264697066735822122071b5386209e11b0d413dc24f69f8dcf24923f345ebefb7399f37f24e0b8cdf6464736f6c63430008040033",
  "linkReferences": {},
  "deployedLinkReferences": {}
}