{
  "contractName": "FomoOE",
  "abi": [
    {
      "inputs": [],
      "stateMutability": "nonpayable",
      "type": "constructor"
    },
    {
      "anonymous": false,
      "inputs": [
        {
          "indexed": false,
          "internalType": "uint256",
          "name": "_balanceReceived",
          "type": "uint256"
        }
      ],
      "name": "contractBalance",
      "type": "event"
    },
    {
      "anonymous": false,
      "inputs": [
        {
          "indexed": false,
          "internalType": "uint256",
          "name": "keyPrice",
          "type": "uint256"
        }
      ],
      "name": "currentKeyPrice",
      "type": "event"
    },
    {
      "anonymous": false,
      "inputs": [
        {
          "indexed": false,
          "internalType": "uint256",
          "name": "_userKeyBalance",
          "type": "uint256"
        },
        {
          "indexed": false,
          "internalType": "uint256",
          "name": "_totalKeys",
          "type": "uint256"
        },
        {
          "indexed": false,
          "internalType": "uint256",
          "name": "_keyPrice",
          "type": "uint256"
        },
        {
          "indexed": false,
          "internalType": "uint256",
          "name": "_divPool",
          "type": "uint256"
        },
        {
          "indexed": false,
          "internalType": "uint256",
          "name": "_jackpot",
          "type": "uint256"
        }
      ],
      "name": "keysPurchased",
      "type": "event"
    },
    {
      "anonymous": false,
      "inputs": [
        {
          "indexed": false,
          "internalType": "uint256",
          "name": "_userDivvies",
          "type": "uint256"
        }
      ],
      "name": "userDivvies",
      "type": "event"
    },
    {
      "inputs": [],
      "name": "balanceReceived",
      "outputs": [
        {
          "internalType": "uint256",
          "name": "",
          "type": "uint256"
        }
      ],
      "stateMutability": "view",
      "type": "function",
      "constant": true
    },
    {
      "inputs": [],
      "name": "bar",
      "outputs": [
        {
          "internalType": "uint256",
          "name": "",
          "type": "uint256"
        }
      ],
      "stateMutability": "view",
      "type": "function",
      "constant": true
    },
    {
      "inputs": [],
      "name": "divPool",
      "outputs": [
        {
          "internalType": "uint256",
          "name": "",
          "type": "uint256"
        }
      ],
      "stateMutability": "view",
      "type": "function",
      "constant": true
    },
    {
      "inputs": [
        {
          "internalType": "address",
          "name": "",
          "type": "address"
        }
      ],
      "name": "divTracker",
      "outputs": [
        {
          "internalType": "uint256",
          "name": "_keyBalance",
          "type": "uint256"
        },
        {
          "internalType": "uint256",
          "name": "_totalDivPoolAtWithdraw",
          "type": "uint256"
        },
        {
          "internalType": "uint256",
          "name": "_divBalance",
          "type": "uint256"
        }
      ],
      "stateMutability": "view",
      "type": "function",
      "constant": true
    },
    {
      "inputs": [],
      "name": "foo",
      "outputs": [
        {
          "internalType": "uint256",
          "name": "",
          "type": "uint256"
        }
      ],
      "stateMutability": "view",
      "type": "function",
      "constant": true
    },
    {
      "inputs": [],
      "name": "jackpot",
      "outputs": [
        {
          "internalType": "uint256",
          "name": "",
          "type": "uint256"
        }
      ],
      "stateMutability": "view",
      "type": "function",
      "constant": true
    },
    {
      "inputs": [],
      "name": "keyPrice",
      "outputs": [
        {
          "internalType": "uint256",
          "name": "",
          "type": "uint256"
        }
      ],
      "stateMutability": "view",
      "type": "function",
      "constant": true
    },
    {
      "inputs": [],
      "name": "totalKeys",
      "outputs": [
        {
          "internalType": "uint256",
          "name": "",
          "type": "uint256"
        }
      ],
      "stateMutability": "view",
      "type": "function",
      "constant": true
    },
    {
      "inputs": [],
      "name": "receiveMoney",
      "outputs": [],
      "stateMutability": "payable",
      "type": "function",
      "payable": true
    },
    {
      "inputs": [],
      "name": "getBalance",
      "outputs": [
        {
          "internalType": "uint256",
          "name": "",
          "type": "uint256"
        }
      ],
      "stateMutability": "view",
      "type": "function",
      "constant": true
    },
    {
      "inputs": [],
      "name": "withdrawMoney",
      "outputs": [],
      "stateMutability": "nonpayable",
      "type": "function"
    },
    {
      "inputs": [
        {
          "internalType": "address payable",
          "name": "_to",
          "type": "address"
        }
      ],
      "name": "withdrawMoneyTo",
      "outputs": [],
      "stateMutability": "nonpayable",
      "type": "function"
    },
    {
      "inputs": [
        {
          "internalType": "uint256",
          "name": "_amount",
          "type": "uint256"
        }
      ],
      "name": "purchaseKeys",
      "outputs": [],
      "stateMutability": "payable",
      "type": "function",
      "payable": true
    },
    {
      "inputs": [],
      "name": "getTotalKeyBalance",
      "outputs": [
        {
          "internalType": "uint256",
          "name": "",
          "type": "uint256"
        }
      ],
      "stateMutability": "view",
      "type": "function",
      "constant": true
    },
    {
      "inputs": [],
      "name": "getUserKeyBalance",
      "outputs": [
        {
          "internalType": "uint256",
          "name": "",
          "type": "uint256"
        }
      ],
      "stateMutability": "view",
      "type": "function",
      "constant": true
    },
    {
      "inputs": [],
      "name": "getKeyPrice",
      "outputs": [
        {
          "internalType": "uint256",
          "name": "",
          "type": "uint256"
        }
      ],
      "stateMutability": "view",
      "type": "function",
      "constant": true
    },
    {
      "inputs": [
        {
          "internalType": "address",
          "name": "_userAddress",
          "type": "address"
        }
      ],
      "name": "updateDivvies",
      "outputs": [
        {
          "internalType": "uint256",
          "name": "",
          "type": "uint256"
        }
      ],
      "stateMutability": "view",
      "type": "function",
      "constant": true
    },
    {
      "inputs": [],
      "name": "withdrawDivvies",
      "outputs": [],
      "stateMutability": "nonpayable",
      "type": "function"
    }
  ],
  "bytecode": "0x6080604052606460025534801561001557600080fd5b50336000806101000a81548173ffffffffffffffffffffffffffffffffffffffff021916908373ffffffffffffffffffffffffffffffffffffffff16021790555060016006819055506002600781905550610fcd806100756000396000f3fe6080604052600436106101095760003560e01c80636b31ee0111610095578063a440a19011610064578063a440a1901461030b578063ac44600214610336578063acf7084a1461034d578063c29855781461038a578063febb0f7e146103b557610109565b80636b31ee011461028f5780636d26ec18146102ba57806378c3171f146102c45780637c2be5dd146102e057610109565b80631ebe585d116100dc5780631ebe585d146101b8578063488bdabc146101cf57806351679cc0146101fa57806352a90c421461022557806355fcbbff1461025057610109565b80630ff8d8a51461010e57806310e569731461013757806312065fe01461016257806317c56f841461018d575b600080fd5b34801561011a57600080fd5b5061013560048036038101906101309190610b95565b6103e0565b005b34801561014357600080fd5b5061014c610431565b6040516101599190610c84565b60405180910390f35b34801561016e57600080fd5b50610177610437565b6040516101849190610c84565b60405180910390f35b34801561019957600080fd5b506101a261043f565b6040516101af9190610c84565b60405180910390f35b3480156101c457600080fd5b506101cd610449565b005b3480156101db57600080fd5b506101e4610627565b6040516101f19190610c84565b60405180910390f35b34801561020657600080fd5b5061020f61062d565b60405161021c9190610c84565b60405180910390f35b34801561023157600080fd5b5061023a610677565b6040516102479190610c84565b60405180910390f35b34801561025c57600080fd5b5061027760048036038101906102729190610b68565b61067d565b60405161028693929190610c9f565b60405180910390f35b34801561029b57600080fd5b506102a46106a7565b6040516102b19190610c84565b60405180910390f35b6102c26106ad565b005b6102de60048036038101906102d99190610bc2565b6106ff565b005b3480156102ec57600080fd5b506102f56109a8565b6040516103029190610c84565b60405180910390f35b34801561031757600080fd5b506103206109ae565b60405161032d9190610c84565b60405180910390f35b34801561034257600080fd5b5061034b6109b8565b005b34801561035957600080fd5b50610374600480360381019061036f9190610b68565b610a45565b6040516103819190610c84565b60405180910390f35b34801561039657600080fd5b5061039f610b1d565b6040516103ac9190610c84565b60405180910390f35b3480156103c157600080fd5b506103ca610b23565b6040516103d79190610c84565b60405180910390f35b8073ffffffffffffffffffffffffffffffffffffffff166108fc610402610437565b9081150290604051600060405180830381858888f1935050505015801561042d573d6000803e3d6000fd5b5050565b60025481565b600047905090565b6000600354905090565b60003390506000600860003373ffffffffffffffffffffffffffffffffffffffff1673ffffffffffffffffffffffffffffffffffffffff168152602001908152602001600020600101546004546104a09190610e1b565b9050600081600860003373ffffffffffffffffffffffffffffffffffffffff1673ffffffffffffffffffffffffffffffffffffffff168152602001908152602001600020600001546104f29190610dc1565b90506000600354826105049190610d90565b90506000600860003373ffffffffffffffffffffffffffffffffffffffff1673ffffffffffffffffffffffffffffffffffffffff16815260200190815260200160002060020181905550600454600860003373ffffffffffffffffffffffffffffffffffffffff1673ffffffffffffffffffffffffffffffffffffffff16815260200190815260200160002060010181905550600081116105da576040517f08c379a00000000000000000000000000000000000000000000000000000000081526004016105d190610c64565b60405180910390fd5b8373ffffffffffffffffffffffffffffffffffffffff166108fc829081150290604051600060405180830381858888f19350505050158015610620573d6000803e3d6000fd5b5050505050565b60035481565b6000600860003373ffffffffffffffffffffffffffffffffffffffff1673ffffffffffffffffffffffffffffffffffffffff16815260200190815260200160002060000154905090565b60015481565b60086020528060005260406000206000915090508060000154908060010154908060020154905083565b60055481565b34600160008282546106bf9190610d3a565b925050819055507ff17715ef19540cd5d39272c3efa67acccca56433dafd1671622021a4cfe6ca74476040516106f59190610c84565b60405180910390a1565b8060025461070d9190610dc1565b341461074e576040517f08c379a000000000000000000000000000000000000000000000000000000000815260040161074590610c44565b60405180910390fd5b60023461075b9190610d90565b6004600082825461076c9190610d3a565b925050819055506002346107809190610d90565b600560008282546107919190610d3a565b9250508190555080600860003373ffffffffffffffffffffffffffffffffffffffff1673ffffffffffffffffffffffffffffffffffffffff16815260200190815260200160002060000160008282546107ea9190610d3a565b9250508190555080600360008282546108039190610d3a565b925050819055506000600860003373ffffffffffffffffffffffffffffffffffffffff1673ffffffffffffffffffffffffffffffffffffffff1681526020019081526020016000206001015460045461085c9190610e1b565b9050600081600860003373ffffffffffffffffffffffffffffffffffffffff1673ffffffffffffffffffffffffffffffffffffffff168152602001908152602001600020600001546108ae9190610dc1565b9050600354816108be9190610d90565b600860003373ffffffffffffffffffffffffffffffffffffffff1673ffffffffffffffffffffffffffffffffffffffff168152602001908152602001600020600201819055506101906002546109149190610d3a565b6002819055507f2f6137ffda9938898998a466f613090641d553b82ec9d1e8b22390f3501bd23c600860003373ffffffffffffffffffffffffffffffffffffffff1673ffffffffffffffffffffffffffffffffffffffff1681526020019081526020016000206000015460035460025460045460055460405161099b959493929190610cd6565b60405180910390a1505050565b60045481565b6000600254905090565b60003390508073ffffffffffffffffffffffffffffffffffffffff166108fc6109df610437565b9081150290604051600060405180830381858888f19350505050158015610a0a573d6000803e3d6000fd5b507ff17715ef19540cd5d39272c3efa67acccca56433dafd1671622021a4cfe6ca7447604051610a3a9190610c84565b60405180910390a150565b60008060008060006003541415610a5f5760009250610b12565b600860008673ffffffffffffffffffffffffffffffffffffffff1673ffffffffffffffffffffffffffffffffffffffff16815260200190815260200160002060010154600454610aaf9190610e1b565b915081600860008773ffffffffffffffffffffffffffffffffffffffff1673ffffffffffffffffffffffffffffffffffffffff16815260200190815260200160002060000154610aff9190610dc1565b905060035481610b0f9190610d90565b92505b829350505050919050565b60065481565b60075481565b600081359050610b3881610f52565b92915050565b600081359050610b4d81610f69565b92915050565b600081359050610b6281610f80565b92915050565b600060208284031215610b7e57610b7d610efb565b5b6000610b8c84828501610b29565b91505092915050565b600060208284031215610bab57610baa610efb565b5b6000610bb984828501610b3e565b91505092915050565b600060208284031215610bd857610bd7610efb565b5b6000610be684828501610b53565b91505092915050565b6000610bfc601d83610d29565b9150610c0782610f00565b602082019050919050565b6000610c1f601c83610d29565b9150610c2a82610f29565b602082019050919050565b610c3e81610e93565b82525050565b60006020820190508181036000830152610c5d81610bef565b9050919050565b60006020820190508181036000830152610c7d81610c12565b9050919050565b6000602082019050610c996000830184610c35565b92915050565b6000606082019050610cb46000830186610c35565b610cc16020830185610c35565b610cce6040830184610c35565b949350505050565b600060a082019050610ceb6000830188610c35565b610cf86020830187610c35565b610d056040830186610c35565b610d126060830185610c35565b610d1f6080830184610c35565b9695505050505050565b600082825260208201905092915050565b6000610d4582610e93565b9150610d5083610e93565b9250827fffffffffffffffffffffffffffffffffffffffffffffffffffffffffffffffff03821115610d8557610d84610e9d565b5b828201905092915050565b6000610d9b82610e93565b9150610da683610e93565b925082610db657610db5610ecc565b5b828204905092915050565b6000610dcc82610e93565b9150610dd783610e93565b9250817fffffffffffffffffffffffffffffffffffffffffffffffffffffffffffffffff0483118215151615610e1057610e0f610e9d565b5b828202905092915050565b6000610e2682610e93565b9150610e3183610e93565b925082821015610e4457610e43610e9d565b5b828203905092915050565b6000610e5a82610e73565b9050919050565b6000610e6c82610e73565b9050919050565b600073ffffffffffffffffffffffffffffffffffffffff82169050919050565b6000819050919050565b7f4e487b7100000000000000000000000000000000000000000000000000000000600052601160045260246000fd5b7f4e487b7100000000000000000000000000000000000000000000000000000000600052601260045260246000fd5b600080fd5b7f6e6f7420656e6f75676820746f2062757920746865206b65792873292e000000600082015250565b7f596f752068617665206e6f206469767669657320746f20636c61696d00000000600082015250565b610f5b81610e4f565b8114610f6657600080fd5b50565b610f7281610e61565b8114610f7d57600080fd5b50565b610f8981610e93565b8114610f9457600080fd5b5056fea26469706673582212202cb71e5369d736641cd2818de118ba9c8e49742c421ce81fd888496f8750310264736f6c63430008050033",
  "immutableReferences": {},
  "source": "//SPDX-License-Identifier: MIT\n\npragma solidity ^0.8.4;\n\ncontract FomoOE {\n    address owner;\n    uint public balanceReceived;\n    uint public keyPrice = 100 wei;\n    uint public totalKeys;\n    uint public divPool;\n    uint public jackpot;\n\n    uint public foo;\n    uint public bar;\n    // mapping(address => uint) public keyBalance;\n\n    struct Divvies {\n        uint _keyBalance;\n        uint _totalDivPoolAtWithdraw;\n        uint _divBalance;\n    }\n\n    mapping(address => Divvies) public divTracker;\n    event keysPurchased(uint _userKeyBalance, uint _totalKeys, uint _keyPrice, uint _divPool, uint _jackpot);\n    event userDivvies(uint _userDivvies);\n    event contractBalance(uint _balanceReceived);\n    event currentKeyPrice(uint keyPrice);\n    constructor() {\n        owner = msg.sender;\n        foo = 1;\n        bar = 2;\n    }\n\n    function receiveMoney() public payable {\n        balanceReceived += msg.value;\n        emit contractBalance(address(this).balance);\n    }\n    function getBalance() public view returns(uint) {\n        return address(this).balance;\n    }\n    function withdrawMoney() public {\n        address payable to = payable(msg.sender);\n        to.transfer(getBalance());\n        emit contractBalance(address(this).balance);\n    }\n    function withdrawMoneyTo(address payable _to) public {\n        _to.transfer(getBalance());\n    }\n\n    function purchaseKeys(uint _amount) public payable {\n        require(msg.value == keyPrice*_amount, \"not enough to buy the key(s).\");\n        // keyBalance[msg.sender] += _amount;\n        // TODO: ADDRESS ROUNDING ISSUE\n        divPool += msg.value/2;\n        jackpot += msg.value/2;\n        divTracker[msg.sender]._keyBalance += _amount;\n        totalKeys += _amount;\n        // FIX THIS: update a user's withdrawable divvies after they purchase keys\n        uint userDivPool = divPool - divTracker[msg.sender]._totalDivPoolAtWithdraw;\n        uint numerator = divTracker[msg.sender]._keyBalance * userDivPool;\n        divTracker[msg.sender]._divBalance = numerator/totalKeys;\n        // FIX THIS: update a user's withdrawable divvies after they purchase keys\n        keyPrice = keyPrice + 400;\n        emit keysPurchased(divTracker[msg.sender]._keyBalance, totalKeys, keyPrice, divPool, jackpot);   \n    } \n    function getTotalKeyBalance() public view returns(uint) {\n        return totalKeys;\n    }\n    function getUserKeyBalance() public view returns(uint) {\n        return divTracker[msg.sender]._keyBalance;\n    }\n\n    function getKeyPrice() public view returns(uint) {\n        return keyPrice;\n    }\n\n\n    function updateDivvies(address _userAddress) public view returns(uint) {\n        uint tempUserDivBalance;\n        uint tempUserDivPool;\n        uint tempNumerator;\n        if (totalKeys == 0 ) {\n            tempUserDivBalance = 0;\n        } else {\n            // the pool a user's dividend is entitled to since last dividend withdraw.\n            tempUserDivPool = divPool - divTracker[_userAddress]._totalDivPoolAtWithdraw;\n            tempNumerator = divTracker[_userAddress]._keyBalance * tempUserDivPool;\n            tempUserDivBalance = tempNumerator/totalKeys;\n            // can update a users div balance, but it'll cost gas\n            // divTracker[msg.sender]._divBalance = _divBalance;\n            // emit keysPurchased(divTracker[msg.sender]._keyBalance, totalKeys, keyPrice, divPool, jackpot);\n            // emit userDivvies(_divBalance);\n        }\n        \n        return tempUserDivBalance;\n\n        // return foo + bar;\n    }\n\n\n    // function updateDivvies() public view returns(uint) {\n    //     uint tempUserDivBalance;\n    //     uint tempUserDivPool;\n    //     uint tempNumerator;\n    //     if (totalKeys == 0 ) {\n    //         tempUserDivBalance = 0;\n    //     } else {\n    //         // the pool a user's dividend is entitled to since last dividend withdraw.\n    //         tempUserDivPool = divPool - divTracker[msg.sender]._totalDivPoolAtWithdraw;\n    //         tempNumerator = divTracker[msg.sender]._keyBalance * tempUserDivPool;\n    //         tempUserDivBalance = tempNumerator/totalKeys;\n    //         // // can update a users div balance, but it'll cost gas\n    //         // divTracker[msg.sender]._divBalance = tempUserDivBalance;\n    //         // // emit keysPurchased(divTracker[msg.sender]._keyBalance, totalKeys, keyPrice, divPool, jackpot);\n    //         // // emit userDivvies(_divBalance);\n    //     }\n        \n    //     return tempUserDivBalance;\n\n    //     // return foo + bar;\n    // }\n\n    function withdrawDivvies() public {\n        address payable to = payable(msg.sender);\n        uint userDivPool = divPool - divTracker[msg.sender]._totalDivPoolAtWithdraw;\n        uint numerator = divTracker[msg.sender]._keyBalance * userDivPool;\n        uint _divBalance = numerator/totalKeys;\n        divTracker[msg.sender]._divBalance = 0;\n        divTracker[msg.sender]._totalDivPoolAtWithdraw = divPool;\n        require(_divBalance > 0, \"You have no divvies to claim\");\n        to.transfer(_divBalance);\n    }\n\n}",
  "sourcePath": "/Volumes/Projects2/rugpull/contracts/FomoOE.sol",
  "compiler": {
    "name": "solc",
    "version": "0.8.5+commit.a4f2e591.Emscripten.clang"
  },
  "schemaVersion": "3.4.2",
  "updatedAt": "2021-08-24T14:15:30.710Z",
  "networkType": "ethereum",
  "devdoc": {
    "kind": "dev",
    "methods": {},
    "version": 1
  },
  "userdoc": {
    "kind": "user",
    "methods": {},
    "version": 1
  }
}