{
  "contractName": "FomoOE",
  "abi": [
    {
      "inputs": [],
      "stateMutability": "nonpayable",
      "type": "constructor"
    },
    {
      "anonymous": false,
      "inputs": [
        {
          "indexed": false,
          "internalType": "uint256",
          "name": "_balanceReceived",
          "type": "uint256"
        }
      ],
      "name": "contractBalance",
      "type": "event"
    },
    {
      "anonymous": false,
      "inputs": [
        {
          "indexed": false,
          "internalType": "uint256",
          "name": "keyPrice",
          "type": "uint256"
        }
      ],
      "name": "currentKeyPrice",
      "type": "event"
    },
    {
      "anonymous": false,
      "inputs": [
        {
          "indexed": false,
          "internalType": "uint256",
          "name": "_userKeyBalance",
          "type": "uint256"
        },
        {
          "indexed": false,
          "internalType": "uint256",
          "name": "_totalKeys",
          "type": "uint256"
        },
        {
          "indexed": false,
          "internalType": "uint256",
          "name": "_keyPrice",
          "type": "uint256"
        },
        {
          "indexed": false,
          "internalType": "uint256",
          "name": "_divPool",
          "type": "uint256"
        },
        {
          "indexed": false,
          "internalType": "uint256",
          "name": "_jackpot",
          "type": "uint256"
        }
      ],
      "name": "keysPurchased",
      "type": "event"
    },
    {
      "anonymous": false,
      "inputs": [
        {
          "indexed": false,
          "internalType": "uint256",
          "name": "_userDivvies",
          "type": "uint256"
        }
      ],
      "name": "userDivvies",
      "type": "event"
    },
    {
      "inputs": [],
      "name": "balanceReceived",
      "outputs": [
        {
          "internalType": "uint256",
          "name": "",
          "type": "uint256"
        }
      ],
      "stateMutability": "view",
      "type": "function",
      "constant": true
    },
    {
      "inputs": [],
      "name": "divPool",
      "outputs": [
        {
          "internalType": "uint256",
          "name": "",
          "type": "uint256"
        }
      ],
      "stateMutability": "view",
      "type": "function",
      "constant": true
    },
    {
      "inputs": [
        {
          "internalType": "address",
          "name": "",
          "type": "address"
        }
      ],
      "name": "divTracker",
      "outputs": [
        {
          "internalType": "uint256",
          "name": "_keyBalance",
          "type": "uint256"
        },
        {
          "internalType": "uint256",
          "name": "_totalDivPoolAtWithdraw",
          "type": "uint256"
        },
        {
          "internalType": "uint256",
          "name": "_divBalance",
          "type": "uint256"
        }
      ],
      "stateMutability": "view",
      "type": "function",
      "constant": true
    },
    {
      "inputs": [],
      "name": "jackpot",
      "outputs": [
        {
          "internalType": "uint256",
          "name": "",
          "type": "uint256"
        }
      ],
      "stateMutability": "view",
      "type": "function",
      "constant": true
    },
    {
      "inputs": [],
      "name": "keyPrice",
      "outputs": [
        {
          "internalType": "uint256",
          "name": "",
          "type": "uint256"
        }
      ],
      "stateMutability": "view",
      "type": "function",
      "constant": true
    },
    {
      "inputs": [],
      "name": "totalKeys",
      "outputs": [
        {
          "internalType": "uint256",
          "name": "",
          "type": "uint256"
        }
      ],
      "stateMutability": "view",
      "type": "function",
      "constant": true
    },
    {
      "inputs": [],
      "name": "receiveMoney",
      "outputs": [],
      "stateMutability": "payable",
      "type": "function",
      "payable": true
    },
    {
      "inputs": [],
      "name": "getBalance",
      "outputs": [
        {
          "internalType": "uint256",
          "name": "",
          "type": "uint256"
        }
      ],
      "stateMutability": "view",
      "type": "function",
      "constant": true
    },
    {
      "inputs": [],
      "name": "withdrawMoney",
      "outputs": [],
      "stateMutability": "nonpayable",
      "type": "function"
    },
    {
      "inputs": [
        {
          "internalType": "address payable",
          "name": "_to",
          "type": "address"
        }
      ],
      "name": "withdrawMoneyTo",
      "outputs": [],
      "stateMutability": "nonpayable",
      "type": "function"
    },
    {
      "inputs": [
        {
          "internalType": "uint256",
          "name": "_amount",
          "type": "uint256"
        }
      ],
      "name": "purchaseKeys",
      "outputs": [],
      "stateMutability": "payable",
      "type": "function",
      "payable": true
    },
    {
      "inputs": [],
      "name": "getTotalKeyBalance",
      "outputs": [
        {
          "internalType": "uint256",
          "name": "",
          "type": "uint256"
        }
      ],
      "stateMutability": "view",
      "type": "function",
      "constant": true
    },
    {
      "inputs": [],
      "name": "getUserKeyBalance",
      "outputs": [
        {
          "internalType": "uint256",
          "name": "",
          "type": "uint256"
        }
      ],
      "stateMutability": "view",
      "type": "function",
      "constant": true
    },
    {
      "inputs": [],
      "name": "getKeyPrice",
      "outputs": [
        {
          "internalType": "uint256",
          "name": "",
          "type": "uint256"
        }
      ],
      "stateMutability": "view",
      "type": "function",
      "constant": true
    },
    {
      "inputs": [],
      "name": "withdrawDivvies",
      "outputs": [],
      "stateMutability": "nonpayable",
      "type": "function"
    },
    {
      "inputs": [],
      "name": "updateDivvies",
      "outputs": [
        {
          "internalType": "uint256",
          "name": "",
          "type": "uint256"
        }
      ],
      "stateMutability": "nonpayable",
      "type": "function"
    },
    {
      "inputs": [],
      "name": "updateDivvies2",
      "outputs": [],
      "stateMutability": "nonpayable",
      "type": "function"
    }
  ],
  "bytecode": "0x6080604052606460025534801561001557600080fd5b50336000806101000a81548173ffffffffffffffffffffffffffffffffffffffff021916908373ffffffffffffffffffffffffffffffffffffffff160217905550611021806100656000396000f3fe6080604052600436106100fe5760003560e01c806355fcbbff116100955780636d26ec18116100645780636d26ec18146102f157806378c3171f146102fb5780637c2be5dd14610317578063a440a19014610342578063ac4460021461036d576100fe565b806355fcbbff146102455780635f4d67fc1461028457806368eb20f81461029b5780636b31ee01146102c6576100fe565b80631ebe585d116100d15780631ebe585d146101ad578063488bdabc146101c457806351679cc0146101ef57806352a90c421461021a576100fe565b80630ff8d8a51461010357806310e569731461012c57806312065fe01461015757806317c56f8414610182575b600080fd5b34801561010f57600080fd5b5061012a60048036038101906101259190610c55565b610384565b005b34801561013857600080fd5b506101416103d5565b60405161014e9190610d01565b60405180910390f35b34801561016357600080fd5b5061016c6103db565b6040516101799190610d01565b60405180910390f35b34801561018e57600080fd5b506101976103e3565b6040516101a49190610d01565b60405180910390f35b3480156101b957600080fd5b506101c26103ed565b005b3480156101d057600080fd5b506101d9610583565b6040516101e69190610d01565b60405180910390f35b3480156101fb57600080fd5b50610204610589565b6040516102119190610d01565b60405180910390f35b34801561022657600080fd5b5061022f6105d3565b60405161023c9190610d01565b60405180910390f35b34801561025157600080fd5b5061026c60048036038101906102679190610c28565b6105d9565b60405161027b93929190610d1c565b60405180910390f35b34801561029057600080fd5b50610299610603565b005b3480156102a757600080fd5b506102b0610780565b6040516102bd9190610d01565b60405180910390f35b3480156102d257600080fd5b506102db610889565b6040516102e89190610d01565b60405180910390f35b6102f961088f565b005b61031560048036038101906103109190610c82565b6108e1565b005b34801561032357600080fd5b5061032c610b4c565b6040516103399190610d01565b60405180910390f35b34801561034e57600080fd5b50610357610b52565b6040516103649190610d01565b60405180910390f35b34801561037957600080fd5b50610382610b5c565b005b8073ffffffffffffffffffffffffffffffffffffffff166108fc6103a66103db565b9081150290604051600060405180830381858888f193505050501580156103d1573d6000803e3d6000fd5b5050565b60025481565b600047905090565b6000600354905090565b60003390506000600660003373ffffffffffffffffffffffffffffffffffffffff1673ffffffffffffffffffffffffffffffffffffffff168152602001908152602001600020600101546004546104449190610e98565b9050600081600660003373ffffffffffffffffffffffffffffffffffffffff1673ffffffffffffffffffffffffffffffffffffffff168152602001908152602001600020600001546104969190610e3e565b90506000600354826104a89190610e0d565b9050600454600660003373ffffffffffffffffffffffffffffffffffffffff1673ffffffffffffffffffffffffffffffffffffffff1681526020019081526020016000206001018190555060008111610536576040517f08c379a000000000000000000000000000000000000000000000000000000000815260040161052d90610ce1565b60405180910390fd5b8373ffffffffffffffffffffffffffffffffffffffff166108fc829081150290604051600060405180830381858888f1935050505015801561057c573d6000803e3d6000fd5b5050505050565b60035481565b6000600660003373ffffffffffffffffffffffffffffffffffffffff1673ffffffffffffffffffffffffffffffffffffffff16815260200190815260200160002060000154905090565b60015481565b60066020528060005260406000206000915090508060000154908060010154908060020154905083565b6000600660003373ffffffffffffffffffffffffffffffffffffffff1673ffffffffffffffffffffffffffffffffffffffff168152602001908152602001600020600101546004546106559190610e98565b9050600081600660003373ffffffffffffffffffffffffffffffffffffffff1673ffffffffffffffffffffffffffffffffffffffff168152602001908152602001600020600001546106a79190610e3e565b90506000600354826106b99190610e0d565b90507f2f6137ffda9938898998a466f613090641d553b82ec9d1e8b22390f3501bd23c600660003373ffffffffffffffffffffffffffffffffffffffff1673ffffffffffffffffffffffffffffffffffffffff1681526020019081526020016000206000015460035460025460045460055460405161073c959493929190610d53565b60405180910390a17f6a1c5908145acc98f6681fe653e3018a0fdd062b333be46462a0b72fb81de01b816040516107739190610d01565b60405180910390a1505050565b600080600660003373ffffffffffffffffffffffffffffffffffffffff1673ffffffffffffffffffffffffffffffffffffffff168152602001908152602001600020600101546004546107d39190610e98565b9050600081600660003373ffffffffffffffffffffffffffffffffffffffff1673ffffffffffffffffffffffffffffffffffffffff168152602001908152602001600020600001546108259190610e3e565b90506000600354826108379190610e0d565b905080600660003373ffffffffffffffffffffffffffffffffffffffff1673ffffffffffffffffffffffffffffffffffffffff1681526020019081526020016000206002018190555080935050505090565b60055481565b34600160008282546108a19190610db7565b925050819055507ff17715ef19540cd5d39272c3efa67acccca56433dafd1671622021a4cfe6ca74476040516108d79190610d01565b60405180910390a1565b6002346108ee9190610e0d565b600460008282546108ff9190610db7565b925050819055506002346109139190610e0d565b600560008282546109249190610db7565b9250508190555080600660003373ffffffffffffffffffffffffffffffffffffffff1673ffffffffffffffffffffffffffffffffffffffff168152602001908152602001600020600001600082825461097d9190610db7565b9250508190555080600360008282546109969190610db7565b925050819055506000600660003373ffffffffffffffffffffffffffffffffffffffff1673ffffffffffffffffffffffffffffffffffffffff168152602001908152602001600020600101546004546109ef9190610e98565b9050600081600660003373ffffffffffffffffffffffffffffffffffffffff1673ffffffffffffffffffffffffffffffffffffffff16815260200190815260200160002060000154610a419190610e3e565b905060035481610a519190610e0d565b600660003373ffffffffffffffffffffffffffffffffffffffff1673ffffffffffffffffffffffffffffffffffffffff1681526020019081526020016000206002016000828254610aa29190610db7565b9250508190555060c8600254610ab89190610db7565b6002819055507f2f6137ffda9938898998a466f613090641d553b82ec9d1e8b22390f3501bd23c600660003373ffffffffffffffffffffffffffffffffffffffff1673ffffffffffffffffffffffffffffffffffffffff16815260200190815260200160002060000154600354600254600454600554604051610b3f959493929190610d53565b60405180910390a1505050565b60045481565b6000600254905090565b60003390508073ffffffffffffffffffffffffffffffffffffffff166108fc610b836103db565b9081150290604051600060405180830381858888f19350505050158015610bae573d6000803e3d6000fd5b507ff17715ef19540cd5d39272c3efa67acccca56433dafd1671622021a4cfe6ca7447604051610bde9190610d01565b60405180910390a150565b600081359050610bf881610fa6565b92915050565b600081359050610c0d81610fbd565b92915050565b600081359050610c2281610fd4565b92915050565b600060208284031215610c3e57610c3d610f78565b5b6000610c4c84828501610be9565b91505092915050565b600060208284031215610c6b57610c6a610f78565b5b6000610c7984828501610bfe565b91505092915050565b600060208284031215610c9857610c97610f78565b5b6000610ca684828501610c13565b91505092915050565b6000610cbc601c83610da6565b9150610cc782610f7d565b602082019050919050565b610cdb81610f10565b82525050565b60006020820190508181036000830152610cfa81610caf565b9050919050565b6000602082019050610d166000830184610cd2565b92915050565b6000606082019050610d316000830186610cd2565b610d3e6020830185610cd2565b610d4b6040830184610cd2565b949350505050565b600060a082019050610d686000830188610cd2565b610d756020830187610cd2565b610d826040830186610cd2565b610d8f6060830185610cd2565b610d9c6080830184610cd2565b9695505050505050565b600082825260208201905092915050565b6000610dc282610f10565b9150610dcd83610f10565b9250827fffffffffffffffffffffffffffffffffffffffffffffffffffffffffffffffff03821115610e0257610e01610f1a565b5b828201905092915050565b6000610e1882610f10565b9150610e2383610f10565b925082610e3357610e32610f49565b5b828204905092915050565b6000610e4982610f10565b9150610e5483610f10565b9250817fffffffffffffffffffffffffffffffffffffffffffffffffffffffffffffffff0483118215151615610e8d57610e8c610f1a565b5b828202905092915050565b6000610ea382610f10565b9150610eae83610f10565b925082821015610ec157610ec0610f1a565b5b828203905092915050565b6000610ed782610ef0565b9050919050565b6000610ee982610ef0565b9050919050565b600073ffffffffffffffffffffffffffffffffffffffff82169050919050565b6000819050919050565b7f4e487b7100000000000000000000000000000000000000000000000000000000600052601160045260246000fd5b7f4e487b7100000000000000000000000000000000000000000000000000000000600052601260045260246000fd5b600080fd5b7f596f752068617665206e6f206469767669657320746f20636c61696d00000000600082015250565b610faf81610ecc565b8114610fba57600080fd5b50565b610fc681610ede565b8114610fd157600080fd5b50565b610fdd81610f10565b8114610fe857600080fd5b5056fea2646970667358221220515ac58316aa4ede8fad48cbac91ae932bfa49012e201e81406cc86eef49ef5a64736f6c63430008050033",
  "immutableReferences": {},
  "source": "//SPDX-License-Identifier: MIT\n\npragma solidity ^0.8.4;\n\ncontract FomoOE {\n    address owner;\n    uint public balanceReceived;\n    uint public keyPrice = 100 wei;\n    uint public totalKeys;\n    uint public divPool;\n    uint public jackpot;\n    // mapping(address => uint) public keyBalance;\n\n    struct Divvies {\n        uint _keyBalance;\n        uint _totalDivPoolAtWithdraw;\n        uint _divBalance;\n    }\n\n    mapping(address => Divvies) public divTracker;\n    event keysPurchased(uint _userKeyBalance, uint _totalKeys, uint _keyPrice, uint _divPool, uint _jackpot);\n    event userDivvies(uint _userDivvies);\n    event contractBalance(uint _balanceReceived);\n    event currentKeyPrice(uint keyPrice);\n    constructor() {\n        owner = msg.sender;\n    }\n\n    function receiveMoney() public payable {\n        balanceReceived += msg.value;\n        emit contractBalance(address(this).balance);\n    }\n    function getBalance() public view returns(uint) {\n        return address(this).balance;\n    }\n    function withdrawMoney() public {\n        address payable to = payable(msg.sender);\n        to.transfer(getBalance());\n        emit contractBalance(address(this).balance);\n    }\n    function withdrawMoneyTo(address payable _to) public {\n        _to.transfer(getBalance());\n    }\n\n    function purchaseKeys(uint _amount) public payable {\n        // require(msg.value*_amount == keyPrice*_amount, \"not enough to buy the key(s).\");\n        // keyBalance[msg.sender] += _amount;\n        // TODO: ADDRESS ROUNDING ISSUE\n        divPool += msg.value/2;\n        jackpot += msg.value/2;\n        divTracker[msg.sender]._keyBalance += _amount;\n        totalKeys += _amount;\n        // update a user's withdrawable divvies after they purchase keys\n        uint userDivPool = divPool - divTracker[msg.sender]._totalDivPoolAtWithdraw;\n        uint numerator = divTracker[msg.sender]._keyBalance * userDivPool;\n        divTracker[msg.sender]._divBalance += numerator/totalKeys;\n        // update a user's withdrawable divvies after they purchase keys\n        keyPrice = keyPrice + 200;\n        emit keysPurchased(divTracker[msg.sender]._keyBalance, totalKeys, keyPrice, divPool, jackpot);   \n    } \n    function getTotalKeyBalance() public view returns(uint) {\n        return totalKeys;\n    }\n    function getUserKeyBalance() public view returns(uint) {\n        return divTracker[msg.sender]._keyBalance;\n    }\n\n    function getKeyPrice() public view returns(uint) {\n        return keyPrice;\n    }\n\n    function withdrawDivvies() public {\n        address payable to = payable(msg.sender);\n        uint userDivPool = divPool - divTracker[msg.sender]._totalDivPoolAtWithdraw;\n        uint numerator = divTracker[msg.sender]._keyBalance * userDivPool;\n        uint _divBalance = numerator/totalKeys;\n        divTracker[msg.sender]._totalDivPoolAtWithdraw = divPool;\n        require(_divBalance > 0, \"You have no divvies to claim\");\n        to.transfer(_divBalance);\n    }\n\n    function updateDivvies() public returns(uint) {\n        // the pool a user's dividend is entitled to since last dividend withdraw.\n        uint userDivPool = divPool - divTracker[msg.sender]._totalDivPoolAtWithdraw;\n        uint numerator = divTracker[msg.sender]._keyBalance * userDivPool;\n        uint _divBalance = numerator/totalKeys;\n        divTracker[msg.sender]._divBalance = _divBalance;\n        // emit keysPurchased(divTracker[msg.sender]._keyBalance, totalKeys, keyPrice, divPool, jackpot);\n        // emit userDivvies(_divBalance);\n        return _divBalance;\n    }\n\n    function updateDivvies2() public {\n        // the pool a user's dividend is entitled to since last dividend withdraw.\n        uint userDivPool = divPool - divTracker[msg.sender]._totalDivPoolAtWithdraw;\n        uint numerator = divTracker[msg.sender]._keyBalance * userDivPool;\n        uint _divBalance = numerator/totalKeys;\n        emit keysPurchased(divTracker[msg.sender]._keyBalance, totalKeys, keyPrice, divPool, jackpot);\n        emit userDivvies(_divBalance);\n    }\n    \n\n}",
  "sourcePath": "/home/austin/Desktop/solidity/rugpull/contracts/FomoOE.sol",
  "compiler": {
    "name": "solc",
    "version": "0.8.5+commit.a4f2e591.Emscripten.clang"
  },
  "schemaVersion": "3.4.2",
  "updatedAt": "2021-08-20T14:56:15.737Z",
  "networkType": "ethereum",
  "devdoc": {
    "kind": "dev",
    "methods": {},
    "version": 1
  },
  "userdoc": {
    "kind": "user",
    "methods": {},
    "version": 1
  }
}