{
  "contractName": "FomoOE",
  "abi": [
    {
      "inputs": [],
      "stateMutability": "nonpayable",
      "type": "constructor"
    },
    {
      "anonymous": false,
      "inputs": [
        {
          "indexed": false,
          "internalType": "uint256",
          "name": "_balanceReceived",
          "type": "uint256"
        }
      ],
      "name": "contractBalance",
      "type": "event"
    },
    {
      "anonymous": false,
      "inputs": [
        {
          "indexed": false,
          "internalType": "uint256",
          "name": "keyPrice",
          "type": "uint256"
        }
      ],
      "name": "currentKeyPrice",
      "type": "event"
    },
    {
      "anonymous": false,
      "inputs": [
        {
          "indexed": false,
          "internalType": "uint256",
          "name": "_userKeyBalance",
          "type": "uint256"
        },
        {
          "indexed": false,
          "internalType": "uint256",
          "name": "_totalKeys",
          "type": "uint256"
        },
        {
          "indexed": false,
          "internalType": "uint256",
          "name": "_keyPrice",
          "type": "uint256"
        },
        {
          "indexed": false,
          "internalType": "uint256",
          "name": "_divPool",
          "type": "uint256"
        },
        {
          "indexed": false,
          "internalType": "uint256",
          "name": "_jackpot",
          "type": "uint256"
        },
        {
          "indexed": false,
          "internalType": "address",
          "name": "_winner",
          "type": "address"
        }
      ],
      "name": "keysPurchased",
      "type": "event"
    },
    {
      "anonymous": false,
      "inputs": [
        {
          "indexed": false,
          "internalType": "uint256",
          "name": "_userDivvies",
          "type": "uint256"
        }
      ],
      "name": "userDivvies",
      "type": "event"
    },
    {
      "inputs": [],
      "name": "balanceReceived",
      "outputs": [
        {
          "internalType": "uint256",
          "name": "",
          "type": "uint256"
        }
      ],
      "stateMutability": "view",
      "type": "function",
      "constant": true
    },
    {
      "inputs": [],
      "name": "divPool",
      "outputs": [
        {
          "internalType": "uint256",
          "name": "",
          "type": "uint256"
        }
      ],
      "stateMutability": "view",
      "type": "function",
      "constant": true
    },
    {
      "inputs": [
        {
          "internalType": "address",
          "name": "",
          "type": "address"
        }
      ],
      "name": "divTracker",
      "outputs": [
        {
          "internalType": "uint256",
          "name": "_keyBalance",
          "type": "uint256"
        },
        {
          "internalType": "uint256",
          "name": "_divBalance",
          "type": "uint256"
        },
        {
          "internalType": "uint256",
          "name": "_withdrawnAmount",
          "type": "uint256"
        }
      ],
      "stateMutability": "view",
      "type": "function",
      "constant": true
    },
    {
      "inputs": [],
      "name": "jackpot",
      "outputs": [
        {
          "internalType": "uint256",
          "name": "",
          "type": "uint256"
        }
      ],
      "stateMutability": "view",
      "type": "function",
      "constant": true
    },
    {
      "inputs": [],
      "name": "keyPrice",
      "outputs": [
        {
          "internalType": "uint256",
          "name": "",
          "type": "uint256"
        }
      ],
      "stateMutability": "view",
      "type": "function",
      "constant": true
    },
    {
      "inputs": [],
      "name": "startTime",
      "outputs": [
        {
          "internalType": "uint256",
          "name": "",
          "type": "uint256"
        }
      ],
      "stateMutability": "view",
      "type": "function",
      "constant": true
    },
    {
      "inputs": [],
      "name": "timeLeft",
      "outputs": [
        {
          "internalType": "uint256",
          "name": "",
          "type": "uint256"
        }
      ],
      "stateMutability": "view",
      "type": "function",
      "constant": true
    },
    {
      "inputs": [],
      "name": "totalKeys",
      "outputs": [
        {
          "internalType": "uint256",
          "name": "",
          "type": "uint256"
        }
      ],
      "stateMutability": "view",
      "type": "function",
      "constant": true
    },
    {
      "inputs": [],
      "name": "totalTime",
      "outputs": [
        {
          "internalType": "uint256",
          "name": "",
          "type": "uint256"
        }
      ],
      "stateMutability": "view",
      "type": "function",
      "constant": true
    },
    {
      "inputs": [],
      "name": "receiveMoney",
      "outputs": [],
      "stateMutability": "payable",
      "type": "function",
      "payable": true
    },
    {
      "inputs": [],
      "name": "getBalance",
      "outputs": [
        {
          "internalType": "uint256",
          "name": "",
          "type": "uint256"
        }
      ],
      "stateMutability": "view",
      "type": "function",
      "constant": true
    },
    {
      "inputs": [],
      "name": "withdrawMoney",
      "outputs": [],
      "stateMutability": "nonpayable",
      "type": "function"
    },
    {
      "inputs": [
        {
          "internalType": "address payable",
          "name": "_to",
          "type": "address"
        }
      ],
      "name": "withdrawMoneyTo",
      "outputs": [],
      "stateMutability": "nonpayable",
      "type": "function"
    },
    {
      "inputs": [],
      "name": "getTimeLeft",
      "outputs": [
        {
          "internalType": "uint256",
          "name": "",
          "type": "uint256"
        }
      ],
      "stateMutability": "view",
      "type": "function",
      "constant": true
    },
    {
      "inputs": [
        {
          "internalType": "uint256",
          "name": "_amount",
          "type": "uint256"
        }
      ],
      "name": "purchaseKeys",
      "outputs": [],
      "stateMutability": "payable",
      "type": "function",
      "payable": true
    },
    {
      "inputs": [],
      "name": "getWinner",
      "outputs": [
        {
          "internalType": "address",
          "name": "",
          "type": "address"
        }
      ],
      "stateMutability": "view",
      "type": "function",
      "constant": true
    },
    {
      "inputs": [
        {
          "internalType": "address",
          "name": "_userAddress",
          "type": "address"
        }
      ],
      "name": "updateDivvies",
      "outputs": [
        {
          "internalType": "uint256",
          "name": "",
          "type": "uint256"
        }
      ],
      "stateMutability": "view",
      "type": "function",
      "constant": true
    },
    {
      "inputs": [],
      "name": "withdrawDivvies",
      "outputs": [],
      "stateMutability": "nonpayable",
      "type": "function"
    }
  ],
  "bytecode": "0x6080604052606460065534801561001557600080fd5b5033600360006101000a81548173ffffffffffffffffffffffffffffffffffffffff021916908373ffffffffffffffffffffffffffffffffffffffff160217905550610fc8806100666000396000f3fe6080604052600436106101095760003560e01c80636b31ee01116100955780637c2be5dd116100645780637c2be5dd1461030b5780638e7ea5b214610336578063ac44600214610361578063acf7084a14610378578063c7e284b8146103b557610109565b80636b31ee011461028f5780636d26ec18146102ba57806378c3171f146102c457806378e97925146102e057610109565b80631ebe585d116100dc5780631ebe585d146101b8578063488bdabc146101cf57806352a90c42146101fa57806355fcbbff1461022557806358533e0a1461026457610109565b80630ff8d8a51461010e57806310e569731461013757806312065fe0146101625780631300a6d11461018d575b600080fd5b34801561011a57600080fd5b5061013560048036038101906101309190610b58565b6103e0565b005b34801561014357600080fd5b5061014c610431565b6040516101599190610c71565b60405180910390f35b34801561016e57600080fd5b50610177610437565b6040516101849190610c71565b60405180910390f35b34801561019957600080fd5b506101a261043f565b6040516101af9190610c71565b60405180910390f35b3480156101c457600080fd5b506101cd610445565b005b3480156101db57600080fd5b506101e46105f9565b6040516101f19190610c71565b60405180910390f35b34801561020657600080fd5b5061020f6105ff565b60405161021c9190610c71565b60405180910390f35b34801561023157600080fd5b5061024c60048036038101906102479190610b2b565b610605565b60405161025b93929190610c8c565b60405180910390f35b34801561027057600080fd5b5061027961062f565b6040516102869190610c71565b60405180910390f35b34801561029b57600080fd5b506102a4610635565b6040516102b19190610c71565b60405180910390f35b6102c261063b565b005b6102de60048036038101906102d99190610b85565b61068d565b005b3480156102ec57600080fd5b506102f5610915565b6040516103029190610c71565b60405180910390f35b34801561031757600080fd5b5061032061091b565b60405161032d9190610c71565b60405180910390f35b34801561034257600080fd5b5061034b610921565b6040516103589190610c16565b60405180910390f35b34801561036d57600080fd5b5061037661094b565b005b34801561038457600080fd5b5061039f600480360381019061039a9190610b2b565b6109d8565b6040516103ac9190610c71565b60405180910390f35b3480156103c157600080fd5b506103ca610aaa565b6040516103d79190610c71565b60405180910390f35b8073ffffffffffffffffffffffffffffffffffffffff166108fc610402610437565b9081150290604051600060405180830381858888f1935050505015801561042d573d6000803e3d6000fd5b5050565b60065481565b600047905090565b60025481565b600033905060008060006007541415610461576000915061056a565b600854600a60003373ffffffffffffffffffffffffffffffffffffffff1673ffffffffffffffffffffffffffffffffffffffff168152602001908152602001600020600001546104b19190610dbc565b9050600a60003373ffffffffffffffffffffffffffffffffffffffff1673ffffffffffffffffffffffffffffffffffffffff16815260200190815260200160002060020154600754826105049190610d8b565b61050e9190610e16565b915081600a60003373ffffffffffffffffffffffffffffffffffffffff1673ffffffffffffffffffffffffffffffffffffffff16815260200190815260200160002060020160008282546105629190610d35565b925050819055505b600082116105ad576040517f08c379a00000000000000000000000000000000000000000000000000000000081526004016105a490610c51565b60405180910390fd5b8273ffffffffffffffffffffffffffffffffffffffff166108fc839081150290604051600060405180830381858888f193505050501580156105f3573d6000803e3d6000fd5b50505050565b60075481565b60055481565b600a6020528060005260406000206000915090508060000154908060010154908060020154905083565b60015481565b60095481565b346005600082825461064d9190610d35565b925050819055507ff17715ef19540cd5d39272c3efa67acccca56433dafd1671622021a4cfe6ca74476040516106839190610c71565b60405180910390a1565b8060065461069b9190610dbc565b34146106dc576040517f08c379a00000000000000000000000000000000000000000000000000000000081526004016106d390610c31565b60405180910390fd5b600060075414156106f0576106ef610ad5565b5b6002346106fd9190610d8b565b6008600082825461070e9190610d35565b925050819055506002346107229190610d8b565b600960008282546107339190610d35565b9250508190555080600a60003373ffffffffffffffffffffffffffffffffffffffff1673ffffffffffffffffffffffffffffffffffffffff168152602001908152602001600020600001600082825461078c9190610d35565b9250508190555080600760008282546107a59190610d35565b92505081905550426001546107ba9190610e16565b620151806107c89190610e16565b601e826107d59190610dbc565b11156107e8576107e3610ad5565b61080e565b601e816107f59190610dbc565b600160008282546108069190610d35565b925050819055505b61019060065461081e9190610d35565b60068190555033600460006101000a81548173ffffffffffffffffffffffffffffffffffffffff021916908373ffffffffffffffffffffffffffffffffffffffff1602179055507ff18df1d3dbefaeb22f0e4efe18d279a090ed7b0a9be1c27b33cda2f677ca67d4600a60003373ffffffffffffffffffffffffffffffffffffffff1673ffffffffffffffffffffffffffffffffffffffff16815260200190815260200160002060000154600754600654600854600954600460009054906101000a900473ffffffffffffffffffffffffffffffffffffffff1660405161090a96959493929190610cc3565b60405180910390a150565b60005481565b60085481565b6000600460009054906101000a900473ffffffffffffffffffffffffffffffffffffffff16905090565b60003390508073ffffffffffffffffffffffffffffffffffffffff166108fc610972610437565b9081150290604051600060405180830381858888f1935050505015801561099d573d6000803e3d6000fd5b507ff17715ef19540cd5d39272c3efa67acccca56433dafd1671622021a4cfe6ca74476040516109cd9190610c71565b60405180910390a150565b60008060008060075414156109f05760009150610aa0565b600854600a60008673ffffffffffffffffffffffffffffffffffffffff1673ffffffffffffffffffffffffffffffffffffffff16815260200190815260200160002060000154610a409190610dbc565b9050600a60008573ffffffffffffffffffffffffffffffffffffffff1673ffffffffffffffffffffffffffffffffffffffff1681526020019081526020016000206002015460075482610a939190610d8b565b610a9d9190610e16565b91505b8192505050919050565b6000806007541415610ac157620151809050610ad2565b42600154610acf9190610e16565b90505b90565b6201518042610ae49190610d35565b600181905550565b600081359050610afb81610f4d565b92915050565b600081359050610b1081610f64565b92915050565b600081359050610b2581610f7b565b92915050565b600060208284031215610b4157610b40610ef6565b5b6000610b4f84828501610aec565b91505092915050565b600060208284031215610b6e57610b6d610ef6565b5b6000610b7c84828501610b01565b91505092915050565b600060208284031215610b9b57610b9a610ef6565b5b6000610ba984828501610b16565b91505092915050565b610bbb81610e4a565b82525050565b6000610bce601d83610d24565b9150610bd982610efb565b602082019050919050565b6000610bf1601c83610d24565b9150610bfc82610f24565b602082019050919050565b610c1081610e8e565b82525050565b6000602082019050610c2b6000830184610bb2565b92915050565b60006020820190508181036000830152610c4a81610bc1565b9050919050565b60006020820190508181036000830152610c6a81610be4565b9050919050565b6000602082019050610c866000830184610c07565b92915050565b6000606082019050610ca16000830186610c07565b610cae6020830185610c07565b610cbb6040830184610c07565b949350505050565b600060c082019050610cd86000830189610c07565b610ce56020830188610c07565b610cf26040830187610c07565b610cff6060830186610c07565b610d0c6080830185610c07565b610d1960a0830184610bb2565b979650505050505050565b600082825260208201905092915050565b6000610d4082610e8e565b9150610d4b83610e8e565b9250827fffffffffffffffffffffffffffffffffffffffffffffffffffffffffffffffff03821115610d8057610d7f610e98565b5b828201905092915050565b6000610d9682610e8e565b9150610da183610e8e565b925082610db157610db0610ec7565b5b828204905092915050565b6000610dc782610e8e565b9150610dd283610e8e565b9250817fffffffffffffffffffffffffffffffffffffffffffffffffffffffffffffffff0483118215151615610e0b57610e0a610e98565b5b828202905092915050565b6000610e2182610e8e565b9150610e2c83610e8e565b925082821015610e3f57610e3e610e98565b5b828203905092915050565b6000610e5582610e6e565b9050919050565b6000610e6782610e6e565b9050919050565b600073ffffffffffffffffffffffffffffffffffffffff82169050919050565b6000819050919050565b7f4e487b7100000000000000000000000000000000000000000000000000000000600052601160045260246000fd5b7f4e487b7100000000000000000000000000000000000000000000000000000000600052601260045260246000fd5b600080fd5b7f6e6f7420656e6f75676820746f2062757920746865206b65792873292e000000600082015250565b7f596f752068617665206e6f206469767669657320746f20636c61696d00000000600082015250565b610f5681610e4a565b8114610f6157600080fd5b50565b610f6d81610e5c565b8114610f7857600080fd5b50565b610f8481610e8e565b8114610f8f57600080fd5b5056fea2646970667358221220abe48dfed7762434151a2a02cea96912371596dff7305eaa8f217424711b67dc64736f6c63430008050033",
  "immutableReferences": {},
  "source": "//SPDX-License-Identifier: MIT\n\npragma solidity ^0.8.4;\n\ncontract FomoOE {\n    uint public startTime;\n    uint public totalTime;\n    uint public timeLeft;\n    address owner;\n    address winner;\n    uint public balanceReceived;\n    uint public keyPrice = 100 wei;\n    uint public totalKeys;\n    uint public divPool;\n    uint public jackpot;\n\n    struct Divvies {\n        uint _keyBalance;\n        uint _divBalance;\n        uint _withdrawnAmount;\n    }\n\n    mapping(address => Divvies) public divTracker;\n    event keysPurchased(uint _userKeyBalance, uint _totalKeys, uint _keyPrice, uint _divPool, uint _jackpot, address _winner);\n    event userDivvies(uint _userDivvies);\n    event contractBalance(uint _balanceReceived);\n    event currentKeyPrice(uint keyPrice);\n    \n    constructor() {\n        owner = msg.sender;\n        \n    }\n    function letTheGamesBegin() private {\n        totalTime = block.timestamp + 86400;\n    }\n\n    function receiveMoney() public payable {\n        balanceReceived += msg.value;\n        emit contractBalance(address(this).balance);\n    }\n    function getBalance() public view returns(uint) {\n        return address(this).balance;\n    }\n    function withdrawMoney() public {\n        address payable to = payable(msg.sender);\n        to.transfer(getBalance());\n        emit contractBalance(address(this).balance);\n    }\n    function withdrawMoneyTo(address payable _to) public {\n        _to.transfer(getBalance());\n    }\n    function getTimeLeft() public view returns(uint) {\n        if (totalKeys == 0) {\n            return 86400;\n        }\n        return totalTime - block.timestamp;\n    }\n\n    function purchaseKeys(uint _amount) public payable {\n        require(msg.value == keyPrice*_amount, \"not enough to buy the key(s).\");\n        if (totalKeys == 0) {\n            letTheGamesBegin();\n        }\n        // keyBalance[msg.sender] += _amount;\n        // TODO: ADDRESS ROUNDING ISSUE\n        divPool += msg.value/2;\n        jackpot += msg.value/2;\n        divTracker[msg.sender]._keyBalance += _amount;\n        totalKeys += _amount;\n        if (_amount*30 > 86400 - (totalTime-block.timestamp)) {\n            // totalTime = 86400 + block.timestamp;\n            letTheGamesBegin();\n        } else {\n            totalTime += _amount*30;\n        }\n        // // FIX THIS: update a user's withdrawable divvies after they purchase keys\n        // uint userDivPool = divPool - divTracker[msg.sender]._totalDivPoolAtWithdraw;\n        // uint numerator = divTracker[msg.sender]._keyBalance * userDivPool;\n        // divTracker[msg.sender]._divBalance = numerator/totalKeys;\n        // // FIX THIS: update a user's withdrawable divvies after they purchase keys\n        keyPrice = keyPrice + 400;\n        winner = msg.sender;\n        emit keysPurchased(divTracker[msg.sender]._keyBalance, totalKeys, keyPrice, divPool, jackpot, winner);   \n    } \n    function getWinner() public view returns(address) {\n        return winner;\n    }\n    \n    // ============= FIXED =============== \n    function updateDivvies(address _userAddress) public view returns(uint) {\n        uint tempUserWithdrawAmount;\n        uint tempNumerator;\n        if (totalKeys == 0 ) {\n            tempUserWithdrawAmount = 0;\n        } else {\n            // example to reference, but solidity can't do decimals\n            // // tempUserKeyProportion = divTracker[_userAddress]._keyBalance/totalKeys;\n            // // tempUserWithdrawAmount = tempUserKeyProportion*divPool - divTracker[_userAddress]._withdrawnAmount;\n\n            tempNumerator = divTracker[_userAddress]._keyBalance * divPool;\n            tempUserWithdrawAmount = tempNumerator/totalKeys - divTracker[_userAddress]._withdrawnAmount;\n            \n        }  \n        return tempUserWithdrawAmount;\n    }\n    // ============= FIXED =============== \n    \n    \n    \n    // function updateDivvies2(address _userAddress) public view returns(uint) {\n    //     uint tempUserDivBalance;\n    //     uint tempUserDivPool;\n    //     uint tempNumerator;\n    //     if (totalKeys == 0 ) {\n    //         tempUserDivBalance = 0;\n    //     } else {\n    //         // the pool a user's dividend is entitled to since last dividend withdraw.\n    //         tempUserDivPool = divPool - divTracker[_userAddress]._totalDivPoolAtWithdraw;\n    //         tempNumerator = divTracker[_userAddress]._keyBalance * tempUserDivPool;\n    //         tempUserDivBalance = tempNumerator/totalKeys;\n    //         // can update a users div balance, but it'll cost gas\n    //         // divTracker[msg.sender]._divBalance = _divBalance;\n    //         // emit keysPurchased(divTracker[msg.sender]._keyBalance, totalKeys, keyPrice, divPool, jackpot);\n    //         // emit userDivvies(_divBalance);\n    //     }  \n    //     return tempUserDivBalance;\n    // }\n\n    // function withdrawDivvie2() public {\n    //     address payable to = payable(msg.sender);\n    //     uint userDivPool = divPool - divTracker[msg.sender]._totalDivPoolAtWithdraw;\n    //     uint numerator = divTracker[msg.sender]._keyBalance * userDivPool;\n    //     uint _divBalance = numerator/totalKeys;\n    //     divTracker[msg.sender]._divBalance = 0;\n    //     divTracker[msg.sender]._totalDivPoolAtWithdraw = divPool;\n    //     require(_divBalance > 0, \"You have no divvies to claim\");\n    //     to.transfer(_divBalance);\n    // }\n    \n    function withdrawDivvies() public {\n        address payable to = payable(msg.sender);\n        uint tempUserWithdrawAmount;\n        uint tempNumerator;\n        if (totalKeys == 0 ) {\n            tempUserWithdrawAmount = 0;\n        } else {\n            // example to reference, but solidity can't do decimals\n            // // tempUserKeyProportion = divTracker[_userAddress]._keyBalance/totalKeys;\n            // // tempUserWithdrawAmount = tempUserKeyProportion*divPool - divTracker[_userAddress]._withdrawnAmount;\n\n            tempNumerator = divTracker[msg.sender]._keyBalance * divPool;\n            tempUserWithdrawAmount = tempNumerator/totalKeys - divTracker[msg.sender]._withdrawnAmount;\n            divTracker[msg.sender]._withdrawnAmount += tempUserWithdrawAmount;\n        }  \n        require(tempUserWithdrawAmount > 0, \"You have no divvies to claim\");\n        to.transfer(tempUserWithdrawAmount);\n    }\n\n}\n\n\n\n",
  "sourcePath": "/Volumes/Projects2/rugpull/contracts/FomoOE.sol",
  "compiler": {
    "name": "solc",
    "version": "0.8.5+commit.a4f2e591.Emscripten.clang"
  },
  "schemaVersion": "3.4.2",
  "updatedAt": "2021-08-31T14:48:33.960Z",
  "networkType": "ethereum",
  "devdoc": {
    "kind": "dev",
    "methods": {},
    "version": 1
  },
  "userdoc": {
    "kind": "user",
    "methods": {},
    "version": 1
  }
}