{
  "contractName": "FomoOE",
  "abi": [
    {
      "anonymous": false,
      "inputs": [
        {
          "indexed": false,
          "internalType": "uint256",
          "name": "_balanceReceived",
          "type": "uint256"
        }
      ],
      "name": "contractBalance",
      "type": "event"
    },
    {
      "anonymous": false,
      "inputs": [
        {
          "indexed": false,
          "internalType": "uint256",
          "name": "keyPrice",
          "type": "uint256"
        }
      ],
      "name": "currentKeyPrice",
      "type": "event"
    },
    {
      "anonymous": false,
      "inputs": [
        {
          "indexed": false,
          "internalType": "uint256",
          "name": "_userKeyBalance",
          "type": "uint256"
        },
        {
          "indexed": false,
          "internalType": "uint256",
          "name": "_totalKeys",
          "type": "uint256"
        },
        {
          "indexed": false,
          "internalType": "uint256",
          "name": "_keyPrice",
          "type": "uint256"
        },
        {
          "indexed": false,
          "internalType": "uint256",
          "name": "_divPool",
          "type": "uint256"
        },
        {
          "indexed": false,
          "internalType": "uint256",
          "name": "_jackpot",
          "type": "uint256"
        },
        {
          "indexed": false,
          "internalType": "address",
          "name": "_winning",
          "type": "address"
        }
      ],
      "name": "keysPurchased",
      "type": "event"
    },
    {
      "anonymous": false,
      "inputs": [
        {
          "indexed": false,
          "internalType": "uint256",
          "name": "_userDivvies",
          "type": "uint256"
        }
      ],
      "name": "userDivvies",
      "type": "event"
    },
    {
      "inputs": [],
      "name": "balanceReceived",
      "outputs": [
        {
          "internalType": "uint256",
          "name": "",
          "type": "uint256"
        }
      ],
      "stateMutability": "view",
      "type": "function",
      "constant": true
    },
    {
      "inputs": [],
      "name": "divPool",
      "outputs": [
        {
          "internalType": "uint256",
          "name": "",
          "type": "uint256"
        }
      ],
      "stateMutability": "view",
      "type": "function",
      "constant": true
    },
    {
      "inputs": [
        {
          "internalType": "address",
          "name": "",
          "type": "address"
        }
      ],
      "name": "divTracker",
      "outputs": [
        {
          "internalType": "uint256",
          "name": "_keyBalance",
          "type": "uint256"
        },
        {
          "internalType": "uint256",
          "name": "_divBalance",
          "type": "uint256"
        },
        {
          "internalType": "uint256",
          "name": "_withdrawnAmount",
          "type": "uint256"
        }
      ],
      "stateMutability": "view",
      "type": "function",
      "constant": true
    },
    {
      "inputs": [],
      "name": "jackpot",
      "outputs": [
        {
          "internalType": "uint256",
          "name": "",
          "type": "uint256"
        }
      ],
      "stateMutability": "view",
      "type": "function",
      "constant": true
    },
    {
      "inputs": [],
      "name": "keyPrice",
      "outputs": [
        {
          "internalType": "uint256",
          "name": "",
          "type": "uint256"
        }
      ],
      "stateMutability": "view",
      "type": "function",
      "constant": true
    },
    {
      "inputs": [],
      "name": "startTime",
      "outputs": [
        {
          "internalType": "uint256",
          "name": "",
          "type": "uint256"
        }
      ],
      "stateMutability": "view",
      "type": "function",
      "constant": true
    },
    {
      "inputs": [],
      "name": "timeLeft",
      "outputs": [
        {
          "internalType": "uint256",
          "name": "",
          "type": "uint256"
        }
      ],
      "stateMutability": "view",
      "type": "function",
      "constant": true
    },
    {
      "inputs": [],
      "name": "totalKeys",
      "outputs": [
        {
          "internalType": "uint256",
          "name": "",
          "type": "uint256"
        }
      ],
      "stateMutability": "view",
      "type": "function",
      "constant": true
    },
    {
      "inputs": [],
      "name": "totalTime",
      "outputs": [
        {
          "internalType": "uint256",
          "name": "",
          "type": "uint256"
        }
      ],
      "stateMutability": "view",
      "type": "function",
      "constant": true
    },
    {
      "inputs": [],
      "name": "restartGame",
      "outputs": [],
      "stateMutability": "nonpayable",
      "type": "function"
    },
    {
      "inputs": [],
      "name": "getTimeLeft",
      "outputs": [
        {
          "internalType": "uint256",
          "name": "",
          "type": "uint256"
        }
      ],
      "stateMutability": "view",
      "type": "function",
      "constant": true
    },
    {
      "inputs": [
        {
          "internalType": "uint256",
          "name": "_amount",
          "type": "uint256"
        }
      ],
      "name": "purchaseKeys",
      "outputs": [],
      "stateMutability": "payable",
      "type": "function",
      "payable": true
    },
    {
      "inputs": [],
      "name": "getWinner",
      "outputs": [
        {
          "internalType": "address",
          "name": "",
          "type": "address"
        }
      ],
      "stateMutability": "view",
      "type": "function",
      "constant": true
    },
    {
      "inputs": [
        {
          "internalType": "address",
          "name": "_userAddress",
          "type": "address"
        }
      ],
      "name": "updateDivvies",
      "outputs": [
        {
          "internalType": "uint256",
          "name": "",
          "type": "uint256"
        }
      ],
      "stateMutability": "view",
      "type": "function",
      "constant": true
    },
    {
      "inputs": [],
      "name": "withdrawDivvies",
      "outputs": [],
      "stateMutability": "nonpayable",
      "type": "function"
    },
    {
      "inputs": [],
      "name": "jackpotPayout",
      "outputs": [],
      "stateMutability": "nonpayable",
      "type": "function"
    },
    {
      "inputs": [
        {
          "internalType": "address",
          "name": "_userAddress",
          "type": "address"
        }
      ],
      "name": "whoWon",
      "outputs": [
        {
          "internalType": "address",
          "name": "winner",
          "type": "address"
        }
      ],
      "stateMutability": "view",
      "type": "function",
      "constant": true
    }
  ],
  "bytecode": "0x608060405265030fdcf882aa60055534801561001a57600080fd5b5061129c8061002a6000396000f3fe6080604052600436106100fe5760003560e01c80636b31ee01116100955780638d25af04116100645780638d25af041461030a5780638e7ea5b214610321578063acf7084a1461034c578063c7e284b814610389578063d20bff02146103b4576100fe565b80636b31ee011461026d57806378c3171f1461029857806378e97925146102b45780637c2be5dd146102df576100fe565b8063488bdabc116100d1578063488bdabc146101ad57806352a90c42146101d857806355fcbbff1461020357806358533e0a14610242576100fe565b80630d153c921461010357806310e56973146101405780631300a6d11461016b5780631ebe585d14610196575b600080fd5b34801561010f57600080fd5b5061012a60048036038101906101259190610ca5565b6103cb565b6040516101379190610def565b60405180910390f35b34801561014c57600080fd5b50610155610443565b6040516101629190610eca565b60405180910390f35b34801561017757600080fd5b50610180610449565b60405161018d9190610eca565b60405180910390f35b3480156101a257600080fd5b506101ab61044f565b005b3480156101b957600080fd5b506101c2610603565b6040516101cf9190610eca565b60405180910390f35b3480156101e457600080fd5b506101ed610609565b6040516101fa9190610eca565b60405180910390f35b34801561020f57600080fd5b5061022a60048036038101906102259190610ca5565b61060f565b60405161023993929190610ee5565b60405180910390f35b34801561024e57600080fd5b50610257610639565b6040516102649190610eca565b60405180910390f35b34801561027957600080fd5b5061028261063f565b60405161028f9190610eca565b60405180910390f35b6102b260048036038101906102ad9190610cd2565b610645565b005b3480156102c057600080fd5b506102c961093b565b6040516102d69190610eca565b60405180910390f35b3480156102eb57600080fd5b506102f4610941565b6040516103019190610eca565b60405180910390f35b34801561031657600080fd5b5061031f610947565b005b34801561032d57600080fd5b50610336610a2b565b6040516103439190610def565b60405180910390f35b34801561035857600080fd5b50610373600480360381019061036e9190610ca5565b610a55565b6040516103809190610eca565b60405180910390f35b34801561039557600080fd5b5061039e610b27565b6040516103ab9190610eca565b60405180910390f35b3480156103c057600080fd5b506103c9610b64565b005b6000806103d6610b27565b1480156104305750600360009054906101000a900473ffffffffffffffffffffffffffffffffffffffff1673ffffffffffffffffffffffffffffffffffffffff168273ffffffffffffffffffffffffffffffffffffffff16145b1561043d5781905061043e565b5b919050565b60055481565b60025481565b60003390506000806000600654141561046b5760009150610574565b600754600960003373ffffffffffffffffffffffffffffffffffffffff1673ffffffffffffffffffffffffffffffffffffffff168152602001908152602001600020600001546104bb9190611015565b9050600960003373ffffffffffffffffffffffffffffffffffffffff1673ffffffffffffffffffffffffffffffffffffffff168152602001908152602001600020600201546006548261050e9190610fe4565b610518919061106f565b915081600960003373ffffffffffffffffffffffffffffffffffffffff1673ffffffffffffffffffffffffffffffffffffffff168152602001908152602001600020600201600082825461056c9190610f8e565b925050819055505b600082116105b7576040517f08c379a00000000000000000000000000000000000000000000000000000000081526004016105ae90610e8a565b60405180910390fd5b8273ffffffffffffffffffffffffffffffffffffffff166108fc839081150290604051600060405180830381858888f193505050501580156105fd573d6000803e3d6000fd5b50505050565b60065481565b60045481565b60096020528060005260406000206000915090508060000154908060010154908060020154905083565b60015481565b60085481565b806005546106539190611015565b3414610694576040517f08c379a000000000000000000000000000000000000000000000000000000000815260040161068b90610e4a565b60405180910390fd5b600060065414156106a8576106a7610c66565b5b60006106b2610b27565b116106f2576040517f08c379a00000000000000000000000000000000000000000000000000000000081526004016106e990610e6a565b60405180910390fd5b60006002346107019190610fe4565b905080600860008282546107159190610f8e565b925050819055508034610728919061106f565b600760008282546107399190610f8e565b9250508190555081600960003373ffffffffffffffffffffffffffffffffffffffff1673ffffffffffffffffffffffffffffffffffffffff16815260200190815260200160002060000160008282546107929190610f8e565b9250508190555081600660008282546107ab9190610f8e565b92505081905550426001546107c0919061106f565b620151806107ce919061106f565b601e836107db9190611015565b11156107ee576107e9610c66565b610814565b601e826107fb9190611015565b6001600082825461080c9190610f8e565b925050819055505b600060646005546108259190611015565b9050612710816108359190610fe4565b6005546108429190610f8e565b60058190555033600360006101000a81548173ffffffffffffffffffffffffffffffffffffffff021916908373ffffffffffffffffffffffffffffffffffffffff1602179055507ff18df1d3dbefaeb22f0e4efe18d279a090ed7b0a9be1c27b33cda2f677ca67d4600960003373ffffffffffffffffffffffffffffffffffffffff1673ffffffffffffffffffffffffffffffffffffffff16815260200190815260200160002060000154600654600554600754600854600360009054906101000a900473ffffffffffffffffffffffffffffffffffffffff1660405161092e96959493929190610f1c565b60405180910390a1505050565b60005481565b60075481565b6000610951610b27565b14610991576040517f08c379a000000000000000000000000000000000000000000000000000000000815260040161098890610e0a565b60405180910390fd5b600360009054906101000a900473ffffffffffffffffffffffffffffffffffffffff1673ffffffffffffffffffffffffffffffffffffffff163373ffffffffffffffffffffffffffffffffffffffff1614610a21576040517f08c379a0000000000000000000000000000000000000000000000000000000008152600401610a1890610e2a565b60405180910390fd5b610a29610c66565b565b6000600360009054906101000a900473ffffffffffffffffffffffffffffffffffffffff16905090565b6000806000806006541415610a6d5760009150610b1d565b600754600960008673ffffffffffffffffffffffffffffffffffffffff1673ffffffffffffffffffffffffffffffffffffffff16815260200190815260200160002060000154610abd9190611015565b9050600960008573ffffffffffffffffffffffffffffffffffffffff1673ffffffffffffffffffffffffffffffffffffffff1681526020019081526020016000206002015460065482610b109190610fe4565b610b1a919061106f565b91505b8192505050919050565b6000806006541415610b3e57620151809050610b61565b4260015410610b5c5742600154610b55919061106f565b9050610b61565b600090505b90565b6000610b6e610b27565b14610bae576040517f08c379a0000000000000000000000000000000000000000000000000000000008152600401610ba590610e0a565b60405180910390fd5b600060085411610bf3576040517f08c379a0000000000000000000000000000000000000000000000000000000008152600401610bea90610eaa565b60405180910390fd5b6000600360009054906101000a900473ffffffffffffffffffffffffffffffffffffffff1690508073ffffffffffffffffffffffffffffffffffffffff166108fc6008549081150290604051600060405180830381858888f19350505050158015610c62573d6000803e3d6000fd5b5050565b603c42610c739190610f8e565b600181905550565b600081359050610c8a81611238565b92915050565b600081359050610c9f8161124f565b92915050565b600060208284031215610cbb57610cba61113d565b5b6000610cc984828501610c7b565b91505092915050565b600060208284031215610ce857610ce761113d565b5b6000610cf684828501610c90565b91505092915050565b610d08816110a3565b82525050565b6000610d1b601583610f7d565b9150610d2682611142565b602082019050919050565b6000610d3e601683610f7d565b9150610d498261116b565b602082019050919050565b6000610d61601d83610f7d565b9150610d6c82611194565b602082019050919050565b6000610d84601983610f7d565b9150610d8f826111bd565b602082019050919050565b6000610da7601c83610f7d565b9150610db2826111e6565b602082019050919050565b6000610dca601383610f7d565b9150610dd58261120f565b602082019050919050565b610de9816110d5565b82525050565b6000602082019050610e046000830184610cff565b92915050565b60006020820190508181036000830152610e2381610d0e565b9050919050565b60006020820190508181036000830152610e4381610d31565b9050919050565b60006020820190508181036000830152610e6381610d54565b9050919050565b60006020820190508181036000830152610e8381610d77565b9050919050565b60006020820190508181036000830152610ea381610d9a565b9050919050565b60006020820190508181036000830152610ec381610dbd565b9050919050565b6000602082019050610edf6000830184610de0565b92915050565b6000606082019050610efa6000830186610de0565b610f076020830185610de0565b610f146040830184610de0565b949350505050565b600060c082019050610f316000830189610de0565b610f3e6020830188610de0565b610f4b6040830187610de0565b610f586060830186610de0565b610f656080830185610de0565b610f7260a0830184610cff565b979650505050505050565b600082825260208201905092915050565b6000610f99826110d5565b9150610fa4836110d5565b9250827fffffffffffffffffffffffffffffffffffffffffffffffffffffffffffffffff03821115610fd957610fd86110df565b5b828201905092915050565b6000610fef826110d5565b9150610ffa836110d5565b92508261100a5761100961110e565b5b828204905092915050565b6000611020826110d5565b915061102b836110d5565b9250817fffffffffffffffffffffffffffffffffffffffffffffffffffffffffffffffff0483118215151615611064576110636110df565b5b828202905092915050565b600061107a826110d5565b9150611085836110d5565b925082821015611098576110976110df565b5b828203905092915050565b60006110ae826110b5565b9050919050565b600073ffffffffffffffffffffffffffffffffffffffff82169050919050565b6000819050919050565b7f4e487b7100000000000000000000000000000000000000000000000000000000600052601160045260246000fd5b7f4e487b7100000000000000000000000000000000000000000000000000000000600052601260045260246000fd5b600080fd5b7f67616d65206973207374696c6c20696e20706c61790000000000000000000000600082015250565b7f796f7520617265206e6f74207468652077696e6e657200000000000000000000600082015250565b7f6e6f7420656e6f75676820746f2062757920746865206b65792873292e000000600082015250565b7f746865726520697320616c726561647920612077696e6e657200000000000000600082015250565b7f596f752068617665206e6f206469767669657320746f20636c61696d00000000600082015250565b7f4e6f206d6f6e657920696e206a61636b706f7400000000000000000000000000600082015250565b611241816110a3565b811461124c57600080fd5b50565b611258816110d5565b811461126357600080fd5b5056fea26469706673582212204776b0f5b5c4d94f6404b79113a1ae7f7755b89959292d555302653fbcabaed364736f6c63430008050033",
  "immutableReferences": {},
  "source": "//SPDX-License-Identifier: MIT\n\npragma solidity ^0.8.4;\n\ncontract FomoOE {\n    uint public startTime;\n    uint public totalTime;\n    uint public timeLeft;\n    address winning;\n    uint public balanceReceived;\n    // uint public keyPrice = 100 wei;\n    // // Uncomment when testing is complete\n    uint public keyPrice = 3366666666666 wei;\n    // // Uncomment when testing is complete\n    uint public totalKeys;\n    uint public divPool;\n    uint public jackpot;\n\n    struct Divvies {\n        uint _keyBalance;\n        uint _divBalance;\n        uint _withdrawnAmount;\n    }\n\n    mapping(address => Divvies) public divTracker;\n    event keysPurchased(uint _userKeyBalance, uint _totalKeys, uint _keyPrice, uint _divPool, uint _jackpot, address _winning);\n    event userDivvies(uint _userDivvies);\n    event contractBalance(uint _balanceReceived);\n    event currentKeyPrice(uint keyPrice);\n    \n    function restartGame() public {\n        require(getTimeLeft() == 0, \"game is still in play\");\n        require(msg.sender == winning, \"you are not the winner\");\n        letTheGamesBegin();\n    }\n    function letTheGamesBegin() private {\n        // // Uncomment when testing is complete\n        // totalTime = block.timestamp + 86400;\n        // // Uncomment when testing is complete\n        totalTime = block.timestamp + 60;\n    }\n    function getTimeLeft() public view returns(uint) {\n        if (totalKeys == 0) {\n            return 86400;\n        }\n        if (totalTime >= block.timestamp) {\n            return totalTime - block.timestamp;\n        } else {\n            return 0;\n        }\n    }\n    function purchaseKeys(uint _amount) public payable {\n        require(msg.value == keyPrice*_amount, \"not enough to buy the key(s).\");\n        if (totalKeys == 0) {\n            letTheGamesBegin();\n        }\n        require(getTimeLeft() > 0, \"there is already a winner\");\n        uint floor = msg.value/2;\n        jackpot += floor;\n        divPool += msg.value - floor; \n        divTracker[msg.sender]._keyBalance += _amount;\n        totalKeys += _amount;\n        if (_amount*30 > 86400 - (totalTime-block.timestamp)) {\n            // totalTime = 86400 + block.timestamp;\n            letTheGamesBegin();\n        } else {\n            totalTime += _amount*30;\n        }\n        // // Uncomment when testing is complete\n        uint numerator = keyPrice*100;\n        keyPrice = keyPrice + numerator/10000;\n        // // Uncomment when testing is complete\n\n        // keyPrice = keyPrice + 400;\n        winning = msg.sender;\n        emit keysPurchased(divTracker[msg.sender]._keyBalance, totalKeys, keyPrice, divPool, jackpot, winning);   \n    } \n    function getWinner() public view returns(address) {\n        return winning;\n    }\n    \n    function updateDivvies(address _userAddress) public view returns(uint) {\n        uint tempUserWithdrawAmount;\n        uint tempNumerator;\n        if (totalKeys == 0 ) {\n            tempUserWithdrawAmount = 0;\n        } else {\n            // example to reference, but solidity can't do decimals\n            // // tempUserKeyProportion = divTracker[_userAddress]._keyBalance/totalKeys;\n            // // tempUserWithdrawAmount = tempUserKeyProportion*divPool - divTracker[_userAddress]._withdrawnAmount;\n\n            tempNumerator = divTracker[_userAddress]._keyBalance * divPool;\n            tempUserWithdrawAmount = tempNumerator/totalKeys - divTracker[_userAddress]._withdrawnAmount;  \n        }  \n        return tempUserWithdrawAmount;\n    }\n    \n    function withdrawDivvies() public {\n        address payable to = payable(msg.sender);\n        uint tempUserWithdrawAmount;\n        uint tempNumerator;\n        if (totalKeys == 0 ) {\n            tempUserWithdrawAmount = 0;\n        } else {\n            // example to reference, but solidity can't do decimals\n            // // tempUserKeyProportion = divTracker[_userAddress]._keyBalance/totalKeys;\n            // // tempUserWithdrawAmount = tempUserKeyProportion*divPool - divTracker[_userAddress]._withdrawnAmount;\n\n            tempNumerator = divTracker[msg.sender]._keyBalance * divPool;\n            tempUserWithdrawAmount = tempNumerator/totalKeys - divTracker[msg.sender]._withdrawnAmount;\n            divTracker[msg.sender]._withdrawnAmount += tempUserWithdrawAmount;\n        }  \n        require(tempUserWithdrawAmount > 0, \"You have no divvies to claim\");\n        to.transfer(tempUserWithdrawAmount);\n    }\n\n    function jackpotPayout() public {\n        require(getTimeLeft() == 0, \"game is still in play\");\n        require(jackpot > 0, \"No money in jackpot\");\n        // require(msg.sender == winning, \"you are not the winner\");\n        address payable to = payable(winning);\n        to.transfer(jackpot);\n    }\n\n    function whoWon(address _userAddress) public view returns(address winner){\n        if (getTimeLeft() == 0 && _userAddress == winning) {\n            winner = _userAddress;\n            return winner;\n        }\n    }\n\n}\n\n\n\n",
  "sourcePath": "/home/austin/code/dapps/rugpull/contracts/FomoOE.sol",
  "compiler": {
    "name": "solc",
    "version": "0.8.5+commit.a4f2e591.Emscripten.clang"
  },
  "schemaVersion": "3.4.3",
  "updatedAt": "2021-09-21T15:07:32.896Z",
  "networkType": "ethereum",
  "devdoc": {
    "kind": "dev",
    "methods": {},
    "version": 1
  },
  "userdoc": {
    "kind": "user",
    "methods": {},
    "version": 1
  }
}