{
  "contractName": "FomoOE",
  "abi": [
    {
      "inputs": [],
      "stateMutability": "nonpayable",
      "type": "constructor"
    },
    {
      "anonymous": false,
      "inputs": [
        {
          "indexed": false,
          "internalType": "uint256",
          "name": "_balanceReceived",
          "type": "uint256"
        }
      ],
      "name": "contractBalance",
      "type": "event"
    },
    {
      "anonymous": false,
      "inputs": [
        {
          "indexed": false,
          "internalType": "uint256",
          "name": "keyPrice",
          "type": "uint256"
        }
      ],
      "name": "currentKeyPrice",
      "type": "event"
    },
    {
      "anonymous": false,
      "inputs": [
        {
          "indexed": false,
          "internalType": "uint256",
          "name": "_userKeyBalance",
          "type": "uint256"
        },
        {
          "indexed": false,
          "internalType": "uint256",
          "name": "_totalKeys",
          "type": "uint256"
        },
        {
          "indexed": false,
          "internalType": "uint256",
          "name": "_keyPrice",
          "type": "uint256"
        },
        {
          "indexed": false,
          "internalType": "uint256",
          "name": "_divPool",
          "type": "uint256"
        },
        {
          "indexed": false,
          "internalType": "uint256",
          "name": "_jackpot",
          "type": "uint256"
        },
        {
          "indexed": false,
          "internalType": "address",
          "name": "_winning",
          "type": "address"
        }
      ],
      "name": "keysPurchased",
      "type": "event"
    },
    {
      "anonymous": false,
      "inputs": [
        {
          "indexed": false,
          "internalType": "uint256",
          "name": "_userDivvies",
          "type": "uint256"
        }
      ],
      "name": "userDivvies",
      "type": "event"
    },
    {
      "inputs": [],
      "name": "balanceReceived",
      "outputs": [
        {
          "internalType": "uint256",
          "name": "",
          "type": "uint256"
        }
      ],
      "stateMutability": "view",
      "type": "function",
      "constant": true
    },
    {
      "inputs": [],
      "name": "divPool",
      "outputs": [
        {
          "internalType": "uint256",
          "name": "",
          "type": "uint256"
        }
      ],
      "stateMutability": "view",
      "type": "function",
      "constant": true
    },
    {
      "inputs": [
        {
          "internalType": "address",
          "name": "",
          "type": "address"
        }
      ],
      "name": "divTracker",
      "outputs": [
        {
          "internalType": "uint256",
          "name": "_keyBalance",
          "type": "uint256"
        },
        {
          "internalType": "uint256",
          "name": "_divBalance",
          "type": "uint256"
        },
        {
          "internalType": "uint256",
          "name": "_withdrawnAmount",
          "type": "uint256"
        }
      ],
      "stateMutability": "view",
      "type": "function",
      "constant": true
    },
    {
      "inputs": [],
      "name": "jackpot",
      "outputs": [
        {
          "internalType": "uint256",
          "name": "",
          "type": "uint256"
        }
      ],
      "stateMutability": "view",
      "type": "function",
      "constant": true
    },
    {
      "inputs": [],
      "name": "keyPrice",
      "outputs": [
        {
          "internalType": "uint256",
          "name": "",
          "type": "uint256"
        }
      ],
      "stateMutability": "view",
      "type": "function",
      "constant": true
    },
    {
      "inputs": [],
      "name": "startTime",
      "outputs": [
        {
          "internalType": "uint256",
          "name": "",
          "type": "uint256"
        }
      ],
      "stateMutability": "view",
      "type": "function",
      "constant": true
    },
    {
      "inputs": [],
      "name": "timeLeft",
      "outputs": [
        {
          "internalType": "uint256",
          "name": "",
          "type": "uint256"
        }
      ],
      "stateMutability": "view",
      "type": "function",
      "constant": true
    },
    {
      "inputs": [],
      "name": "totalKeys",
      "outputs": [
        {
          "internalType": "uint256",
          "name": "",
          "type": "uint256"
        }
      ],
      "stateMutability": "view",
      "type": "function",
      "constant": true
    },
    {
      "inputs": [],
      "name": "totalTime",
      "outputs": [
        {
          "internalType": "uint256",
          "name": "",
          "type": "uint256"
        }
      ],
      "stateMutability": "view",
      "type": "function",
      "constant": true
    },
    {
      "inputs": [],
      "name": "getTimeLeft",
      "outputs": [
        {
          "internalType": "uint256",
          "name": "",
          "type": "uint256"
        }
      ],
      "stateMutability": "view",
      "type": "function",
      "constant": true
    },
    {
      "inputs": [
        {
          "internalType": "uint256",
          "name": "_amount",
          "type": "uint256"
        }
      ],
      "name": "purchaseKeys",
      "outputs": [],
      "stateMutability": "payable",
      "type": "function",
      "payable": true
    },
    {
      "inputs": [],
      "name": "getWinner",
      "outputs": [
        {
          "internalType": "address",
          "name": "",
          "type": "address"
        }
      ],
      "stateMutability": "view",
      "type": "function",
      "constant": true
    },
    {
      "inputs": [
        {
          "internalType": "address",
          "name": "_userAddress",
          "type": "address"
        }
      ],
      "name": "updateDivvies",
      "outputs": [
        {
          "internalType": "uint256",
          "name": "",
          "type": "uint256"
        }
      ],
      "stateMutability": "view",
      "type": "function",
      "constant": true
    },
    {
      "inputs": [],
      "name": "withdrawDivvies",
      "outputs": [],
      "stateMutability": "nonpayable",
      "type": "function"
    },
    {
      "inputs": [],
      "name": "jackpotPayout",
      "outputs": [],
      "stateMutability": "nonpayable",
      "type": "function"
    }
  ],
  "bytecode": "0x6080604052606460065534801561001557600080fd5b5033600360006101000a81548173ffffffffffffffffffffffffffffffffffffffff021916908373ffffffffffffffffffffffffffffffffffffffff16021790555061104b806100666000396000f3fe6080604052600436106100e85760003560e01c80636b31ee011161008a5780638e7ea5b2116100595780638e7ea5b2146102b7578063acf7084a146102e2578063c7e284b81461031f578063d20bff021461034a576100e8565b80636b31ee011461021a57806378c3171f1461024557806378e97925146102615780637c2be5dd1461028c576100e8565b8063488bdabc116100c6578063488bdabc1461015a57806352a90c421461018557806355fcbbff146101b057806358533e0a146101ef576100e8565b806310e56973146100ed5780631300a6d1146101185780631ebe585d14610143575b600080fd5b3480156100f957600080fd5b50610102610361565b60405161010f9190610ca2565b60405180910390f35b34801561012457600080fd5b5061012d610367565b60405161013a9190610ca2565b60405180910390f35b34801561014f57600080fd5b5061015861036d565b005b34801561016657600080fd5b5061016f610521565b60405161017c9190610ca2565b60405180910390f35b34801561019157600080fd5b5061019a610527565b6040516101a79190610ca2565b60405180910390f35b3480156101bc57600080fd5b506101d760048036038101906101d29190610ac0565b61052d565b6040516101e693929190610cbd565b60405180910390f35b3480156101fb57600080fd5b50610204610557565b6040516102119190610ca2565b60405180910390f35b34801561022657600080fd5b5061022f61055d565b60405161023c9190610ca2565b60405180910390f35b61025f600480360381019061025a9190610aed565b610563565b005b34801561026d57600080fd5b5061027661083a565b6040516102839190610ca2565b60405180910390f35b34801561029857600080fd5b506102a1610840565b6040516102ae9190610ca2565b60405180910390f35b3480156102c357600080fd5b506102cc610846565b6040516102d99190610be7565b60405180910390f35b3480156102ee57600080fd5b5061030960048036038101906103049190610ac0565b610870565b6040516103169190610ca2565b60405180910390f35b34801561032b57600080fd5b50610334610942565b6040516103419190610ca2565b60405180910390f35b34801561035657600080fd5b5061035f61097f565b005b60065481565b60025481565b6000339050600080600060075414156103895760009150610492565b600854600a60003373ffffffffffffffffffffffffffffffffffffffff1673ffffffffffffffffffffffffffffffffffffffff168152602001908152602001600020600001546103d99190610ded565b9050600a60003373ffffffffffffffffffffffffffffffffffffffff1673ffffffffffffffffffffffffffffffffffffffff168152602001908152602001600020600201546007548261042c9190610dbc565b6104369190610e47565b915081600a60003373ffffffffffffffffffffffffffffffffffffffff1673ffffffffffffffffffffffffffffffffffffffff168152602001908152602001600020600201600082825461048a9190610d66565b925050819055505b600082116104d5576040517f08c379a00000000000000000000000000000000000000000000000000000000081526004016104cc90610c62565b60405180910390fd5b8273ffffffffffffffffffffffffffffffffffffffff166108fc839081150290604051600060405180830381858888f1935050505015801561051b573d6000803e3d6000fd5b50505050565b60075481565b60055481565b600a6020528060005260406000206000915090508060000154908060010154908060020154905083565b60015481565b60095481565b806006546105719190610ded565b34146105b2576040517f08c379a00000000000000000000000000000000000000000000000000000000081526004016105a990610c22565b60405180910390fd5b600060075414156105c6576105c5610a81565b5b60006105d0610942565b11610610576040517f08c379a000000000000000000000000000000000000000000000000000000000815260040161060790610c42565b60405180910390fd5b600060023461061f9190610dbc565b905080600960008282546106339190610d66565b9250508190555080346106469190610e47565b600860008282546106579190610d66565b9250508190555081600a60003373ffffffffffffffffffffffffffffffffffffffff1673ffffffffffffffffffffffffffffffffffffffff16815260200190815260200160002060000160008282546106b09190610d66565b9250508190555081600760008282546106c99190610d66565b92505081905550426001546106de9190610e47565b620151806106ec9190610e47565b601e836106f99190610ded565b111561070c57610707610a81565b610732565b601e826107199190610ded565b6001600082825461072a9190610d66565b925050819055505b6101906006546107429190610d66565b60068190555033600460006101000a81548173ffffffffffffffffffffffffffffffffffffffff021916908373ffffffffffffffffffffffffffffffffffffffff1602179055507ff18df1d3dbefaeb22f0e4efe18d279a090ed7b0a9be1c27b33cda2f677ca67d4600a60003373ffffffffffffffffffffffffffffffffffffffff1673ffffffffffffffffffffffffffffffffffffffff16815260200190815260200160002060000154600754600654600854600954600460009054906101000a900473ffffffffffffffffffffffffffffffffffffffff1660405161082e96959493929190610cf4565b60405180910390a15050565b60005481565b60085481565b6000600460009054906101000a900473ffffffffffffffffffffffffffffffffffffffff16905090565b60008060008060075414156108885760009150610938565b600854600a60008673ffffffffffffffffffffffffffffffffffffffff1673ffffffffffffffffffffffffffffffffffffffff168152602001908152602001600020600001546108d89190610ded565b9050600a60008573ffffffffffffffffffffffffffffffffffffffff1673ffffffffffffffffffffffffffffffffffffffff168152602001908152602001600020600201546007548261092b9190610dbc565b6109359190610e47565b91505b8192505050919050565b60008060075414156109595762015180905061097c565b426001541061097757426001546109709190610e47565b905061097c565b600090505b90565b6000610989610942565b146109c9576040517f08c379a00000000000000000000000000000000000000000000000000000000081526004016109c090610c02565b60405180910390fd5b600060095411610a0e576040517f08c379a0000000000000000000000000000000000000000000000000000000008152600401610a0590610c82565b60405180910390fd5b6000600460009054906101000a900473ffffffffffffffffffffffffffffffffffffffff1690508073ffffffffffffffffffffffffffffffffffffffff166108fc6009549081150290604051600060405180830381858888f19350505050158015610a7d573d6000803e3d6000fd5b5050565b603c42610a8e9190610d66565b600181905550565b600081359050610aa581610fe7565b92915050565b600081359050610aba81610ffe565b92915050565b600060208284031215610ad657610ad5610f15565b5b6000610ae484828501610a96565b91505092915050565b600060208284031215610b0357610b02610f15565b5b6000610b1184828501610aab565b91505092915050565b610b2381610e7b565b82525050565b6000610b36601583610d55565b9150610b4182610f1a565b602082019050919050565b6000610b59601d83610d55565b9150610b6482610f43565b602082019050919050565b6000610b7c601983610d55565b9150610b8782610f6c565b602082019050919050565b6000610b9f601c83610d55565b9150610baa82610f95565b602082019050919050565b6000610bc2601383610d55565b9150610bcd82610fbe565b602082019050919050565b610be181610ead565b82525050565b6000602082019050610bfc6000830184610b1a565b92915050565b60006020820190508181036000830152610c1b81610b29565b9050919050565b60006020820190508181036000830152610c3b81610b4c565b9050919050565b60006020820190508181036000830152610c5b81610b6f565b9050919050565b60006020820190508181036000830152610c7b81610b92565b9050919050565b60006020820190508181036000830152610c9b81610bb5565b9050919050565b6000602082019050610cb76000830184610bd8565b92915050565b6000606082019050610cd26000830186610bd8565b610cdf6020830185610bd8565b610cec6040830184610bd8565b949350505050565b600060c082019050610d096000830189610bd8565b610d166020830188610bd8565b610d236040830187610bd8565b610d306060830186610bd8565b610d3d6080830185610bd8565b610d4a60a0830184610b1a565b979650505050505050565b600082825260208201905092915050565b6000610d7182610ead565b9150610d7c83610ead565b9250827fffffffffffffffffffffffffffffffffffffffffffffffffffffffffffffffff03821115610db157610db0610eb7565b5b828201905092915050565b6000610dc782610ead565b9150610dd283610ead565b925082610de257610de1610ee6565b5b828204905092915050565b6000610df882610ead565b9150610e0383610ead565b9250817fffffffffffffffffffffffffffffffffffffffffffffffffffffffffffffffff0483118215151615610e3c57610e3b610eb7565b5b828202905092915050565b6000610e5282610ead565b9150610e5d83610ead565b925082821015610e7057610e6f610eb7565b5b828203905092915050565b6000610e8682610e8d565b9050919050565b600073ffffffffffffffffffffffffffffffffffffffff82169050919050565b6000819050919050565b7f4e487b7100000000000000000000000000000000000000000000000000000000600052601160045260246000fd5b7f4e487b7100000000000000000000000000000000000000000000000000000000600052601260045260246000fd5b600080fd5b7f67616d65206973207374696c6c20696e20706c61790000000000000000000000600082015250565b7f6e6f7420656e6f75676820746f2062757920746865206b65792873292e000000600082015250565b7f746865726520697320616c726561647920612077696e6e657200000000000000600082015250565b7f596f752068617665206e6f206469767669657320746f20636c61696d00000000600082015250565b7f4e6f206d6f6e657920696e206a61636b706f7400000000000000000000000000600082015250565b610ff081610e7b565b8114610ffb57600080fd5b50565b61100781610ead565b811461101257600080fd5b5056fea2646970667358221220f60a89e5307bf78d6c2dce0151a22b5de5373939a58ed3a211784c32c173a70f64736f6c63430008050033",
  "immutableReferences": {},
  "source": "//SPDX-License-Identifier: MIT\n\npragma solidity ^0.8.4;\n\ncontract FomoOE {\n    uint public startTime;\n    uint public totalTime;\n    uint public timeLeft;\n    address owner;\n    address winning;\n    uint public balanceReceived;\n    uint public keyPrice = 100 wei;\n    // // Uncomment when testing is complete\n    // uint public keyPrice = 3366666666666 wei;\n    // // Uncomment when testing is complete\n    uint public totalKeys;\n    uint public divPool;\n    uint public jackpot;\n\n    struct Divvies {\n        uint _keyBalance;\n        uint _divBalance;\n        uint _withdrawnAmount;\n    }\n\n    mapping(address => Divvies) public divTracker;\n    event keysPurchased(uint _userKeyBalance, uint _totalKeys, uint _keyPrice, uint _divPool, uint _jackpot, address _winning);\n    event userDivvies(uint _userDivvies);\n    event contractBalance(uint _balanceReceived);\n    event currentKeyPrice(uint keyPrice);\n    \n    constructor() {\n        owner = msg.sender;\n        \n    }\n    function letTheGamesBegin() private {\n        // totalTime = block.timestamp + 86400;\n        totalTime = block.timestamp + 60;\n    }\n    function getTimeLeft() public view returns(uint) {\n        if (totalKeys == 0) {\n            return 86400;\n        }\n        if (totalTime >= block.timestamp) {\n            return totalTime - block.timestamp;\n        } else {\n            return 0;\n        }\n    }\n    function purchaseKeys(uint _amount) public payable {\n        require(msg.value == keyPrice*_amount, \"not enough to buy the key(s).\");\n        if (totalKeys == 0) {\n            letTheGamesBegin();\n        }\n        require(getTimeLeft() > 0, \"there is already a winner\");\n        uint floor = msg.value/2;\n        jackpot += floor;\n        divPool += msg.value - floor; \n        // jackpot += msg.value/2;\n        divTracker[msg.sender]._keyBalance += _amount;\n        totalKeys += _amount;\n        if (_amount*30 > 86400 - (totalTime-block.timestamp)) {\n            // totalTime = 86400 + block.timestamp;\n            letTheGamesBegin();\n        } else {\n            totalTime += _amount*30;\n        }\n        // // Uncomment when testing is complete\n        // uint numerator = keyPrice*100;\n        // keyPrice = keyPrice + numerator/10000;\n        // // Uncomment when testing is complete\n\n        keyPrice = keyPrice + 400;\n        winning = msg.sender;\n        emit keysPurchased(divTracker[msg.sender]._keyBalance, totalKeys, keyPrice, divPool, jackpot, winning);   \n    } \n    function getWinner() public view returns(address) {\n        return winning;\n    }\n    \n    function updateDivvies(address _userAddress) public view returns(uint) {\n        uint tempUserWithdrawAmount;\n        uint tempNumerator;\n        if (totalKeys == 0 ) {\n            tempUserWithdrawAmount = 0;\n        } else {\n            // example to reference, but solidity can't do decimals\n            // // tempUserKeyProportion = divTracker[_userAddress]._keyBalance/totalKeys;\n            // // tempUserWithdrawAmount = tempUserKeyProportion*divPool - divTracker[_userAddress]._withdrawnAmount;\n\n            tempNumerator = divTracker[_userAddress]._keyBalance * divPool;\n            tempUserWithdrawAmount = tempNumerator/totalKeys - divTracker[_userAddress]._withdrawnAmount;  \n        }  \n        return tempUserWithdrawAmount;\n    }\n    \n    function withdrawDivvies() public {\n        address payable to = payable(msg.sender);\n        uint tempUserWithdrawAmount;\n        uint tempNumerator;\n        if (totalKeys == 0 ) {\n            tempUserWithdrawAmount = 0;\n        } else {\n            // example to reference, but solidity can't do decimals\n            // // tempUserKeyProportion = divTracker[_userAddress]._keyBalance/totalKeys;\n            // // tempUserWithdrawAmount = tempUserKeyProportion*divPool - divTracker[_userAddress]._withdrawnAmount;\n\n            tempNumerator = divTracker[msg.sender]._keyBalance * divPool;\n            tempUserWithdrawAmount = tempNumerator/totalKeys - divTracker[msg.sender]._withdrawnAmount;\n            divTracker[msg.sender]._withdrawnAmount += tempUserWithdrawAmount;\n        }  \n        require(tempUserWithdrawAmount > 0, \"You have no divvies to claim\");\n        to.transfer(tempUserWithdrawAmount);\n    }\n\n    function jackpotPayout() public {\n        require(getTimeLeft() == 0, \"game is still in play\");\n        require(jackpot > 0, \"No money in jackpot\");\n        // require(msg.sender == winning, \"you are not the winner\");\n        address payable to = payable(winning);\n        to.transfer(jackpot);\n    }\n\n}\n\n\n\n",
  "sourcePath": "/Volumes/Projects2/rugpull/contracts/FomoOE.sol",
  "compiler": {
    "name": "solc",
    "version": "0.8.5+commit.a4f2e591.Emscripten.clang"
  },
  "schemaVersion": "3.4.2",
  "updatedAt": "2021-09-08T14:42:35.367Z",
  "networkType": "ethereum",
  "devdoc": {
    "kind": "dev",
    "methods": {},
    "version": 1
  },
  "userdoc": {
    "kind": "user",
    "methods": {},
    "version": 1
  }
}