{
  "contractName": "FomoOE",
  "abi": [
    {
      "inputs": [],
      "stateMutability": "nonpayable",
      "type": "constructor"
    },
    {
      "anonymous": false,
      "inputs": [
        {
          "indexed": false,
          "internalType": "uint256",
          "name": "_balanceReceived",
          "type": "uint256"
        }
      ],
      "name": "contractBalance",
      "type": "event"
    },
    {
      "anonymous": false,
      "inputs": [
        {
          "indexed": false,
          "internalType": "uint256",
          "name": "keyPrice",
          "type": "uint256"
        }
      ],
      "name": "currentKeyPrice",
      "type": "event"
    },
    {
      "anonymous": false,
      "inputs": [
        {
          "indexed": false,
          "internalType": "uint256",
          "name": "_userKeyBalance",
          "type": "uint256"
        },
        {
          "indexed": false,
          "internalType": "uint256",
          "name": "_totalKeys",
          "type": "uint256"
        },
        {
          "indexed": false,
          "internalType": "uint256",
          "name": "_keyPrice",
          "type": "uint256"
        },
        {
          "indexed": false,
          "internalType": "uint256",
          "name": "_divPool",
          "type": "uint256"
        },
        {
          "indexed": false,
          "internalType": "uint256",
          "name": "_jackpot",
          "type": "uint256"
        },
        {
          "indexed": false,
          "internalType": "address",
          "name": "_winning",
          "type": "address"
        }
      ],
      "name": "keysPurchased",
      "type": "event"
    },
    {
      "anonymous": false,
      "inputs": [
        {
          "indexed": false,
          "internalType": "uint256",
          "name": "_userDivvies",
          "type": "uint256"
        }
      ],
      "name": "userDivvies",
      "type": "event"
    },
    {
      "inputs": [],
      "name": "balanceReceived",
      "outputs": [
        {
          "internalType": "uint256",
          "name": "",
          "type": "uint256"
        }
      ],
      "stateMutability": "view",
      "type": "function",
      "constant": true
    },
    {
      "inputs": [],
      "name": "divPool",
      "outputs": [
        {
          "internalType": "uint256",
          "name": "",
          "type": "uint256"
        }
      ],
      "stateMutability": "view",
      "type": "function",
      "constant": true
    },
    {
      "inputs": [
        {
          "internalType": "address",
          "name": "",
          "type": "address"
        }
      ],
      "name": "divTracker",
      "outputs": [
        {
          "internalType": "uint256",
          "name": "_keyBalance",
          "type": "uint256"
        },
        {
          "internalType": "uint256",
          "name": "_divBalance",
          "type": "uint256"
        },
        {
          "internalType": "uint256",
          "name": "_withdrawnAmount",
          "type": "uint256"
        }
      ],
      "stateMutability": "view",
      "type": "function",
      "constant": true
    },
    {
      "inputs": [],
      "name": "jackpot",
      "outputs": [
        {
          "internalType": "uint256",
          "name": "",
          "type": "uint256"
        }
      ],
      "stateMutability": "view",
      "type": "function",
      "constant": true
    },
    {
      "inputs": [],
      "name": "keyPrice",
      "outputs": [
        {
          "internalType": "uint256",
          "name": "",
          "type": "uint256"
        }
      ],
      "stateMutability": "view",
      "type": "function",
      "constant": true
    },
    {
      "inputs": [],
      "name": "startTime",
      "outputs": [
        {
          "internalType": "uint256",
          "name": "",
          "type": "uint256"
        }
      ],
      "stateMutability": "view",
      "type": "function",
      "constant": true
    },
    {
      "inputs": [],
      "name": "timeLeft",
      "outputs": [
        {
          "internalType": "uint256",
          "name": "",
          "type": "uint256"
        }
      ],
      "stateMutability": "view",
      "type": "function",
      "constant": true
    },
    {
      "inputs": [],
      "name": "totalKeys",
      "outputs": [
        {
          "internalType": "uint256",
          "name": "",
          "type": "uint256"
        }
      ],
      "stateMutability": "view",
      "type": "function",
      "constant": true
    },
    {
      "inputs": [],
      "name": "totalTime",
      "outputs": [
        {
          "internalType": "uint256",
          "name": "",
          "type": "uint256"
        }
      ],
      "stateMutability": "view",
      "type": "function",
      "constant": true
    },
    {
      "inputs": [],
      "name": "restartGame",
      "outputs": [],
      "stateMutability": "nonpayable",
      "type": "function"
    },
    {
      "inputs": [],
      "name": "getTimeLeft",
      "outputs": [
        {
          "internalType": "uint256",
          "name": "",
          "type": "uint256"
        }
      ],
      "stateMutability": "view",
      "type": "function",
      "constant": true
    },
    {
      "inputs": [
        {
          "internalType": "uint256",
          "name": "_amount",
          "type": "uint256"
        }
      ],
      "name": "purchaseKeys",
      "outputs": [],
      "stateMutability": "payable",
      "type": "function",
      "payable": true
    },
    {
      "inputs": [],
      "name": "getWinner",
      "outputs": [
        {
          "internalType": "address",
          "name": "",
          "type": "address"
        }
      ],
      "stateMutability": "view",
      "type": "function",
      "constant": true
    },
    {
      "inputs": [
        {
          "internalType": "address",
          "name": "_userAddress",
          "type": "address"
        }
      ],
      "name": "updateDivvies",
      "outputs": [
        {
          "internalType": "uint256",
          "name": "",
          "type": "uint256"
        }
      ],
      "stateMutability": "view",
      "type": "function",
      "constant": true
    },
    {
      "inputs": [],
      "name": "withdrawDivvies",
      "outputs": [],
      "stateMutability": "nonpayable",
      "type": "function"
    },
    {
      "inputs": [],
      "name": "jackpotPayout",
      "outputs": [],
      "stateMutability": "nonpayable",
      "type": "function"
    }
  ],
  "bytecode": "0x6080604052606460065534801561001557600080fd5b5033600360006101000a81548173ffffffffffffffffffffffffffffffffffffffff021916908373ffffffffffffffffffffffffffffffffffffffff1602179055506110c1806100666000396000f3fe6080604052600436106100f35760003560e01c806378c3171f1161008a5780638e7ea5b2116100595780638e7ea5b2146102d9578063acf7084a14610304578063c7e284b814610341578063d20bff021461036c576100f3565b806378c3171f1461025057806378e979251461026c5780637c2be5dd146102975780638d25af04146102c2576100f3565b806352a90c42116100c657806352a90c421461019057806355fcbbff146101bb57806358533e0a146101fa5780636b31ee0114610225576100f3565b806310e56973146100f85780631300a6d1146101235780631ebe585d1461014e578063488bdabc14610165575b600080fd5b34801561010457600080fd5b5061010d610383565b60405161011a9190610d18565b60405180910390f35b34801561012f57600080fd5b50610138610389565b6040516101459190610d18565b60405180910390f35b34801561015a57600080fd5b5061016361038f565b005b34801561017157600080fd5b5061017a610543565b6040516101879190610d18565b60405180910390f35b34801561019c57600080fd5b506101a5610549565b6040516101b29190610d18565b60405180910390f35b3480156101c757600080fd5b506101e260048036038101906101dd9190610b36565b61054f565b6040516101f193929190610d33565b60405180910390f35b34801561020657600080fd5b5061020f610579565b60405161021c9190610d18565b60405180910390f35b34801561023157600080fd5b5061023a61057f565b6040516102479190610d18565b60405180910390f35b61026a60048036038101906102659190610b63565b610585565b005b34801561027857600080fd5b5061028161085c565b60405161028e9190610d18565b60405180910390f35b3480156102a357600080fd5b506102ac610862565b6040516102b99190610d18565b60405180910390f35b3480156102ce57600080fd5b506102d7610868565b005b3480156102e557600080fd5b506102ee6108bc565b6040516102fb9190610c5d565b60405180910390f35b34801561031057600080fd5b5061032b60048036038101906103269190610b36565b6108e6565b6040516103389190610d18565b60405180910390f35b34801561034d57600080fd5b506103566109b8565b6040516103639190610d18565b60405180910390f35b34801561037857600080fd5b506103816109f5565b005b60065481565b60025481565b6000339050600080600060075414156103ab57600091506104b4565b600854600a60003373ffffffffffffffffffffffffffffffffffffffff1673ffffffffffffffffffffffffffffffffffffffff168152602001908152602001600020600001546103fb9190610e63565b9050600a60003373ffffffffffffffffffffffffffffffffffffffff1673ffffffffffffffffffffffffffffffffffffffff168152602001908152602001600020600201546007548261044e9190610e32565b6104589190610ebd565b915081600a60003373ffffffffffffffffffffffffffffffffffffffff1673ffffffffffffffffffffffffffffffffffffffff16815260200190815260200160002060020160008282546104ac9190610ddc565b925050819055505b600082116104f7576040517f08c379a00000000000000000000000000000000000000000000000000000000081526004016104ee90610cd8565b60405180910390fd5b8273ffffffffffffffffffffffffffffffffffffffff166108fc839081150290604051600060405180830381858888f1935050505015801561053d573d6000803e3d6000fd5b50505050565b60075481565b60055481565b600a6020528060005260406000206000915090508060000154908060010154908060020154905083565b60015481565b60095481565b806006546105939190610e63565b34146105d4576040517f08c379a00000000000000000000000000000000000000000000000000000000081526004016105cb90610c98565b60405180910390fd5b600060075414156105e8576105e7610af7565b5b60006105f26109b8565b11610632576040517f08c379a000000000000000000000000000000000000000000000000000000000815260040161062990610cb8565b60405180910390fd5b60006002346106419190610e32565b905080600960008282546106559190610ddc565b9250508190555080346106689190610ebd565b600860008282546106799190610ddc565b9250508190555081600a60003373ffffffffffffffffffffffffffffffffffffffff1673ffffffffffffffffffffffffffffffffffffffff16815260200190815260200160002060000160008282546106d29190610ddc565b9250508190555081600760008282546106eb9190610ddc565b92505081905550426001546107009190610ebd565b6201518061070e9190610ebd565b601e8361071b9190610e63565b111561072e57610729610af7565b610754565b601e8261073b9190610e63565b6001600082825461074c9190610ddc565b925050819055505b6101906006546107649190610ddc565b60068190555033600460006101000a81548173ffffffffffffffffffffffffffffffffffffffff021916908373ffffffffffffffffffffffffffffffffffffffff1602179055507ff18df1d3dbefaeb22f0e4efe18d279a090ed7b0a9be1c27b33cda2f677ca67d4600a60003373ffffffffffffffffffffffffffffffffffffffff1673ffffffffffffffffffffffffffffffffffffffff16815260200190815260200160002060000154600754600654600854600954600460009054906101000a900473ffffffffffffffffffffffffffffffffffffffff1660405161085096959493929190610d6a565b60405180910390a15050565b60005481565b60085481565b60006108726109b8565b146108b2576040517f08c379a00000000000000000000000000000000000000000000000000000000081526004016108a990610c78565b60405180910390fd5b6108ba610af7565b565b6000600460009054906101000a900473ffffffffffffffffffffffffffffffffffffffff16905090565b60008060008060075414156108fe57600091506109ae565b600854600a60008673ffffffffffffffffffffffffffffffffffffffff1673ffffffffffffffffffffffffffffffffffffffff1681526020019081526020016000206000015461094e9190610e63565b9050600a60008573ffffffffffffffffffffffffffffffffffffffff1673ffffffffffffffffffffffffffffffffffffffff16815260200190815260200160002060020154600754826109a19190610e32565b6109ab9190610ebd565b91505b8192505050919050565b60008060075414156109cf576201518090506109f2565b42600154106109ed57426001546109e69190610ebd565b90506109f2565b600090505b90565b60006109ff6109b8565b14610a3f576040517f08c379a0000000000000000000000000000000000000000000000000000000008152600401610a3690610c78565b60405180910390fd5b600060095411610a84576040517f08c379a0000000000000000000000000000000000000000000000000000000008152600401610a7b90610cf8565b60405180910390fd5b6000600460009054906101000a900473ffffffffffffffffffffffffffffffffffffffff1690508073ffffffffffffffffffffffffffffffffffffffff166108fc6009549081150290604051600060405180830381858888f19350505050158015610af3573d6000803e3d6000fd5b5050565b603c42610b049190610ddc565b600181905550565b600081359050610b1b8161105d565b92915050565b600081359050610b3081611074565b92915050565b600060208284031215610b4c57610b4b610f8b565b5b6000610b5a84828501610b0c565b91505092915050565b600060208284031215610b7957610b78610f8b565b5b6000610b8784828501610b21565b91505092915050565b610b9981610ef1565b82525050565b6000610bac601583610dcb565b9150610bb782610f90565b602082019050919050565b6000610bcf601d83610dcb565b9150610bda82610fb9565b602082019050919050565b6000610bf2601983610dcb565b9150610bfd82610fe2565b602082019050919050565b6000610c15601c83610dcb565b9150610c208261100b565b602082019050919050565b6000610c38601383610dcb565b9150610c4382611034565b602082019050919050565b610c5781610f23565b82525050565b6000602082019050610c726000830184610b90565b92915050565b60006020820190508181036000830152610c9181610b9f565b9050919050565b60006020820190508181036000830152610cb181610bc2565b9050919050565b60006020820190508181036000830152610cd181610be5565b9050919050565b60006020820190508181036000830152610cf181610c08565b9050919050565b60006020820190508181036000830152610d1181610c2b565b9050919050565b6000602082019050610d2d6000830184610c4e565b92915050565b6000606082019050610d486000830186610c4e565b610d556020830185610c4e565b610d626040830184610c4e565b949350505050565b600060c082019050610d7f6000830189610c4e565b610d8c6020830188610c4e565b610d996040830187610c4e565b610da66060830186610c4e565b610db36080830185610c4e565b610dc060a0830184610b90565b979650505050505050565b600082825260208201905092915050565b6000610de782610f23565b9150610df283610f23565b9250827fffffffffffffffffffffffffffffffffffffffffffffffffffffffffffffffff03821115610e2757610e26610f2d565b5b828201905092915050565b6000610e3d82610f23565b9150610e4883610f23565b925082610e5857610e57610f5c565b5b828204905092915050565b6000610e6e82610f23565b9150610e7983610f23565b9250817fffffffffffffffffffffffffffffffffffffffffffffffffffffffffffffffff0483118215151615610eb257610eb1610f2d565b5b828202905092915050565b6000610ec882610f23565b9150610ed383610f23565b925082821015610ee657610ee5610f2d565b5b828203905092915050565b6000610efc82610f03565b9050919050565b600073ffffffffffffffffffffffffffffffffffffffff82169050919050565b6000819050919050565b7f4e487b7100000000000000000000000000000000000000000000000000000000600052601160045260246000fd5b7f4e487b7100000000000000000000000000000000000000000000000000000000600052601260045260246000fd5b600080fd5b7f67616d65206973207374696c6c20696e20706c61790000000000000000000000600082015250565b7f6e6f7420656e6f75676820746f2062757920746865206b65792873292e000000600082015250565b7f746865726520697320616c726561647920612077696e6e657200000000000000600082015250565b7f596f752068617665206e6f206469767669657320746f20636c61696d00000000600082015250565b7f4e6f206d6f6e657920696e206a61636b706f7400000000000000000000000000600082015250565b61106681610ef1565b811461107157600080fd5b50565b61107d81610f23565b811461108857600080fd5b5056fea2646970667358221220c61fb5f5d8fdb4db434a6224b6a7d707a28d295d1c5a761520d50457d6765fcd64736f6c63430008050033",
  "immutableReferences": {},
  "source": "//SPDX-License-Identifier: MIT\n\npragma solidity ^0.8.4;\n\ncontract FomoOE {\n    uint public startTime;\n    uint public totalTime;\n    uint public timeLeft;\n    address owner;\n    address winning;\n    uint public balanceReceived;\n    uint public keyPrice = 100 wei;\n    // // Uncomment when testing is complete\n    // uint public keyPrice = 3366666666666 wei;\n    // // Uncomment when testing is complete\n    uint public totalKeys;\n    uint public divPool;\n    uint public jackpot;\n\n    struct Divvies {\n        uint _keyBalance;\n        uint _divBalance;\n        uint _withdrawnAmount;\n    }\n\n    mapping(address => Divvies) public divTracker;\n    event keysPurchased(uint _userKeyBalance, uint _totalKeys, uint _keyPrice, uint _divPool, uint _jackpot, address _winning);\n    event userDivvies(uint _userDivvies);\n    event contractBalance(uint _balanceReceived);\n    event currentKeyPrice(uint keyPrice);\n    \n    constructor() {\n        owner = msg.sender;\n        \n    }\n    function restartGame() public {\n        require(getTimeLeft() == 0, \"game is still in play\");\n        letTheGamesBegin();\n    }\n    function letTheGamesBegin() private {\n        // totalTime = block.timestamp + 86400;\n        totalTime = block.timestamp + 60;\n    }\n    function getTimeLeft() public view returns(uint) {\n        if (totalKeys == 0) {\n            return 86400;\n        }\n        if (totalTime >= block.timestamp) {\n            return totalTime - block.timestamp;\n        } else {\n            return 0;\n        }\n    }\n    function purchaseKeys(uint _amount) public payable {\n        require(msg.value == keyPrice*_amount, \"not enough to buy the key(s).\");\n        if (totalKeys == 0) {\n            letTheGamesBegin();\n        }\n        require(getTimeLeft() > 0, \"there is already a winner\");\n        uint floor = msg.value/2;\n        jackpot += floor;\n        divPool += msg.value - floor; \n        // jackpot += msg.value/2;\n        divTracker[msg.sender]._keyBalance += _amount;\n        totalKeys += _amount;\n        if (_amount*30 > 86400 - (totalTime-block.timestamp)) {\n            // totalTime = 86400 + block.timestamp;\n            letTheGamesBegin();\n        } else {\n            totalTime += _amount*30;\n        }\n        // // Uncomment when testing is complete\n        // uint numerator = keyPrice*100;\n        // keyPrice = keyPrice + numerator/10000;\n        // // Uncomment when testing is complete\n\n        keyPrice = keyPrice + 400;\n        winning = msg.sender;\n        emit keysPurchased(divTracker[msg.sender]._keyBalance, totalKeys, keyPrice, divPool, jackpot, winning);   \n    } \n    function getWinner() public view returns(address) {\n        return winning;\n    }\n    \n    function updateDivvies(address _userAddress) public view returns(uint) {\n        uint tempUserWithdrawAmount;\n        uint tempNumerator;\n        if (totalKeys == 0 ) {\n            tempUserWithdrawAmount = 0;\n        } else {\n            // example to reference, but solidity can't do decimals\n            // // tempUserKeyProportion = divTracker[_userAddress]._keyBalance/totalKeys;\n            // // tempUserWithdrawAmount = tempUserKeyProportion*divPool - divTracker[_userAddress]._withdrawnAmount;\n\n            tempNumerator = divTracker[_userAddress]._keyBalance * divPool;\n            tempUserWithdrawAmount = tempNumerator/totalKeys - divTracker[_userAddress]._withdrawnAmount;  \n        }  \n        return tempUserWithdrawAmount;\n    }\n    \n    function withdrawDivvies() public {\n        address payable to = payable(msg.sender);\n        uint tempUserWithdrawAmount;\n        uint tempNumerator;\n        if (totalKeys == 0 ) {\n            tempUserWithdrawAmount = 0;\n        } else {\n            // example to reference, but solidity can't do decimals\n            // // tempUserKeyProportion = divTracker[_userAddress]._keyBalance/totalKeys;\n            // // tempUserWithdrawAmount = tempUserKeyProportion*divPool - divTracker[_userAddress]._withdrawnAmount;\n\n            tempNumerator = divTracker[msg.sender]._keyBalance * divPool;\n            tempUserWithdrawAmount = tempNumerator/totalKeys - divTracker[msg.sender]._withdrawnAmount;\n            divTracker[msg.sender]._withdrawnAmount += tempUserWithdrawAmount;\n        }  \n        require(tempUserWithdrawAmount > 0, \"You have no divvies to claim\");\n        to.transfer(tempUserWithdrawAmount);\n    }\n\n    function jackpotPayout() public {\n        require(getTimeLeft() == 0, \"game is still in play\");\n        require(jackpot > 0, \"No money in jackpot\");\n        // require(msg.sender == winning, \"you are not the winner\");\n        address payable to = payable(winning);\n        to.transfer(jackpot);\n    }\n\n}\n\n\n\n",
  "sourcePath": "/home/austin/Desktop/solidity/rugpull/contracts/FomoOE.sol",
  "compiler": {
    "name": "solc",
    "version": "0.8.5+commit.a4f2e591.Emscripten.clang"
  },
  "schemaVersion": "3.4.2",
  "updatedAt": "2021-09-08T15:41:38.531Z",
  "networkType": "ethereum",
  "devdoc": {
    "kind": "dev",
    "methods": {},
    "version": 1
  },
  "userdoc": {
    "kind": "user",
    "methods": {},
    "version": 1
  }
}