{
  "contractName": "FomoOE",
  "abi": [
    {
      "inputs": [],
      "stateMutability": "nonpayable",
      "type": "constructor"
    },
    {
      "anonymous": false,
      "inputs": [
        {
          "indexed": false,
          "internalType": "uint256",
          "name": "_balanceReceived",
          "type": "uint256"
        }
      ],
      "name": "contractBalance",
      "type": "event"
    },
    {
      "anonymous": false,
      "inputs": [
        {
          "indexed": false,
          "internalType": "uint256",
          "name": "keyPrice",
          "type": "uint256"
        }
      ],
      "name": "currentKeyPrice",
      "type": "event"
    },
    {
      "anonymous": false,
      "inputs": [
        {
          "indexed": false,
          "internalType": "uint256",
          "name": "_userKeyBalance",
          "type": "uint256"
        },
        {
          "indexed": false,
          "internalType": "uint256",
          "name": "_totalKeys",
          "type": "uint256"
        },
        {
          "indexed": false,
          "internalType": "uint256",
          "name": "_keyPrice",
          "type": "uint256"
        },
        {
          "indexed": false,
          "internalType": "uint256",
          "name": "_divPool",
          "type": "uint256"
        },
        {
          "indexed": false,
          "internalType": "uint256",
          "name": "_jackpot",
          "type": "uint256"
        },
        {
          "indexed": false,
          "internalType": "address",
          "name": "_winner",
          "type": "address"
        }
      ],
      "name": "keysPurchased",
      "type": "event"
    },
    {
      "anonymous": false,
      "inputs": [
        {
          "indexed": false,
          "internalType": "uint256",
          "name": "_userDivvies",
          "type": "uint256"
        }
      ],
      "name": "userDivvies",
      "type": "event"
    },
    {
      "inputs": [],
      "name": "balanceReceived",
      "outputs": [
        {
          "internalType": "uint256",
          "name": "",
          "type": "uint256"
        }
      ],
      "stateMutability": "view",
      "type": "function",
      "constant": true
    },
    {
      "inputs": [],
      "name": "divPool",
      "outputs": [
        {
          "internalType": "uint256",
          "name": "",
          "type": "uint256"
        }
      ],
      "stateMutability": "view",
      "type": "function",
      "constant": true
    },
    {
      "inputs": [
        {
          "internalType": "address",
          "name": "",
          "type": "address"
        }
      ],
      "name": "divTracker",
      "outputs": [
        {
          "internalType": "uint256",
          "name": "_keyBalance",
          "type": "uint256"
        },
        {
          "internalType": "uint256",
          "name": "_totalDivPoolAtWithdraw",
          "type": "uint256"
        },
        {
          "internalType": "uint256",
          "name": "_divBalance",
          "type": "uint256"
        }
      ],
      "stateMutability": "view",
      "type": "function",
      "constant": true
    },
    {
      "inputs": [],
      "name": "jackpot",
      "outputs": [
        {
          "internalType": "uint256",
          "name": "",
          "type": "uint256"
        }
      ],
      "stateMutability": "view",
      "type": "function",
      "constant": true
    },
    {
      "inputs": [],
      "name": "keyPrice",
      "outputs": [
        {
          "internalType": "uint256",
          "name": "",
          "type": "uint256"
        }
      ],
      "stateMutability": "view",
      "type": "function",
      "constant": true
    },
    {
      "inputs": [],
      "name": "startTime",
      "outputs": [
        {
          "internalType": "uint256",
          "name": "",
          "type": "uint256"
        }
      ],
      "stateMutability": "view",
      "type": "function",
      "constant": true
    },
    {
      "inputs": [],
      "name": "timeLeft",
      "outputs": [
        {
          "internalType": "uint256",
          "name": "",
          "type": "uint256"
        }
      ],
      "stateMutability": "view",
      "type": "function",
      "constant": true
    },
    {
      "inputs": [],
      "name": "totalKeys",
      "outputs": [
        {
          "internalType": "uint256",
          "name": "",
          "type": "uint256"
        }
      ],
      "stateMutability": "view",
      "type": "function",
      "constant": true
    },
    {
      "inputs": [],
      "name": "totalTime",
      "outputs": [
        {
          "internalType": "uint256",
          "name": "",
          "type": "uint256"
        }
      ],
      "stateMutability": "view",
      "type": "function",
      "constant": true
    },
    {
      "inputs": [],
      "name": "receiveMoney",
      "outputs": [],
      "stateMutability": "payable",
      "type": "function",
      "payable": true
    },
    {
      "inputs": [],
      "name": "getBalance",
      "outputs": [
        {
          "internalType": "uint256",
          "name": "",
          "type": "uint256"
        }
      ],
      "stateMutability": "view",
      "type": "function",
      "constant": true
    },
    {
      "inputs": [],
      "name": "withdrawMoney",
      "outputs": [],
      "stateMutability": "nonpayable",
      "type": "function"
    },
    {
      "inputs": [
        {
          "internalType": "address payable",
          "name": "_to",
          "type": "address"
        }
      ],
      "name": "withdrawMoneyTo",
      "outputs": [],
      "stateMutability": "nonpayable",
      "type": "function"
    },
    {
      "inputs": [],
      "name": "getTimeLeft",
      "outputs": [
        {
          "internalType": "uint256",
          "name": "",
          "type": "uint256"
        }
      ],
      "stateMutability": "view",
      "type": "function",
      "constant": true
    },
    {
      "inputs": [
        {
          "internalType": "uint256",
          "name": "_amount",
          "type": "uint256"
        }
      ],
      "name": "purchaseKeys",
      "outputs": [],
      "stateMutability": "payable",
      "type": "function",
      "payable": true
    },
    {
      "inputs": [],
      "name": "getWinner",
      "outputs": [
        {
          "internalType": "address",
          "name": "",
          "type": "address"
        }
      ],
      "stateMutability": "view",
      "type": "function",
      "constant": true
    },
    {
      "inputs": [
        {
          "internalType": "address",
          "name": "_userAddress",
          "type": "address"
        }
      ],
      "name": "updateDivvies",
      "outputs": [
        {
          "internalType": "uint256",
          "name": "",
          "type": "uint256"
        }
      ],
      "stateMutability": "view",
      "type": "function",
      "constant": true
    },
    {
      "inputs": [],
      "name": "withdrawDivvies",
      "outputs": [],
      "stateMutability": "nonpayable",
      "type": "function"
    }
  ],
  "bytecode": "0x6080604052606460065534801561001557600080fd5b5033600360006101000a81548173ffffffffffffffffffffffffffffffffffffffff021916908373ffffffffffffffffffffffffffffffffffffffff160217905550610ff8806100666000396000f3fe6080604052600436106101095760003560e01c80636b31ee01116100955780637c2be5dd116100645780637c2be5dd1461030b5780638e7ea5b214610336578063ac44600214610361578063acf7084a14610378578063c7e284b8146103b557610109565b80636b31ee011461028f5780636d26ec18146102ba57806378c3171f146102c457806378e97925146102e057610109565b80631ebe585d116100dc5780631ebe585d146101b8578063488bdabc146101cf57806352a90c42146101fa57806355fcbbff1461022557806358533e0a1461026457610109565b80630ff8d8a51461010e57806310e569731461013757806312065fe0146101625780631300a6d11461018d575b600080fd5b34801561011a57600080fd5b5061013560048036038101906101309190610b88565b6103e0565b005b34801561014357600080fd5b5061014c610431565b6040516101599190610ca1565b60405180910390f35b34801561016e57600080fd5b50610177610437565b6040516101849190610ca1565b60405180910390f35b34801561019957600080fd5b506101a261043f565b6040516101af9190610ca1565b60405180910390f35b3480156101c457600080fd5b506101cd610445565b005b3480156101db57600080fd5b506101e4610623565b6040516101f19190610ca1565b60405180910390f35b34801561020657600080fd5b5061020f610629565b60405161021c9190610ca1565b60405180910390f35b34801561023157600080fd5b5061024c60048036038101906102479190610b5b565b61062f565b60405161025b93929190610cbc565b60405180910390f35b34801561027057600080fd5b50610279610659565b6040516102869190610ca1565b60405180910390f35b34801561029b57600080fd5b506102a461065f565b6040516102b19190610ca1565b60405180910390f35b6102c2610665565b005b6102de60048036038101906102d99190610bb5565b6106b7565b005b3480156102ec57600080fd5b506102f561093f565b6040516103029190610ca1565b60405180910390f35b34801561031757600080fd5b50610320610945565b60405161032d9190610ca1565b60405180910390f35b34801561034257600080fd5b5061034b61094b565b6040516103589190610c46565b60405180910390f35b34801561036d57600080fd5b50610376610975565b005b34801561038457600080fd5b5061039f600480360381019061039a9190610b5b565b610a02565b6040516103ac9190610ca1565b60405180910390f35b3480156103c157600080fd5b506103ca610ada565b6040516103d79190610ca1565b60405180910390f35b8073ffffffffffffffffffffffffffffffffffffffff166108fc610402610437565b9081150290604051600060405180830381858888f1935050505015801561042d573d6000803e3d6000fd5b5050565b60065481565b600047905090565b60025481565b60003390506000600a60003373ffffffffffffffffffffffffffffffffffffffff1673ffffffffffffffffffffffffffffffffffffffff1681526020019081526020016000206001015460085461049c9190610e46565b9050600081600a60003373ffffffffffffffffffffffffffffffffffffffff1673ffffffffffffffffffffffffffffffffffffffff168152602001908152602001600020600001546104ee9190610dec565b90506000600754826105009190610dbb565b90506000600a60003373ffffffffffffffffffffffffffffffffffffffff1673ffffffffffffffffffffffffffffffffffffffff16815260200190815260200160002060020181905550600854600a60003373ffffffffffffffffffffffffffffffffffffffff1673ffffffffffffffffffffffffffffffffffffffff16815260200190815260200160002060010181905550600081116105d6576040517f08c379a00000000000000000000000000000000000000000000000000000000081526004016105cd90610c81565b60405180910390fd5b8373ffffffffffffffffffffffffffffffffffffffff166108fc829081150290604051600060405180830381858888f1935050505015801561061c573d6000803e3d6000fd5b5050505050565b60075481565b60055481565b600a6020528060005260406000206000915090508060000154908060010154908060020154905083565b60015481565b60095481565b34600560008282546106779190610d65565b925050819055507ff17715ef19540cd5d39272c3efa67acccca56433dafd1671622021a4cfe6ca74476040516106ad9190610ca1565b60405180910390a1565b806006546106c59190610dec565b3414610706576040517f08c379a00000000000000000000000000000000000000000000000000000000081526004016106fd90610c61565b60405180910390fd5b6000600754141561071a57610719610b05565b5b6002346107279190610dbb565b600860008282546107389190610d65565b9250508190555060023461074c9190610dbb565b6009600082825461075d9190610d65565b9250508190555080600a60003373ffffffffffffffffffffffffffffffffffffffff1673ffffffffffffffffffffffffffffffffffffffff16815260200190815260200160002060000160008282546107b69190610d65565b9250508190555080600760008282546107cf9190610d65565b92505081905550426001546107e49190610e46565b620151806107f29190610e46565b601e826107ff9190610dec565b11156108125761080d610b05565b610838565b601e8161081f9190610dec565b600160008282546108309190610d65565b925050819055505b6101906006546108489190610d65565b60068190555033600460006101000a81548173ffffffffffffffffffffffffffffffffffffffff021916908373ffffffffffffffffffffffffffffffffffffffff1602179055507ff18df1d3dbefaeb22f0e4efe18d279a090ed7b0a9be1c27b33cda2f677ca67d4600a60003373ffffffffffffffffffffffffffffffffffffffff1673ffffffffffffffffffffffffffffffffffffffff16815260200190815260200160002060000154600754600654600854600954600460009054906101000a900473ffffffffffffffffffffffffffffffffffffffff1660405161093496959493929190610cf3565b60405180910390a150565b60005481565b60085481565b6000600460009054906101000a900473ffffffffffffffffffffffffffffffffffffffff16905090565b60003390508073ffffffffffffffffffffffffffffffffffffffff166108fc61099c610437565b9081150290604051600060405180830381858888f193505050501580156109c7573d6000803e3d6000fd5b507ff17715ef19540cd5d39272c3efa67acccca56433dafd1671622021a4cfe6ca74476040516109f79190610ca1565b60405180910390a150565b60008060008060006007541415610a1c5760009250610acf565b600a60008673ffffffffffffffffffffffffffffffffffffffff1673ffffffffffffffffffffffffffffffffffffffff16815260200190815260200160002060010154600854610a6c9190610e46565b915081600a60008773ffffffffffffffffffffffffffffffffffffffff1673ffffffffffffffffffffffffffffffffffffffff16815260200190815260200160002060000154610abc9190610dec565b905060075481610acc9190610dbb565b92505b829350505050919050565b6000806007541415610af157620151809050610b02565b42600154610aff9190610e46565b90505b90565b6201518042610b149190610d65565b600181905550565b600081359050610b2b81610f7d565b92915050565b600081359050610b4081610f94565b92915050565b600081359050610b5581610fab565b92915050565b600060208284031215610b7157610b70610f26565b5b6000610b7f84828501610b1c565b91505092915050565b600060208284031215610b9e57610b9d610f26565b5b6000610bac84828501610b31565b91505092915050565b600060208284031215610bcb57610bca610f26565b5b6000610bd984828501610b46565b91505092915050565b610beb81610e7a565b82525050565b6000610bfe601d83610d54565b9150610c0982610f2b565b602082019050919050565b6000610c21601c83610d54565b9150610c2c82610f54565b602082019050919050565b610c4081610ebe565b82525050565b6000602082019050610c5b6000830184610be2565b92915050565b60006020820190508181036000830152610c7a81610bf1565b9050919050565b60006020820190508181036000830152610c9a81610c14565b9050919050565b6000602082019050610cb66000830184610c37565b92915050565b6000606082019050610cd16000830186610c37565b610cde6020830185610c37565b610ceb6040830184610c37565b949350505050565b600060c082019050610d086000830189610c37565b610d156020830188610c37565b610d226040830187610c37565b610d2f6060830186610c37565b610d3c6080830185610c37565b610d4960a0830184610be2565b979650505050505050565b600082825260208201905092915050565b6000610d7082610ebe565b9150610d7b83610ebe565b9250827fffffffffffffffffffffffffffffffffffffffffffffffffffffffffffffffff03821115610db057610daf610ec8565b5b828201905092915050565b6000610dc682610ebe565b9150610dd183610ebe565b925082610de157610de0610ef7565b5b828204905092915050565b6000610df782610ebe565b9150610e0283610ebe565b9250817fffffffffffffffffffffffffffffffffffffffffffffffffffffffffffffffff0483118215151615610e3b57610e3a610ec8565b5b828202905092915050565b6000610e5182610ebe565b9150610e5c83610ebe565b925082821015610e6f57610e6e610ec8565b5b828203905092915050565b6000610e8582610e9e565b9050919050565b6000610e9782610e9e565b9050919050565b600073ffffffffffffffffffffffffffffffffffffffff82169050919050565b6000819050919050565b7f4e487b7100000000000000000000000000000000000000000000000000000000600052601160045260246000fd5b7f4e487b7100000000000000000000000000000000000000000000000000000000600052601260045260246000fd5b600080fd5b7f6e6f7420656e6f75676820746f2062757920746865206b65792873292e000000600082015250565b7f596f752068617665206e6f206469767669657320746f20636c61696d00000000600082015250565b610f8681610e7a565b8114610f9157600080fd5b50565b610f9d81610e8c565b8114610fa857600080fd5b50565b610fb481610ebe565b8114610fbf57600080fd5b5056fea2646970667358221220656dc8c3be1ffcf2d588af4dfab950a64979a44947fdcd6cd0d123502637223a64736f6c63430008050033",
  "immutableReferences": {},
  "source": "//SPDX-License-Identifier: MIT\n\npragma solidity ^0.8.4;\n\ncontract FomoOE {\n    uint public startTime;\n    uint public totalTime;\n    uint public timeLeft;\n    address owner;\n    address winner;\n    uint public balanceReceived;\n    uint public keyPrice = 100 wei;\n    uint public totalKeys;\n    uint public divPool;\n    uint public jackpot;\n\n    struct Divvies {\n        uint _keyBalance;\n        uint _totalDivPoolAtWithdraw;\n        uint _divBalance;\n    }\n\n    mapping(address => Divvies) public divTracker;\n    event keysPurchased(uint _userKeyBalance, uint _totalKeys, uint _keyPrice, uint _divPool, uint _jackpot, address _winner);\n    event userDivvies(uint _userDivvies);\n    event contractBalance(uint _balanceReceived);\n    event currentKeyPrice(uint keyPrice);\n    \n    constructor() {\n        owner = msg.sender;\n        \n    }\n    function letTheGamesBegin() private {\n        totalTime = block.timestamp + 86400;\n    }\n\n    function receiveMoney() public payable {\n        balanceReceived += msg.value;\n        emit contractBalance(address(this).balance);\n    }\n    function getBalance() public view returns(uint) {\n        return address(this).balance;\n    }\n    function withdrawMoney() public {\n        address payable to = payable(msg.sender);\n        to.transfer(getBalance());\n        emit contractBalance(address(this).balance);\n    }\n    function withdrawMoneyTo(address payable _to) public {\n        _to.transfer(getBalance());\n    }\n    function getTimeLeft() public view returns(uint) {\n        if (totalKeys == 0) {\n            return 86400;\n        }\n        return totalTime - block.timestamp;\n    }\n\n    function purchaseKeys(uint _amount) public payable {\n        require(msg.value == keyPrice*_amount, \"not enough to buy the key(s).\");\n        if (totalKeys == 0) {\n            letTheGamesBegin();\n        }\n        // keyBalance[msg.sender] += _amount;\n        // TODO: ADDRESS ROUNDING ISSUE\n        divPool += msg.value/2;\n        jackpot += msg.value/2;\n        divTracker[msg.sender]._keyBalance += _amount;\n        totalKeys += _amount;\n        if (_amount*30 > 86400 - (totalTime-block.timestamp)) {\n            // totalTime = 86400 + block.timestamp;\n            letTheGamesBegin();\n        } else {\n            totalTime += _amount*30;\n        }\n        // // FIX THIS: update a user's withdrawable divvies after they purchase keys\n        // uint userDivPool = divPool - divTracker[msg.sender]._totalDivPoolAtWithdraw;\n        // uint numerator = divTracker[msg.sender]._keyBalance * userDivPool;\n        // divTracker[msg.sender]._divBalance = numerator/totalKeys;\n        // // FIX THIS: update a user's withdrawable divvies after they purchase keys\n        keyPrice = keyPrice + 400;\n        winner = msg.sender;\n        emit keysPurchased(divTracker[msg.sender]._keyBalance, totalKeys, keyPrice, divPool, jackpot, winner);   \n    } \n    function getWinner() public view returns(address) {\n        return winner;\n    }\n    function updateDivvies(address _userAddress) public view returns(uint) {\n        uint tempUserDivBalance;\n        uint tempUserDivPool;\n        uint tempNumerator;\n        if (totalKeys == 0 ) {\n            tempUserDivBalance = 0;\n        } else {\n            // the pool a user's dividend is entitled to since last dividend withdraw.\n            tempUserDivPool = divPool - divTracker[_userAddress]._totalDivPoolAtWithdraw;\n            tempNumerator = divTracker[_userAddress]._keyBalance * tempUserDivPool;\n            tempUserDivBalance = tempNumerator/totalKeys;\n            // can update a users div balance, but it'll cost gas\n            // divTracker[msg.sender]._divBalance = _divBalance;\n            // emit keysPurchased(divTracker[msg.sender]._keyBalance, totalKeys, keyPrice, divPool, jackpot);\n            // emit userDivvies(_divBalance);\n        }  \n        return tempUserDivBalance;\n    }\n\n    function withdrawDivvies() public {\n        address payable to = payable(msg.sender);\n        uint userDivPool = divPool - divTracker[msg.sender]._totalDivPoolAtWithdraw;\n        uint numerator = divTracker[msg.sender]._keyBalance * userDivPool;\n        uint _divBalance = numerator/totalKeys;\n        divTracker[msg.sender]._divBalance = 0;\n        divTracker[msg.sender]._totalDivPoolAtWithdraw = divPool;\n        require(_divBalance > 0, \"You have no divvies to claim\");\n        to.transfer(_divBalance);\n    }\n\n}",
  "sourcePath": "/Volumes/Projects2/rugpull/contracts/FomoOE.sol",
  "compiler": {
    "name": "solc",
    "version": "0.8.5+commit.a4f2e591.Emscripten.clang"
  },
  "schemaVersion": "3.4.2",
  "updatedAt": "2021-08-26T20:35:21.277Z",
  "networkType": "ethereum",
  "devdoc": {
    "kind": "dev",
    "methods": {},
    "version": 1
  },
  "userdoc": {
    "kind": "user",
    "methods": {},
    "version": 1
  }
}