{
  "contractName": "FomoOE",
  "abi": [
    {
      "anonymous": false,
      "inputs": [
        {
          "indexed": false,
          "internalType": "uint256",
          "name": "_balanceReceived",
          "type": "uint256"
        }
      ],
      "name": "contractBalance",
      "type": "event"
    },
    {
      "anonymous": false,
      "inputs": [
        {
          "indexed": false,
          "internalType": "uint256",
          "name": "keyPrice",
          "type": "uint256"
        }
      ],
      "name": "currentKeyPrice",
      "type": "event"
    },
    {
      "anonymous": false,
      "inputs": [
        {
          "indexed": false,
          "internalType": "uint256",
          "name": "_userKeyBalance",
          "type": "uint256"
        },
        {
          "indexed": false,
          "internalType": "uint256",
          "name": "_totalKeys",
          "type": "uint256"
        },
        {
          "indexed": false,
          "internalType": "uint256",
          "name": "_keyPrice",
          "type": "uint256"
        },
        {
          "indexed": false,
          "internalType": "uint256",
          "name": "_divPool",
          "type": "uint256"
        },
        {
          "indexed": false,
          "internalType": "uint256",
          "name": "_jackpot",
          "type": "uint256"
        },
        {
          "indexed": false,
          "internalType": "address",
          "name": "_winning",
          "type": "address"
        }
      ],
      "name": "keysPurchased",
      "type": "event"
    },
    {
      "anonymous": false,
      "inputs": [
        {
          "indexed": false,
          "internalType": "uint256",
          "name": "_userDivvies",
          "type": "uint256"
        }
      ],
      "name": "userDivvies",
      "type": "event"
    },
    {
      "inputs": [],
      "name": "balanceReceived",
      "outputs": [
        {
          "internalType": "uint256",
          "name": "",
          "type": "uint256"
        }
      ],
      "stateMutability": "view",
      "type": "function",
      "constant": true
    },
    {
      "inputs": [],
      "name": "divPool",
      "outputs": [
        {
          "internalType": "uint256",
          "name": "",
          "type": "uint256"
        }
      ],
      "stateMutability": "view",
      "type": "function",
      "constant": true
    },
    {
      "inputs": [
        {
          "internalType": "address",
          "name": "",
          "type": "address"
        }
      ],
      "name": "divTracker",
      "outputs": [
        {
          "internalType": "uint256",
          "name": "_keyBalance",
          "type": "uint256"
        },
        {
          "internalType": "uint256",
          "name": "_divBalance",
          "type": "uint256"
        },
        {
          "internalType": "uint256",
          "name": "_withdrawnAmount",
          "type": "uint256"
        }
      ],
      "stateMutability": "view",
      "type": "function",
      "constant": true
    },
    {
      "inputs": [],
      "name": "jackpot",
      "outputs": [
        {
          "internalType": "uint256",
          "name": "",
          "type": "uint256"
        }
      ],
      "stateMutability": "view",
      "type": "function",
      "constant": true
    },
    {
      "inputs": [],
      "name": "keyPrice",
      "outputs": [
        {
          "internalType": "uint256",
          "name": "",
          "type": "uint256"
        }
      ],
      "stateMutability": "view",
      "type": "function",
      "constant": true
    },
    {
      "inputs": [],
      "name": "startTime",
      "outputs": [
        {
          "internalType": "uint256",
          "name": "",
          "type": "uint256"
        }
      ],
      "stateMutability": "view",
      "type": "function",
      "constant": true
    },
    {
      "inputs": [],
      "name": "timeLeft",
      "outputs": [
        {
          "internalType": "uint256",
          "name": "",
          "type": "uint256"
        }
      ],
      "stateMutability": "view",
      "type": "function",
      "constant": true
    },
    {
      "inputs": [],
      "name": "totalKeys",
      "outputs": [
        {
          "internalType": "uint256",
          "name": "",
          "type": "uint256"
        }
      ],
      "stateMutability": "view",
      "type": "function",
      "constant": true
    },
    {
      "inputs": [],
      "name": "totalTime",
      "outputs": [
        {
          "internalType": "uint256",
          "name": "",
          "type": "uint256"
        }
      ],
      "stateMutability": "view",
      "type": "function",
      "constant": true
    },
    {
      "inputs": [],
      "name": "getTimeLeft",
      "outputs": [
        {
          "internalType": "uint256",
          "name": "",
          "type": "uint256"
        }
      ],
      "stateMutability": "view",
      "type": "function",
      "constant": true
    },
    {
      "inputs": [
        {
          "internalType": "uint256",
          "name": "_amount",
          "type": "uint256"
        }
      ],
      "name": "purchaseKeys",
      "outputs": [],
      "stateMutability": "payable",
      "type": "function",
      "payable": true
    },
    {
      "inputs": [],
      "name": "getWinner",
      "outputs": [
        {
          "internalType": "address",
          "name": "",
          "type": "address"
        }
      ],
      "stateMutability": "view",
      "type": "function",
      "constant": true
    },
    {
      "inputs": [
        {
          "internalType": "address",
          "name": "_userAddress",
          "type": "address"
        }
      ],
      "name": "updateDivvies",
      "outputs": [
        {
          "internalType": "uint256",
          "name": "",
          "type": "uint256"
        }
      ],
      "stateMutability": "view",
      "type": "function",
      "constant": true
    },
    {
      "inputs": [],
      "name": "withdrawDivvies",
      "outputs": [],
      "stateMutability": "nonpayable",
      "type": "function"
    },
    {
      "inputs": [],
      "name": "jackpotPayout",
      "outputs": [],
      "stateMutability": "nonpayable",
      "type": "function"
    },
    {
      "inputs": [
        {
          "internalType": "address",
          "name": "_userAddress",
          "type": "address"
        }
      ],
      "name": "whoWon",
      "outputs": [
        {
          "internalType": "address",
          "name": "winner",
          "type": "address"
        }
      ],
      "stateMutability": "view",
      "type": "function",
      "constant": true
    }
  ],
  "bytecode": "0x608060405265030fdcf882aa60055534801561001a57600080fd5b506109b38061002a6000396000f3fe6080604052600436106100f35760003560e01c80636b31ee011161008a5780638e7ea5b2116100595780638e7ea5b214610274578063acf7084a14610292578063c7e284b8146102b2578063d20bff02146102c757600080fd5b80636b31ee011461021f57806378c3171f1461023557806378e97925146102485780637c2be5dd1461025e57600080fd5b8063488bdabc116100c6578063488bdabc1461018657806352a90c421461019c57806355fcbbff146101b257806358533e0a1461020957600080fd5b80630d153c92146100f857806310e56973146101355780631300a6d1146101595780631ebe585d1461016f575b600080fd5b34801561010457600080fd5b506101186101133660046108ae565b6102dc565b6040516001600160a01b0390911681526020015b60405180910390f35b34801561014157600080fd5b5061014b60055481565b60405190815260200161012c565b34801561016557600080fd5b5061014b60025481565b34801561017b57600080fd5b5061018461030e565b005b34801561019257600080fd5b5061014b60065481565b3480156101a857600080fd5b5061014b60045481565b3480156101be57600080fd5b506101ee6101cd3660046108ae565b60096020526000908152604090208054600182015460029092015490919083565b6040805193845260208401929092529082015260600161012c565b34801561021557600080fd5b5061014b60015481565b34801561022b57600080fd5b5061014b60085481565b6101846102433660046108de565b61042e565b34801561025457600080fd5b5061014b60005481565b34801561026a57600080fd5b5061014b60075481565b34801561028057600080fd5b506003546001600160a01b0316610118565b34801561029e57600080fd5b5061014b6102ad3660046108ae565b6106a0565b3480156102be57600080fd5b5061014b610720565b3480156102d357600080fd5b50610184610757565b60006102e6610720565b15801561030057506003546001600160a01b038381169116145b15610309575090565b919050565b60065433906000908190610325576000915061039d565b600754336000908152600960205260409020546103429190610931565b3360009081526009602052604090206002015460065491925090610366908361090f565b6103709190610950565b336000908152600960205260408120600201805492945084929091906103979084906108f7565b90915550505b600082116103f25760405162461bcd60e51b815260206004820152601c60248201527f596f752068617665206e6f206469767669657320746f20636c61696d0000000060448201526064015b60405180910390fd5b6040516001600160a01b0384169083156108fc029084906000818181858888f19350505050158015610428573d6000803e3d6000fd5b50505050565b8060055461043c9190610931565b341461048a5760405162461bcd60e51b815260206004820152601d60248201527f6e6f7420656e6f75676820746f2062757920746865206b65792873292e00000060448201526064016103e9565b6006546104995761049961089e565b60006104a3610720565b116104f05760405162461bcd60e51b815260206004820152601960248201527f746865726520697320616c726561647920612077696e6e65720000000000000060448201526064016103e9565b60006104fd60023461090f565b9050806008600082825461051191906108f7565b9091555061052190508134610950565b6007600082825461053291906108f7565b909155505033600090815260096020526040812080548492906105569084906108f7565b92505081905550816006600082825461056f91906108f7565b9091555050600154610582904290610950565b61058f9062015180610950565b61059a83601e610931565b11156105ad576105a861089e565b6105cf565b6105b882601e610931565b600160008282546105c991906108f7565b90915550505b600060055460646105e09190610931565b90506105ee6127108261090f565b6005546105fb91906108f7565b6005819055600380547fffffffffffffffffffffffff0000000000000000000000000000000000000000163390811790915560008181526009602090815260409182902054600654600754600854855193845293830191909152928101949094526060840191909152608083015260a08201527ff18df1d3dbefaeb22f0e4efe18d279a090ed7b0a9be1c27b33cda2f677ca67d49060c00160405180910390a1505050565b6000806000600654600014156106b95760009150610719565b6007546001600160a01b0385166000908152600960205260409020546106df9190610931565b6001600160a01b0385166000908152600960205260409020600201546006549192509061070c908361090f565b6107169190610950565b91505b5092915050565b60006006546000141561073557506201518090565b4260015410610751574260015461074c9190610950565b905090565b50600090565b61075f610720565b156107ac5760405162461bcd60e51b815260206004820152601560248201527f67616d65206973207374696c6c20696e20706c6179000000000000000000000060448201526064016103e9565b6000600854116107fe5760405162461bcd60e51b815260206004820152601360248201527f4e6f206d6f6e657920696e206a61636b706f740000000000000000000000000060448201526064016103e9565b6003546001600160a01b031633146108585760405162461bcd60e51b815260206004820152601660248201527f796f7520617265206e6f74207468652077696e6e65720000000000000000000060448201526064016103e9565b6003546008546040516001600160a01b0390921691829180156108fc02916000818181858888f19350505050158015610895573d6000803e3d6000fd5b50506000600855565b6108a942603c6108f7565b600155565b6000602082840312156108c057600080fd5b81356001600160a01b03811681146108d757600080fd5b9392505050565b6000602082840312156108f057600080fd5b5035919050565b6000821982111561090a5761090a610967565b500190565b60008261092c57634e487b7160e01b600052601260045260246000fd5b500490565b600081600019048311821515161561094b5761094b610967565b500290565b60008282101561096257610962610967565b500390565b634e487b7160e01b600052601160045260246000fdfea264697066735822122070fad6db7fd70d1fb575a812d6d8e75f8070cb91bd4a6656fc4d479377b4ee2164736f6c63430008050033",
  "immutableReferences": {},
  "source": "//SPDX-License-Identifier: MIT\n\npragma solidity ^0.8.4;\n\ncontract FomoOE {\n\n    uint public startTime;\n    uint public totalTime;\n    uint public timeLeft;\n    address winning;\n    uint public balanceReceived;\n    // uint public keyPrice = 100 wei;\n    // // Uncomment when testing is complete\n    uint public keyPrice = 3366666666666 wei;\n    // // Uncomment when testing is complete\n    uint public totalKeys;\n    uint public divPool;\n    uint public jackpot;\n\n    struct Divvies {\n        uint _keyBalance;\n        uint _divBalance;\n        uint _withdrawnAmount;\n    }\n\n    mapping(address => Divvies) public divTracker;\n    event keysPurchased(uint _userKeyBalance, uint _totalKeys, uint _keyPrice, uint _divPool, uint _jackpot, address _winning);\n    event userDivvies(uint _userDivvies);\n    event contractBalance(uint _balanceReceived);\n    event currentKeyPrice(uint keyPrice);\n    \n    // function restartGame() public {\n    //     require(getTimeLeft() == 0, \"game is still in play\");\n    //     require(msg.sender == winning, \"you are not the winner\");\n    //     letTheGamesBegin();\n    // }\n    function letTheGamesBegin() private {\n        // // Uncomment when testing is complete\n        // totalTime = block.timestamp + 86400;\n        // // Uncomment when testing is complete\n        totalTime = block.timestamp + 60;\n    }\n    function getTimeLeft() public view returns(uint) {\n        if (totalKeys == 0) {\n            return 86400;\n        }\n        if (totalTime >= block.timestamp) {\n            return totalTime - block.timestamp;\n        } else {\n            return 0;\n        }\n    }\n    function purchaseKeys(uint _amount) public payable {\n        require(msg.value == keyPrice*_amount, \"not enough to buy the key(s).\");\n        if (totalKeys == 0) {\n            letTheGamesBegin();\n        }\n        require(getTimeLeft() > 0, \"there is already a winner\");\n        uint floor = msg.value/2;\n        jackpot += floor;\n        divPool += msg.value - floor; \n        divTracker[msg.sender]._keyBalance += _amount;\n        totalKeys += _amount;\n        if (_amount*30 > 86400 - (totalTime-block.timestamp)) {\n            // totalTime = 86400 + block.timestamp;\n            letTheGamesBegin();\n        } else {\n            totalTime += _amount*30;\n        }\n        // // Uncomment when testing is complete\n        uint numerator = keyPrice*100;\n        keyPrice = keyPrice + numerator/10000;\n        // // Uncomment when testing is complete\n\n        // keyPrice = keyPrice + 400;\n        winning = msg.sender;\n        emit keysPurchased(divTracker[msg.sender]._keyBalance, totalKeys, keyPrice, divPool, jackpot, winning);   \n    } \n    function getWinner() public view returns(address) {\n        return winning;\n    }\n    \n    function updateDivvies(address _userAddress) public view returns(uint) {\n        uint tempUserWithdrawAmount;\n        uint tempNumerator;\n        if (totalKeys == 0 ) {\n            tempUserWithdrawAmount = 0;\n        } else {\n            // example to reference, but solidity can't do decimals\n            // // tempUserKeyProportion = divTracker[_userAddress]._keyBalance/totalKeys;\n            // // tempUserWithdrawAmount = tempUserKeyProportion*divPool - divTracker[_userAddress]._withdrawnAmount;\n\n            tempNumerator = divTracker[_userAddress]._keyBalance * divPool;\n            tempUserWithdrawAmount = tempNumerator/totalKeys - divTracker[_userAddress]._withdrawnAmount;  \n        }  \n        return tempUserWithdrawAmount;\n    }\n    \n    function withdrawDivvies() public {\n        address payable to = payable(msg.sender);\n        uint tempUserWithdrawAmount;\n        uint tempNumerator;\n        if (totalKeys == 0 ) {\n            tempUserWithdrawAmount = 0;\n        } else {\n            // example to reference, but solidity can't do decimals\n            // // tempUserKeyProportion = divTracker[_userAddress]._keyBalance/totalKeys;\n            // // tempUserWithdrawAmount = tempUserKeyProportion*divPool - divTracker[_userAddress]._withdrawnAmount;\n\n            tempNumerator = divTracker[msg.sender]._keyBalance * divPool;\n            tempUserWithdrawAmount = tempNumerator/totalKeys - divTracker[msg.sender]._withdrawnAmount;\n            divTracker[msg.sender]._withdrawnAmount += tempUserWithdrawAmount;\n        }  \n        require(tempUserWithdrawAmount > 0, \"You have no divvies to claim\");\n        to.transfer(tempUserWithdrawAmount);\n    }\n\n    function jackpotPayout() public {\n        require(getTimeLeft() == 0, \"game is still in play\");\n        require(jackpot > 0, \"No money in jackpot\");\n        require(msg.sender == winning, \"you are not the winner\");\n        address payable to = payable(winning);\n        to.transfer(jackpot);\n        jackpot = 0;\n    }\n\n    function whoWon(address _userAddress) public view returns(address winner){\n        if (getTimeLeft() == 0 && _userAddress == winning) {\n            winner = _userAddress;\n            return winner;\n        }\n    }\n\n}\n\n\n\n",
  "sourcePath": "/home/austin/code/dapps/rugpull/contracts/arbitrum/FomoOE.sol",
  "compiler": {
    "name": "solc",
    "version": "0.8.5+commit.a4f2e591.Emscripten.clang"
  },
  "schemaVersion": "3.4.3",
  "updatedAt": "2021-09-24T21:51:16.409Z",
  "networkType": "ethereum",
  "devdoc": {
    "kind": "dev",
    "methods": {},
    "version": 1
  },
  "userdoc": {
    "kind": "user",
    "methods": {},
    "version": 1
  }
}